{
	"contracts/AssetManagement.sol": {
		"AssetManagementPlatform": {
			"abi": [
				{
					"inputs": [],
					"stateMutability": "nonpayable",
					"type": "constructor"
				},
				{
					"anonymous": false,
					"inputs": [
						{
							"indexed": true,
							"internalType": "address",
							"name": "user",
							"type": "address"
						},
						{
							"indexed": true,
							"internalType": "address",
							"name": "token",
							"type": "address"
						},
						{
							"indexed": false,
							"internalType": "uint256",
							"name": "amount",
							"type": "uint256"
						},
						{
							"indexed": false,
							"internalType": "uint256",
							"name": "timestamp",
							"type": "uint256"
						}
					],
					"name": "Deposit",
					"type": "event"
				},
				{
					"anonymous": false,
					"inputs": [
						{
							"indexed": true,
							"internalType": "address",
							"name": "token",
							"type": "address"
						},
						{
							"indexed": false,
							"internalType": "bool",
							"name": "supported",
							"type": "bool"
						}
					],
					"name": "TokenSupported",
					"type": "event"
				},
				{
					"anonymous": false,
					"inputs": [
						{
							"indexed": true,
							"internalType": "address",
							"name": "user",
							"type": "address"
						},
						{
							"indexed": false,
							"internalType": "uint256",
							"name": "timestamp",
							"type": "uint256"
						}
					],
					"name": "UserLoggedIn",
					"type": "event"
				},
				{
					"anonymous": false,
					"inputs": [
						{
							"indexed": true,
							"internalType": "address",
							"name": "user",
							"type": "address"
						},
						{
							"indexed": false,
							"internalType": "uint256",
							"name": "timestamp",
							"type": "uint256"
						}
					],
					"name": "UserLoggedOut",
					"type": "event"
				},
				{
					"anonymous": false,
					"inputs": [
						{
							"indexed": true,
							"internalType": "address",
							"name": "user",
							"type": "address"
						},
						{
							"indexed": false,
							"internalType": "string",
							"name": "username",
							"type": "string"
						},
						{
							"indexed": false,
							"internalType": "uint256",
							"name": "timestamp",
							"type": "uint256"
						}
					],
					"name": "UserRegistered",
					"type": "event"
				},
				{
					"anonymous": false,
					"inputs": [
						{
							"indexed": true,
							"internalType": "address",
							"name": "user",
							"type": "address"
						},
						{
							"indexed": true,
							"internalType": "address",
							"name": "token",
							"type": "address"
						},
						{
							"indexed": false,
							"internalType": "uint256",
							"name": "amount",
							"type": "uint256"
						},
						{
							"indexed": false,
							"internalType": "uint256",
							"name": "timestamp",
							"type": "uint256"
						}
					],
					"name": "Withdraw",
					"type": "event"
				},
				{
					"inputs": [
						{
							"internalType": "address",
							"name": "_token",
							"type": "address"
						}
					],
					"name": "addSupportedToken",
					"outputs": [],
					"stateMutability": "nonpayable",
					"type": "function"
				},
				{
					"inputs": [
						{
							"internalType": "address",
							"name": "_user",
							"type": "address"
						},
						{
							"internalType": "address",
							"name": "_token",
							"type": "address"
						}
					],
					"name": "calculateProfitability",
					"outputs": [
						{
							"internalType": "int256",
							"name": "",
							"type": "int256"
						}
					],
					"stateMutability": "view",
					"type": "function"
				},
				{
					"inputs": [
						{
							"internalType": "address",
							"name": "_token",
							"type": "address"
						}
					],
					"name": "checkAllowance",
					"outputs": [
						{
							"internalType": "uint256",
							"name": "",
							"type": "uint256"
						}
					],
					"stateMutability": "view",
					"type": "function"
				},
				{
					"inputs": [
						{
							"internalType": "address",
							"name": "_token",
							"type": "address"
						}
					],
					"name": "checkContractTokenBalance",
					"outputs": [
						{
							"internalType": "uint256",
							"name": "",
							"type": "uint256"
						}
					],
					"stateMutability": "view",
					"type": "function"
				},
				{
					"inputs": [
						{
							"internalType": "address",
							"name": "_token",
							"type": "address"
						}
					],
					"name": "checkTokenBalance",
					"outputs": [
						{
							"internalType": "uint256",
							"name": "",
							"type": "uint256"
						}
					],
					"stateMutability": "view",
					"type": "function"
				},
				{
					"inputs": [
						{
							"internalType": "address",
							"name": "_token",
							"type": "address"
						},
						{
							"internalType": "uint256",
							"name": "_amount",
							"type": "uint256"
						}
					],
					"name": "deposit",
					"outputs": [],
					"stateMutability": "nonpayable",
					"type": "function"
				},
				{
					"inputs": [
						{
							"internalType": "address",
							"name": "_user",
							"type": "address"
						}
					],
					"name": "getPortfolioValue",
					"outputs": [
						{
							"internalType": "uint256",
							"name": "",
							"type": "uint256"
						}
					],
					"stateMutability": "view",
					"type": "function"
				},
				{
					"inputs": [],
					"name": "getSupportedTokens",
					"outputs": [
						{
							"internalType": "address[]",
							"name": "",
							"type": "address[]"
						}
					],
					"stateMutability": "view",
					"type": "function"
				},
				{
					"inputs": [
						{
							"internalType": "address",
							"name": "_user",
							"type": "address"
						},
						{
							"internalType": "address",
							"name": "_token",
							"type": "address"
						}
					],
					"name": "getTokenBalance",
					"outputs": [
						{
							"internalType": "uint256",
							"name": "",
							"type": "uint256"
						}
					],
					"stateMutability": "view",
					"type": "function"
				},
				{
					"inputs": [
						{
							"internalType": "address",
							"name": "_user",
							"type": "address"
						}
					],
					"name": "getUserInfo",
					"outputs": [
						{
							"components": [
								{
									"internalType": "string",
									"name": "username",
									"type": "string"
								},
								{
									"internalType": "string",
									"name": "passwordHash",
									"type": "string"
								},
								{
									"internalType": "bool",
									"name": "isRegistered",
									"type": "bool"
								},
								{
									"internalType": "uint256",
									"name": "registrationDate",
									"type": "uint256"
								},
								{
									"internalType": "uint256",
									"name": "lastLogin",
									"type": "uint256"
								}
							],
							"internalType": "struct AssetManagementPlatform.User",
							"name": "",
							"type": "tuple"
						}
					],
					"stateMutability": "view",
					"type": "function"
				},
				{
					"inputs": [
						{
							"internalType": "address",
							"name": "_user",
							"type": "address"
						}
					],
					"name": "getUserTokens",
					"outputs": [
						{
							"internalType": "address[]",
							"name": "",
							"type": "address[]"
						}
					],
					"stateMutability": "view",
					"type": "function"
				},
				{
					"inputs": [
						{
							"internalType": "address",
							"name": "_user",
							"type": "address"
						},
						{
							"internalType": "uint256",
							"name": "_limit",
							"type": "uint256"
						}
					],
					"name": "getUserTransactions",
					"outputs": [
						{
							"components": [
								{
									"internalType": "address",
									"name": "user",
									"type": "address"
								},
								{
									"internalType": "address",
									"name": "token",
									"type": "address"
								},
								{
									"internalType": "uint256",
									"name": "amount",
									"type": "uint256"
								},
								{
									"internalType": "bool",
									"name": "isDeposit",
									"type": "bool"
								},
								{
									"internalType": "uint256",
									"name": "timestamp",
									"type": "uint256"
								}
							],
							"internalType": "struct AssetManagementPlatform.Transaction[]",
							"name": "",
							"type": "tuple[]"
						}
					],
					"stateMutability": "view",
					"type": "function"
				},
				{
					"inputs": [
						{
							"internalType": "string",
							"name": "_password",
							"type": "string"
						}
					],
					"name": "hashPassword",
					"outputs": [
						{
							"internalType": "bytes32",
							"name": "",
							"type": "bytes32"
						}
					],
					"stateMutability": "pure",
					"type": "function"
				},
				{
					"inputs": [
						{
							"internalType": "address",
							"name": "_user",
							"type": "address"
						}
					],
					"name": "isLoggedIn",
					"outputs": [
						{
							"internalType": "bool",
							"name": "",
							"type": "bool"
						}
					],
					"stateMutability": "view",
					"type": "function"
				},
				{
					"inputs": [
						{
							"internalType": "address",
							"name": "",
							"type": "address"
						}
					],
					"name": "isTokenSupported",
					"outputs": [
						{
							"internalType": "bool",
							"name": "",
							"type": "bool"
						}
					],
					"stateMutability": "view",
					"type": "function"
				},
				{
					"inputs": [
						{
							"internalType": "address",
							"name": "",
							"type": "address"
						}
					],
					"name": "isUserActive",
					"outputs": [
						{
							"internalType": "bool",
							"name": "",
							"type": "bool"
						}
					],
					"stateMutability": "view",
					"type": "function"
				},
				{
					"inputs": [
						{
							"internalType": "address",
							"name": "_user",
							"type": "address"
						}
					],
					"name": "isUserRegistered",
					"outputs": [
						{
							"internalType": "bool",
							"name": "",
							"type": "bool"
						}
					],
					"stateMutability": "view",
					"type": "function"
				},
				{
					"inputs": [
						{
							"internalType": "string",
							"name": "_password",
							"type": "string"
						}
					],
					"name": "login",
					"outputs": [
						{
							"internalType": "bool",
							"name": "",
							"type": "bool"
						}
					],
					"stateMutability": "nonpayable",
					"type": "function"
				},
				{
					"inputs": [],
					"name": "logout",
					"outputs": [],
					"stateMutability": "nonpayable",
					"type": "function"
				},
				{
					"inputs": [],
					"name": "owner",
					"outputs": [
						{
							"internalType": "address",
							"name": "",
							"type": "address"
						}
					],
					"stateMutability": "view",
					"type": "function"
				},
				{
					"inputs": [
						{
							"internalType": "string",
							"name": "_username",
							"type": "string"
						},
						{
							"internalType": "string",
							"name": "_password",
							"type": "string"
						}
					],
					"name": "register",
					"outputs": [],
					"stateMutability": "nonpayable",
					"type": "function"
				},
				{
					"inputs": [
						{
							"internalType": "address",
							"name": "_token",
							"type": "address"
						}
					],
					"name": "removeSupportedToken",
					"outputs": [],
					"stateMutability": "nonpayable",
					"type": "function"
				},
				{
					"inputs": [
						{
							"internalType": "uint256",
							"name": "",
							"type": "uint256"
						}
					],
					"name": "supportedTokens",
					"outputs": [
						{
							"internalType": "address",
							"name": "",
							"type": "address"
						}
					],
					"stateMutability": "view",
					"type": "function"
				},
				{
					"inputs": [],
					"name": "transactionCount",
					"outputs": [
						{
							"internalType": "uint256",
							"name": "",
							"type": "uint256"
						}
					],
					"stateMutability": "view",
					"type": "function"
				},
				{
					"inputs": [
						{
							"internalType": "uint256",
							"name": "",
							"type": "uint256"
						}
					],
					"name": "transactions",
					"outputs": [
						{
							"internalType": "address",
							"name": "user",
							"type": "address"
						},
						{
							"internalType": "address",
							"name": "token",
							"type": "address"
						},
						{
							"internalType": "uint256",
							"name": "amount",
							"type": "uint256"
						},
						{
							"internalType": "bool",
							"name": "isDeposit",
							"type": "bool"
						},
						{
							"internalType": "uint256",
							"name": "timestamp",
							"type": "uint256"
						}
					],
					"stateMutability": "view",
					"type": "function"
				},
				{
					"inputs": [
						{
							"internalType": "address",
							"name": "",
							"type": "address"
						},
						{
							"internalType": "address",
							"name": "",
							"type": "address"
						}
					],
					"name": "userInitialInvestments",
					"outputs": [
						{
							"internalType": "uint256",
							"name": "",
							"type": "uint256"
						}
					],
					"stateMutability": "view",
					"type": "function"
				},
				{
					"inputs": [
						{
							"internalType": "address",
							"name": "",
							"type": "address"
						},
						{
							"internalType": "address",
							"name": "",
							"type": "address"
						}
					],
					"name": "userTokenBalances",
					"outputs": [
						{
							"internalType": "uint256",
							"name": "",
							"type": "uint256"
						}
					],
					"stateMutability": "view",
					"type": "function"
				},
				{
					"inputs": [
						{
							"internalType": "address",
							"name": "",
							"type": "address"
						},
						{
							"internalType": "uint256",
							"name": "",
							"type": "uint256"
						}
					],
					"name": "userTokens",
					"outputs": [
						{
							"internalType": "address",
							"name": "",
							"type": "address"
						}
					],
					"stateMutability": "view",
					"type": "function"
				},
				{
					"inputs": [
						{
							"internalType": "string",
							"name": "",
							"type": "string"
						}
					],
					"name": "usernameTaken",
					"outputs": [
						{
							"internalType": "bool",
							"name": "",
							"type": "bool"
						}
					],
					"stateMutability": "view",
					"type": "function"
				},
				{
					"inputs": [
						{
							"internalType": "address",
							"name": "",
							"type": "address"
						}
					],
					"name": "users",
					"outputs": [
						{
							"internalType": "string",
							"name": "username",
							"type": "string"
						},
						{
							"internalType": "string",
							"name": "passwordHash",
							"type": "string"
						},
						{
							"internalType": "bool",
							"name": "isRegistered",
							"type": "bool"
						},
						{
							"internalType": "uint256",
							"name": "registrationDate",
							"type": "uint256"
						},
						{
							"internalType": "uint256",
							"name": "lastLogin",
							"type": "uint256"
						}
					],
					"stateMutability": "view",
					"type": "function"
				},
				{
					"inputs": [
						{
							"internalType": "address",
							"name": "_token",
							"type": "address"
						},
						{
							"internalType": "uint256",
							"name": "_amount",
							"type": "uint256"
						}
					],
					"name": "withdraw",
					"outputs": [],
					"stateMutability": "nonpayable",
					"type": "function"
				}
			],
			"devdoc": {
				"kind": "dev",
				"methods": {},
				"version": 1
			},
			"evm": {
				"assembly": "    /* \"contracts/AssetManagement.sol\":185:12207  contract AssetManagementPlatform is ReentrancyGuard {... */\n  mstore(0x40, 0x80)\n    /* \"contracts/AssetManagement.sol\":2203:2254  constructor() {... */\n  callvalue\n  dup1\n  iszero\n  tag_1\n  jumpi\n  revert(0x00, 0x00)\ntag_1:\n  pop\n    /* \"@openzeppelin/contracts/security/ReentrancyGuard.sol\":1716:1717  1 */\n  0x01\n    /* \"@openzeppelin/contracts/security/ReentrancyGuard.sol\":1821:1828  _status */\n  0x00\n    /* \"@openzeppelin/contracts/security/ReentrancyGuard.sol\":1821:1843  _status = _NOT_ENTERED */\n  dup2\n  swap1\n  sstore\n  pop\n    /* \"contracts/AssetManagement.sol\":2236:2246  msg.sender */\n  caller\n    /* \"contracts/AssetManagement.sol\":2228:2233  owner */\n  0x01\n  0x00\n    /* \"contracts/AssetManagement.sol\":2228:2246  owner = msg.sender */\n  0x0100\n  exp\n  dup2\n  sload\n  dup2\n  0xffffffffffffffffffffffffffffffffffffffff\n  mul\n  not\n  and\n  swap1\n  dup4\n  0xffffffffffffffffffffffffffffffffffffffff\n  and\n  mul\n  or\n  swap1\n  sstore\n  pop\n    /* \"contracts/AssetManagement.sol\":185:12207  contract AssetManagementPlatform is ReentrancyGuard {... */\n  dataSize(sub_0)\n  dup1\n  dataOffset(sub_0)\n  0x00\n  codecopy\n  0x00\n  return\nstop\n\nsub_0: assembly {\n        /* \"contracts/AssetManagement.sol\":185:12207  contract AssetManagementPlatform is ReentrancyGuard {... */\n      mstore(0x40, 0x80)\n      callvalue\n      dup1\n      iszero\n      tag_1\n      jumpi\n      revert(0x00, 0x00)\n    tag_1:\n      pop\n      jumpi(tag_2, lt(calldatasize, 0x04))\n      shr(0xe0, calldataload(0x00))\n      dup1\n      0x8c81e4d1\n      gt\n      tag_34\n      jumpi\n      dup1\n      0xc489744b\n      gt\n      tag_35\n      jumpi\n      dup1\n      0xf26e818a\n      gt\n      tag_36\n      jumpi\n      dup1\n      0xf26e818a\n      eq\n      tag_30\n      jumpi\n      dup1\n      0xf3fef3a3\n      eq\n      tag_31\n      jumpi\n      dup1\n      0xf44a8bef\n      eq\n      tag_32\n      jumpi\n      dup1\n      0xf9f411d8\n      eq\n      tag_33\n      jumpi\n      jump(tag_2)\n    tag_36:\n      dup1\n      0xc489744b\n      eq\n      tag_26\n      jumpi\n      dup1\n      0xc6255626\n      eq\n      tag_27\n      jumpi\n      dup1\n      0xd3c7c2c7\n      eq\n      tag_28\n      jumpi\n      dup1\n      0xe7041f13\n      eq\n      tag_29\n      jumpi\n      jump(tag_2)\n    tag_35:\n      dup1\n      0xa87430ba\n      gt\n      tag_37\n      jumpi\n      dup1\n      0xa87430ba\n      eq\n      tag_22\n      jumpi\n      dup1\n      0xb77bf600\n      eq\n      tag_23\n      jumpi\n      dup1\n      0xc0dbf558\n      eq\n      tag_24\n      jumpi\n      dup1\n      0xc30719bf\n      eq\n      tag_25\n      jumpi\n      jump(tag_2)\n    tag_37:\n      dup1\n      0x8c81e4d1\n      eq\n      tag_18\n      jumpi\n      dup1\n      0x8da5cb5b\n      eq\n      tag_19\n      jumpi\n      dup1\n      0x9ace38c2\n      eq\n      tag_20\n      jumpi\n      dup1\n      0x9ee20b15\n      eq\n      tag_21\n      jumpi\n      jump(tag_2)\n    tag_34:\n      dup1\n      0x45f2d105\n      gt\n      tag_38\n      jumpi\n      dup1\n      0x6d69fcaf\n      gt\n      tag_39\n      jumpi\n      dup1\n      0x6d69fcaf\n      eq\n      tag_14\n      jumpi\n      dup1\n      0x7380626b\n      eq\n      tag_15\n      jumpi\n      dup1\n      0x75151b63\n      eq\n      tag_16\n      jumpi\n      dup1\n      0x76319190\n      eq\n      tag_17\n      jumpi\n      jump(tag_2)\n    tag_39:\n      dup1\n      0x45f2d105\n      eq\n      tag_10\n      jumpi\n      dup1\n      0x47e7ef24\n      eq\n      tag_11\n      jumpi\n      dup1\n      0x519dc8d2\n      eq\n      tag_12\n      jumpi\n      dup1\n      0x6386c1c7\n      eq\n      tag_13\n      jumpi\n      jump(tag_2)\n    tag_38:\n      dup1\n      0x1f3c99c3\n      gt\n      tag_40\n      jumpi\n      dup1\n      0x1f3c99c3\n      eq\n      tag_6\n      jumpi\n      dup1\n      0x3a7d280c\n      eq\n      tag_7\n      jumpi\n      dup1\n      0x3f75a07d\n      eq\n      tag_8\n      jumpi\n      dup1\n      0x3ffbd47f\n      eq\n      tag_9\n      jumpi\n      jump(tag_2)\n    tag_40:\n      dup1\n      0x126cbe60\n      eq\n      tag_3\n      jumpi\n      dup1\n      0x163f7522\n      eq\n      tag_4\n      jumpi\n      dup1\n      0x1a197a26\n      eq\n      tag_5\n      jumpi\n    tag_2:\n      revert(0x00, 0x00)\n        /* \"contracts/AssetManagement.sol\":6217:6385  function checkTokenBalance(address _token) external view returns (uint256) {... */\n    tag_3:\n      tag_41\n      0x04\n      dup1\n      calldatasize\n      sub\n      dup2\n      add\n      swap1\n      tag_42\n      swap2\n      swap1\n      tag_43\n      jump\t// in\n    tag_42:\n      tag_44\n      jump\t// in\n    tag_41:\n      mload(0x40)\n      tag_45\n      swap2\n      swap1\n      tag_46\n      jump\t// in\n    tag_45:\n      mload(0x40)\n      dup1\n      swap2\n      sub\n      swap1\n      return\n        /* \"contracts/AssetManagement.sol\":11434:11555  function isUserRegistered(address _user) external view returns (bool) {... */\n    tag_4:\n      tag_47\n      0x04\n      dup1\n      calldatasize\n      sub\n      dup2\n      add\n      swap1\n      tag_48\n      swap2\n      swap1\n      tag_43\n      jump\t// in\n    tag_48:\n      tag_49\n      jump\t// in\n    tag_47:\n      mload(0x40)\n      tag_50\n      swap2\n      swap1\n      tag_51\n      jump\t// in\n    tag_50:\n      mload(0x40)\n      dup1\n      swap2\n      sub\n      swap1\n      return\n        /* \"contracts/AssetManagement.sol\":6025:6205  function checkAllowance(address _token) external view returns (uint256) {... */\n    tag_5:\n      tag_52\n      0x04\n      dup1\n      calldatasize\n      sub\n      dup2\n      add\n      swap1\n      tag_53\n      swap2\n      swap1\n      tag_43\n      jump\t// in\n    tag_53:\n      tag_54\n      jump\t// in\n    tag_52:\n      mload(0x40)\n      tag_55\n      swap2\n      swap1\n      tag_46\n      jump\t// in\n    tag_55:\n      mload(0x40)\n      dup1\n      swap2\n      sub\n      swap1\n      return\n        /* \"contracts/AssetManagement.sol\":4531:4733  function logout() external {... */\n    tag_6:\n      tag_56\n      tag_57\n      jump\t// in\n    tag_56:\n      stop\n        /* \"contracts/AssetManagement.sol\":3972:4519  function login(string memory _password) external onlyRegisteredUser returns (bool) {... */\n    tag_7:\n      tag_58\n      0x04\n      dup1\n      calldatasize\n      sub\n      dup2\n      add\n      swap1\n      tag_59\n      swap2\n      swap1\n      tag_60\n      jump\t// in\n    tag_59:\n      tag_61\n      jump\t// in\n    tag_58:\n      mload(0x40)\n      tag_62\n      swap2\n      swap1\n      tag_51\n      jump\t// in\n    tag_62:\n      mload(0x40)\n      dup1\n      swap2\n      sub\n      swap1\n      return\n        /* \"contracts/AssetManagement.sol\":2790:2931  function hashPassword(string memory _password) public pure returns (bytes32) {... */\n    tag_8:\n      tag_63\n      0x04\n      dup1\n      calldatasize\n      sub\n      dup2\n      add\n      swap1\n      tag_64\n      swap2\n      swap1\n      tag_60\n      jump\t// in\n    tag_64:\n      tag_65\n      jump\t// in\n    tag_63:\n      mload(0x40)\n      tag_66\n      swap2\n      swap1\n      tag_67\n      jump\t// in\n    tag_66:\n      mload(0x40)\n      dup1\n      swap2\n      sub\n      swap1\n      return\n        /* \"contracts/AssetManagement.sol\":2943:3893  function register(string memory _username, string memory _password) external {... */\n    tag_9:\n      tag_68\n      0x04\n      dup1\n      calldatasize\n      sub\n      dup2\n      add\n      swap1\n      tag_69\n      swap2\n      swap1\n      tag_70\n      jump\t// in\n    tag_69:\n      tag_71\n      jump\t// in\n    tag_68:\n      stop\n        /* \"contracts/AssetManagement.sol\":1031:1103  mapping(address => mapping(address => uint256)) public userTokenBalances */\n    tag_10:\n      tag_72\n      0x04\n      dup1\n      calldatasize\n      sub\n      dup2\n      add\n      swap1\n      tag_73\n      swap2\n      swap1\n      tag_74\n      jump\t// in\n    tag_73:\n      tag_75\n      jump\t// in\n    tag_72:\n      mload(0x40)\n      tag_76\n      swap2\n      swap1\n      tag_46\n      jump\t// in\n    tag_76:\n      mload(0x40)\n      dup1\n      swap2\n      sub\n      swap1\n      return\n        /* \"contracts/AssetManagement.sol\":6638:8399  function deposit(address _token, uint256 _amount) external nonReentrant onlyRegisteredUser onlyActiveUser {... */\n    tag_11:\n      tag_77\n      0x04\n      dup1\n      calldatasize\n      sub\n      dup2\n      add\n      swap1\n      tag_78\n      swap2\n      swap1\n      tag_79\n      jump\t// in\n    tag_78:\n      tag_80\n      jump\t// in\n    tag_77:\n      stop\n        /* \"contracts/AssetManagement.sol\":9637:9759  function getUserTokens(address _user) external view returns (address[] memory) {... */\n    tag_12:\n      tag_81\n      0x04\n      dup1\n      calldatasize\n      sub\n      dup2\n      add\n      swap1\n      tag_82\n      swap2\n      swap1\n      tag_43\n      jump\t// in\n    tag_82:\n      tag_83\n      jump\t// in\n    tag_81:\n      mload(0x40)\n      tag_84\n      swap2\n      swap1\n      tag_85\n      jump\t// in\n    tag_84:\n      mload(0x40)\n      dup1\n      swap2\n      sub\n      swap1\n      return\n        /* \"contracts/AssetManagement.sol\":4745:4855  function getUserInfo(address _user) external view returns (User memory) {... */\n    tag_13:\n      tag_86\n      0x04\n      dup1\n      calldatasize\n      sub\n      dup2\n      add\n      swap1\n      tag_87\n      swap2\n      swap1\n      tag_43\n      jump\t// in\n    tag_87:\n      tag_88\n      jump\t// in\n    tag_86:\n      mload(0x40)\n      tag_89\n      swap2\n      swap1\n      tag_90\n      jump\t// in\n    tag_89:\n      mload(0x40)\n      dup1\n      swap2\n      sub\n      swap1\n      return\n        /* \"contracts/AssetManagement.sol\":5044:5396  function addSupportedToken(address _token) external onlyOwner {... */\n    tag_14:\n      tag_91\n      0x04\n      dup1\n      calldatasize\n      sub\n      dup2\n      add\n      swap1\n      tag_92\n      swap2\n      swap1\n      tag_43\n      jump\t// in\n    tag_92:\n      tag_93\n      jump\t// in\n    tag_91:\n      stop\n        /* \"contracts/AssetManagement.sol\":10520:11298  function getUserTransactions(address _user, uint256 _limit) external view returns (Transaction[] memory) {... */\n    tag_15:\n      tag_94\n      0x04\n      dup1\n      calldatasize\n      sub\n      dup2\n      add\n      swap1\n      tag_95\n      swap2\n      swap1\n      tag_79\n      jump\t// in\n    tag_95:\n      tag_96\n      jump\t// in\n    tag_94:\n      mload(0x40)\n      tag_97\n      swap2\n      swap1\n      tag_98\n      jump\t// in\n    tag_97:\n      mload(0x40)\n      dup1\n      swap2\n      sub\n      swap1\n      return\n        /* \"contracts/AssetManagement.sol\":1628:1676  mapping(address => bool) public isTokenSupported */\n    tag_16:\n      tag_99\n      0x04\n      dup1\n      calldatasize\n      sub\n      dup2\n      add\n      swap1\n      tag_100\n      swap2\n      swap1\n      tag_43\n      jump\t// in\n    tag_100:\n      tag_101\n      jump\t// in\n    tag_99:\n      mload(0x40)\n      tag_102\n      swap2\n      swap1\n      tag_51\n      jump\t// in\n    tag_102:\n      mload(0x40)\n      dup1\n      swap2\n      sub\n      swap1\n      return\n        /* \"contracts/AssetManagement.sol\":5408:5949  function removeSupportedToken(address _token) external onlyOwner {... */\n    tag_17:\n      tag_103\n      0x04\n      dup1\n      calldatasize\n      sub\n      dup2\n      add\n      swap1\n      tag_104\n      swap2\n      swap1\n      tag_43\n      jump\t// in\n    tag_104:\n      tag_105\n      jump\t// in\n    tag_103:\n      stop\n        /* \"contracts/AssetManagement.sol\":10164:10508  function getPortfolioValue(address _user) external view returns (uint256) {... */\n    tag_18:\n      tag_106\n      0x04\n      dup1\n      calldatasize\n      sub\n      dup2\n      add\n      swap1\n      tag_107\n      swap2\n      swap1\n      tag_43\n      jump\t// in\n    tag_107:\n      tag_108\n      jump\t// in\n    tag_106:\n      mload(0x40)\n      tag_109\n      swap2\n      swap1\n      tag_46\n      jump\t// in\n    tag_109:\n      mload(0x40)\n      dup1\n      swap2\n      sub\n      swap1\n      return\n        /* \"contracts/AssetManagement.sol\":244:264  address public owner */\n    tag_19:\n      tag_110\n      tag_111\n      jump\t// in\n    tag_110:\n      mload(0x40)\n      tag_112\n      swap2\n      swap1\n      tag_113\n      jump\t// in\n    tag_112:\n      mload(0x40)\n      dup1\n      swap2\n      sub\n      swap1\n      return\n        /* \"contracts/AssetManagement.sol\":1248:1299  mapping(uint256 => Transaction) public transactions */\n    tag_20:\n      tag_114\n      0x04\n      dup1\n      calldatasize\n      sub\n      dup2\n      add\n      swap1\n      tag_115\n      swap2\n      swap1\n      tag_116\n      jump\t// in\n    tag_115:\n      tag_117\n      jump\t// in\n    tag_114:\n      mload(0x40)\n      tag_118\n      swap6\n      swap5\n      swap4\n      swap3\n      swap2\n      swap1\n      tag_119\n      jump\t// in\n    tag_118:\n      mload(0x40)\n      dup1\n      swap2\n      sub\n      swap1\n      return\n        /* \"contracts/AssetManagement.sol\":1401:1445  mapping(address => bool) public isUserActive */\n    tag_21:\n      tag_120\n      0x04\n      dup1\n      calldatasize\n      sub\n      dup2\n      add\n      swap1\n      tag_121\n      swap2\n      swap1\n      tag_43\n      jump\t// in\n    tag_121:\n      tag_122\n      jump\t// in\n    tag_120:\n      mload(0x40)\n      tag_123\n      swap2\n      swap1\n      tag_51\n      jump\t// in\n    tag_123:\n      mload(0x40)\n      dup1\n      swap2\n      sub\n      swap1\n      return\n        /* \"contracts/AssetManagement.sol\":1306:1343  mapping(address => User) public users */\n    tag_22:\n      tag_124\n      0x04\n      dup1\n      calldatasize\n      sub\n      dup2\n      add\n      swap1\n      tag_125\n      swap2\n      swap1\n      tag_43\n      jump\t// in\n    tag_125:\n      tag_126\n      jump\t// in\n    tag_124:\n      mload(0x40)\n      tag_127\n      swap6\n      swap5\n      swap4\n      swap3\n      swap2\n      swap1\n      tag_128\n      jump\t// in\n    tag_127:\n      mload(0x40)\n      dup1\n      swap2\n      sub\n      swap1\n      return\n        /* \"contracts/AssetManagement.sol\":1551:1582  uint256 public transactionCount */\n    tag_23:\n      tag_129\n      tag_130\n      jump\t// in\n    tag_129:\n      mload(0x40)\n      tag_131\n      swap2\n      swap1\n      tag_46\n      jump\t// in\n    tag_131:\n      mload(0x40)\n      dup1\n      swap2\n      sub\n      swap1\n      return\n        /* \"contracts/AssetManagement.sol\":9771:10152  function calculateProfitability(address _user, address _token) external view returns (int256) {... */\n    tag_24:\n      tag_132\n      0x04\n      dup1\n      calldatasize\n      sub\n      dup2\n      add\n      swap1\n      tag_133\n      swap2\n      swap1\n      tag_74\n      jump\t// in\n    tag_133:\n      tag_134\n      jump\t// in\n    tag_132:\n      mload(0x40)\n      tag_135\n      swap2\n      swap1\n      tag_136\n      jump\t// in\n    tag_135:\n      mload(0x40)\n      dup1\n      swap2\n      sub\n      swap1\n      return\n        /* \"contracts/AssetManagement.sol\":6397:6576  function checkContractTokenBalance(address _token) external view returns (uint256) {... */\n    tag_25:\n      tag_137\n      0x04\n      dup1\n      calldatasize\n      sub\n      dup2\n      add\n      swap1\n      tag_138\n      swap2\n      swap1\n      tag_43\n      jump\t// in\n    tag_138:\n      tag_139\n      jump\t// in\n    tag_137:\n      mload(0x40)\n      tag_140\n      swap2\n      swap1\n      tag_46\n      jump\t// in\n    tag_140:\n      mload(0x40)\n      dup1\n      swap2\n      sub\n      swap1\n      return\n        /* \"contracts/AssetManagement.sol\":9479:9625  function getTokenBalance(address _user, address _token) external view returns (uint256) {... */\n    tag_26:\n      tag_141\n      0x04\n      dup1\n      calldatasize\n      sub\n      dup2\n      add\n      swap1\n      tag_142\n      swap2\n      swap1\n      tag_74\n      jump\t// in\n    tag_142:\n      tag_143\n      jump\t// in\n    tag_141:\n      mload(0x40)\n      tag_144\n      swap2\n      swap1\n      tag_46\n      jump\t// in\n    tag_144:\n      mload(0x40)\n      dup1\n      swap2\n      sub\n      swap1\n      return\n        /* \"contracts/AssetManagement.sol\":1589:1621  address[] public supportedTokens */\n    tag_27:\n      tag_145\n      0x04\n      dup1\n      calldatasize\n      sub\n      dup2\n      add\n      swap1\n      tag_146\n      swap2\n      swap1\n      tag_116\n      jump\t// in\n    tag_146:\n      tag_147\n      jump\t// in\n    tag_145:\n      mload(0x40)\n      tag_148\n      swap2\n      swap1\n      tag_113\n      jump\t// in\n    tag_148:\n      mload(0x40)\n      dup1\n      swap2\n      sub\n      swap1\n      return\n        /* \"contracts/AssetManagement.sol\":11310:11422  function getSupportedTokens() external view returns (address[] memory) {... */\n    tag_28:\n      tag_149\n      tag_150\n      jump\t// in\n    tag_149:\n      mload(0x40)\n      tag_151\n      swap2\n      swap1\n      tag_85\n      jump\t// in\n    tag_151:\n      mload(0x40)\n      dup1\n      swap2\n      sub\n      swap1\n      return\n        /* \"contracts/AssetManagement.sol\":1110:1187  mapping(address => mapping(address => uint256)) public userInitialInvestments */\n    tag_29:\n      tag_152\n      0x04\n      dup1\n      calldatasize\n      sub\n      dup2\n      add\n      swap1\n      tag_153\n      swap2\n      swap1\n      tag_74\n      jump\t// in\n    tag_153:\n      tag_154\n      jump\t// in\n    tag_152:\n      mload(0x40)\n      tag_155\n      swap2\n      swap1\n      tag_46\n      jump\t// in\n    tag_155:\n      mload(0x40)\n      dup1\n      swap2\n      sub\n      swap1\n      return\n        /* \"contracts/AssetManagement.sol\":1350:1394  mapping(string => bool) public usernameTaken */\n    tag_30:\n      tag_156\n      0x04\n      dup1\n      calldatasize\n      sub\n      dup2\n      add\n      swap1\n      tag_157\n      swap2\n      swap1\n      tag_60\n      jump\t// in\n    tag_157:\n      tag_158\n      jump\t// in\n    tag_156:\n      mload(0x40)\n      tag_159\n      swap2\n      swap1\n      tag_51\n      jump\t// in\n    tag_159:\n      mload(0x40)\n      dup1\n      swap2\n      sub\n      swap1\n      return\n        /* \"contracts/AssetManagement.sol\":8411:9402  function withdraw(address _token, uint256 _amount) external nonReentrant onlyRegisteredUser onlyActiveUser {... */\n    tag_31:\n      tag_160\n      0x04\n      dup1\n      calldatasize\n      sub\n      dup2\n      add\n      swap1\n      tag_161\n      swap2\n      swap1\n      tag_79\n      jump\t// in\n    tag_161:\n      tag_162\n      jump\t// in\n    tag_160:\n      stop\n        /* \"contracts/AssetManagement.sol\":4867:4976  function isLoggedIn(address _user) external view returns (bool) {... */\n    tag_32:\n      tag_163\n      0x04\n      dup1\n      calldatasize\n      sub\n      dup2\n      add\n      swap1\n      tag_164\n      swap2\n      swap1\n      tag_43\n      jump\t// in\n    tag_164:\n      tag_165\n      jump\t// in\n    tag_163:\n      mload(0x40)\n      tag_166\n      swap2\n      swap1\n      tag_51\n      jump\t// in\n    tag_166:\n      mload(0x40)\n      dup1\n      swap2\n      sub\n      swap1\n      return\n        /* \"contracts/AssetManagement.sol\":1194:1241  mapping(address => address[]) public userTokens */\n    tag_33:\n      tag_167\n      0x04\n      dup1\n      calldatasize\n      sub\n      dup2\n      add\n      swap1\n      tag_168\n      swap2\n      swap1\n      tag_79\n      jump\t// in\n    tag_168:\n      tag_169\n      jump\t// in\n    tag_167:\n      mload(0x40)\n      tag_170\n      swap2\n      swap1\n      tag_113\n      jump\t// in\n    tag_170:\n      mload(0x40)\n      dup1\n      swap2\n      sub\n      swap1\n      return\n        /* \"contracts/AssetManagement.sol\":6217:6385  function checkTokenBalance(address _token) external view returns (uint256) {... */\n    tag_44:\n        /* \"contracts/AssetManagement.sol\":6283:6290  uint256 */\n      0x00\n        /* \"contracts/AssetManagement.sol\":6303:6315  IERC20 token */\n      0x00\n        /* \"contracts/AssetManagement.sol\":6325:6331  _token */\n      dup3\n        /* \"contracts/AssetManagement.sol\":6303:6332  IERC20 token = IERC20(_token) */\n      swap1\n      pop\n        /* \"contracts/AssetManagement.sol\":6350:6355  token */\n      dup1\n        /* \"contracts/AssetManagement.sol\":6350:6365  token.balanceOf */\n      0xffffffffffffffffffffffffffffffffffffffff\n      and\n      0x70a08231\n        /* \"contracts/AssetManagement.sol\":6366:6376  msg.sender */\n      caller\n        /* \"contracts/AssetManagement.sol\":6350:6377  token.balanceOf(msg.sender) */\n      mload(0x40)\n      dup3\n      0xffffffff\n      and\n      0xe0\n      shl\n      dup2\n      mstore\n      0x04\n      add\n      tag_172\n      swap2\n      swap1\n      tag_113\n      jump\t// in\n    tag_172:\n      0x20\n      mload(0x40)\n      dup1\n      dup4\n      sub\n      dup2\n      dup7\n      gas\n      staticcall\n      iszero\n      dup1\n      iszero\n      tag_174\n      jumpi\n      returndatacopy(0x00, 0x00, returndatasize)\n      revert(0x00, returndatasize)\n    tag_174:\n      pop\n      pop\n      pop\n      pop\n      mload(0x40)\n      returndatasize\n      not(0x1f)\n      0x1f\n      dup3\n      add\n      and\n      dup3\n      add\n      dup1\n      0x40\n      mstore\n      pop\n      dup2\n      add\n      swap1\n      tag_175\n      swap2\n      swap1\n      tag_176\n      jump\t// in\n    tag_175:\n        /* \"contracts/AssetManagement.sol\":6343:6377  return token.balanceOf(msg.sender) */\n      swap2\n      pop\n      pop\n        /* \"contracts/AssetManagement.sol\":6217:6385  function checkTokenBalance(address _token) external view returns (uint256) {... */\n      swap2\n      swap1\n      pop\n      jump\t// out\n        /* \"contracts/AssetManagement.sol\":11434:11555  function isUserRegistered(address _user) external view returns (bool) {... */\n    tag_49:\n        /* \"contracts/AssetManagement.sol\":11498:11502  bool */\n      0x00\n        /* \"contracts/AssetManagement.sol\":11522:11527  users */\n      0x06\n        /* \"contracts/AssetManagement.sol\":11522:11534  users[_user] */\n      0x00\n        /* \"contracts/AssetManagement.sol\":11528:11533  _user */\n      dup4\n        /* \"contracts/AssetManagement.sol\":11522:11534  users[_user] */\n      0xffffffffffffffffffffffffffffffffffffffff\n      and\n      0xffffffffffffffffffffffffffffffffffffffff\n      and\n      dup2\n      mstore\n      0x20\n      add\n      swap1\n      dup2\n      mstore\n      0x20\n      add\n      0x00\n      keccak256\n        /* \"contracts/AssetManagement.sol\":11522:11547  users[_user].isRegistered */\n      0x02\n      add\n      0x00\n      swap1\n      sload\n      swap1\n      0x0100\n      exp\n      swap1\n      div\n      0xff\n      and\n        /* \"contracts/AssetManagement.sol\":11515:11547  return users[_user].isRegistered */\n      swap1\n      pop\n        /* \"contracts/AssetManagement.sol\":11434:11555  function isUserRegistered(address _user) external view returns (bool) {... */\n      swap2\n      swap1\n      pop\n      jump\t// out\n        /* \"contracts/AssetManagement.sol\":6025:6205  function checkAllowance(address _token) external view returns (uint256) {... */\n    tag_54:\n        /* \"contracts/AssetManagement.sol\":6088:6095  uint256 */\n      0x00\n        /* \"contracts/AssetManagement.sol\":6108:6120  IERC20 token */\n      0x00\n        /* \"contracts/AssetManagement.sol\":6130:6136  _token */\n      dup3\n        /* \"contracts/AssetManagement.sol\":6108:6137  IERC20 token = IERC20(_token) */\n      swap1\n      pop\n        /* \"contracts/AssetManagement.sol\":6155:6160  token */\n      dup1\n        /* \"contracts/AssetManagement.sol\":6155:6170  token.allowance */\n      0xffffffffffffffffffffffffffffffffffffffff\n      and\n      0xdd62ed3e\n        /* \"contracts/AssetManagement.sol\":6171:6181  msg.sender */\n      caller\n        /* \"contracts/AssetManagement.sol\":6191:6195  this */\n      address\n        /* \"contracts/AssetManagement.sol\":6155:6197  token.allowance(msg.sender, address(this)) */\n      mload(0x40)\n      dup4\n      0xffffffff\n      and\n      0xe0\n      shl\n      dup2\n      mstore\n      0x04\n      add\n      tag_179\n      swap3\n      swap2\n      swap1\n      tag_180\n      jump\t// in\n    tag_179:\n      0x20\n      mload(0x40)\n      dup1\n      dup4\n      sub\n      dup2\n      dup7\n      gas\n      staticcall\n      iszero\n      dup1\n      iszero\n      tag_182\n      jumpi\n      returndatacopy(0x00, 0x00, returndatasize)\n      revert(0x00, returndatasize)\n    tag_182:\n      pop\n      pop\n      pop\n      pop\n      mload(0x40)\n      returndatasize\n      not(0x1f)\n      0x1f\n      dup3\n      add\n      and\n      dup3\n      add\n      dup1\n      0x40\n      mstore\n      pop\n      dup2\n      add\n      swap1\n      tag_183\n      swap2\n      swap1\n      tag_176\n      jump\t// in\n    tag_183:\n        /* \"contracts/AssetManagement.sol\":6148:6197  return token.allowance(msg.sender, address(this)) */\n      swap2\n      pop\n      pop\n        /* \"contracts/AssetManagement.sol\":6025:6205  function checkAllowance(address _token) external view returns (uint256) {... */\n      swap2\n      swap1\n      pop\n      jump\t// out\n        /* \"contracts/AssetManagement.sol\":4531:4733  function logout() external {... */\n    tag_57:\n        /* \"contracts/AssetManagement.sol\":4577:4589  isUserActive */\n      0x08\n        /* \"contracts/AssetManagement.sol\":4577:4601  isUserActive[msg.sender] */\n      0x00\n        /* \"contracts/AssetManagement.sol\":4590:4600  msg.sender */\n      caller\n        /* \"contracts/AssetManagement.sol\":4577:4601  isUserActive[msg.sender] */\n      0xffffffffffffffffffffffffffffffffffffffff\n      and\n      0xffffffffffffffffffffffffffffffffffffffff\n      and\n      dup2\n      mstore\n      0x20\n      add\n      swap1\n      dup2\n      mstore\n      0x20\n      add\n      0x00\n      keccak256\n      0x00\n      swap1\n      sload\n      swap1\n      0x0100\n      exp\n      swap1\n      div\n      0xff\n      and\n        /* \"contracts/AssetManagement.sol\":4569:4624  require(isUserActive[msg.sender], \"User not logged in\") */\n      tag_185\n      jumpi\n      mload(0x40)\n      0x08c379a000000000000000000000000000000000000000000000000000000000\n      dup2\n      mstore\n      0x04\n      add\n      tag_186\n      swap1\n      tag_187\n      jump\t// in\n    tag_186:\n      mload(0x40)\n      dup1\n      swap2\n      sub\n      swap1\n      revert\n    tag_185:\n        /* \"contracts/AssetManagement.sol\":4662:4667  false */\n      0x00\n        /* \"contracts/AssetManagement.sol\":4635:4647  isUserActive */\n      0x08\n        /* \"contracts/AssetManagement.sol\":4635:4659  isUserActive[msg.sender] */\n      0x00\n        /* \"contracts/AssetManagement.sol\":4648:4658  msg.sender */\n      caller\n        /* \"contracts/AssetManagement.sol\":4635:4659  isUserActive[msg.sender] */\n      0xffffffffffffffffffffffffffffffffffffffff\n      and\n      0xffffffffffffffffffffffffffffffffffffffff\n      and\n      dup2\n      mstore\n      0x20\n      add\n      swap1\n      dup2\n      mstore\n      0x20\n      add\n      0x00\n      keccak256\n      0x00\n        /* \"contracts/AssetManagement.sol\":4635:4667  isUserActive[msg.sender] = false */\n      0x0100\n      exp\n      dup2\n      sload\n      dup2\n      0xff\n      mul\n      not\n      and\n      swap1\n      dup4\n      iszero\n      iszero\n      mul\n      or\n      swap1\n      sstore\n      pop\n        /* \"contracts/AssetManagement.sol\":4697:4707  msg.sender */\n      caller\n        /* \"contracts/AssetManagement.sol\":4683:4725  UserLoggedOut(msg.sender, block.timestamp) */\n      0xffffffffffffffffffffffffffffffffffffffff\n      and\n      0x22c3ce09984495411cfaa9c6d5bfd078ede4d3a3d9d3249f506a59861d68e721\n        /* \"contracts/AssetManagement.sol\":4709:4724  block.timestamp */\n      timestamp\n        /* \"contracts/AssetManagement.sol\":4683:4725  UserLoggedOut(msg.sender, block.timestamp) */\n      mload(0x40)\n      tag_188\n      swap2\n      swap1\n      tag_46\n      jump\t// in\n    tag_188:\n      mload(0x40)\n      dup1\n      swap2\n      sub\n      swap1\n      log2\n        /* \"contracts/AssetManagement.sol\":4531:4733  function logout() external {... */\n      jump\t// out\n        /* \"contracts/AssetManagement.sol\":3972:4519  function login(string memory _password) external onlyRegisteredUser returns (bool) {... */\n    tag_61:\n        /* \"contracts/AssetManagement.sol\":4049:4053  bool */\n      0x00\n        /* \"contracts/AssetManagement.sol\":2444:2449  users */\n      0x06\n        /* \"contracts/AssetManagement.sol\":2444:2461  users[msg.sender] */\n      0x00\n        /* \"contracts/AssetManagement.sol\":2450:2460  msg.sender */\n      caller\n        /* \"contracts/AssetManagement.sol\":2444:2461  users[msg.sender] */\n      0xffffffffffffffffffffffffffffffffffffffff\n      and\n      0xffffffffffffffffffffffffffffffffffffffff\n      and\n      dup2\n      mstore\n      0x20\n      add\n      swap1\n      dup2\n      mstore\n      0x20\n      add\n      0x00\n      keccak256\n        /* \"contracts/AssetManagement.sol\":2444:2474  users[msg.sender].isRegistered */\n      0x02\n      add\n      0x00\n      swap1\n      sload\n      swap1\n      0x0100\n      exp\n      swap1\n      div\n      0xff\n      and\n        /* \"contracts/AssetManagement.sol\":2436:2498  require(users[msg.sender].isRegistered, \"User not registered\") */\n      tag_190\n      jumpi\n      mload(0x40)\n      0x08c379a000000000000000000000000000000000000000000000000000000000\n      dup2\n      mstore\n      0x04\n      add\n      tag_191\n      swap1\n      tag_192\n      jump\t// in\n    tag_191:\n      mload(0x40)\n      dup1\n      swap2\n      sub\n      swap1\n      revert\n    tag_190:\n        /* \"contracts/AssetManagement.sol\":4066:4083  User storage user */\n      0x00\n        /* \"contracts/AssetManagement.sol\":4086:4091  users */\n      0x06\n        /* \"contracts/AssetManagement.sol\":4086:4103  users[msg.sender] */\n      0x00\n        /* \"contracts/AssetManagement.sol\":4092:4102  msg.sender */\n      caller\n        /* \"contracts/AssetManagement.sol\":4086:4103  users[msg.sender] */\n      0xffffffffffffffffffffffffffffffffffffffff\n      and\n      0xffffffffffffffffffffffffffffffffffffffff\n      and\n      dup2\n      mstore\n      0x20\n      add\n      swap1\n      dup2\n      mstore\n      0x20\n      add\n      0x00\n      keccak256\n        /* \"contracts/AssetManagement.sol\":4066:4103  User storage user = users[msg.sender] */\n      swap1\n      pop\n        /* \"contracts/AssetManagement.sol\":4114:4139  bytes32 inputPasswordHash */\n      0x00\n        /* \"contracts/AssetManagement.sol\":4142:4165  hashPassword(_password) */\n      tag_194\n        /* \"contracts/AssetManagement.sol\":4155:4164  _password */\n      dup5\n        /* \"contracts/AssetManagement.sol\":4142:4154  hashPassword */\n      tag_65\n        /* \"contracts/AssetManagement.sol\":4142:4165  hashPassword(_password) */\n      jump\t// in\n    tag_194:\n        /* \"contracts/AssetManagement.sol\":4114:4165  bytes32 inputPasswordHash = hashPassword(_password) */\n      swap1\n      pop\n        /* \"contracts/AssetManagement.sol\":4176:4202  bytes32 storedPasswordHash */\n      0x00\n        /* \"contracts/AssetManagement.sol\":4219:4223  user */\n      dup3\n        /* \"contracts/AssetManagement.sol\":4219:4236  user.passwordHash */\n      0x01\n      add\n        /* \"contracts/AssetManagement.sol\":4205:4238  bytes32(bytes(user.passwordHash)) */\n      tag_195\n      swap1\n      tag_196\n      jump\t// in\n    tag_195:\n        /* \"contracts/AssetManagement.sol\":4176:4238  bytes32 storedPasswordHash = bytes32(bytes(user.passwordHash)) */\n      swap1\n      pop\n        /* \"contracts/AssetManagement.sol\":4288:4306  storedPasswordHash */\n      dup1\n        /* \"contracts/AssetManagement.sol\":4267:4284  inputPasswordHash */\n      dup3\n        /* \"contracts/AssetManagement.sol\":4267:4306  inputPasswordHash == storedPasswordHash */\n      eq\n        /* \"contracts/AssetManagement.sol\":4259:4327  require(inputPasswordHash == storedPasswordHash, \"Invalid password\") */\n      tag_197\n      jumpi\n      mload(0x40)\n      0x08c379a000000000000000000000000000000000000000000000000000000000\n      dup2\n      mstore\n      0x04\n      add\n      tag_198\n      swap1\n      tag_199\n      jump\t// in\n    tag_198:\n      mload(0x40)\n      dup1\n      swap2\n      sub\n      swap1\n      revert\n    tag_197:\n        /* \"contracts/AssetManagement.sol\":4375:4379  true */\n      0x01\n        /* \"contracts/AssetManagement.sol\":4348:4360  isUserActive */\n      0x08\n        /* \"contracts/AssetManagement.sol\":4348:4372  isUserActive[msg.sender] */\n      0x00\n        /* \"contracts/AssetManagement.sol\":4361:4371  msg.sender */\n      caller\n        /* \"contracts/AssetManagement.sol\":4348:4372  isUserActive[msg.sender] */\n      0xffffffffffffffffffffffffffffffffffffffff\n      and\n      0xffffffffffffffffffffffffffffffffffffffff\n      and\n      dup2\n      mstore\n      0x20\n      add\n      swap1\n      dup2\n      mstore\n      0x20\n      add\n      0x00\n      keccak256\n      0x00\n        /* \"contracts/AssetManagement.sol\":4348:4379  isUserActive[msg.sender] = true */\n      0x0100\n      exp\n      dup2\n      sload\n      dup2\n      0xff\n      mul\n      not\n      and\n      swap1\n      dup4\n      iszero\n      iszero\n      mul\n      or\n      swap1\n      sstore\n      pop\n        /* \"contracts/AssetManagement.sol\":4407:4422  block.timestamp */\n      timestamp\n        /* \"contracts/AssetManagement.sol\":4390:4394  user */\n      dup4\n        /* \"contracts/AssetManagement.sol\":4390:4404  user.lastLogin */\n      0x04\n      add\n        /* \"contracts/AssetManagement.sol\":4390:4422  user.lastLogin = block.timestamp */\n      dup2\n      swap1\n      sstore\n      pop\n        /* \"contracts/AssetManagement.sol\":4461:4471  msg.sender */\n      caller\n        /* \"contracts/AssetManagement.sol\":4448:4489  UserLoggedIn(msg.sender, block.timestamp) */\n      0xffffffffffffffffffffffffffffffffffffffff\n      and\n      0xd48e107b75fb4263f47c6775f9695146041b81f4e0eac8b4d6075fd5756cba94\n        /* \"contracts/AssetManagement.sol\":4473:4488  block.timestamp */\n      timestamp\n        /* \"contracts/AssetManagement.sol\":4448:4489  UserLoggedIn(msg.sender, block.timestamp) */\n      mload(0x40)\n      tag_200\n      swap2\n      swap1\n      tag_46\n      jump\t// in\n    tag_200:\n      mload(0x40)\n      dup1\n      swap2\n      sub\n      swap1\n      log2\n        /* \"contracts/AssetManagement.sol\":4507:4511  true */\n      0x01\n        /* \"contracts/AssetManagement.sol\":4500:4511  return true */\n      swap4\n      pop\n      pop\n      pop\n      pop\n        /* \"contracts/AssetManagement.sol\":3972:4519  function login(string memory _password) external onlyRegisteredUser returns (bool) {... */\n      swap2\n      swap1\n      pop\n      jump\t// out\n        /* \"contracts/AssetManagement.sol\":2790:2931  function hashPassword(string memory _password) public pure returns (bytes32) {... */\n    tag_65:\n        /* \"contracts/AssetManagement.sol\":2858:2865  bytes32 */\n      0x00\n        /* \"contracts/AssetManagement.sol\":2912:2921  _password */\n      dup2\n        /* \"contracts/AssetManagement.sol\":2895:2922  abi.encodePacked(_password) */\n      add(0x20, mload(0x40))\n      tag_202\n      swap2\n      swap1\n      tag_203\n      jump\t// in\n    tag_202:\n      mload(0x40)\n      0x20\n      dup2\n      dup4\n      sub\n      sub\n      dup2\n      mstore\n      swap1\n      0x40\n      mstore\n        /* \"contracts/AssetManagement.sol\":2885:2923  keccak256(abi.encodePacked(_password)) */\n      dup1\n      mload\n      swap1\n      0x20\n      add\n      keccak256\n        /* \"contracts/AssetManagement.sol\":2878:2923  return keccak256(abi.encodePacked(_password)) */\n      swap1\n      pop\n        /* \"contracts/AssetManagement.sol\":2790:2931  function hashPassword(string memory _password) public pure returns (bytes32) {... */\n      swap2\n      swap1\n      pop\n      jump\t// out\n        /* \"contracts/AssetManagement.sol\":2943:3893  function register(string memory _username, string memory _password) external {... */\n    tag_71:\n        /* \"contracts/AssetManagement.sol\":3040:3045  users */\n      0x06\n        /* \"contracts/AssetManagement.sol\":3040:3057  users[msg.sender] */\n      0x00\n        /* \"contracts/AssetManagement.sol\":3046:3056  msg.sender */\n      caller\n        /* \"contracts/AssetManagement.sol\":3040:3057  users[msg.sender] */\n      0xffffffffffffffffffffffffffffffffffffffff\n      and\n      0xffffffffffffffffffffffffffffffffffffffff\n      and\n      dup2\n      mstore\n      0x20\n      add\n      swap1\n      dup2\n      mstore\n      0x20\n      add\n      0x00\n      keccak256\n        /* \"contracts/AssetManagement.sol\":3040:3070  users[msg.sender].isRegistered */\n      0x02\n      add\n      0x00\n      swap1\n      sload\n      swap1\n      0x0100\n      exp\n      swap1\n      div\n      0xff\n      and\n        /* \"contracts/AssetManagement.sol\":3039:3070  !users[msg.sender].isRegistered */\n      iszero\n        /* \"contracts/AssetManagement.sol\":3031:3098  require(!users[msg.sender].isRegistered, \"User already registered\") */\n      tag_205\n      jumpi\n      mload(0x40)\n      0x08c379a000000000000000000000000000000000000000000000000000000000\n      dup2\n      mstore\n      0x04\n      add\n      tag_206\n      swap1\n      tag_207\n      jump\t// in\n    tag_206:\n      mload(0x40)\n      dup1\n      swap2\n      sub\n      swap1\n      revert\n    tag_205:\n        /* \"contracts/AssetManagement.sol\":3144:3145  3 */\n      0x03\n        /* \"contracts/AssetManagement.sol\":3123:3132  _username */\n      dup3\n        /* \"contracts/AssetManagement.sol\":3117:3140  bytes(_username).length */\n      mload\n        /* \"contracts/AssetManagement.sol\":3117:3145  bytes(_username).length >= 3 */\n      lt\n      iszero\n        /* \"contracts/AssetManagement.sol\":3109:3188  require(bytes(_username).length >= 3, \"Username must be at least 3 characters\") */\n      tag_208\n      jumpi\n      mload(0x40)\n      0x08c379a000000000000000000000000000000000000000000000000000000000\n      dup2\n      mstore\n      0x04\n      add\n      tag_209\n      swap1\n      tag_210\n      jump\t// in\n    tag_209:\n      mload(0x40)\n      dup1\n      swap2\n      sub\n      swap1\n      revert\n    tag_208:\n        /* \"contracts/AssetManagement.sol\":3234:3235  6 */\n      0x06\n        /* \"contracts/AssetManagement.sol\":3213:3222  _password */\n      dup2\n        /* \"contracts/AssetManagement.sol\":3207:3230  bytes(_password).length */\n      mload\n        /* \"contracts/AssetManagement.sol\":3207:3235  bytes(_password).length >= 6 */\n      lt\n      iszero\n        /* \"contracts/AssetManagement.sol\":3199:3278  require(bytes(_password).length >= 6, \"Password must be at least 6 characters\") */\n      tag_211\n      jumpi\n      mload(0x40)\n      0x08c379a000000000000000000000000000000000000000000000000000000000\n      dup2\n      mstore\n      0x04\n      add\n      tag_212\n      swap1\n      tag_213\n      jump\t// in\n    tag_212:\n      mload(0x40)\n      dup1\n      swap2\n      sub\n      swap1\n      revert\n    tag_211:\n        /* \"contracts/AssetManagement.sol\":3298:3311  usernameTaken */\n      0x07\n        /* \"contracts/AssetManagement.sol\":3312:3321  _username */\n      dup3\n        /* \"contracts/AssetManagement.sol\":3298:3322  usernameTaken[_username] */\n      mload(0x40)\n      tag_214\n      swap2\n      swap1\n      tag_203\n      jump\t// in\n    tag_214:\n      swap1\n      dup2\n      mstore\n      0x20\n      add\n      mload(0x40)\n      dup1\n      swap2\n      sub\n      swap1\n      keccak256\n      0x00\n      swap1\n      sload\n      swap1\n      0x0100\n      exp\n      swap1\n      div\n      0xff\n      and\n        /* \"contracts/AssetManagement.sol\":3297:3322  !usernameTaken[_username] */\n      iszero\n        /* \"contracts/AssetManagement.sol\":3289:3349  require(!usernameTaken[_username], \"Username already taken\") */\n      tag_215\n      jumpi\n      mload(0x40)\n      0x08c379a000000000000000000000000000000000000000000000000000000000\n      dup2\n      mstore\n      0x04\n      add\n      tag_216\n      swap1\n      tag_217\n      jump\t// in\n    tag_216:\n      mload(0x40)\n      dup1\n      swap2\n      sub\n      swap1\n      revert\n    tag_215:\n        /* \"contracts/AssetManagement.sol\":3395:3397  32 */\n      0x20\n        /* \"contracts/AssetManagement.sol\":3374:3383  _username */\n      dup3\n        /* \"contracts/AssetManagement.sol\":3368:3391  bytes(_username).length */\n      mload\n        /* \"contracts/AssetManagement.sol\":3368:3397  bytes(_username).length <= 32 */\n      gt\n      iszero\n        /* \"contracts/AssetManagement.sol\":3360:3419  require(bytes(_username).length <= 32, \"Username too long\") */\n      tag_218\n      jumpi\n      mload(0x40)\n      0x08c379a000000000000000000000000000000000000000000000000000000000\n      dup2\n      mstore\n      0x04\n      add\n      tag_219\n      swap1\n      tag_220\n      jump\t// in\n    tag_219:\n      mload(0x40)\n      dup1\n      swap2\n      sub\n      swap1\n      revert\n    tag_218:\n        /* \"contracts/AssetManagement.sol\":3440:3460  bytes32 passwordHash */\n      0x00\n        /* \"contracts/AssetManagement.sol\":3463:3486  hashPassword(_password) */\n      tag_221\n        /* \"contracts/AssetManagement.sol\":3476:3485  _password */\n      dup3\n        /* \"contracts/AssetManagement.sol\":3463:3475  hashPassword */\n      tag_65\n        /* \"contracts/AssetManagement.sol\":3463:3486  hashPassword(_password) */\n      jump\t// in\n    tag_221:\n        /* \"contracts/AssetManagement.sol\":3440:3486  bytes32 passwordHash = hashPassword(_password) */\n      swap1\n      pop\n        /* \"contracts/AssetManagement.sol\":3527:3753  User({... */\n      mload(0x40)\n      dup1\n      0xa0\n      add\n      0x40\n      mstore\n      dup1\n        /* \"contracts/AssetManagement.sol\":3557:3566  _username */\n      dup5\n        /* \"contracts/AssetManagement.sol\":3527:3753  User({... */\n      dup2\n      mstore\n      0x20\n      add\n        /* \"contracts/AssetManagement.sol\":3619:3631  passwordHash */\n      dup3\n        /* \"contracts/AssetManagement.sol\":3602:3632  abi.encodePacked(passwordHash) */\n      add(0x20, mload(0x40))\n      tag_222\n      swap2\n      swap1\n      tag_223\n      jump\t// in\n    tag_222:\n      mload(0x40)\n      0x20\n      dup2\n      dup4\n      sub\n      sub\n      dup2\n      mstore\n      swap1\n      0x40\n      mstore\n        /* \"contracts/AssetManagement.sol\":3527:3753  User({... */\n      dup2\n      mstore\n      0x20\n      add\n        /* \"contracts/AssetManagement.sol\":3662:3666  true */\n      0x01\n        /* \"contracts/AssetManagement.sol\":3527:3753  User({... */\n      iszero\n      iszero\n      dup2\n      mstore\n      0x20\n      add\n        /* \"contracts/AssetManagement.sol\":3699:3714  block.timestamp */\n      timestamp\n        /* \"contracts/AssetManagement.sol\":3527:3753  User({... */\n      dup2\n      mstore\n      0x20\n      add\n        /* \"contracts/AssetManagement.sol\":3740:3741  0 */\n      0x00\n        /* \"contracts/AssetManagement.sol\":3527:3753  User({... */\n      dup2\n      mstore\n      pop\n        /* \"contracts/AssetManagement.sol\":3507:3512  users */\n      0x06\n        /* \"contracts/AssetManagement.sol\":3507:3524  users[msg.sender] */\n      0x00\n        /* \"contracts/AssetManagement.sol\":3513:3523  msg.sender */\n      caller\n        /* \"contracts/AssetManagement.sol\":3507:3524  users[msg.sender] */\n      0xffffffffffffffffffffffffffffffffffffffff\n      and\n      0xffffffffffffffffffffffffffffffffffffffff\n      and\n      dup2\n      mstore\n      0x20\n      add\n      swap1\n      dup2\n      mstore\n      0x20\n      add\n      0x00\n      keccak256\n        /* \"contracts/AssetManagement.sol\":3507:3753  users[msg.sender] = User({... */\n      0x00\n      dup3\n      add\n      mload\n      dup2\n      0x00\n      add\n      swap1\n      dup2\n      tag_224\n      swap2\n      swap1\n      tag_225\n      jump\t// in\n    tag_224:\n      pop\n      0x20\n      dup3\n      add\n      mload\n      dup2\n      0x01\n      add\n      swap1\n      dup2\n      tag_226\n      swap2\n      swap1\n      tag_225\n      jump\t// in\n    tag_226:\n      pop\n      0x40\n      dup3\n      add\n      mload\n      dup2\n      0x02\n      add\n      exp(0x0100, 0x00)\n      dup2\n      sload\n      dup2\n      0xff\n      mul\n      not\n      and\n      swap1\n      dup4\n      iszero\n      iszero\n      mul\n      or\n      swap1\n      sstore\n      pop\n      0x60\n      dup3\n      add\n      mload\n      dup2\n      0x03\n      add\n      sstore\n      0x80\n      dup3\n      add\n      mload\n      dup2\n      0x04\n      add\n      sstore\n      swap1\n      pop\n      pop\n        /* \"contracts/AssetManagement.sol\":3801:3805  true */\n      0x01\n        /* \"contracts/AssetManagement.sol\":3774:3787  usernameTaken */\n      0x07\n        /* \"contracts/AssetManagement.sol\":3788:3797  _username */\n      dup5\n        /* \"contracts/AssetManagement.sol\":3774:3798  usernameTaken[_username] */\n      mload(0x40)\n      tag_227\n      swap2\n      swap1\n      tag_203\n      jump\t// in\n    tag_227:\n      swap1\n      dup2\n      mstore\n      0x20\n      add\n      mload(0x40)\n      dup1\n      swap2\n      sub\n      swap1\n      keccak256\n      0x00\n        /* \"contracts/AssetManagement.sol\":3774:3805  usernameTaken[_username] = true */\n      0x0100\n      exp\n      dup2\n      sload\n      dup2\n      0xff\n      mul\n      not\n      and\n      swap1\n      dup4\n      iszero\n      iszero\n      mul\n      or\n      swap1\n      sstore\n      pop\n        /* \"contracts/AssetManagement.sol\":3846:3856  msg.sender */\n      caller\n        /* \"contracts/AssetManagement.sol\":3831:3885  UserRegistered(msg.sender, _username, block.timestamp) */\n      0xffffffffffffffffffffffffffffffffffffffff\n      and\n      0x89105a1c6a3c2fbd471255c66a31ccab604af5697f67d7e2e9a0028c5e4dbd91\n        /* \"contracts/AssetManagement.sol\":3858:3867  _username */\n      dup5\n        /* \"contracts/AssetManagement.sol\":3869:3884  block.timestamp */\n      timestamp\n        /* \"contracts/AssetManagement.sol\":3831:3885  UserRegistered(msg.sender, _username, block.timestamp) */\n      mload(0x40)\n      tag_228\n      swap3\n      swap2\n      swap1\n      tag_229\n      jump\t// in\n    tag_228:\n      mload(0x40)\n      dup1\n      swap2\n      sub\n      swap1\n      log2\n        /* \"contracts/AssetManagement.sol\":3020:3893  {... */\n      pop\n        /* \"contracts/AssetManagement.sol\":2943:3893  function register(string memory _username, string memory _password) external {... */\n      pop\n      pop\n      jump\t// out\n        /* \"contracts/AssetManagement.sol\":1031:1103  mapping(address => mapping(address => uint256)) public userTokenBalances */\n    tag_75:\n      mstore(0x20, 0x02)\n      dup2\n      0x00\n      mstore\n      mstore(0x20, keccak256(0x00, 0x40))\n      dup1\n      0x00\n      mstore\n      keccak256(0x00, 0x40)\n      0x00\n      swap2\n      pop\n      swap2\n      pop\n      pop\n      sload\n      dup2\n      jump\t// out\n        /* \"contracts/AssetManagement.sol\":6638:8399  function deposit(address _token, uint256 _amount) external nonReentrant onlyRegisteredUser onlyActiveUser {... */\n    tag_80:\n        /* \"@openzeppelin/contracts/security/ReentrancyGuard.sol\":2261:2282  _nonReentrantBefore() */\n      tag_231\n        /* \"@openzeppelin/contracts/security/ReentrancyGuard.sol\":2261:2280  _nonReentrantBefore */\n      tag_232\n        /* \"@openzeppelin/contracts/security/ReentrancyGuard.sol\":2261:2282  _nonReentrantBefore() */\n      jump\t// in\n    tag_231:\n        /* \"contracts/AssetManagement.sol\":2444:2449  users */\n      0x06\n        /* \"contracts/AssetManagement.sol\":2444:2461  users[msg.sender] */\n      0x00\n        /* \"contracts/AssetManagement.sol\":2450:2460  msg.sender */\n      caller\n        /* \"contracts/AssetManagement.sol\":2444:2461  users[msg.sender] */\n      0xffffffffffffffffffffffffffffffffffffffff\n      and\n      0xffffffffffffffffffffffffffffffffffffffff\n      and\n      dup2\n      mstore\n      0x20\n      add\n      swap1\n      dup2\n      mstore\n      0x20\n      add\n      0x00\n      keccak256\n        /* \"contracts/AssetManagement.sol\":2444:2474  users[msg.sender].isRegistered */\n      0x02\n      add\n      0x00\n      swap1\n      sload\n      swap1\n      0x0100\n      exp\n      swap1\n      div\n      0xff\n      and\n        /* \"contracts/AssetManagement.sol\":2436:2498  require(users[msg.sender].isRegistered, \"User not registered\") */\n      tag_234\n      jumpi\n      mload(0x40)\n      0x08c379a000000000000000000000000000000000000000000000000000000000\n      dup2\n      mstore\n      0x04\n      add\n      tag_235\n      swap1\n      tag_192\n      jump\t// in\n    tag_235:\n      mload(0x40)\n      dup1\n      swap2\n      sub\n      swap1\n      revert\n    tag_234:\n        /* \"contracts/AssetManagement.sol\":2575:2587  isUserActive */\n      0x08\n        /* \"contracts/AssetManagement.sol\":2575:2599  isUserActive[msg.sender] */\n      0x00\n        /* \"contracts/AssetManagement.sol\":2588:2598  msg.sender */\n      caller\n        /* \"contracts/AssetManagement.sol\":2575:2599  isUserActive[msg.sender] */\n      0xffffffffffffffffffffffffffffffffffffffff\n      and\n      0xffffffffffffffffffffffffffffffffffffffff\n      and\n      dup2\n      mstore\n      0x20\n      add\n      swap1\n      dup2\n      mstore\n      0x20\n      add\n      0x00\n      keccak256\n      0x00\n      swap1\n      sload\n      swap1\n      0x0100\n      exp\n      swap1\n      div\n      0xff\n      and\n        /* \"contracts/AssetManagement.sol\":2567:2622  require(isUserActive[msg.sender], \"User not logged in\") */\n      tag_237\n      jumpi\n      mload(0x40)\n      0x08c379a000000000000000000000000000000000000000000000000000000000\n      dup2\n      mstore\n      0x04\n      add\n      tag_238\n      swap1\n      tag_187\n      jump\t// in\n    tag_238:\n      mload(0x40)\n      dup1\n      swap2\n      sub\n      swap1\n      revert\n    tag_237:\n        /* \"contracts/AssetManagement.sol\":6763:6779  isTokenSupported */\n      0x0b\n        /* \"contracts/AssetManagement.sol\":6763:6787  isTokenSupported[_token] */\n      0x00\n        /* \"contracts/AssetManagement.sol\":6780:6786  _token */\n      dup4\n        /* \"contracts/AssetManagement.sol\":6763:6787  isTokenSupported[_token] */\n      0xffffffffffffffffffffffffffffffffffffffff\n      and\n      0xffffffffffffffffffffffffffffffffffffffff\n      and\n      dup2\n      mstore\n      0x20\n      add\n      swap1\n      dup2\n      mstore\n      0x20\n      add\n      0x00\n      keccak256\n      0x00\n      swap1\n      sload\n      swap1\n      0x0100\n      exp\n      swap1\n      div\n      0xff\n      and\n        /* \"contracts/AssetManagement.sol\":6755:6811  require(isTokenSupported[_token], \"Token not supported\") */\n      tag_240\n      jumpi\n      mload(0x40)\n      0x08c379a000000000000000000000000000000000000000000000000000000000\n      dup2\n      mstore\n      0x04\n      add\n      tag_241\n      swap1\n      tag_242\n      jump\t// in\n    tag_241:\n      mload(0x40)\n      dup1\n      swap2\n      sub\n      swap1\n      revert\n    tag_240:\n        /* \"contracts/AssetManagement.sol\":6840:6841  0 */\n      0x00\n        /* \"contracts/AssetManagement.sol\":6830:6837  _amount */\n      dup2\n        /* \"contracts/AssetManagement.sol\":6830:6841  _amount > 0 */\n      gt\n        /* \"contracts/AssetManagement.sol\":6822:6875  require(_amount > 0, \"Amount must be greater than 0\") */\n      tag_243\n      jumpi\n      mload(0x40)\n      0x08c379a000000000000000000000000000000000000000000000000000000000\n      dup2\n      mstore\n      0x04\n      add\n      tag_244\n      swap1\n      tag_245\n      jump\t// in\n    tag_244:\n      mload(0x40)\n      dup1\n      swap2\n      sub\n      swap1\n      revert\n    tag_243:\n        /* \"contracts/AssetManagement.sol\":6896:6908  IERC20 token */\n      0x00\n        /* \"contracts/AssetManagement.sol\":6918:6924  _token */\n      dup3\n        /* \"contracts/AssetManagement.sol\":6896:6925  IERC20 token = IERC20(_token) */\n      swap1\n      pop\n        /* \"contracts/AssetManagement.sol\":6987:7011  uint256 currentAllowance */\n      0x00\n        /* \"contracts/AssetManagement.sol\":7014:7019  token */\n      dup2\n        /* \"contracts/AssetManagement.sol\":7014:7029  token.allowance */\n      0xffffffffffffffffffffffffffffffffffffffff\n      and\n      0xdd62ed3e\n        /* \"contracts/AssetManagement.sol\":7030:7040  msg.sender */\n      caller\n        /* \"contracts/AssetManagement.sol\":7050:7054  this */\n      address\n        /* \"contracts/AssetManagement.sol\":7014:7056  token.allowance(msg.sender, address(this)) */\n      mload(0x40)\n      dup4\n      0xffffffff\n      and\n      0xe0\n      shl\n      dup2\n      mstore\n      0x04\n      add\n      tag_246\n      swap3\n      swap2\n      swap1\n      tag_180\n      jump\t// in\n    tag_246:\n      0x20\n      mload(0x40)\n      dup1\n      dup4\n      sub\n      dup2\n      dup7\n      gas\n      staticcall\n      iszero\n      dup1\n      iszero\n      tag_248\n      jumpi\n      returndatacopy(0x00, 0x00, returndatasize)\n      revert(0x00, returndatasize)\n    tag_248:\n      pop\n      pop\n      pop\n      pop\n      mload(0x40)\n      returndatasize\n      not(0x1f)\n      0x1f\n      dup3\n      add\n      and\n      dup3\n      add\n      dup1\n      0x40\n      mstore\n      pop\n      dup2\n      add\n      swap1\n      tag_249\n      swap2\n      swap1\n      tag_176\n      jump\t// in\n    tag_249:\n        /* \"contracts/AssetManagement.sol\":6987:7056  uint256 currentAllowance = token.allowance(msg.sender, address(this)) */\n      swap1\n      pop\n        /* \"contracts/AssetManagement.sol\":7095:7102  _amount */\n      dup3\n        /* \"contracts/AssetManagement.sol\":7075:7091  currentAllowance */\n      dup2\n        /* \"contracts/AssetManagement.sol\":7075:7102  currentAllowance >= _amount */\n      lt\n      iszero\n        /* \"contracts/AssetManagement.sol\":7165:7191  uint2str(currentAllowance) */\n      tag_250\n        /* \"contracts/AssetManagement.sol\":7174:7190  currentAllowance */\n      dup3\n        /* \"contracts/AssetManagement.sol\":7165:7173  uint2str */\n      tag_251\n        /* \"contracts/AssetManagement.sol\":7165:7191  uint2str(currentAllowance) */\n      jump\t// in\n    tag_250:\n        /* \"contracts/AssetManagement.sol\":7209:7226  uint2str(_amount) */\n      tag_252\n        /* \"contracts/AssetManagement.sol\":7218:7225  _amount */\n      dup6\n        /* \"contracts/AssetManagement.sol\":7209:7217  uint2str */\n      tag_251\n        /* \"contracts/AssetManagement.sol\":7209:7226  uint2str(_amount) */\n      jump\t// in\n    tag_252:\n        /* \"contracts/AssetManagement.sol\":7111:7227  abi.encodePacked(\"Insufficient allowance. Current: \", uint2str(currentAllowance), \", Required: \", uint2str(_amount)) */\n      add(0x20, mload(0x40))\n      tag_253\n      swap3\n      swap2\n      swap1\n      tag_254\n      jump\t// in\n    tag_253:\n      mload(0x40)\n      0x20\n      dup2\n      dup4\n      sub\n      sub\n      dup2\n      mstore\n      swap1\n      0x40\n      mstore\n        /* \"contracts/AssetManagement.sol\":7067:7229  require(currentAllowance >= _amount, string(abi.encodePacked(\"Insufficient allowance. Current: \", uint2str(currentAllowance), \", Required: \", uint2str(_amount)))) */\n      swap1\n      tag_255\n      jumpi\n      mload(0x40)\n      0x08c379a000000000000000000000000000000000000000000000000000000000\n      dup2\n      mstore\n      0x04\n      add\n      tag_256\n      swap2\n      swap1\n      tag_257\n      jump\t// in\n    tag_256:\n      mload(0x40)\n      dup1\n      swap2\n      sub\n      swap1\n      revert\n    tag_255:\n      pop\n        /* \"contracts/AssetManagement.sol\":7319:7338  uint256 userBalance */\n      0x00\n        /* \"contracts/AssetManagement.sol\":7341:7346  token */\n      dup3\n        /* \"contracts/AssetManagement.sol\":7341:7356  token.balanceOf */\n      0xffffffffffffffffffffffffffffffffffffffff\n      and\n      0x70a08231\n        /* \"contracts/AssetManagement.sol\":7357:7367  msg.sender */\n      caller\n        /* \"contracts/AssetManagement.sol\":7341:7368  token.balanceOf(msg.sender) */\n      mload(0x40)\n      dup3\n      0xffffffff\n      and\n      0xe0\n      shl\n      dup2\n      mstore\n      0x04\n      add\n      tag_258\n      swap2\n      swap1\n      tag_113\n      jump\t// in\n    tag_258:\n      0x20\n      mload(0x40)\n      dup1\n      dup4\n      sub\n      dup2\n      dup7\n      gas\n      staticcall\n      iszero\n      dup1\n      iszero\n      tag_260\n      jumpi\n      returndatacopy(0x00, 0x00, returndatasize)\n      revert(0x00, returndatasize)\n    tag_260:\n      pop\n      pop\n      pop\n      pop\n      mload(0x40)\n      returndatasize\n      not(0x1f)\n      0x1f\n      dup3\n      add\n      and\n      dup3\n      add\n      dup1\n      0x40\n      mstore\n      pop\n      dup2\n      add\n      swap1\n      tag_261\n      swap2\n      swap1\n      tag_176\n      jump\t// in\n    tag_261:\n        /* \"contracts/AssetManagement.sol\":7319:7368  uint256 userBalance = token.balanceOf(msg.sender) */\n      swap1\n      pop\n        /* \"contracts/AssetManagement.sol\":7402:7409  _amount */\n      dup4\n        /* \"contracts/AssetManagement.sol\":7387:7398  userBalance */\n      dup2\n        /* \"contracts/AssetManagement.sol\":7387:7409  userBalance >= _amount */\n      lt\n      iszero\n        /* \"contracts/AssetManagement.sol\":7476:7497  uint2str(userBalance) */\n      tag_262\n        /* \"contracts/AssetManagement.sol\":7485:7496  userBalance */\n      dup3\n        /* \"contracts/AssetManagement.sol\":7476:7484  uint2str */\n      tag_251\n        /* \"contracts/AssetManagement.sol\":7476:7497  uint2str(userBalance) */\n      jump\t// in\n    tag_262:\n        /* \"contracts/AssetManagement.sol\":7515:7532  uint2str(_amount) */\n      tag_263\n        /* \"contracts/AssetManagement.sol\":7524:7531  _amount */\n      dup7\n        /* \"contracts/AssetManagement.sol\":7515:7523  uint2str */\n      tag_251\n        /* \"contracts/AssetManagement.sol\":7515:7532  uint2str(_amount) */\n      jump\t// in\n    tag_263:\n        /* \"contracts/AssetManagement.sol\":7418:7533  abi.encodePacked(\"Insufficient token balance. Current: \", uint2str(userBalance), \", Required: \", uint2str(_amount)) */\n      add(0x20, mload(0x40))\n      tag_264\n      swap3\n      swap2\n      swap1\n      tag_265\n      jump\t// in\n    tag_264:\n      mload(0x40)\n      0x20\n      dup2\n      dup4\n      sub\n      sub\n      dup2\n      mstore\n      swap1\n      0x40\n      mstore\n        /* \"contracts/AssetManagement.sol\":7379:7535  require(userBalance >= _amount, string(abi.encodePacked(\"Insufficient token balance. Current: \", uint2str(userBalance), \", Required: \", uint2str(_amount)))) */\n      swap1\n      tag_266\n      jumpi\n      mload(0x40)\n      0x08c379a000000000000000000000000000000000000000000000000000000000\n      dup2\n      mstore\n      0x04\n      add\n      tag_267\n      swap2\n      swap1\n      tag_257\n      jump\t// in\n    tag_267:\n      mload(0x40)\n      dup1\n      swap2\n      sub\n      swap1\n      revert\n    tag_266:\n      pop\n        /* \"contracts/AssetManagement.sol\":7608:7613  token */\n      dup3\n        /* \"contracts/AssetManagement.sol\":7608:7626  token.transferFrom */\n      0xffffffffffffffffffffffffffffffffffffffff\n      and\n      0x23b872dd\n        /* \"contracts/AssetManagement.sol\":7627:7637  msg.sender */\n      caller\n        /* \"contracts/AssetManagement.sol\":7647:7651  this */\n      address\n        /* \"contracts/AssetManagement.sol\":7654:7661  _amount */\n      dup8\n        /* \"contracts/AssetManagement.sol\":7608:7662  token.transferFrom(msg.sender, address(this), _amount) */\n      mload(0x40)\n      dup5\n      0xffffffff\n      and\n      0xe0\n      shl\n      dup2\n      mstore\n      0x04\n      add\n      tag_268\n      swap4\n      swap3\n      swap2\n      swap1\n      tag_269\n      jump\t// in\n    tag_268:\n      0x20\n      mload(0x40)\n      dup1\n      dup4\n      sub\n      dup2\n      0x00\n      dup8\n      gas\n      call\n      iszero\n      dup1\n      iszero\n      tag_271\n      jumpi\n      returndatacopy(0x00, 0x00, returndatasize)\n      revert(0x00, returndatasize)\n    tag_271:\n      pop\n      pop\n      pop\n      pop\n      mload(0x40)\n      returndatasize\n      not(0x1f)\n      0x1f\n      dup3\n      add\n      and\n      dup3\n      add\n      dup1\n      0x40\n      mstore\n      pop\n      dup2\n      add\n      swap1\n      tag_272\n      swap2\n      swap1\n      tag_273\n      jump\t// in\n    tag_272:\n        /* \"contracts/AssetManagement.sol\":7600:7682  require(token.transferFrom(msg.sender, address(this), _amount), \"Transfer failed\") */\n      tag_274\n      jumpi\n      mload(0x40)\n      0x08c379a000000000000000000000000000000000000000000000000000000000\n      dup2\n      mstore\n      0x04\n      add\n      tag_275\n      swap1\n      tag_276\n      jump\t// in\n    tag_275:\n      mload(0x40)\n      dup1\n      swap2\n      sub\n      swap1\n      revert\n    tag_274:\n        /* \"contracts/AssetManagement.sol\":7794:7795  0 */\n      0x00\n        /* \"contracts/AssetManagement.sol\":7753:7770  userTokenBalances */\n      0x02\n        /* \"contracts/AssetManagement.sol\":7753:7782  userTokenBalances[msg.sender] */\n      0x00\n        /* \"contracts/AssetManagement.sol\":7771:7781  msg.sender */\n      caller\n        /* \"contracts/AssetManagement.sol\":7753:7782  userTokenBalances[msg.sender] */\n      0xffffffffffffffffffffffffffffffffffffffff\n      and\n      0xffffffffffffffffffffffffffffffffffffffff\n      and\n      dup2\n      mstore\n      0x20\n      add\n      swap1\n      dup2\n      mstore\n      0x20\n      add\n      0x00\n      keccak256\n        /* \"contracts/AssetManagement.sol\":7753:7790  userTokenBalances[msg.sender][_token] */\n      0x00\n        /* \"contracts/AssetManagement.sol\":7783:7789  _token */\n      dup8\n        /* \"contracts/AssetManagement.sol\":7753:7790  userTokenBalances[msg.sender][_token] */\n      0xffffffffffffffffffffffffffffffffffffffff\n      and\n      0xffffffffffffffffffffffffffffffffffffffff\n      and\n      dup2\n      mstore\n      0x20\n      add\n      swap1\n      dup2\n      mstore\n      0x20\n      add\n      0x00\n      keccak256\n      sload\n        /* \"contracts/AssetManagement.sol\":7753:7795  userTokenBalances[msg.sender][_token] == 0 */\n      sub\n        /* \"contracts/AssetManagement.sol\":7749:7859  if (userTokenBalances[msg.sender][_token] == 0) {... */\n      tag_277\n      jumpi\n        /* \"contracts/AssetManagement.sol\":7812:7822  userTokens */\n      0x04\n        /* \"contracts/AssetManagement.sol\":7812:7834  userTokens[msg.sender] */\n      0x00\n        /* \"contracts/AssetManagement.sol\":7823:7833  msg.sender */\n      caller\n        /* \"contracts/AssetManagement.sol\":7812:7834  userTokens[msg.sender] */\n      0xffffffffffffffffffffffffffffffffffffffff\n      and\n      0xffffffffffffffffffffffffffffffffffffffff\n      and\n      dup2\n      mstore\n      0x20\n      add\n      swap1\n      dup2\n      mstore\n      0x20\n      add\n      0x00\n      keccak256\n        /* \"contracts/AssetManagement.sol\":7840:7846  _token */\n      dup6\n        /* \"contracts/AssetManagement.sol\":7812:7847  userTokens[msg.sender].push(_token) */\n      swap1\n      dup1\n      0x01\n      dup2\n      sload\n      add\n      dup1\n      dup3\n      sstore\n      dup1\n      swap2\n      pop\n      pop\n      0x01\n      swap1\n      sub\n      swap1\n      0x00\n      mstore\n      keccak256(0x00, 0x20)\n      add\n      0x00\n      swap1\n      swap2\n      swap1\n      swap2\n      swap1\n      swap2\n      0x0100\n      exp\n      dup2\n      sload\n      dup2\n      0xffffffffffffffffffffffffffffffffffffffff\n      mul\n      not\n      and\n      swap1\n      dup4\n      0xffffffffffffffffffffffffffffffffffffffff\n      and\n      mul\n      or\n      swap1\n      sstore\n      pop\n        /* \"contracts/AssetManagement.sol\":7749:7859  if (userTokenBalances[msg.sender][_token] == 0) {... */\n    tag_277:\n        /* \"contracts/AssetManagement.sol\":7920:7927  _amount */\n      dup4\n        /* \"contracts/AssetManagement.sol\":7879:7896  userTokenBalances */\n      0x02\n        /* \"contracts/AssetManagement.sol\":7879:7908  userTokenBalances[msg.sender] */\n      0x00\n        /* \"contracts/AssetManagement.sol\":7897:7907  msg.sender */\n      caller\n        /* \"contracts/AssetManagement.sol\":7879:7908  userTokenBalances[msg.sender] */\n      0xffffffffffffffffffffffffffffffffffffffff\n      and\n      0xffffffffffffffffffffffffffffffffffffffff\n      and\n      dup2\n      mstore\n      0x20\n      add\n      swap1\n      dup2\n      mstore\n      0x20\n      add\n      0x00\n      keccak256\n        /* \"contracts/AssetManagement.sol\":7879:7916  userTokenBalances[msg.sender][_token] */\n      0x00\n        /* \"contracts/AssetManagement.sol\":7909:7915  _token */\n      dup8\n        /* \"contracts/AssetManagement.sol\":7879:7916  userTokenBalances[msg.sender][_token] */\n      0xffffffffffffffffffffffffffffffffffffffff\n      and\n      0xffffffffffffffffffffffffffffffffffffffff\n      and\n      dup2\n      mstore\n      0x20\n      add\n      swap1\n      dup2\n      mstore\n      0x20\n      add\n      0x00\n      keccak256\n      0x00\n        /* \"contracts/AssetManagement.sol\":7879:7927  userTokenBalances[msg.sender][_token] += _amount */\n      dup3\n      dup3\n      sload\n      tag_279\n      swap2\n      swap1\n      tag_280\n      jump\t// in\n    tag_279:\n      swap3\n      pop\n      pop\n      dup2\n      swap1\n      sstore\n      pop\n        /* \"contracts/AssetManagement.sol\":7984:7991  _amount */\n      dup4\n        /* \"contracts/AssetManagement.sol\":7938:7960  userInitialInvestments */\n      0x03\n        /* \"contracts/AssetManagement.sol\":7938:7972  userInitialInvestments[msg.sender] */\n      0x00\n        /* \"contracts/AssetManagement.sol\":7961:7971  msg.sender */\n      caller\n        /* \"contracts/AssetManagement.sol\":7938:7972  userInitialInvestments[msg.sender] */\n      0xffffffffffffffffffffffffffffffffffffffff\n      and\n      0xffffffffffffffffffffffffffffffffffffffff\n      and\n      dup2\n      mstore\n      0x20\n      add\n      swap1\n      dup2\n      mstore\n      0x20\n      add\n      0x00\n      keccak256\n        /* \"contracts/AssetManagement.sol\":7938:7980  userInitialInvestments[msg.sender][_token] */\n      0x00\n        /* \"contracts/AssetManagement.sol\":7973:7979  _token */\n      dup8\n        /* \"contracts/AssetManagement.sol\":7938:7980  userInitialInvestments[msg.sender][_token] */\n      0xffffffffffffffffffffffffffffffffffffffff\n      and\n      0xffffffffffffffffffffffffffffffffffffffff\n      and\n      dup2\n      mstore\n      0x20\n      add\n      swap1\n      dup2\n      mstore\n      0x20\n      add\n      0x00\n      keccak256\n      0x00\n        /* \"contracts/AssetManagement.sol\":7938:7991  userInitialInvestments[msg.sender][_token] += _amount */\n      dup3\n      dup3\n      sload\n      tag_281\n      swap2\n      swap1\n      tag_280\n      jump\t// in\n    tag_281:\n      swap3\n      pop\n      pop\n      dup2\n      swap1\n      sstore\n      pop\n        /* \"contracts/AssetManagement.sol\":8099:8283  Transaction({... */\n      mload(0x40)\n      dup1\n      0xa0\n      add\n      0x40\n      mstore\n      dup1\n        /* \"contracts/AssetManagement.sol\":8132:8142  msg.sender */\n      caller\n        /* \"contracts/AssetManagement.sol\":8099:8283  Transaction({... */\n      0xffffffffffffffffffffffffffffffffffffffff\n      and\n      dup2\n      mstore\n      0x20\n      add\n        /* \"contracts/AssetManagement.sol\":8164:8170  _token */\n      dup7\n        /* \"contracts/AssetManagement.sol\":8099:8283  Transaction({... */\n      0xffffffffffffffffffffffffffffffffffffffff\n      and\n      dup2\n      mstore\n      0x20\n      add\n        /* \"contracts/AssetManagement.sol\":8193:8200  _amount */\n      dup6\n        /* \"contracts/AssetManagement.sol\":8099:8283  Transaction({... */\n      dup2\n      mstore\n      0x20\n      add\n        /* \"contracts/AssetManagement.sol\":8226:8230  true */\n      0x01\n        /* \"contracts/AssetManagement.sol\":8099:8283  Transaction({... */\n      iszero\n      iszero\n      dup2\n      mstore\n      0x20\n      add\n        /* \"contracts/AssetManagement.sol\":8256:8271  block.timestamp */\n      timestamp\n        /* \"contracts/AssetManagement.sol\":8099:8283  Transaction({... */\n      dup2\n      mstore\n      pop\n        /* \"contracts/AssetManagement.sol\":8066:8078  transactions */\n      0x05\n        /* \"contracts/AssetManagement.sol\":8066:8096  transactions[transactionCount] */\n      0x00\n        /* \"contracts/AssetManagement.sol\":8079:8095  transactionCount */\n      sload(0x09)\n        /* \"contracts/AssetManagement.sol\":8066:8096  transactions[transactionCount] */\n      dup2\n      mstore\n      0x20\n      add\n      swap1\n      dup2\n      mstore\n      0x20\n      add\n      0x00\n      keccak256\n        /* \"contracts/AssetManagement.sol\":8066:8283  transactions[transactionCount] = Transaction({... */\n      0x00\n      dup3\n      add\n      mload\n      dup2\n      0x00\n      add\n      exp(0x0100, 0x00)\n      dup2\n      sload\n      dup2\n      0xffffffffffffffffffffffffffffffffffffffff\n      mul\n      not\n      and\n      swap1\n      dup4\n      0xffffffffffffffffffffffffffffffffffffffff\n      and\n      mul\n      or\n      swap1\n      sstore\n      pop\n      0x20\n      dup3\n      add\n      mload\n      dup2\n      0x01\n      add\n      exp(0x0100, 0x00)\n      dup2\n      sload\n      dup2\n      0xffffffffffffffffffffffffffffffffffffffff\n      mul\n      not\n      and\n      swap1\n      dup4\n      0xffffffffffffffffffffffffffffffffffffffff\n      and\n      mul\n      or\n      swap1\n      sstore\n      pop\n      0x40\n      dup3\n      add\n      mload\n      dup2\n      0x02\n      add\n      sstore\n      0x60\n      dup3\n      add\n      mload\n      dup2\n      0x03\n      add\n      exp(0x0100, 0x00)\n      dup2\n      sload\n      dup2\n      0xff\n      mul\n      not\n      and\n      swap1\n      dup4\n      iszero\n      iszero\n      mul\n      or\n      swap1\n      sstore\n      pop\n      0x80\n      dup3\n      add\n      mload\n      dup2\n      0x04\n      add\n      sstore\n      swap1\n      pop\n      pop\n        /* \"contracts/AssetManagement.sol\":8294:8310  transactionCount */\n      0x09\n      0x00\n        /* \"contracts/AssetManagement.sol\":8294:8312  transactionCount++ */\n      dup2\n      sload\n      dup1\n      swap3\n      swap2\n      swap1\n      tag_282\n      swap1\n      tag_283\n      jump\t// in\n    tag_282:\n      swap2\n      swap1\n      pop\n      sstore\n      pop\n        /* \"contracts/AssetManagement.sol\":8358:8364  _token */\n      dup5\n        /* \"contracts/AssetManagement.sol\":8338:8391  Deposit(msg.sender, _token, _amount, block.timestamp) */\n      0xffffffffffffffffffffffffffffffffffffffff\n      and\n        /* \"contracts/AssetManagement.sol\":8346:8356  msg.sender */\n      caller\n        /* \"contracts/AssetManagement.sol\":8338:8391  Deposit(msg.sender, _token, _amount, block.timestamp) */\n      0xffffffffffffffffffffffffffffffffffffffff\n      and\n      0xdcbc1c05240f31ff3ad067ef1ee35ce4997762752e3a095284754544f4c709d7\n        /* \"contracts/AssetManagement.sol\":8366:8373  _amount */\n      dup7\n        /* \"contracts/AssetManagement.sol\":8375:8390  block.timestamp */\n      timestamp\n        /* \"contracts/AssetManagement.sol\":8338:8391  Deposit(msg.sender, _token, _amount, block.timestamp) */\n      mload(0x40)\n      tag_284\n      swap3\n      swap2\n      swap1\n      tag_285\n      jump\t// in\n    tag_284:\n      mload(0x40)\n      dup1\n      swap2\n      sub\n      swap1\n      log3\n        /* \"contracts/AssetManagement.sol\":6744:8399  {... */\n      pop\n      pop\n      pop\n        /* \"@openzeppelin/contracts/security/ReentrancyGuard.sol\":2303:2323  _nonReentrantAfter() */\n      tag_286\n        /* \"@openzeppelin/contracts/security/ReentrancyGuard.sol\":2303:2321  _nonReentrantAfter */\n      tag_287\n        /* \"@openzeppelin/contracts/security/ReentrancyGuard.sol\":2303:2323  _nonReentrantAfter() */\n      jump\t// in\n    tag_286:\n        /* \"contracts/AssetManagement.sol\":6638:8399  function deposit(address _token, uint256 _amount) external nonReentrant onlyRegisteredUser onlyActiveUser {... */\n      pop\n      pop\n      jump\t// out\n        /* \"contracts/AssetManagement.sol\":9637:9759  function getUserTokens(address _user) external view returns (address[] memory) {... */\n    tag_83:\n        /* \"contracts/AssetManagement.sol\":9698:9714  address[] memory */\n      0x60\n        /* \"contracts/AssetManagement.sol\":9734:9744  userTokens */\n      0x04\n        /* \"contracts/AssetManagement.sol\":9734:9751  userTokens[_user] */\n      0x00\n        /* \"contracts/AssetManagement.sol\":9745:9750  _user */\n      dup4\n        /* \"contracts/AssetManagement.sol\":9734:9751  userTokens[_user] */\n      0xffffffffffffffffffffffffffffffffffffffff\n      and\n      0xffffffffffffffffffffffffffffffffffffffff\n      and\n      dup2\n      mstore\n      0x20\n      add\n      swap1\n      dup2\n      mstore\n      0x20\n      add\n      0x00\n      keccak256\n        /* \"contracts/AssetManagement.sol\":9727:9751  return userTokens[_user] */\n      dup1\n      sload\n      dup1\n      0x20\n      mul\n      0x20\n      add\n      mload(0x40)\n      swap1\n      dup2\n      add\n      0x40\n      mstore\n      dup1\n      swap3\n      swap2\n      swap1\n      dup2\n      dup2\n      mstore\n      0x20\n      add\n      dup3\n      dup1\n      sload\n      dup1\n      iszero\n      tag_289\n      jumpi\n      0x20\n      mul\n      dup3\n      add\n      swap2\n      swap1\n      0x00\n      mstore\n      keccak256(0x00, 0x20)\n      swap1\n    tag_290:\n      dup2\n      0x00\n      swap1\n      sload\n      swap1\n      0x0100\n      exp\n      swap1\n      div\n      0xffffffffffffffffffffffffffffffffffffffff\n      and\n      0xffffffffffffffffffffffffffffffffffffffff\n      and\n      dup2\n      mstore\n      0x20\n      add\n      swap1\n      0x01\n      add\n      swap1\n      dup1\n      dup4\n      gt\n      tag_290\n      jumpi\n    tag_289:\n      pop\n      pop\n      pop\n      pop\n      pop\n      swap1\n      pop\n        /* \"contracts/AssetManagement.sol\":9637:9759  function getUserTokens(address _user) external view returns (address[] memory) {... */\n      swap2\n      swap1\n      pop\n      jump\t// out\n        /* \"contracts/AssetManagement.sol\":4745:4855  function getUserInfo(address _user) external view returns (User memory) {... */\n    tag_88:\n        /* \"contracts/AssetManagement.sol\":4804:4815  User memory */\n      tag_291\n      tag_292\n      jump\t// in\n    tag_291:\n        /* \"contracts/AssetManagement.sol\":4835:4840  users */\n      0x06\n        /* \"contracts/AssetManagement.sol\":4835:4847  users[_user] */\n      0x00\n        /* \"contracts/AssetManagement.sol\":4841:4846  _user */\n      dup4\n        /* \"contracts/AssetManagement.sol\":4835:4847  users[_user] */\n      0xffffffffffffffffffffffffffffffffffffffff\n      and\n      0xffffffffffffffffffffffffffffffffffffffff\n      and\n      dup2\n      mstore\n      0x20\n      add\n      swap1\n      dup2\n      mstore\n      0x20\n      add\n      0x00\n      keccak256\n        /* \"contracts/AssetManagement.sol\":4828:4847  return users[_user] */\n      mload(0x40)\n      dup1\n      0xa0\n      add\n      0x40\n      mstore\n      swap1\n      dup2\n      0x00\n      dup3\n      add\n      dup1\n      sload\n      tag_294\n      swap1\n      tag_295\n      jump\t// in\n    tag_294:\n      dup1\n      0x1f\n      add\n      0x20\n      dup1\n      swap2\n      div\n      mul\n      0x20\n      add\n      mload(0x40)\n      swap1\n      dup2\n      add\n      0x40\n      mstore\n      dup1\n      swap3\n      swap2\n      swap1\n      dup2\n      dup2\n      mstore\n      0x20\n      add\n      dup3\n      dup1\n      sload\n      tag_296\n      swap1\n      tag_295\n      jump\t// in\n    tag_296:\n      dup1\n      iszero\n      tag_297\n      jumpi\n      dup1\n      0x1f\n      lt\n      tag_298\n      jumpi\n      0x0100\n      dup1\n      dup4\n      sload\n      div\n      mul\n      dup4\n      mstore\n      swap2\n      0x20\n      add\n      swap2\n      jump(tag_297)\n    tag_298:\n      dup3\n      add\n      swap2\n      swap1\n      0x00\n      mstore\n      keccak256(0x00, 0x20)\n      swap1\n    tag_299:\n      dup2\n      sload\n      dup2\n      mstore\n      swap1\n      0x01\n      add\n      swap1\n      0x20\n      add\n      dup1\n      dup4\n      gt\n      tag_299\n      jumpi\n      dup3\n      swap1\n      sub\n      0x1f\n      and\n      dup3\n      add\n      swap2\n    tag_297:\n      pop\n      pop\n      pop\n      pop\n      pop\n      dup2\n      mstore\n      0x20\n      add\n      0x01\n      dup3\n      add\n      dup1\n      sload\n      tag_300\n      swap1\n      tag_295\n      jump\t// in\n    tag_300:\n      dup1\n      0x1f\n      add\n      0x20\n      dup1\n      swap2\n      div\n      mul\n      0x20\n      add\n      mload(0x40)\n      swap1\n      dup2\n      add\n      0x40\n      mstore\n      dup1\n      swap3\n      swap2\n      swap1\n      dup2\n      dup2\n      mstore\n      0x20\n      add\n      dup3\n      dup1\n      sload\n      tag_301\n      swap1\n      tag_295\n      jump\t// in\n    tag_301:\n      dup1\n      iszero\n      tag_302\n      jumpi\n      dup1\n      0x1f\n      lt\n      tag_303\n      jumpi\n      0x0100\n      dup1\n      dup4\n      sload\n      div\n      mul\n      dup4\n      mstore\n      swap2\n      0x20\n      add\n      swap2\n      jump(tag_302)\n    tag_303:\n      dup3\n      add\n      swap2\n      swap1\n      0x00\n      mstore\n      keccak256(0x00, 0x20)\n      swap1\n    tag_304:\n      dup2\n      sload\n      dup2\n      mstore\n      swap1\n      0x01\n      add\n      swap1\n      0x20\n      add\n      dup1\n      dup4\n      gt\n      tag_304\n      jumpi\n      dup3\n      swap1\n      sub\n      0x1f\n      and\n      dup3\n      add\n      swap2\n    tag_302:\n      pop\n      pop\n      pop\n      pop\n      pop\n      dup2\n      mstore\n      0x20\n      add\n      0x02\n      dup3\n      add\n      0x00\n      swap1\n      sload\n      swap1\n      0x0100\n      exp\n      swap1\n      div\n      0xff\n      and\n      iszero\n      iszero\n      iszero\n      iszero\n      dup2\n      mstore\n      0x20\n      add\n      0x03\n      dup3\n      add\n      sload\n      dup2\n      mstore\n      0x20\n      add\n      0x04\n      dup3\n      add\n      sload\n      dup2\n      mstore\n      pop\n      pop\n      swap1\n      pop\n        /* \"contracts/AssetManagement.sol\":4745:4855  function getUserInfo(address _user) external view returns (User memory) {... */\n      swap2\n      swap1\n      pop\n      jump\t// out\n        /* \"contracts/AssetManagement.sol\":5044:5396  function addSupportedToken(address _token) external onlyOwner {... */\n    tag_93:\n        /* \"contracts/AssetManagement.sol\":2320:2325  owner */\n      0x01\n      0x00\n      swap1\n      sload\n      swap1\n      0x0100\n      exp\n      swap1\n      div\n      0xffffffffffffffffffffffffffffffffffffffff\n      and\n        /* \"contracts/AssetManagement.sol\":2306:2325  msg.sender == owner */\n      0xffffffffffffffffffffffffffffffffffffffff\n      and\n        /* \"contracts/AssetManagement.sol\":2306:2316  msg.sender */\n      caller\n        /* \"contracts/AssetManagement.sol\":2306:2325  msg.sender == owner */\n      0xffffffffffffffffffffffffffffffffffffffff\n      and\n      eq\n        /* \"contracts/AssetManagement.sol\":2298:2363  require(msg.sender == owner, \"Only owner can call this function\") */\n      tag_306\n      jumpi\n      mload(0x40)\n      0x08c379a000000000000000000000000000000000000000000000000000000000\n      dup2\n      mstore\n      0x04\n      add\n      tag_307\n      swap1\n      tag_308\n      jump\t// in\n    tag_307:\n      mload(0x40)\n      dup1\n      swap2\n      sub\n      swap1\n      revert\n    tag_306:\n        /* \"contracts/AssetManagement.sol\":5126:5142  isTokenSupported */\n      0x0b\n        /* \"contracts/AssetManagement.sol\":5126:5150  isTokenSupported[_token] */\n      0x00\n        /* \"contracts/AssetManagement.sol\":5143:5149  _token */\n      dup3\n        /* \"contracts/AssetManagement.sol\":5126:5150  isTokenSupported[_token] */\n      0xffffffffffffffffffffffffffffffffffffffff\n      and\n      0xffffffffffffffffffffffffffffffffffffffff\n      and\n      dup2\n      mstore\n      0x20\n      add\n      swap1\n      dup2\n      mstore\n      0x20\n      add\n      0x00\n      keccak256\n      0x00\n      swap1\n      sload\n      swap1\n      0x0100\n      exp\n      swap1\n      div\n      0xff\n      and\n        /* \"contracts/AssetManagement.sol\":5125:5150  !isTokenSupported[_token] */\n      iszero\n        /* \"contracts/AssetManagement.sol\":5117:5178  require(!isTokenSupported[_token], \"Token already supported\") */\n      tag_310\n      jumpi\n      mload(0x40)\n      0x08c379a000000000000000000000000000000000000000000000000000000000\n      dup2\n      mstore\n      0x04\n      add\n      tag_311\n      swap1\n      tag_312\n      jump\t// in\n    tag_311:\n      mload(0x40)\n      dup1\n      swap2\n      sub\n      swap1\n      revert\n    tag_310:\n        /* \"contracts/AssetManagement.sol\":5215:5216  0 */\n      0x00\n        /* \"contracts/AssetManagement.sol\":5197:5217  _token != address(0) */\n      0xffffffffffffffffffffffffffffffffffffffff\n      and\n        /* \"contracts/AssetManagement.sol\":5197:5203  _token */\n      dup2\n        /* \"contracts/AssetManagement.sol\":5197:5217  _token != address(0) */\n      0xffffffffffffffffffffffffffffffffffffffff\n      and\n      sub\n        /* \"contracts/AssetManagement.sol\":5189:5243  require(_token != address(0), \"Invalid token address\") */\n      tag_313\n      jumpi\n      mload(0x40)\n      0x08c379a000000000000000000000000000000000000000000000000000000000\n      dup2\n      mstore\n      0x04\n      add\n      tag_314\n      swap1\n      tag_315\n      jump\t// in\n    tag_314:\n      mload(0x40)\n      dup1\n      swap2\n      sub\n      swap1\n      revert\n    tag_313:\n        /* \"contracts/AssetManagement.sol\":5264:5279  supportedTokens */\n      0x0a\n        /* \"contracts/AssetManagement.sol\":5285:5291  _token */\n      dup2\n        /* \"contracts/AssetManagement.sol\":5264:5292  supportedTokens.push(_token) */\n      swap1\n      dup1\n      0x01\n      dup2\n      sload\n      add\n      dup1\n      dup3\n      sstore\n      dup1\n      swap2\n      pop\n      pop\n      0x01\n      swap1\n      sub\n      swap1\n      0x00\n      mstore\n      keccak256(0x00, 0x20)\n      add\n      0x00\n      swap1\n      swap2\n      swap1\n      swap2\n      swap1\n      swap2\n      0x0100\n      exp\n      dup2\n      sload\n      dup2\n      0xffffffffffffffffffffffffffffffffffffffff\n      mul\n      not\n      and\n      swap1\n      dup4\n      0xffffffffffffffffffffffffffffffffffffffff\n      and\n      mul\n      or\n      swap1\n      sstore\n      pop\n        /* \"contracts/AssetManagement.sol\":5330:5334  true */\n      0x01\n        /* \"contracts/AssetManagement.sol\":5303:5319  isTokenSupported */\n      0x0b\n        /* \"contracts/AssetManagement.sol\":5303:5327  isTokenSupported[_token] */\n      0x00\n        /* \"contracts/AssetManagement.sol\":5320:5326  _token */\n      dup4\n        /* \"contracts/AssetManagement.sol\":5303:5327  isTokenSupported[_token] */\n      0xffffffffffffffffffffffffffffffffffffffff\n      and\n      0xffffffffffffffffffffffffffffffffffffffff\n      and\n      dup2\n      mstore\n      0x20\n      add\n      swap1\n      dup2\n      mstore\n      0x20\n      add\n      0x00\n      keccak256\n      0x00\n        /* \"contracts/AssetManagement.sol\":5303:5334  isTokenSupported[_token] = true */\n      0x0100\n      exp\n      dup2\n      sload\n      dup2\n      0xff\n      mul\n      not\n      and\n      swap1\n      dup4\n      iszero\n      iszero\n      mul\n      or\n      swap1\n      sstore\n      pop\n        /* \"contracts/AssetManagement.sol\":5375:5381  _token */\n      dup1\n        /* \"contracts/AssetManagement.sol\":5360:5388  TokenSupported(_token, true) */\n      0xffffffffffffffffffffffffffffffffffffffff\n      and\n      0xd86c88b4a367d9b81a6e00c9d3f7d01657bffef358fa8968c91c045ae99f0d52\n        /* \"contracts/AssetManagement.sol\":5383:5387  true */\n      0x01\n        /* \"contracts/AssetManagement.sol\":5360:5388  TokenSupported(_token, true) */\n      mload(0x40)\n      tag_317\n      swap2\n      swap1\n      tag_51\n      jump\t// in\n    tag_317:\n      mload(0x40)\n      dup1\n      swap2\n      sub\n      swap1\n      log2\n        /* \"contracts/AssetManagement.sol\":5044:5396  function addSupportedToken(address _token) external onlyOwner {... */\n      pop\n      jump\t// out\n        /* \"contracts/AssetManagement.sol\":10520:11298  function getUserTransactions(address _user, uint256 _limit) external view returns (Transaction[] memory) {... */\n    tag_96:\n        /* \"contracts/AssetManagement.sol\":10603:10623  Transaction[] memory */\n      0x60\n        /* \"contracts/AssetManagement.sol\":10636:10649  uint256 count */\n      0x00\n        /* \"contracts/AssetManagement.sol\":10652:10653  0 */\n      0x00\n        /* \"contracts/AssetManagement.sol\":10636:10653  uint256 count = 0 */\n      swap1\n      pop\n        /* \"contracts/AssetManagement.sol\":10679:10685  uint i */\n      0x00\n        /* \"contracts/AssetManagement.sol\":10688:10689  0 */\n      0x00\n        /* \"contracts/AssetManagement.sol\":10679:10689  uint i = 0 */\n      swap1\n      pop\n        /* \"contracts/AssetManagement.sol\":10674:10821  for (uint i = 0; i < transactionCount; i++) {... */\n    tag_319:\n        /* \"contracts/AssetManagement.sol\":10695:10711  transactionCount */\n      sload(0x09)\n        /* \"contracts/AssetManagement.sol\":10691:10692  i */\n      dup2\n        /* \"contracts/AssetManagement.sol\":10691:10711  i < transactionCount */\n      lt\n        /* \"contracts/AssetManagement.sol\":10674:10821  for (uint i = 0; i < transactionCount; i++) {... */\n      iszero\n      tag_320\n      jumpi\n        /* \"contracts/AssetManagement.sol\":10761:10766  _user */\n      dup5\n        /* \"contracts/AssetManagement.sol\":10737:10766  transactions[i].user == _user */\n      0xffffffffffffffffffffffffffffffffffffffff\n      and\n        /* \"contracts/AssetManagement.sol\":10737:10749  transactions */\n      0x05\n        /* \"contracts/AssetManagement.sol\":10737:10752  transactions[i] */\n      0x00\n        /* \"contracts/AssetManagement.sol\":10750:10751  i */\n      dup4\n        /* \"contracts/AssetManagement.sol\":10737:10752  transactions[i] */\n      dup2\n      mstore\n      0x20\n      add\n      swap1\n      dup2\n      mstore\n      0x20\n      add\n      0x00\n      keccak256\n        /* \"contracts/AssetManagement.sol\":10737:10757  transactions[i].user */\n      0x00\n      add\n      0x00\n      swap1\n      sload\n      swap1\n      0x0100\n      exp\n      swap1\n      div\n      0xffffffffffffffffffffffffffffffffffffffff\n      and\n        /* \"contracts/AssetManagement.sol\":10737:10766  transactions[i].user == _user */\n      0xffffffffffffffffffffffffffffffffffffffff\n      and\n      sub\n        /* \"contracts/AssetManagement.sol\":10733:10810  if (transactions[i].user == _user) {... */\n      tag_322\n      jumpi\n        /* \"contracts/AssetManagement.sol\":10787:10794  count++ */\n      dup2\n      dup1\n      tag_323\n      swap1\n      tag_283\n      jump\t// in\n    tag_323:\n      swap3\n      pop\n      pop\n        /* \"contracts/AssetManagement.sol\":10733:10810  if (transactions[i].user == _user) {... */\n    tag_322:\n        /* \"contracts/AssetManagement.sol\":10713:10716  i++ */\n      dup1\n      dup1\n      0x01\n      add\n      swap2\n      pop\n      pop\n        /* \"contracts/AssetManagement.sol\":10674:10821  for (uint i = 0; i < transactionCount; i++) {... */\n      jump(tag_319)\n    tag_320:\n      pop\n        /* \"contracts/AssetManagement.sol\":10854:10855  0 */\n      0x00\n        /* \"contracts/AssetManagement.sol\":10845:10851  _limit */\n      dup4\n        /* \"contracts/AssetManagement.sol\":10845:10855  _limit > 0 */\n      gt\n        /* \"contracts/AssetManagement.sol\":10845:10873  _limit > 0 && count > _limit */\n      dup1\n      iszero\n      tag_324\n      jumpi\n      pop\n        /* \"contracts/AssetManagement.sol\":10867:10873  _limit */\n      dup3\n        /* \"contracts/AssetManagement.sol\":10859:10864  count */\n      dup2\n        /* \"contracts/AssetManagement.sol\":10859:10873  count > _limit */\n      gt\n        /* \"contracts/AssetManagement.sol\":10845:10873  _limit > 0 && count > _limit */\n    tag_324:\n        /* \"contracts/AssetManagement.sol\":10841:10916  if (_limit > 0 && count > _limit) {... */\n      iszero\n      tag_325\n      jumpi\n        /* \"contracts/AssetManagement.sol\":10898:10904  _limit */\n      dup3\n        /* \"contracts/AssetManagement.sol\":10890:10904  count = _limit */\n      swap1\n      pop\n        /* \"contracts/AssetManagement.sol\":10841:10916  if (_limit > 0 && count > _limit) {... */\n    tag_325:\n        /* \"contracts/AssetManagement.sol\":10936:10963  Transaction[] memory userTx */\n      0x00\n        /* \"contracts/AssetManagement.sol\":10984:10989  count */\n      dup2\n        /* \"contracts/AssetManagement.sol\":10966:10990  new Transaction[](count) */\n      0xffffffffffffffff\n      dup2\n      gt\n      iszero\n      tag_326\n      jumpi\n      tag_327\n      tag_328\n      jump\t// in\n    tag_327:\n    tag_326:\n      mload(0x40)\n      swap1\n      dup1\n      dup3\n      mstore\n      dup1\n      0x20\n      mul\n      0x20\n      add\n      dup3\n      add\n      0x40\n      mstore\n      dup1\n      iszero\n      tag_329\n      jumpi\n      dup2\n      0x20\n      add\n    tag_330:\n      tag_331\n      tag_332\n      jump\t// in\n    tag_331:\n      dup2\n      mstore\n      0x20\n      add\n      swap1\n      0x01\n      swap1\n      sub\n      swap1\n      dup2\n      tag_330\n      jumpi\n      swap1\n      pop\n    tag_329:\n      pop\n        /* \"contracts/AssetManagement.sol\":10936:10990  Transaction[] memory userTx = new Transaction[](count) */\n      swap1\n      pop\n        /* \"contracts/AssetManagement.sol\":11001:11014  uint256 index */\n      0x00\n        /* \"contracts/AssetManagement.sol\":11017:11018  0 */\n      0x00\n        /* \"contracts/AssetManagement.sol\":11001:11018  uint256 index = 0 */\n      swap1\n      pop\n        /* \"contracts/AssetManagement.sol\":11044:11050  uint i */\n      0x00\n        /* \"contracts/AssetManagement.sol\":11053:11069  transactionCount */\n      sload(0x09)\n        /* \"contracts/AssetManagement.sol\":11044:11069  uint i = transactionCount */\n      swap1\n      pop\n        /* \"contracts/AssetManagement.sol\":11039:11257  for (uint i = transactionCount; i > 0 && index < count; i--) {... */\n    tag_333:\n        /* \"contracts/AssetManagement.sol\":11075:11076  0 */\n      0x00\n        /* \"contracts/AssetManagement.sol\":11071:11072  i */\n      dup2\n        /* \"contracts/AssetManagement.sol\":11071:11076  i > 0 */\n      gt\n        /* \"contracts/AssetManagement.sol\":11071:11093  i > 0 && index < count */\n      dup1\n      iszero\n      tag_336\n      jumpi\n      pop\n        /* \"contracts/AssetManagement.sol\":11088:11093  count */\n      dup4\n        /* \"contracts/AssetManagement.sol\":11080:11085  index */\n      dup3\n        /* \"contracts/AssetManagement.sol\":11080:11093  index < count */\n      lt\n        /* \"contracts/AssetManagement.sol\":11071:11093  i > 0 && index < count */\n    tag_336:\n        /* \"contracts/AssetManagement.sol\":11039:11257  for (uint i = transactionCount; i > 0 && index < count; i--) {... */\n      iszero\n      tag_334\n      jumpi\n        /* \"contracts/AssetManagement.sol\":11145:11150  _user */\n      dup7\n        /* \"contracts/AssetManagement.sol\":11119:11150  transactions[i-1].user == _user */\n      0xffffffffffffffffffffffffffffffffffffffff\n      and\n        /* \"contracts/AssetManagement.sol\":11119:11131  transactions */\n      0x05\n        /* \"contracts/AssetManagement.sol\":11119:11136  transactions[i-1] */\n      0x00\n        /* \"contracts/AssetManagement.sol\":11134:11135  1 */\n      0x01\n        /* \"contracts/AssetManagement.sol\":11132:11133  i */\n      dup5\n        /* \"contracts/AssetManagement.sol\":11132:11135  i-1 */\n      tag_337\n      swap2\n      swap1\n      tag_338\n      jump\t// in\n    tag_337:\n        /* \"contracts/AssetManagement.sol\":11119:11136  transactions[i-1] */\n      dup2\n      mstore\n      0x20\n      add\n      swap1\n      dup2\n      mstore\n      0x20\n      add\n      0x00\n      keccak256\n        /* \"contracts/AssetManagement.sol\":11119:11141  transactions[i-1].user */\n      0x00\n      add\n      0x00\n      swap1\n      sload\n      swap1\n      0x0100\n      exp\n      swap1\n      div\n      0xffffffffffffffffffffffffffffffffffffffff\n      and\n        /* \"contracts/AssetManagement.sol\":11119:11150  transactions[i-1].user == _user */\n      0xffffffffffffffffffffffffffffffffffffffff\n      and\n      sub\n        /* \"contracts/AssetManagement.sol\":11115:11246  if (transactions[i-1].user == _user) {... */\n      tag_339\n      jumpi\n        /* \"contracts/AssetManagement.sol\":11187:11199  transactions */\n      0x05\n        /* \"contracts/AssetManagement.sol\":11187:11204  transactions[i-1] */\n      0x00\n        /* \"contracts/AssetManagement.sol\":11202:11203  1 */\n      0x01\n        /* \"contracts/AssetManagement.sol\":11200:11201  i */\n      dup4\n        /* \"contracts/AssetManagement.sol\":11200:11203  i-1 */\n      tag_340\n      swap2\n      swap1\n      tag_338\n      jump\t// in\n    tag_340:\n        /* \"contracts/AssetManagement.sol\":11187:11204  transactions[i-1] */\n      dup2\n      mstore\n      0x20\n      add\n      swap1\n      dup2\n      mstore\n      0x20\n      add\n      0x00\n      keccak256\n        /* \"contracts/AssetManagement.sol\":11171:11204  userTx[index] = transactions[i-1] */\n      mload(0x40)\n      dup1\n      0xa0\n      add\n      0x40\n      mstore\n      swap1\n      dup2\n      0x00\n      dup3\n      add\n      0x00\n      swap1\n      sload\n      swap1\n      0x0100\n      exp\n      swap1\n      div\n      0xffffffffffffffffffffffffffffffffffffffff\n      and\n      0xffffffffffffffffffffffffffffffffffffffff\n      and\n      0xffffffffffffffffffffffffffffffffffffffff\n      and\n      dup2\n      mstore\n      0x20\n      add\n      0x01\n      dup3\n      add\n      0x00\n      swap1\n      sload\n      swap1\n      0x0100\n      exp\n      swap1\n      div\n      0xffffffffffffffffffffffffffffffffffffffff\n      and\n      0xffffffffffffffffffffffffffffffffffffffff\n      and\n      0xffffffffffffffffffffffffffffffffffffffff\n      and\n      dup2\n      mstore\n      0x20\n      add\n      0x02\n      dup3\n      add\n      sload\n      dup2\n      mstore\n      0x20\n      add\n      0x03\n      dup3\n      add\n      0x00\n      swap1\n      sload\n      swap1\n      0x0100\n      exp\n      swap1\n      div\n      0xff\n      and\n      iszero\n      iszero\n      iszero\n      iszero\n      dup2\n      mstore\n      0x20\n      add\n      0x04\n      dup3\n      add\n      sload\n      dup2\n      mstore\n      pop\n      pop\n        /* \"contracts/AssetManagement.sol\":11171:11177  userTx */\n      dup4\n        /* \"contracts/AssetManagement.sol\":11178:11183  index */\n      dup4\n        /* \"contracts/AssetManagement.sol\":11171:11184  userTx[index] */\n      dup2\n      mload\n      dup2\n      lt\n      tag_341\n      jumpi\n      tag_342\n      tag_343\n      jump\t// in\n    tag_342:\n    tag_341:\n      0x20\n      mul\n      0x20\n      add\n      add\n        /* \"contracts/AssetManagement.sol\":11171:11204  userTx[index] = transactions[i-1] */\n      dup2\n      swap1\n      mstore\n      pop\n        /* \"contracts/AssetManagement.sol\":11223:11230  index++ */\n      dup2\n      dup1\n      tag_344\n      swap1\n      tag_283\n      jump\t// in\n    tag_344:\n      swap3\n      pop\n      pop\n        /* \"contracts/AssetManagement.sol\":11115:11246  if (transactions[i-1].user == _user) {... */\n    tag_339:\n        /* \"contracts/AssetManagement.sol\":11095:11098  i-- */\n      dup1\n      dup1\n      tag_345\n      swap1\n      tag_346\n      jump\t// in\n    tag_345:\n      swap2\n      pop\n      pop\n        /* \"contracts/AssetManagement.sol\":11039:11257  for (uint i = transactionCount; i > 0 && index < count; i--) {... */\n      jump(tag_333)\n    tag_334:\n      pop\n        /* \"contracts/AssetManagement.sol\":11284:11290  userTx */\n      dup2\n        /* \"contracts/AssetManagement.sol\":11277:11290  return userTx */\n      swap4\n      pop\n      pop\n      pop\n      pop\n        /* \"contracts/AssetManagement.sol\":10520:11298  function getUserTransactions(address _user, uint256 _limit) external view returns (Transaction[] memory) {... */\n      swap3\n      swap2\n      pop\n      pop\n      jump\t// out\n        /* \"contracts/AssetManagement.sol\":1628:1676  mapping(address => bool) public isTokenSupported */\n    tag_101:\n      mstore(0x20, 0x0b)\n      dup1\n      0x00\n      mstore\n      keccak256(0x00, 0x40)\n      0x00\n      swap2\n      pop\n      sload\n      swap1\n      0x0100\n      exp\n      swap1\n      div\n      0xff\n      and\n      dup2\n      jump\t// out\n        /* \"contracts/AssetManagement.sol\":5408:5949  function removeSupportedToken(address _token) external onlyOwner {... */\n    tag_105:\n        /* \"contracts/AssetManagement.sol\":2320:2325  owner */\n      0x01\n      0x00\n      swap1\n      sload\n      swap1\n      0x0100\n      exp\n      swap1\n      div\n      0xffffffffffffffffffffffffffffffffffffffff\n      and\n        /* \"contracts/AssetManagement.sol\":2306:2325  msg.sender == owner */\n      0xffffffffffffffffffffffffffffffffffffffff\n      and\n        /* \"contracts/AssetManagement.sol\":2306:2316  msg.sender */\n      caller\n        /* \"contracts/AssetManagement.sol\":2306:2325  msg.sender == owner */\n      0xffffffffffffffffffffffffffffffffffffffff\n      and\n      eq\n        /* \"contracts/AssetManagement.sol\":2298:2363  require(msg.sender == owner, \"Only owner can call this function\") */\n      tag_348\n      jumpi\n      mload(0x40)\n      0x08c379a000000000000000000000000000000000000000000000000000000000\n      dup2\n      mstore\n      0x04\n      add\n      tag_349\n      swap1\n      tag_308\n      jump\t// in\n    tag_349:\n      mload(0x40)\n      dup1\n      swap2\n      sub\n      swap1\n      revert\n    tag_348:\n        /* \"contracts/AssetManagement.sol\":5492:5508  isTokenSupported */\n      0x0b\n        /* \"contracts/AssetManagement.sol\":5492:5516  isTokenSupported[_token] */\n      0x00\n        /* \"contracts/AssetManagement.sol\":5509:5515  _token */\n      dup3\n        /* \"contracts/AssetManagement.sol\":5492:5516  isTokenSupported[_token] */\n      0xffffffffffffffffffffffffffffffffffffffff\n      and\n      0xffffffffffffffffffffffffffffffffffffffff\n      and\n      dup2\n      mstore\n      0x20\n      add\n      swap1\n      dup2\n      mstore\n      0x20\n      add\n      0x00\n      keccak256\n      0x00\n      swap1\n      sload\n      swap1\n      0x0100\n      exp\n      swap1\n      div\n      0xff\n      and\n        /* \"contracts/AssetManagement.sol\":5484:5540  require(isTokenSupported[_token], \"Token not supported\") */\n      tag_351\n      jumpi\n      mload(0x40)\n      0x08c379a000000000000000000000000000000000000000000000000000000000\n      dup2\n      mstore\n      0x04\n      add\n      tag_352\n      swap1\n      tag_242\n      jump\t// in\n    tag_352:\n      mload(0x40)\n      dup1\n      swap2\n      sub\n      swap1\n      revert\n    tag_351:\n        /* \"contracts/AssetManagement.sol\":5588:5593  false */\n      0x00\n        /* \"contracts/AssetManagement.sol\":5561:5577  isTokenSupported */\n      0x0b\n        /* \"contracts/AssetManagement.sol\":5561:5585  isTokenSupported[_token] */\n      0x00\n        /* \"contracts/AssetManagement.sol\":5578:5584  _token */\n      dup4\n        /* \"contracts/AssetManagement.sol\":5561:5585  isTokenSupported[_token] */\n      0xffffffffffffffffffffffffffffffffffffffff\n      and\n      0xffffffffffffffffffffffffffffffffffffffff\n      and\n      dup2\n      mstore\n      0x20\n      add\n      swap1\n      dup2\n      mstore\n      0x20\n      add\n      0x00\n      keccak256\n      0x00\n        /* \"contracts/AssetManagement.sol\":5561:5593  isTokenSupported[_token] = false */\n      0x0100\n      exp\n      dup2\n      sload\n      dup2\n      0xff\n      mul\n      not\n      and\n      swap1\n      dup4\n      iszero\n      iszero\n      mul\n      or\n      swap1\n      sstore\n      pop\n        /* \"contracts/AssetManagement.sol\":5619:5625  uint i */\n      0x00\n        /* \"contracts/AssetManagement.sol\":5628:5629  0 */\n      0x00\n        /* \"contracts/AssetManagement.sol\":5619:5629  uint i = 0 */\n      swap1\n      pop\n        /* \"contracts/AssetManagement.sol\":5614:5887  for (uint i = 0; i < supportedTokens.length; i++) {... */\n    tag_353:\n        /* \"contracts/AssetManagement.sol\":5635:5650  supportedTokens */\n      0x0a\n        /* \"contracts/AssetManagement.sol\":5635:5657  supportedTokens.length */\n      dup1\n      sload\n      swap1\n      pop\n        /* \"contracts/AssetManagement.sol\":5631:5632  i */\n      dup2\n        /* \"contracts/AssetManagement.sol\":5631:5657  i < supportedTokens.length */\n      lt\n        /* \"contracts/AssetManagement.sol\":5614:5887  for (uint i = 0; i < supportedTokens.length; i++) {... */\n      iszero\n      tag_354\n      jumpi\n        /* \"contracts/AssetManagement.sol\":5705:5711  _token */\n      dup2\n        /* \"contracts/AssetManagement.sol\":5683:5711  supportedTokens[i] == _token */\n      0xffffffffffffffffffffffffffffffffffffffff\n      and\n        /* \"contracts/AssetManagement.sol\":5683:5698  supportedTokens */\n      0x0a\n        /* \"contracts/AssetManagement.sol\":5699:5700  i */\n      dup3\n        /* \"contracts/AssetManagement.sol\":5683:5701  supportedTokens[i] */\n      dup2\n      sload\n      dup2\n      lt\n      tag_356\n      jumpi\n      tag_357\n      tag_343\n      jump\t// in\n    tag_357:\n    tag_356:\n      swap1\n      0x00\n      mstore\n      keccak256(0x00, 0x20)\n      add\n      0x00\n      swap1\n      sload\n      swap1\n      0x0100\n      exp\n      swap1\n      div\n      0xffffffffffffffffffffffffffffffffffffffff\n      and\n        /* \"contracts/AssetManagement.sol\":5683:5711  supportedTokens[i] == _token */\n      0xffffffffffffffffffffffffffffffffffffffff\n      and\n      sub\n        /* \"contracts/AssetManagement.sol\":5679:5876  if (supportedTokens[i] == _token) {... */\n      tag_359\n      jumpi\n        /* \"contracts/AssetManagement.sol\":5753:5768  supportedTokens */\n      0x0a\n        /* \"contracts/AssetManagement.sol\":5794:5795  1 */\n      0x01\n        /* \"contracts/AssetManagement.sol\":5769:5784  supportedTokens */\n      0x0a\n        /* \"contracts/AssetManagement.sol\":5769:5791  supportedTokens.length */\n      dup1\n      sload\n      swap1\n      pop\n        /* \"contracts/AssetManagement.sol\":5769:5795  supportedTokens.length - 1 */\n      tag_360\n      swap2\n      swap1\n      tag_338\n      jump\t// in\n    tag_360:\n        /* \"contracts/AssetManagement.sol\":5753:5796  supportedTokens[supportedTokens.length - 1] */\n      dup2\n      sload\n      dup2\n      lt\n      tag_361\n      jumpi\n      tag_362\n      tag_343\n      jump\t// in\n    tag_362:\n    tag_361:\n      swap1\n      0x00\n      mstore\n      keccak256(0x00, 0x20)\n      add\n      0x00\n      swap1\n      sload\n      swap1\n      0x0100\n      exp\n      swap1\n      div\n      0xffffffffffffffffffffffffffffffffffffffff\n      and\n        /* \"contracts/AssetManagement.sol\":5732:5747  supportedTokens */\n      0x0a\n        /* \"contracts/AssetManagement.sol\":5748:5749  i */\n      dup3\n        /* \"contracts/AssetManagement.sol\":5732:5750  supportedTokens[i] */\n      dup2\n      sload\n      dup2\n      lt\n      tag_364\n      jumpi\n      tag_365\n      tag_343\n      jump\t// in\n    tag_365:\n    tag_364:\n      swap1\n      0x00\n      mstore\n      keccak256(0x00, 0x20)\n      add\n      0x00\n        /* \"contracts/AssetManagement.sol\":5732:5796  supportedTokens[i] = supportedTokens[supportedTokens.length - 1] */\n      0x0100\n      exp\n      dup2\n      sload\n      dup2\n      0xffffffffffffffffffffffffffffffffffffffff\n      mul\n      not\n      and\n      swap1\n      dup4\n      0xffffffffffffffffffffffffffffffffffffffff\n      and\n      mul\n      or\n      swap1\n      sstore\n      pop\n        /* \"contracts/AssetManagement.sol\":5815:5830  supportedTokens */\n      0x0a\n        /* \"contracts/AssetManagement.sol\":5815:5836  supportedTokens.pop() */\n      dup1\n      sload\n      dup1\n      tag_367\n      jumpi\n      tag_368\n      tag_369\n      jump\t// in\n    tag_368:\n    tag_367:\n      0x01\n      swap1\n      sub\n      dup2\n      dup2\n      swap1\n      0x00\n      mstore\n      keccak256(0x00, 0x20)\n      add\n      exp(0x0100, 0x00)\n      dup2\n      sload\n      swap1\n      0xffffffffffffffffffffffffffffffffffffffff\n      mul\n      not\n      and\n      swap1\n      sstore\n      swap1\n      sstore\n        /* \"contracts/AssetManagement.sol\":5855:5860  break */\n      jump(tag_354)\n        /* \"contracts/AssetManagement.sol\":5679:5876  if (supportedTokens[i] == _token) {... */\n    tag_359:\n        /* \"contracts/AssetManagement.sol\":5659:5662  i++ */\n      dup1\n      dup1\n      0x01\n      add\n      swap2\n      pop\n      pop\n        /* \"contracts/AssetManagement.sol\":5614:5887  for (uint i = 0; i < supportedTokens.length; i++) {... */\n      jump(tag_353)\n    tag_354:\n      pop\n        /* \"contracts/AssetManagement.sol\":5927:5933  _token */\n      dup1\n        /* \"contracts/AssetManagement.sol\":5912:5941  TokenSupported(_token, false) */\n      0xffffffffffffffffffffffffffffffffffffffff\n      and\n      0xd86c88b4a367d9b81a6e00c9d3f7d01657bffef358fa8968c91c045ae99f0d52\n        /* \"contracts/AssetManagement.sol\":5935:5940  false */\n      0x00\n        /* \"contracts/AssetManagement.sol\":5912:5941  TokenSupported(_token, false) */\n      mload(0x40)\n      tag_371\n      swap2\n      swap1\n      tag_51\n      jump\t// in\n    tag_371:\n      mload(0x40)\n      dup1\n      swap2\n      sub\n      swap1\n      log2\n        /* \"contracts/AssetManagement.sol\":5408:5949  function removeSupportedToken(address _token) external onlyOwner {... */\n      pop\n      jump\t// out\n        /* \"contracts/AssetManagement.sol\":10164:10508  function getPortfolioValue(address _user) external view returns (uint256) {... */\n    tag_108:\n        /* \"contracts/AssetManagement.sol\":10229:10236  uint256 */\n      0x00\n        /* \"contracts/AssetManagement.sol\":10249:10267  uint256 totalValue */\n      0x00\n        /* \"contracts/AssetManagement.sol\":10270:10271  0 */\n      0x00\n        /* \"contracts/AssetManagement.sol\":10249:10271  uint256 totalValue = 0 */\n      swap1\n      pop\n        /* \"contracts/AssetManagement.sol\":10282:10305  address[] memory tokens */\n      0x00\n        /* \"contracts/AssetManagement.sol\":10308:10318  userTokens */\n      0x04\n        /* \"contracts/AssetManagement.sol\":10308:10325  userTokens[_user] */\n      0x00\n        /* \"contracts/AssetManagement.sol\":10319:10324  _user */\n      dup6\n        /* \"contracts/AssetManagement.sol\":10308:10325  userTokens[_user] */\n      0xffffffffffffffffffffffffffffffffffffffff\n      and\n      0xffffffffffffffffffffffffffffffffffffffff\n      and\n      dup2\n      mstore\n      0x20\n      add\n      swap1\n      dup2\n      mstore\n      0x20\n      add\n      0x00\n      keccak256\n        /* \"contracts/AssetManagement.sol\":10282:10325  address[] memory tokens = userTokens[_user] */\n      dup1\n      sload\n      dup1\n      0x20\n      mul\n      0x20\n      add\n      mload(0x40)\n      swap1\n      dup2\n      add\n      0x40\n      mstore\n      dup1\n      swap3\n      swap2\n      swap1\n      dup2\n      dup2\n      mstore\n      0x20\n      add\n      dup3\n      dup1\n      sload\n      dup1\n      iszero\n      tag_373\n      jumpi\n      0x20\n      mul\n      dup3\n      add\n      swap2\n      swap1\n      0x00\n      mstore\n      keccak256(0x00, 0x20)\n      swap1\n    tag_374:\n      dup2\n      0x00\n      swap1\n      sload\n      swap1\n      0x0100\n      exp\n      swap1\n      div\n      0xffffffffffffffffffffffffffffffffffffffff\n      and\n      0xffffffffffffffffffffffffffffffffffffffff\n      and\n      dup2\n      mstore\n      0x20\n      add\n      swap1\n      0x01\n      add\n      swap1\n      dup1\n      dup4\n      gt\n      tag_374\n      jumpi\n    tag_373:\n      pop\n      pop\n      pop\n      pop\n      pop\n      swap1\n      pop\n        /* \"contracts/AssetManagement.sol\":10351:10357  uint i */\n      0x00\n        /* \"contracts/AssetManagement.sol\":10360:10361  0 */\n      0x00\n        /* \"contracts/AssetManagement.sol\":10351:10361  uint i = 0 */\n      swap1\n      pop\n        /* \"contracts/AssetManagement.sol\":10346:10463  for (uint i = 0; i < tokens.length; i++) {... */\n    tag_375:\n        /* \"contracts/AssetManagement.sol\":10367:10373  tokens */\n      dup2\n        /* \"contracts/AssetManagement.sol\":10367:10380  tokens.length */\n      mload\n        /* \"contracts/AssetManagement.sol\":10363:10364  i */\n      dup2\n        /* \"contracts/AssetManagement.sol\":10363:10380  i < tokens.length */\n      lt\n        /* \"contracts/AssetManagement.sol\":10346:10463  for (uint i = 0; i < tokens.length; i++) {... */\n      iszero\n      tag_376\n      jumpi\n        /* \"contracts/AssetManagement.sol\":10416:10433  userTokenBalances */\n      0x02\n        /* \"contracts/AssetManagement.sol\":10416:10440  userTokenBalances[_user] */\n      0x00\n        /* \"contracts/AssetManagement.sol\":10434:10439  _user */\n      dup7\n        /* \"contracts/AssetManagement.sol\":10416:10440  userTokenBalances[_user] */\n      0xffffffffffffffffffffffffffffffffffffffff\n      and\n      0xffffffffffffffffffffffffffffffffffffffff\n      and\n      dup2\n      mstore\n      0x20\n      add\n      swap1\n      dup2\n      mstore\n      0x20\n      add\n      0x00\n      keccak256\n        /* \"contracts/AssetManagement.sol\":10416:10451  userTokenBalances[_user][tokens[i]] */\n      0x00\n        /* \"contracts/AssetManagement.sol\":10441:10447  tokens */\n      dup4\n        /* \"contracts/AssetManagement.sol\":10448:10449  i */\n      dup4\n        /* \"contracts/AssetManagement.sol\":10441:10450  tokens[i] */\n      dup2\n      mload\n      dup2\n      lt\n      tag_378\n      jumpi\n      tag_379\n      tag_343\n      jump\t// in\n    tag_379:\n    tag_378:\n      0x20\n      mul\n      0x20\n      add\n      add\n      mload\n        /* \"contracts/AssetManagement.sol\":10416:10451  userTokenBalances[_user][tokens[i]] */\n      0xffffffffffffffffffffffffffffffffffffffff\n      and\n      0xffffffffffffffffffffffffffffffffffffffff\n      and\n      dup2\n      mstore\n      0x20\n      add\n      swap1\n      dup2\n      mstore\n      0x20\n      add\n      0x00\n      keccak256\n      sload\n        /* \"contracts/AssetManagement.sol\":10402:10451  totalValue += userTokenBalances[_user][tokens[i]] */\n      dup4\n      tag_380\n      swap2\n      swap1\n      tag_280\n      jump\t// in\n    tag_380:\n      swap3\n      pop\n        /* \"contracts/AssetManagement.sol\":10382:10385  i++ */\n      dup1\n      dup1\n      0x01\n      add\n      swap2\n      pop\n      pop\n        /* \"contracts/AssetManagement.sol\":10346:10463  for (uint i = 0; i < tokens.length; i++) {... */\n      jump(tag_375)\n    tag_376:\n      pop\n        /* \"contracts/AssetManagement.sol\":10490:10500  totalValue */\n      dup2\n        /* \"contracts/AssetManagement.sol\":10483:10500  return totalValue */\n      swap3\n      pop\n      pop\n      pop\n        /* \"contracts/AssetManagement.sol\":10164:10508  function getPortfolioValue(address _user) external view returns (uint256) {... */\n      swap2\n      swap1\n      pop\n      jump\t// out\n        /* \"contracts/AssetManagement.sol\":244:264  address public owner */\n    tag_111:\n      0x01\n      0x00\n      swap1\n      sload\n      swap1\n      0x0100\n      exp\n      swap1\n      div\n      0xffffffffffffffffffffffffffffffffffffffff\n      and\n      dup2\n      jump\t// out\n        /* \"contracts/AssetManagement.sol\":1248:1299  mapping(uint256 => Transaction) public transactions */\n    tag_117:\n      mstore(0x20, 0x05)\n      dup1\n      0x00\n      mstore\n      keccak256(0x00, 0x40)\n      0x00\n      swap2\n      pop\n      swap1\n      pop\n      dup1\n      0x00\n      add\n      0x00\n      swap1\n      sload\n      swap1\n      0x0100\n      exp\n      swap1\n      div\n      0xffffffffffffffffffffffffffffffffffffffff\n      and\n      swap1\n      dup1\n      0x01\n      add\n      0x00\n      swap1\n      sload\n      swap1\n      0x0100\n      exp\n      swap1\n      div\n      0xffffffffffffffffffffffffffffffffffffffff\n      and\n      swap1\n      dup1\n      0x02\n      add\n      sload\n      swap1\n      dup1\n      0x03\n      add\n      0x00\n      swap1\n      sload\n      swap1\n      0x0100\n      exp\n      swap1\n      div\n      0xff\n      and\n      swap1\n      dup1\n      0x04\n      add\n      sload\n      swap1\n      pop\n      dup6\n      jump\t// out\n        /* \"contracts/AssetManagement.sol\":1401:1445  mapping(address => bool) public isUserActive */\n    tag_122:\n      mstore(0x20, 0x08)\n      dup1\n      0x00\n      mstore\n      keccak256(0x00, 0x40)\n      0x00\n      swap2\n      pop\n      sload\n      swap1\n      0x0100\n      exp\n      swap1\n      div\n      0xff\n      and\n      dup2\n      jump\t// out\n        /* \"contracts/AssetManagement.sol\":1306:1343  mapping(address => User) public users */\n    tag_126:\n      mstore(0x20, 0x06)\n      dup1\n      0x00\n      mstore\n      keccak256(0x00, 0x40)\n      0x00\n      swap2\n      pop\n      swap1\n      pop\n      dup1\n      0x00\n      add\n      dup1\n      sload\n      tag_381\n      swap1\n      tag_295\n      jump\t// in\n    tag_381:\n      dup1\n      0x1f\n      add\n      0x20\n      dup1\n      swap2\n      div\n      mul\n      0x20\n      add\n      mload(0x40)\n      swap1\n      dup2\n      add\n      0x40\n      mstore\n      dup1\n      swap3\n      swap2\n      swap1\n      dup2\n      dup2\n      mstore\n      0x20\n      add\n      dup3\n      dup1\n      sload\n      tag_382\n      swap1\n      tag_295\n      jump\t// in\n    tag_382:\n      dup1\n      iszero\n      tag_383\n      jumpi\n      dup1\n      0x1f\n      lt\n      tag_384\n      jumpi\n      0x0100\n      dup1\n      dup4\n      sload\n      div\n      mul\n      dup4\n      mstore\n      swap2\n      0x20\n      add\n      swap2\n      jump(tag_383)\n    tag_384:\n      dup3\n      add\n      swap2\n      swap1\n      0x00\n      mstore\n      keccak256(0x00, 0x20)\n      swap1\n    tag_385:\n      dup2\n      sload\n      dup2\n      mstore\n      swap1\n      0x01\n      add\n      swap1\n      0x20\n      add\n      dup1\n      dup4\n      gt\n      tag_385\n      jumpi\n      dup3\n      swap1\n      sub\n      0x1f\n      and\n      dup3\n      add\n      swap2\n    tag_383:\n      pop\n      pop\n      pop\n      pop\n      pop\n      swap1\n      dup1\n      0x01\n      add\n      dup1\n      sload\n      tag_386\n      swap1\n      tag_295\n      jump\t// in\n    tag_386:\n      dup1\n      0x1f\n      add\n      0x20\n      dup1\n      swap2\n      div\n      mul\n      0x20\n      add\n      mload(0x40)\n      swap1\n      dup2\n      add\n      0x40\n      mstore\n      dup1\n      swap3\n      swap2\n      swap1\n      dup2\n      dup2\n      mstore\n      0x20\n      add\n      dup3\n      dup1\n      sload\n      tag_387\n      swap1\n      tag_295\n      jump\t// in\n    tag_387:\n      dup1\n      iszero\n      tag_388\n      jumpi\n      dup1\n      0x1f\n      lt\n      tag_389\n      jumpi\n      0x0100\n      dup1\n      dup4\n      sload\n      div\n      mul\n      dup4\n      mstore\n      swap2\n      0x20\n      add\n      swap2\n      jump(tag_388)\n    tag_389:\n      dup3\n      add\n      swap2\n      swap1\n      0x00\n      mstore\n      keccak256(0x00, 0x20)\n      swap1\n    tag_390:\n      dup2\n      sload\n      dup2\n      mstore\n      swap1\n      0x01\n      add\n      swap1\n      0x20\n      add\n      dup1\n      dup4\n      gt\n      tag_390\n      jumpi\n      dup3\n      swap1\n      sub\n      0x1f\n      and\n      dup3\n      add\n      swap2\n    tag_388:\n      pop\n      pop\n      pop\n      pop\n      pop\n      swap1\n      dup1\n      0x02\n      add\n      0x00\n      swap1\n      sload\n      swap1\n      0x0100\n      exp\n      swap1\n      div\n      0xff\n      and\n      swap1\n      dup1\n      0x03\n      add\n      sload\n      swap1\n      dup1\n      0x04\n      add\n      sload\n      swap1\n      pop\n      dup6\n      jump\t// out\n        /* \"contracts/AssetManagement.sol\":1551:1582  uint256 public transactionCount */\n    tag_130:\n      sload(0x09)\n      dup2\n      jump\t// out\n        /* \"contracts/AssetManagement.sol\":9771:10152  function calculateProfitability(address _user, address _token) external view returns (int256) {... */\n    tag_134:\n        /* \"contracts/AssetManagement.sol\":9857:9863  int256 */\n      0x00\n        /* \"contracts/AssetManagement.sol\":9876:9898  uint256 currentBalance */\n      0x00\n        /* \"contracts/AssetManagement.sol\":9901:9918  userTokenBalances */\n      0x02\n        /* \"contracts/AssetManagement.sol\":9901:9925  userTokenBalances[_user] */\n      0x00\n        /* \"contracts/AssetManagement.sol\":9919:9924  _user */\n      dup6\n        /* \"contracts/AssetManagement.sol\":9901:9925  userTokenBalances[_user] */\n      0xffffffffffffffffffffffffffffffffffffffff\n      and\n      0xffffffffffffffffffffffffffffffffffffffff\n      and\n      dup2\n      mstore\n      0x20\n      add\n      swap1\n      dup2\n      mstore\n      0x20\n      add\n      0x00\n      keccak256\n        /* \"contracts/AssetManagement.sol\":9901:9933  userTokenBalances[_user][_token] */\n      0x00\n        /* \"contracts/AssetManagement.sol\":9926:9932  _token */\n      dup5\n        /* \"contracts/AssetManagement.sol\":9901:9933  userTokenBalances[_user][_token] */\n      0xffffffffffffffffffffffffffffffffffffffff\n      and\n      0xffffffffffffffffffffffffffffffffffffffff\n      and\n      dup2\n      mstore\n      0x20\n      add\n      swap1\n      dup2\n      mstore\n      0x20\n      add\n      0x00\n      keccak256\n      sload\n        /* \"contracts/AssetManagement.sol\":9876:9933  uint256 currentBalance = userTokenBalances[_user][_token] */\n      swap1\n      pop\n        /* \"contracts/AssetManagement.sol\":9944:9969  uint256 initialInvestment */\n      0x00\n        /* \"contracts/AssetManagement.sol\":9972:9994  userInitialInvestments */\n      0x03\n        /* \"contracts/AssetManagement.sol\":9972:10001  userInitialInvestments[_user] */\n      0x00\n        /* \"contracts/AssetManagement.sol\":9995:10000  _user */\n      dup7\n        /* \"contracts/AssetManagement.sol\":9972:10001  userInitialInvestments[_user] */\n      0xffffffffffffffffffffffffffffffffffffffff\n      and\n      0xffffffffffffffffffffffffffffffffffffffff\n      and\n      dup2\n      mstore\n      0x20\n      add\n      swap1\n      dup2\n      mstore\n      0x20\n      add\n      0x00\n      keccak256\n        /* \"contracts/AssetManagement.sol\":9972:10009  userInitialInvestments[_user][_token] */\n      0x00\n        /* \"contracts/AssetManagement.sol\":10002:10008  _token */\n      dup6\n        /* \"contracts/AssetManagement.sol\":9972:10009  userInitialInvestments[_user][_token] */\n      0xffffffffffffffffffffffffffffffffffffffff\n      and\n      0xffffffffffffffffffffffffffffffffffffffff\n      and\n      dup2\n      mstore\n      0x20\n      add\n      swap1\n      dup2\n      mstore\n      0x20\n      add\n      0x00\n      keccak256\n      sload\n        /* \"contracts/AssetManagement.sol\":9944:10009  uint256 initialInvestment = userInitialInvestments[_user][_token] */\n      swap1\n      pop\n        /* \"contracts/AssetManagement.sol\":10055:10056  0 */\n      0x00\n        /* \"contracts/AssetManagement.sol\":10034:10051  initialInvestment */\n      dup2\n        /* \"contracts/AssetManagement.sol\":10034:10056  initialInvestment == 0 */\n      sub\n        /* \"contracts/AssetManagement.sol\":10030:10066  if (initialInvestment == 0) return 0 */\n      tag_392\n      jumpi\n        /* \"contracts/AssetManagement.sol\":10065:10066  0 */\n      0x00\n        /* \"contracts/AssetManagement.sol\":10058:10066  return 0 */\n      swap3\n      pop\n      pop\n      pop\n      jump(tag_391)\n        /* \"contracts/AssetManagement.sol\":10030:10066  if (initialInvestment == 0) return 0 */\n    tag_392:\n        /* \"contracts/AssetManagement.sol\":10126:10143  initialInvestment */\n      dup1\n        /* \"contracts/AssetManagement.sol\":10101:10115  currentBalance */\n      dup3\n        /* \"contracts/AssetManagement.sol\":10094:10144  int256(currentBalance) - int256(initialInvestment) */\n      tag_393\n      swap2\n      swap1\n      tag_394\n      jump\t// in\n    tag_393:\n        /* \"contracts/AssetManagement.sol\":10087:10144  return int256(currentBalance) - int256(initialInvestment) */\n      swap3\n      pop\n      pop\n      pop\n        /* \"contracts/AssetManagement.sol\":9771:10152  function calculateProfitability(address _user, address _token) external view returns (int256) {... */\n    tag_391:\n      swap3\n      swap2\n      pop\n      pop\n      jump\t// out\n        /* \"contracts/AssetManagement.sol\":6397:6576  function checkContractTokenBalance(address _token) external view returns (uint256) {... */\n    tag_139:\n        /* \"contracts/AssetManagement.sol\":6471:6478  uint256 */\n      0x00\n        /* \"contracts/AssetManagement.sol\":6491:6503  IERC20 token */\n      0x00\n        /* \"contracts/AssetManagement.sol\":6513:6519  _token */\n      dup3\n        /* \"contracts/AssetManagement.sol\":6491:6520  IERC20 token = IERC20(_token) */\n      swap1\n      pop\n        /* \"contracts/AssetManagement.sol\":6538:6543  token */\n      dup1\n        /* \"contracts/AssetManagement.sol\":6538:6553  token.balanceOf */\n      0xffffffffffffffffffffffffffffffffffffffff\n      and\n      0x70a08231\n        /* \"contracts/AssetManagement.sol\":6562:6566  this */\n      address\n        /* \"contracts/AssetManagement.sol\":6538:6568  token.balanceOf(address(this)) */\n      mload(0x40)\n      dup3\n      0xffffffff\n      and\n      0xe0\n      shl\n      dup2\n      mstore\n      0x04\n      add\n      tag_396\n      swap2\n      swap1\n      tag_113\n      jump\t// in\n    tag_396:\n      0x20\n      mload(0x40)\n      dup1\n      dup4\n      sub\n      dup2\n      dup7\n      gas\n      staticcall\n      iszero\n      dup1\n      iszero\n      tag_398\n      jumpi\n      returndatacopy(0x00, 0x00, returndatasize)\n      revert(0x00, returndatasize)\n    tag_398:\n      pop\n      pop\n      pop\n      pop\n      mload(0x40)\n      returndatasize\n      not(0x1f)\n      0x1f\n      dup3\n      add\n      and\n      dup3\n      add\n      dup1\n      0x40\n      mstore\n      pop\n      dup2\n      add\n      swap1\n      tag_399\n      swap2\n      swap1\n      tag_176\n      jump\t// in\n    tag_399:\n        /* \"contracts/AssetManagement.sol\":6531:6568  return token.balanceOf(address(this)) */\n      swap2\n      pop\n      pop\n        /* \"contracts/AssetManagement.sol\":6397:6576  function checkContractTokenBalance(address _token) external view returns (uint256) {... */\n      swap2\n      swap1\n      pop\n      jump\t// out\n        /* \"contracts/AssetManagement.sol\":9479:9625  function getTokenBalance(address _user, address _token) external view returns (uint256) {... */\n    tag_143:\n        /* \"contracts/AssetManagement.sol\":9558:9565  uint256 */\n      0x00\n        /* \"contracts/AssetManagement.sol\":9585:9602  userTokenBalances */\n      0x02\n        /* \"contracts/AssetManagement.sol\":9585:9609  userTokenBalances[_user] */\n      0x00\n        /* \"contracts/AssetManagement.sol\":9603:9608  _user */\n      dup5\n        /* \"contracts/AssetManagement.sol\":9585:9609  userTokenBalances[_user] */\n      0xffffffffffffffffffffffffffffffffffffffff\n      and\n      0xffffffffffffffffffffffffffffffffffffffff\n      and\n      dup2\n      mstore\n      0x20\n      add\n      swap1\n      dup2\n      mstore\n      0x20\n      add\n      0x00\n      keccak256\n        /* \"contracts/AssetManagement.sol\":9585:9617  userTokenBalances[_user][_token] */\n      0x00\n        /* \"contracts/AssetManagement.sol\":9610:9616  _token */\n      dup4\n        /* \"contracts/AssetManagement.sol\":9585:9617  userTokenBalances[_user][_token] */\n      0xffffffffffffffffffffffffffffffffffffffff\n      and\n      0xffffffffffffffffffffffffffffffffffffffff\n      and\n      dup2\n      mstore\n      0x20\n      add\n      swap1\n      dup2\n      mstore\n      0x20\n      add\n      0x00\n      keccak256\n      sload\n        /* \"contracts/AssetManagement.sol\":9578:9617  return userTokenBalances[_user][_token] */\n      swap1\n      pop\n        /* \"contracts/AssetManagement.sol\":9479:9625  function getTokenBalance(address _user, address _token) external view returns (uint256) {... */\n      swap3\n      swap2\n      pop\n      pop\n      jump\t// out\n        /* \"contracts/AssetManagement.sol\":1589:1621  address[] public supportedTokens */\n    tag_147:\n      0x0a\n      dup2\n      dup2\n      sload\n      dup2\n      lt\n      tag_401\n      jumpi\n      0x00\n      dup1\n      revert\n    tag_401:\n      swap1\n      0x00\n      mstore\n      keccak256(0x00, 0x20)\n      add\n      0x00\n      swap2\n      pop\n      sload\n      swap1\n      0x0100\n      exp\n      swap1\n      div\n      0xffffffffffffffffffffffffffffffffffffffff\n      and\n      dup2\n      jump\t// out\n        /* \"contracts/AssetManagement.sol\":11310:11422  function getSupportedTokens() external view returns (address[] memory) {... */\n    tag_150:\n        /* \"contracts/AssetManagement.sol\":11363:11379  address[] memory */\n      0x60\n        /* \"contracts/AssetManagement.sol\":11399:11414  supportedTokens */\n      0x0a\n        /* \"contracts/AssetManagement.sol\":11392:11414  return supportedTokens */\n      dup1\n      sload\n      dup1\n      0x20\n      mul\n      0x20\n      add\n      mload(0x40)\n      swap1\n      dup2\n      add\n      0x40\n      mstore\n      dup1\n      swap3\n      swap2\n      swap1\n      dup2\n      dup2\n      mstore\n      0x20\n      add\n      dup3\n      dup1\n      sload\n      dup1\n      iszero\n      tag_404\n      jumpi\n      0x20\n      mul\n      dup3\n      add\n      swap2\n      swap1\n      0x00\n      mstore\n      keccak256(0x00, 0x20)\n      swap1\n    tag_405:\n      dup2\n      0x00\n      swap1\n      sload\n      swap1\n      0x0100\n      exp\n      swap1\n      div\n      0xffffffffffffffffffffffffffffffffffffffff\n      and\n      0xffffffffffffffffffffffffffffffffffffffff\n      and\n      dup2\n      mstore\n      0x20\n      add\n      swap1\n      0x01\n      add\n      swap1\n      dup1\n      dup4\n      gt\n      tag_405\n      jumpi\n    tag_404:\n      pop\n      pop\n      pop\n      pop\n      pop\n      swap1\n      pop\n        /* \"contracts/AssetManagement.sol\":11310:11422  function getSupportedTokens() external view returns (address[] memory) {... */\n      swap1\n      jump\t// out\n        /* \"contracts/AssetManagement.sol\":1110:1187  mapping(address => mapping(address => uint256)) public userInitialInvestments */\n    tag_154:\n      mstore(0x20, 0x03)\n      dup2\n      0x00\n      mstore\n      mstore(0x20, keccak256(0x00, 0x40))\n      dup1\n      0x00\n      mstore\n      keccak256(0x00, 0x40)\n      0x00\n      swap2\n      pop\n      swap2\n      pop\n      pop\n      sload\n      dup2\n      jump\t// out\n        /* \"contracts/AssetManagement.sol\":1350:1394  mapping(string => bool) public usernameTaken */\n    tag_158:\n      0x07\n      dup2\n      dup1\n      mload\n      0x20\n      dup2\n      add\n      dup3\n      add\n      dup1\n      mload\n      dup5\n      dup3\n      mstore\n      0x20\n      dup4\n      add\n      0x20\n      dup6\n      add\n      keccak256\n      dup2\n      dup4\n      mstore\n      dup1\n      swap6\n      pop\n      pop\n      pop\n      pop\n      pop\n      pop\n      0x00\n      swap2\n      pop\n      sload\n      swap1\n      0x0100\n      exp\n      swap1\n      div\n      0xff\n      and\n      dup2\n      jump\t// out\n        /* \"contracts/AssetManagement.sol\":8411:9402  function withdraw(address _token, uint256 _amount) external nonReentrant onlyRegisteredUser onlyActiveUser {... */\n    tag_162:\n        /* \"@openzeppelin/contracts/security/ReentrancyGuard.sol\":2261:2282  _nonReentrantBefore() */\n      tag_407\n        /* \"@openzeppelin/contracts/security/ReentrancyGuard.sol\":2261:2280  _nonReentrantBefore */\n      tag_232\n        /* \"@openzeppelin/contracts/security/ReentrancyGuard.sol\":2261:2282  _nonReentrantBefore() */\n      jump\t// in\n    tag_407:\n        /* \"contracts/AssetManagement.sol\":2444:2449  users */\n      0x06\n        /* \"contracts/AssetManagement.sol\":2444:2461  users[msg.sender] */\n      0x00\n        /* \"contracts/AssetManagement.sol\":2450:2460  msg.sender */\n      caller\n        /* \"contracts/AssetManagement.sol\":2444:2461  users[msg.sender] */\n      0xffffffffffffffffffffffffffffffffffffffff\n      and\n      0xffffffffffffffffffffffffffffffffffffffff\n      and\n      dup2\n      mstore\n      0x20\n      add\n      swap1\n      dup2\n      mstore\n      0x20\n      add\n      0x00\n      keccak256\n        /* \"contracts/AssetManagement.sol\":2444:2474  users[msg.sender].isRegistered */\n      0x02\n      add\n      0x00\n      swap1\n      sload\n      swap1\n      0x0100\n      exp\n      swap1\n      div\n      0xff\n      and\n        /* \"contracts/AssetManagement.sol\":2436:2498  require(users[msg.sender].isRegistered, \"User not registered\") */\n      tag_409\n      jumpi\n      mload(0x40)\n      0x08c379a000000000000000000000000000000000000000000000000000000000\n      dup2\n      mstore\n      0x04\n      add\n      tag_410\n      swap1\n      tag_192\n      jump\t// in\n    tag_410:\n      mload(0x40)\n      dup1\n      swap2\n      sub\n      swap1\n      revert\n    tag_409:\n        /* \"contracts/AssetManagement.sol\":2575:2587  isUserActive */\n      0x08\n        /* \"contracts/AssetManagement.sol\":2575:2599  isUserActive[msg.sender] */\n      0x00\n        /* \"contracts/AssetManagement.sol\":2588:2598  msg.sender */\n      caller\n        /* \"contracts/AssetManagement.sol\":2575:2599  isUserActive[msg.sender] */\n      0xffffffffffffffffffffffffffffffffffffffff\n      and\n      0xffffffffffffffffffffffffffffffffffffffff\n      and\n      dup2\n      mstore\n      0x20\n      add\n      swap1\n      dup2\n      mstore\n      0x20\n      add\n      0x00\n      keccak256\n      0x00\n      swap1\n      sload\n      swap1\n      0x0100\n      exp\n      swap1\n      div\n      0xff\n      and\n        /* \"contracts/AssetManagement.sol\":2567:2622  require(isUserActive[msg.sender], \"User not logged in\") */\n      tag_412\n      jumpi\n      mload(0x40)\n      0x08c379a000000000000000000000000000000000000000000000000000000000\n      dup2\n      mstore\n      0x04\n      add\n      tag_413\n      swap1\n      tag_187\n      jump\t// in\n    tag_413:\n      mload(0x40)\n      dup1\n      swap2\n      sub\n      swap1\n      revert\n    tag_412:\n        /* \"contracts/AssetManagement.sol\":8578:8585  _amount */\n      dup1\n        /* \"contracts/AssetManagement.sol\":8537:8554  userTokenBalances */\n      0x02\n        /* \"contracts/AssetManagement.sol\":8537:8566  userTokenBalances[msg.sender] */\n      0x00\n        /* \"contracts/AssetManagement.sol\":8555:8565  msg.sender */\n      caller\n        /* \"contracts/AssetManagement.sol\":8537:8566  userTokenBalances[msg.sender] */\n      0xffffffffffffffffffffffffffffffffffffffff\n      and\n      0xffffffffffffffffffffffffffffffffffffffff\n      and\n      dup2\n      mstore\n      0x20\n      add\n      swap1\n      dup2\n      mstore\n      0x20\n      add\n      0x00\n      keccak256\n        /* \"contracts/AssetManagement.sol\":8537:8574  userTokenBalances[msg.sender][_token] */\n      0x00\n        /* \"contracts/AssetManagement.sol\":8567:8573  _token */\n      dup5\n        /* \"contracts/AssetManagement.sol\":8537:8574  userTokenBalances[msg.sender][_token] */\n      0xffffffffffffffffffffffffffffffffffffffff\n      and\n      0xffffffffffffffffffffffffffffffffffffffff\n      and\n      dup2\n      mstore\n      0x20\n      add\n      swap1\n      dup2\n      mstore\n      0x20\n      add\n      0x00\n      keccak256\n      sload\n        /* \"contracts/AssetManagement.sol\":8537:8585  userTokenBalances[msg.sender][_token] >= _amount */\n      lt\n      iszero\n        /* \"contracts/AssetManagement.sol\":8529:8610  require(userTokenBalances[msg.sender][_token] >= _amount, \"Insufficient balance\") */\n      tag_415\n      jumpi\n      mload(0x40)\n      0x08c379a000000000000000000000000000000000000000000000000000000000\n      dup2\n      mstore\n      0x04\n      add\n      tag_416\n      swap1\n      tag_417\n      jump\t// in\n    tag_416:\n      mload(0x40)\n      dup1\n      swap2\n      sub\n      swap1\n      revert\n    tag_415:\n        /* \"contracts/AssetManagement.sol\":8639:8640  0 */\n      0x00\n        /* \"contracts/AssetManagement.sol\":8629:8636  _amount */\n      dup2\n        /* \"contracts/AssetManagement.sol\":8629:8640  _amount > 0 */\n      gt\n        /* \"contracts/AssetManagement.sol\":8621:8674  require(_amount > 0, \"Amount must be greater than 0\") */\n      tag_418\n      jumpi\n      mload(0x40)\n      0x08c379a000000000000000000000000000000000000000000000000000000000\n      dup2\n      mstore\n      0x04\n      add\n      tag_419\n      swap1\n      tag_245\n      jump\t// in\n    tag_419:\n      mload(0x40)\n      dup1\n      swap2\n      sub\n      swap1\n      revert\n    tag_418:\n        /* \"contracts/AssetManagement.sol\":8695:8707  IERC20 token */\n      0x00\n        /* \"contracts/AssetManagement.sol\":8717:8723  _token */\n      dup3\n        /* \"contracts/AssetManagement.sol\":8695:8724  IERC20 token = IERC20(_token) */\n      swap1\n      pop\n        /* \"contracts/AssetManagement.sol\":8832:8839  _amount */\n      dup2\n        /* \"contracts/AssetManagement.sol\":8791:8808  userTokenBalances */\n      0x02\n        /* \"contracts/AssetManagement.sol\":8791:8820  userTokenBalances[msg.sender] */\n      0x00\n        /* \"contracts/AssetManagement.sol\":8809:8819  msg.sender */\n      caller\n        /* \"contracts/AssetManagement.sol\":8791:8820  userTokenBalances[msg.sender] */\n      0xffffffffffffffffffffffffffffffffffffffff\n      and\n      0xffffffffffffffffffffffffffffffffffffffff\n      and\n      dup2\n      mstore\n      0x20\n      add\n      swap1\n      dup2\n      mstore\n      0x20\n      add\n      0x00\n      keccak256\n        /* \"contracts/AssetManagement.sol\":8791:8828  userTokenBalances[msg.sender][_token] */\n      0x00\n        /* \"contracts/AssetManagement.sol\":8821:8827  _token */\n      dup6\n        /* \"contracts/AssetManagement.sol\":8791:8828  userTokenBalances[msg.sender][_token] */\n      0xffffffffffffffffffffffffffffffffffffffff\n      and\n      0xffffffffffffffffffffffffffffffffffffffff\n      and\n      dup2\n      mstore\n      0x20\n      add\n      swap1\n      dup2\n      mstore\n      0x20\n      add\n      0x00\n      keccak256\n      0x00\n        /* \"contracts/AssetManagement.sol\":8791:8839  userTokenBalances[msg.sender][_token] -= _amount */\n      dup3\n      dup3\n      sload\n      tag_420\n      swap2\n      swap1\n      tag_338\n      jump\t// in\n    tag_420:\n      swap3\n      pop\n      pop\n      dup2\n      swap1\n      sstore\n      pop\n        /* \"contracts/AssetManagement.sol\":8937:8942  token */\n      dup1\n        /* \"contracts/AssetManagement.sol\":8937:8951  token.transfer */\n      0xffffffffffffffffffffffffffffffffffffffff\n      and\n      0xa9059cbb\n        /* \"contracts/AssetManagement.sol\":8952:8962  msg.sender */\n      caller\n        /* \"contracts/AssetManagement.sol\":8964:8971  _amount */\n      dup5\n        /* \"contracts/AssetManagement.sol\":8937:8972  token.transfer(msg.sender, _amount) */\n      mload(0x40)\n      dup4\n      0xffffffff\n      and\n      0xe0\n      shl\n      dup2\n      mstore\n      0x04\n      add\n      tag_421\n      swap3\n      swap2\n      swap1\n      tag_422\n      jump\t// in\n    tag_421:\n      0x20\n      mload(0x40)\n      dup1\n      dup4\n      sub\n      dup2\n      0x00\n      dup8\n      gas\n      call\n      iszero\n      dup1\n      iszero\n      tag_424\n      jumpi\n      returndatacopy(0x00, 0x00, returndatasize)\n      revert(0x00, returndatasize)\n    tag_424:\n      pop\n      pop\n      pop\n      pop\n      mload(0x40)\n      returndatasize\n      not(0x1f)\n      0x1f\n      dup3\n      add\n      and\n      dup3\n      add\n      dup1\n      0x40\n      mstore\n      pop\n      dup2\n      add\n      swap1\n      tag_425\n      swap2\n      swap1\n      tag_273\n      jump\t// in\n    tag_425:\n        /* \"contracts/AssetManagement.sol\":8929:8992  require(token.transfer(msg.sender, _amount), \"Transfer failed\") */\n      tag_426\n      jumpi\n      mload(0x40)\n      0x08c379a000000000000000000000000000000000000000000000000000000000\n      dup2\n      mstore\n      0x04\n      add\n      tag_427\n      swap1\n      tag_276\n      jump\t// in\n    tag_427:\n      mload(0x40)\n      dup1\n      swap2\n      sub\n      swap1\n      revert\n    tag_426:\n        /* \"contracts/AssetManagement.sol\":9100:9285  Transaction({... */\n      mload(0x40)\n      dup1\n      0xa0\n      add\n      0x40\n      mstore\n      dup1\n        /* \"contracts/AssetManagement.sol\":9133:9143  msg.sender */\n      caller\n        /* \"contracts/AssetManagement.sol\":9100:9285  Transaction({... */\n      0xffffffffffffffffffffffffffffffffffffffff\n      and\n      dup2\n      mstore\n      0x20\n      add\n        /* \"contracts/AssetManagement.sol\":9165:9171  _token */\n      dup5\n        /* \"contracts/AssetManagement.sol\":9100:9285  Transaction({... */\n      0xffffffffffffffffffffffffffffffffffffffff\n      and\n      dup2\n      mstore\n      0x20\n      add\n        /* \"contracts/AssetManagement.sol\":9194:9201  _amount */\n      dup4\n        /* \"contracts/AssetManagement.sol\":9100:9285  Transaction({... */\n      dup2\n      mstore\n      0x20\n      add\n        /* \"contracts/AssetManagement.sol\":9227:9232  false */\n      0x00\n        /* \"contracts/AssetManagement.sol\":9100:9285  Transaction({... */\n      iszero\n      iszero\n      dup2\n      mstore\n      0x20\n      add\n        /* \"contracts/AssetManagement.sol\":9258:9273  block.timestamp */\n      timestamp\n        /* \"contracts/AssetManagement.sol\":9100:9285  Transaction({... */\n      dup2\n      mstore\n      pop\n        /* \"contracts/AssetManagement.sol\":9067:9079  transactions */\n      0x05\n        /* \"contracts/AssetManagement.sol\":9067:9097  transactions[transactionCount] */\n      0x00\n        /* \"contracts/AssetManagement.sol\":9080:9096  transactionCount */\n      sload(0x09)\n        /* \"contracts/AssetManagement.sol\":9067:9097  transactions[transactionCount] */\n      dup2\n      mstore\n      0x20\n      add\n      swap1\n      dup2\n      mstore\n      0x20\n      add\n      0x00\n      keccak256\n        /* \"contracts/AssetManagement.sol\":9067:9285  transactions[transactionCount] = Transaction({... */\n      0x00\n      dup3\n      add\n      mload\n      dup2\n      0x00\n      add\n      exp(0x0100, 0x00)\n      dup2\n      sload\n      dup2\n      0xffffffffffffffffffffffffffffffffffffffff\n      mul\n      not\n      and\n      swap1\n      dup4\n      0xffffffffffffffffffffffffffffffffffffffff\n      and\n      mul\n      or\n      swap1\n      sstore\n      pop\n      0x20\n      dup3\n      add\n      mload\n      dup2\n      0x01\n      add\n      exp(0x0100, 0x00)\n      dup2\n      sload\n      dup2\n      0xffffffffffffffffffffffffffffffffffffffff\n      mul\n      not\n      and\n      swap1\n      dup4\n      0xffffffffffffffffffffffffffffffffffffffff\n      and\n      mul\n      or\n      swap1\n      sstore\n      pop\n      0x40\n      dup3\n      add\n      mload\n      dup2\n      0x02\n      add\n      sstore\n      0x60\n      dup3\n      add\n      mload\n      dup2\n      0x03\n      add\n      exp(0x0100, 0x00)\n      dup2\n      sload\n      dup2\n      0xff\n      mul\n      not\n      and\n      swap1\n      dup4\n      iszero\n      iszero\n      mul\n      or\n      swap1\n      sstore\n      pop\n      0x80\n      dup3\n      add\n      mload\n      dup2\n      0x04\n      add\n      sstore\n      swap1\n      pop\n      pop\n        /* \"contracts/AssetManagement.sol\":9296:9312  transactionCount */\n      0x09\n      0x00\n        /* \"contracts/AssetManagement.sol\":9296:9314  transactionCount++ */\n      dup2\n      sload\n      dup1\n      swap3\n      swap2\n      swap1\n      tag_428\n      swap1\n      tag_283\n      jump\t// in\n    tag_428:\n      swap2\n      swap1\n      pop\n      sstore\n      pop\n        /* \"contracts/AssetManagement.sol\":9361:9367  _token */\n      dup3\n        /* \"contracts/AssetManagement.sol\":9340:9394  Withdraw(msg.sender, _token, _amount, block.timestamp) */\n      0xffffffffffffffffffffffffffffffffffffffff\n      and\n        /* \"contracts/AssetManagement.sol\":9349:9359  msg.sender */\n      caller\n        /* \"contracts/AssetManagement.sol\":9340:9394  Withdraw(msg.sender, _token, _amount, block.timestamp) */\n      0xffffffffffffffffffffffffffffffffffffffff\n      and\n      0xf341246adaac6f497bc2a656f546ab9e182111d630394f0c57c710a59a2cb567\n        /* \"contracts/AssetManagement.sol\":9369:9376  _amount */\n      dup5\n        /* \"contracts/AssetManagement.sol\":9378:9393  block.timestamp */\n      timestamp\n        /* \"contracts/AssetManagement.sol\":9340:9394  Withdraw(msg.sender, _token, _amount, block.timestamp) */\n      mload(0x40)\n      tag_429\n      swap3\n      swap2\n      swap1\n      tag_285\n      jump\t// in\n    tag_429:\n      mload(0x40)\n      dup1\n      swap2\n      sub\n      swap1\n      log3\n        /* \"contracts/AssetManagement.sol\":8518:9402  {... */\n      pop\n        /* \"@openzeppelin/contracts/security/ReentrancyGuard.sol\":2303:2323  _nonReentrantAfter() */\n      tag_430\n        /* \"@openzeppelin/contracts/security/ReentrancyGuard.sol\":2303:2321  _nonReentrantAfter */\n      tag_287\n        /* \"@openzeppelin/contracts/security/ReentrancyGuard.sol\":2303:2323  _nonReentrantAfter() */\n      jump\t// in\n    tag_430:\n        /* \"contracts/AssetManagement.sol\":8411:9402  function withdraw(address _token, uint256 _amount) external nonReentrant onlyRegisteredUser onlyActiveUser {... */\n      pop\n      pop\n      jump\t// out\n        /* \"contracts/AssetManagement.sol\":4867:4976  function isLoggedIn(address _user) external view returns (bool) {... */\n    tag_165:\n        /* \"contracts/AssetManagement.sol\":4925:4929  bool */\n      0x00\n        /* \"contracts/AssetManagement.sol\":4949:4961  isUserActive */\n      0x08\n        /* \"contracts/AssetManagement.sol\":4949:4968  isUserActive[_user] */\n      0x00\n        /* \"contracts/AssetManagement.sol\":4962:4967  _user */\n      dup4\n        /* \"contracts/AssetManagement.sol\":4949:4968  isUserActive[_user] */\n      0xffffffffffffffffffffffffffffffffffffffff\n      and\n      0xffffffffffffffffffffffffffffffffffffffff\n      and\n      dup2\n      mstore\n      0x20\n      add\n      swap1\n      dup2\n      mstore\n      0x20\n      add\n      0x00\n      keccak256\n      0x00\n      swap1\n      sload\n      swap1\n      0x0100\n      exp\n      swap1\n      div\n      0xff\n      and\n        /* \"contracts/AssetManagement.sol\":4942:4968  return isUserActive[_user] */\n      swap1\n      pop\n        /* \"contracts/AssetManagement.sol\":4867:4976  function isLoggedIn(address _user) external view returns (bool) {... */\n      swap2\n      swap1\n      pop\n      jump\t// out\n        /* \"contracts/AssetManagement.sol\":1194:1241  mapping(address => address[]) public userTokens */\n    tag_169:\n      mstore(0x20, 0x04)\n      dup2\n      0x00\n      mstore\n      keccak256(0x00, 0x40)\n      dup2\n      dup2\n      sload\n      dup2\n      lt\n      tag_432\n      jumpi\n      0x00\n      dup1\n      revert\n    tag_432:\n      swap1\n      0x00\n      mstore\n      keccak256(0x00, 0x20)\n      add\n      0x00\n      swap2\n      pop\n      swap2\n      pop\n      swap1\n      sload\n      swap1\n      0x0100\n      exp\n      swap1\n      div\n      0xffffffffffffffffffffffffffffffffffffffff\n      and\n      dup2\n      jump\t// out\n        /* \"@openzeppelin/contracts/security/ReentrancyGuard.sol\":2336:2623  function _nonReentrantBefore() private {... */\n    tag_232:\n        /* \"@openzeppelin/contracts/security/ReentrancyGuard.sol\":1759:1760  2 */\n      0x02\n        /* \"@openzeppelin/contracts/security/ReentrancyGuard.sol\":2468:2475  _status */\n      sload(0x00)\n        /* \"@openzeppelin/contracts/security/ReentrancyGuard.sol\":2468:2487  _status != _ENTERED */\n      sub\n        /* \"@openzeppelin/contracts/security/ReentrancyGuard.sol\":2460:2523  require(_status != _ENTERED, \"ReentrancyGuard: reentrant call\") */\n      tag_435\n      jumpi\n      mload(0x40)\n      0x08c379a000000000000000000000000000000000000000000000000000000000\n      dup2\n      mstore\n      0x04\n      add\n      tag_436\n      swap1\n      tag_437\n      jump\t// in\n    tag_436:\n      mload(0x40)\n      dup1\n      swap2\n      sub\n      swap1\n      revert\n    tag_435:\n        /* \"@openzeppelin/contracts/security/ReentrancyGuard.sol\":1759:1760  2 */\n      0x02\n        /* \"@openzeppelin/contracts/security/ReentrancyGuard.sol\":2598:2605  _status */\n      0x00\n        /* \"@openzeppelin/contracts/security/ReentrancyGuard.sol\":2598:2616  _status = _ENTERED */\n      dup2\n      swap1\n      sstore\n      pop\n        /* \"@openzeppelin/contracts/security/ReentrancyGuard.sol\":2336:2623  function _nonReentrantBefore() private {... */\n      jump\t// out\n        /* \"contracts/AssetManagement.sol\":11631:12204  function uint2str(uint256 _i) internal pure returns (string memory) {... */\n    tag_251:\n        /* \"contracts/AssetManagement.sol\":11684:11697  string memory */\n      0x60\n        /* \"contracts/AssetManagement.sol\":11720:11721  0 */\n      0x00\n        /* \"contracts/AssetManagement.sol\":11714:11716  _i */\n      dup3\n        /* \"contracts/AssetManagement.sol\":11714:11721  _i == 0 */\n      sub\n        /* \"contracts/AssetManagement.sol\":11710:11760  if (_i == 0) {... */\n      tag_439\n      jumpi\n        /* \"contracts/AssetManagement.sol\":11738:11748  return \"0\" */\n      mload(0x40)\n      dup1\n      0x40\n      add\n      0x40\n      mstore\n      dup1\n      0x01\n      dup2\n      mstore\n      0x20\n      add\n      0x3000000000000000000000000000000000000000000000000000000000000000\n      dup2\n      mstore\n      pop\n      swap1\n      pop\n      jump(tag_438)\n        /* \"contracts/AssetManagement.sol\":11710:11760  if (_i == 0) {... */\n    tag_439:\n        /* \"contracts/AssetManagement.sol\":11770:11779  uint256 j */\n      0x00\n        /* \"contracts/AssetManagement.sol\":11782:11784  _i */\n      dup3\n        /* \"contracts/AssetManagement.sol\":11770:11784  uint256 j = _i */\n      swap1\n      pop\n        /* \"contracts/AssetManagement.sol\":11795:11806  uint256 len */\n      0x00\n        /* \"contracts/AssetManagement.sol\":11817:11886  while (j != 0) {... */\n    tag_440:\n        /* \"contracts/AssetManagement.sol\":11829:11830  0 */\n      0x00\n        /* \"contracts/AssetManagement.sol\":11824:11825  j */\n      dup3\n        /* \"contracts/AssetManagement.sol\":11824:11830  j != 0 */\n      eq\n        /* \"contracts/AssetManagement.sol\":11817:11886  while (j != 0) {... */\n      tag_441\n      jumpi\n        /* \"contracts/AssetManagement.sol\":11847:11852  len++ */\n      dup1\n      dup1\n      tag_442\n      swap1\n      tag_283\n      jump\t// in\n    tag_442:\n      swap2\n      pop\n      pop\n        /* \"contracts/AssetManagement.sol\":11872:11874  10 */\n      0x0a\n        /* \"contracts/AssetManagement.sol\":11867:11874  j /= 10 */\n      dup3\n      tag_443\n      swap2\n      swap1\n      tag_444\n      jump\t// in\n    tag_443:\n      swap2\n      pop\n        /* \"contracts/AssetManagement.sol\":11817:11886  while (j != 0) {... */\n      jump(tag_440)\n    tag_441:\n        /* \"contracts/AssetManagement.sol\":11896:11913  bytes memory bstr */\n      0x00\n        /* \"contracts/AssetManagement.sol\":11926:11929  len */\n      dup2\n        /* \"contracts/AssetManagement.sol\":11916:11930  new bytes(len) */\n      0xffffffffffffffff\n      dup2\n      gt\n      iszero\n      tag_445\n      jumpi\n      tag_446\n      tag_328\n      jump\t// in\n    tag_446:\n    tag_445:\n      mload(0x40)\n      swap1\n      dup1\n      dup3\n      mstore\n      dup1\n      0x1f\n      add\n      not(0x1f)\n      and\n      0x20\n      add\n      dup3\n      add\n      0x40\n      mstore\n      dup1\n      iszero\n      tag_447\n      jumpi\n      dup2\n      0x20\n      add\n      0x01\n      dup3\n      mul\n      dup1\n      calldatasize\n      dup4\n      calldatacopy\n      dup1\n      dup3\n      add\n      swap2\n      pop\n      pop\n      swap1\n      pop\n    tag_447:\n      pop\n        /* \"contracts/AssetManagement.sol\":11896:11930  bytes memory bstr = new bytes(len) */\n      swap1\n      pop\n        /* \"contracts/AssetManagement.sol\":11941:11950  uint256 k */\n      0x00\n        /* \"contracts/AssetManagement.sol\":11953:11956  len */\n      dup3\n        /* \"contracts/AssetManagement.sol\":11941:11956  uint256 k = len */\n      swap1\n      pop\n        /* \"contracts/AssetManagement.sol\":11967:12167  while (_i != 0) {... */\n    tag_448:\n        /* \"contracts/AssetManagement.sol\":11980:11981  0 */\n      0x00\n        /* \"contracts/AssetManagement.sol\":11974:11976  _i */\n      dup7\n        /* \"contracts/AssetManagement.sol\":11974:11981  _i != 0 */\n      eq\n        /* \"contracts/AssetManagement.sol\":11967:12167  while (_i != 0) {... */\n      tag_449\n      jumpi\n        /* \"contracts/AssetManagement.sol\":12006:12007  1 */\n      0x01\n        /* \"contracts/AssetManagement.sol\":12002:12003  k */\n      dup2\n        /* \"contracts/AssetManagement.sol\":12002:12007  k - 1 */\n      tag_450\n      swap2\n      swap1\n      tag_338\n      jump\t// in\n    tag_450:\n        /* \"contracts/AssetManagement.sol\":11998:12007  k = k - 1 */\n      swap1\n      pop\n        /* \"contracts/AssetManagement.sol\":12022:12032  uint8 temp */\n      0x00\n        /* \"contracts/AssetManagement.sol\":12062:12064  10 */\n      0x0a\n        /* \"contracts/AssetManagement.sol\":12057:12059  10 */\n      dup1\n        /* \"contracts/AssetManagement.sol\":12052:12054  _i */\n      dup9\n        /* \"contracts/AssetManagement.sol\":12052:12059  _i / 10 */\n      tag_451\n      swap2\n      swap1\n      tag_444\n      jump\t// in\n    tag_451:\n        /* \"contracts/AssetManagement.sol\":12052:12064  _i / 10 * 10 */\n      tag_452\n      swap2\n      swap1\n      tag_453\n      jump\t// in\n    tag_452:\n        /* \"contracts/AssetManagement.sol\":12047:12049  _i */\n      dup8\n        /* \"contracts/AssetManagement.sol\":12047:12064  _i - _i / 10 * 10 */\n      tag_454\n      swap2\n      swap1\n      tag_338\n      jump\t// in\n    tag_454:\n        /* \"contracts/AssetManagement.sol\":12036:12038  48 */\n      0x30\n        /* \"contracts/AssetManagement.sol\":12036:12065  48 + uint8(_i - _i / 10 * 10) */\n      tag_455\n      swap2\n      swap1\n      tag_456\n      jump\t// in\n    tag_455:\n        /* \"contracts/AssetManagement.sol\":12022:12066  uint8 temp = (48 + uint8(_i - _i / 10 * 10)) */\n      swap1\n      pop\n        /* \"contracts/AssetManagement.sol\":12081:12090  bytes1 b1 */\n      0x00\n        /* \"contracts/AssetManagement.sol\":12100:12104  temp */\n      dup2\n        /* \"contracts/AssetManagement.sol\":12093:12105  bytes1(temp) */\n      0xf8\n      shl\n        /* \"contracts/AssetManagement.sol\":12081:12105  bytes1 b1 = bytes1(temp) */\n      swap1\n      pop\n        /* \"contracts/AssetManagement.sol\":12130:12132  b1 */\n      dup1\n        /* \"contracts/AssetManagement.sol\":12120:12124  bstr */\n      dup5\n        /* \"contracts/AssetManagement.sol\":12125:12126  k */\n      dup5\n        /* \"contracts/AssetManagement.sol\":12120:12127  bstr[k] */\n      dup2\n      mload\n      dup2\n      lt\n      tag_457\n      jumpi\n      tag_458\n      tag_343\n      jump\t// in\n    tag_458:\n    tag_457:\n      0x20\n      add\n      add\n        /* \"contracts/AssetManagement.sol\":12120:12132  bstr[k] = b1 */\n      swap1\n      not(0xffffffffffffffffffffffffffffffffffffffffffffffffffffffffffffff)\n      and\n      swap1\n      dup2\n      0x00\n      byte\n      swap1\n      mstore8\n      pop\n        /* \"contracts/AssetManagement.sol\":12153:12155  10 */\n      0x0a\n        /* \"contracts/AssetManagement.sol\":12147:12155  _i /= 10 */\n      dup9\n      tag_459\n      swap2\n      swap1\n      tag_444\n      jump\t// in\n    tag_459:\n      swap8\n      pop\n        /* \"contracts/AssetManagement.sol\":11983:12167  {... */\n      pop\n      pop\n        /* \"contracts/AssetManagement.sol\":11967:12167  while (_i != 0) {... */\n      jump(tag_448)\n    tag_449:\n        /* \"contracts/AssetManagement.sol\":12191:12195  bstr */\n      dup2\n        /* \"contracts/AssetManagement.sol\":12177:12196  return string(bstr) */\n      swap5\n      pop\n      pop\n      pop\n      pop\n      pop\n        /* \"contracts/AssetManagement.sol\":11631:12204  function uint2str(uint256 _i) internal pure returns (string memory) {... */\n    tag_438:\n      swap2\n      swap1\n      pop\n      jump\t// out\n        /* \"@openzeppelin/contracts/security/ReentrancyGuard.sol\":2629:2838  function _nonReentrantAfter() private {... */\n    tag_287:\n        /* \"@openzeppelin/contracts/security/ReentrancyGuard.sol\":1716:1717  1 */\n      0x01\n        /* \"@openzeppelin/contracts/security/ReentrancyGuard.sol\":2809:2816  _status */\n      0x00\n        /* \"@openzeppelin/contracts/security/ReentrancyGuard.sol\":2809:2831  _status = _NOT_ENTERED */\n      dup2\n      swap1\n      sstore\n      pop\n        /* \"@openzeppelin/contracts/security/ReentrancyGuard.sol\":2629:2838  function _nonReentrantAfter() private {... */\n      jump\t// out\n    tag_292:\n      mload(0x40)\n      dup1\n      0xa0\n      add\n      0x40\n      mstore\n      dup1\n      0x60\n      dup2\n      mstore\n      0x20\n      add\n      0x60\n      dup2\n      mstore\n      0x20\n      add\n      iszero(iszero(0x00))\n      dup2\n      mstore\n      0x20\n      add\n      0x00\n      dup2\n      mstore\n      0x20\n      add\n      0x00\n      dup2\n      mstore\n      pop\n      swap1\n      jump\t// out\n    tag_332:\n      mload(0x40)\n      dup1\n      0xa0\n      add\n      0x40\n      mstore\n      dup1\n      and(0xffffffffffffffffffffffffffffffffffffffff, 0x00)\n      dup2\n      mstore\n      0x20\n      add\n      and(0xffffffffffffffffffffffffffffffffffffffff, 0x00)\n      dup2\n      mstore\n      0x20\n      add\n      0x00\n      dup2\n      mstore\n      0x20\n      add\n      iszero(iszero(0x00))\n      dup2\n      mstore\n      0x20\n      add\n      0x00\n      dup2\n      mstore\n      pop\n      swap1\n      jump\t// out\n        /* \"#utility.yul\":7:82   */\n    tag_461:\n        /* \"#utility.yul\":40:46   */\n      0x00\n        /* \"#utility.yul\":73:75   */\n      0x40\n        /* \"#utility.yul\":67:76   */\n      mload\n        /* \"#utility.yul\":57:76   */\n      swap1\n      pop\n        /* \"#utility.yul\":7:82   */\n      swap1\n      jump\t// out\n        /* \"#utility.yul\":88:205   */\n    tag_462:\n        /* \"#utility.yul\":197:198   */\n      0x00\n        /* \"#utility.yul\":194:195   */\n      0x00\n        /* \"#utility.yul\":187:199   */\n      revert\n        /* \"#utility.yul\":211:328   */\n    tag_463:\n        /* \"#utility.yul\":320:321   */\n      0x00\n        /* \"#utility.yul\":317:318   */\n      0x00\n        /* \"#utility.yul\":310:322   */\n      revert\n        /* \"#utility.yul\":334:460   */\n    tag_464:\n        /* \"#utility.yul\":371:378   */\n      0x00\n        /* \"#utility.yul\":411:453   */\n      0xffffffffffffffffffffffffffffffffffffffff\n        /* \"#utility.yul\":404:409   */\n      dup3\n        /* \"#utility.yul\":400:454   */\n      and\n        /* \"#utility.yul\":389:454   */\n      swap1\n      pop\n        /* \"#utility.yul\":334:460   */\n      swap2\n      swap1\n      pop\n      jump\t// out\n        /* \"#utility.yul\":466:562   */\n    tag_465:\n        /* \"#utility.yul\":503:510   */\n      0x00\n        /* \"#utility.yul\":532:556   */\n      tag_587\n        /* \"#utility.yul\":550:555   */\n      dup3\n        /* \"#utility.yul\":532:556   */\n      tag_464\n      jump\t// in\n    tag_587:\n        /* \"#utility.yul\":521:556   */\n      swap1\n      pop\n        /* \"#utility.yul\":466:562   */\n      swap2\n      swap1\n      pop\n      jump\t// out\n        /* \"#utility.yul\":568:690   */\n    tag_466:\n        /* \"#utility.yul\":641:665   */\n      tag_589\n        /* \"#utility.yul\":659:664   */\n      dup2\n        /* \"#utility.yul\":641:665   */\n      tag_465\n      jump\t// in\n    tag_589:\n        /* \"#utility.yul\":634:639   */\n      dup2\n        /* \"#utility.yul\":631:666   */\n      eq\n        /* \"#utility.yul\":621:684   */\n      tag_590\n      jumpi\n        /* \"#utility.yul\":680:681   */\n      0x00\n        /* \"#utility.yul\":677:678   */\n      0x00\n        /* \"#utility.yul\":670:682   */\n      revert\n        /* \"#utility.yul\":621:684   */\n    tag_590:\n        /* \"#utility.yul\":568:690   */\n      pop\n      jump\t// out\n        /* \"#utility.yul\":696:835   */\n    tag_467:\n        /* \"#utility.yul\":742:747   */\n      0x00\n        /* \"#utility.yul\":780:786   */\n      dup2\n        /* \"#utility.yul\":767:787   */\n      calldataload\n        /* \"#utility.yul\":758:787   */\n      swap1\n      pop\n        /* \"#utility.yul\":796:829   */\n      tag_592\n        /* \"#utility.yul\":823:828   */\n      dup2\n        /* \"#utility.yul\":796:829   */\n      tag_466\n      jump\t// in\n    tag_592:\n        /* \"#utility.yul\":696:835   */\n      swap3\n      swap2\n      pop\n      pop\n      jump\t// out\n        /* \"#utility.yul\":841:1170   */\n    tag_43:\n        /* \"#utility.yul\":900:906   */\n      0x00\n        /* \"#utility.yul\":949:951   */\n      0x20\n        /* \"#utility.yul\":937:946   */\n      dup3\n        /* \"#utility.yul\":928:935   */\n      dup5\n        /* \"#utility.yul\":924:947   */\n      sub\n        /* \"#utility.yul\":920:952   */\n      slt\n        /* \"#utility.yul\":917:1036   */\n      iszero\n      tag_594\n      jumpi\n        /* \"#utility.yul\":955:1034   */\n      tag_595\n      tag_462\n      jump\t// in\n    tag_595:\n        /* \"#utility.yul\":917:1036   */\n    tag_594:\n        /* \"#utility.yul\":1075:1076   */\n      0x00\n        /* \"#utility.yul\":1100:1153   */\n      tag_596\n        /* \"#utility.yul\":1145:1152   */\n      dup5\n        /* \"#utility.yul\":1136:1142   */\n      dup3\n        /* \"#utility.yul\":1125:1134   */\n      dup6\n        /* \"#utility.yul\":1121:1143   */\n      add\n        /* \"#utility.yul\":1100:1153   */\n      tag_467\n      jump\t// in\n    tag_596:\n        /* \"#utility.yul\":1090:1153   */\n      swap2\n      pop\n        /* \"#utility.yul\":1046:1163   */\n      pop\n        /* \"#utility.yul\":841:1170   */\n      swap3\n      swap2\n      pop\n      pop\n      jump\t// out\n        /* \"#utility.yul\":1176:1253   */\n    tag_468:\n        /* \"#utility.yul\":1213:1220   */\n      0x00\n        /* \"#utility.yul\":1242:1247   */\n      dup2\n        /* \"#utility.yul\":1231:1247   */\n      swap1\n      pop\n        /* \"#utility.yul\":1176:1253   */\n      swap2\n      swap1\n      pop\n      jump\t// out\n        /* \"#utility.yul\":1259:1377   */\n    tag_469:\n        /* \"#utility.yul\":1346:1370   */\n      tag_599\n        /* \"#utility.yul\":1364:1369   */\n      dup2\n        /* \"#utility.yul\":1346:1370   */\n      tag_468\n      jump\t// in\n    tag_599:\n        /* \"#utility.yul\":1341:1344   */\n      dup3\n        /* \"#utility.yul\":1334:1371   */\n      mstore\n        /* \"#utility.yul\":1259:1377   */\n      pop\n      pop\n      jump\t// out\n        /* \"#utility.yul\":1383:1605   */\n    tag_46:\n        /* \"#utility.yul\":1476:1480   */\n      0x00\n        /* \"#utility.yul\":1514:1516   */\n      0x20\n        /* \"#utility.yul\":1503:1512   */\n      dup3\n        /* \"#utility.yul\":1499:1517   */\n      add\n        /* \"#utility.yul\":1491:1517   */\n      swap1\n      pop\n        /* \"#utility.yul\":1527:1598   */\n      tag_601\n        /* \"#utility.yul\":1595:1596   */\n      0x00\n        /* \"#utility.yul\":1584:1593   */\n      dup4\n        /* \"#utility.yul\":1580:1597   */\n      add\n        /* \"#utility.yul\":1571:1577   */\n      dup5\n        /* \"#utility.yul\":1527:1598   */\n      tag_469\n      jump\t// in\n    tag_601:\n        /* \"#utility.yul\":1383:1605   */\n      swap3\n      swap2\n      pop\n      pop\n      jump\t// out\n        /* \"#utility.yul\":1611:1701   */\n    tag_470:\n        /* \"#utility.yul\":1645:1652   */\n      0x00\n        /* \"#utility.yul\":1688:1693   */\n      dup2\n        /* \"#utility.yul\":1681:1694   */\n      iszero\n        /* \"#utility.yul\":1674:1695   */\n      iszero\n        /* \"#utility.yul\":1663:1695   */\n      swap1\n      pop\n        /* \"#utility.yul\":1611:1701   */\n      swap2\n      swap1\n      pop\n      jump\t// out\n        /* \"#utility.yul\":1707:1816   */\n    tag_471:\n        /* \"#utility.yul\":1788:1809   */\n      tag_604\n        /* \"#utility.yul\":1803:1808   */\n      dup2\n        /* \"#utility.yul\":1788:1809   */\n      tag_470\n      jump\t// in\n    tag_604:\n        /* \"#utility.yul\":1783:1786   */\n      dup3\n        /* \"#utility.yul\":1776:1810   */\n      mstore\n        /* \"#utility.yul\":1707:1816   */\n      pop\n      pop\n      jump\t// out\n        /* \"#utility.yul\":1822:2032   */\n    tag_51:\n        /* \"#utility.yul\":1909:1913   */\n      0x00\n        /* \"#utility.yul\":1947:1949   */\n      0x20\n        /* \"#utility.yul\":1936:1945   */\n      dup3\n        /* \"#utility.yul\":1932:1950   */\n      add\n        /* \"#utility.yul\":1924:1950   */\n      swap1\n      pop\n        /* \"#utility.yul\":1960:2025   */\n      tag_606\n        /* \"#utility.yul\":2022:2023   */\n      0x00\n        /* \"#utility.yul\":2011:2020   */\n      dup4\n        /* \"#utility.yul\":2007:2024   */\n      add\n        /* \"#utility.yul\":1998:2004   */\n      dup5\n        /* \"#utility.yul\":1960:2025   */\n      tag_471\n      jump\t// in\n    tag_606:\n        /* \"#utility.yul\":1822:2032   */\n      swap3\n      swap2\n      pop\n      pop\n      jump\t// out\n        /* \"#utility.yul\":2038:2155   */\n    tag_472:\n        /* \"#utility.yul\":2147:2148   */\n      0x00\n        /* \"#utility.yul\":2144:2145   */\n      0x00\n        /* \"#utility.yul\":2137:2149   */\n      revert\n        /* \"#utility.yul\":2161:2278   */\n    tag_473:\n        /* \"#utility.yul\":2270:2271   */\n      0x00\n        /* \"#utility.yul\":2267:2268   */\n      0x00\n        /* \"#utility.yul\":2260:2272   */\n      revert\n        /* \"#utility.yul\":2284:2386   */\n    tag_474:\n        /* \"#utility.yul\":2325:2331   */\n      0x00\n        /* \"#utility.yul\":2376:2378   */\n      0x1f\n        /* \"#utility.yul\":2372:2379   */\n      not\n        /* \"#utility.yul\":2367:2369   */\n      0x1f\n        /* \"#utility.yul\":2360:2365   */\n      dup4\n        /* \"#utility.yul\":2356:2370   */\n      add\n        /* \"#utility.yul\":2352:2380   */\n      and\n        /* \"#utility.yul\":2342:2380   */\n      swap1\n      pop\n        /* \"#utility.yul\":2284:2386   */\n      swap2\n      swap1\n      pop\n      jump\t// out\n        /* \"#utility.yul\":2392:2572   */\n    tag_328:\n        /* \"#utility.yul\":2440:2517   */\n      0x4e487b7100000000000000000000000000000000000000000000000000000000\n        /* \"#utility.yul\":2437:2438   */\n      0x00\n        /* \"#utility.yul\":2430:2518   */\n      mstore\n        /* \"#utility.yul\":2537:2541   */\n      0x41\n        /* \"#utility.yul\":2534:2535   */\n      0x04\n        /* \"#utility.yul\":2527:2542   */\n      mstore\n        /* \"#utility.yul\":2561:2565   */\n      0x24\n        /* \"#utility.yul\":2558:2559   */\n      0x00\n        /* \"#utility.yul\":2551:2566   */\n      revert\n        /* \"#utility.yul\":2578:2859   */\n    tag_475:\n        /* \"#utility.yul\":2661:2688   */\n      tag_612\n        /* \"#utility.yul\":2683:2687   */\n      dup3\n        /* \"#utility.yul\":2661:2688   */\n      tag_474\n      jump\t// in\n    tag_612:\n        /* \"#utility.yul\":2653:2659   */\n      dup2\n        /* \"#utility.yul\":2649:2689   */\n      add\n        /* \"#utility.yul\":2791:2797   */\n      dup2\n        /* \"#utility.yul\":2779:2789   */\n      dup2\n        /* \"#utility.yul\":2776:2798   */\n      lt\n        /* \"#utility.yul\":2755:2773   */\n      0xffffffffffffffff\n        /* \"#utility.yul\":2743:2753   */\n      dup3\n        /* \"#utility.yul\":2740:2774   */\n      gt\n        /* \"#utility.yul\":2737:2799   */\n      or\n        /* \"#utility.yul\":2734:2822   */\n      iszero\n      tag_613\n      jumpi\n        /* \"#utility.yul\":2802:2820   */\n      tag_614\n      tag_328\n      jump\t// in\n    tag_614:\n        /* \"#utility.yul\":2734:2822   */\n    tag_613:\n        /* \"#utility.yul\":2842:2852   */\n      dup1\n        /* \"#utility.yul\":2838:2840   */\n      0x40\n        /* \"#utility.yul\":2831:2853   */\n      mstore\n        /* \"#utility.yul\":2621:2859   */\n      pop\n        /* \"#utility.yul\":2578:2859   */\n      pop\n      pop\n      jump\t// out\n        /* \"#utility.yul\":2865:2994   */\n    tag_476:\n        /* \"#utility.yul\":2899:2905   */\n      0x00\n        /* \"#utility.yul\":2926:2946   */\n      tag_616\n      tag_461\n      jump\t// in\n    tag_616:\n        /* \"#utility.yul\":2916:2946   */\n      swap1\n      pop\n        /* \"#utility.yul\":2955:2988   */\n      tag_617\n        /* \"#utility.yul\":2983:2987   */\n      dup3\n        /* \"#utility.yul\":2975:2981   */\n      dup3\n        /* \"#utility.yul\":2955:2988   */\n      tag_475\n      jump\t// in\n    tag_617:\n        /* \"#utility.yul\":2865:2994   */\n      swap2\n      swap1\n      pop\n      jump\t// out\n        /* \"#utility.yul\":3000:3308   */\n    tag_477:\n        /* \"#utility.yul\":3062:3066   */\n      0x00\n        /* \"#utility.yul\":3152:3170   */\n      0xffffffffffffffff\n        /* \"#utility.yul\":3144:3150   */\n      dup3\n        /* \"#utility.yul\":3141:3171   */\n      gt\n        /* \"#utility.yul\":3138:3194   */\n      iszero\n      tag_619\n      jumpi\n        /* \"#utility.yul\":3174:3192   */\n      tag_620\n      tag_328\n      jump\t// in\n    tag_620:\n        /* \"#utility.yul\":3138:3194   */\n    tag_619:\n        /* \"#utility.yul\":3212:3241   */\n      tag_621\n        /* \"#utility.yul\":3234:3240   */\n      dup3\n        /* \"#utility.yul\":3212:3241   */\n      tag_474\n      jump\t// in\n    tag_621:\n        /* \"#utility.yul\":3204:3241   */\n      swap1\n      pop\n        /* \"#utility.yul\":3296:3300   */\n      0x20\n        /* \"#utility.yul\":3290:3294   */\n      dup2\n        /* \"#utility.yul\":3286:3301   */\n      add\n        /* \"#utility.yul\":3278:3301   */\n      swap1\n      pop\n        /* \"#utility.yul\":3000:3308   */\n      swap2\n      swap1\n      pop\n      jump\t// out\n        /* \"#utility.yul\":3314:3462   */\n    tag_478:\n        /* \"#utility.yul\":3412:3418   */\n      dup3\n        /* \"#utility.yul\":3407:3410   */\n      dup2\n        /* \"#utility.yul\":3402:3405   */\n      dup4\n        /* \"#utility.yul\":3389:3419   */\n      calldatacopy\n        /* \"#utility.yul\":3453:3454   */\n      0x00\n        /* \"#utility.yul\":3444:3450   */\n      dup4\n        /* \"#utility.yul\":3439:3442   */\n      dup4\n        /* \"#utility.yul\":3435:3451   */\n      add\n        /* \"#utility.yul\":3428:3455   */\n      mstore\n        /* \"#utility.yul\":3314:3462   */\n      pop\n      pop\n      pop\n      jump\t// out\n        /* \"#utility.yul\":3468:3893   */\n    tag_479:\n        /* \"#utility.yul\":3546:3551   */\n      0x00\n        /* \"#utility.yul\":3571:3637   */\n      tag_624\n        /* \"#utility.yul\":3587:3636   */\n      tag_625\n        /* \"#utility.yul\":3629:3635   */\n      dup5\n        /* \"#utility.yul\":3587:3636   */\n      tag_477\n      jump\t// in\n    tag_625:\n        /* \"#utility.yul\":3571:3637   */\n      tag_476\n      jump\t// in\n    tag_624:\n        /* \"#utility.yul\":3562:3637   */\n      swap1\n      pop\n        /* \"#utility.yul\":3660:3666   */\n      dup3\n        /* \"#utility.yul\":3653:3658   */\n      dup2\n        /* \"#utility.yul\":3646:3667   */\n      mstore\n        /* \"#utility.yul\":3698:3702   */\n      0x20\n        /* \"#utility.yul\":3691:3696   */\n      dup2\n        /* \"#utility.yul\":3687:3703   */\n      add\n        /* \"#utility.yul\":3736:3739   */\n      dup5\n        /* \"#utility.yul\":3727:3733   */\n      dup5\n        /* \"#utility.yul\":3722:3725   */\n      dup5\n        /* \"#utility.yul\":3718:3734   */\n      add\n        /* \"#utility.yul\":3715:3740   */\n      gt\n        /* \"#utility.yul\":3712:3824   */\n      iszero\n      tag_626\n      jumpi\n        /* \"#utility.yul\":3743:3822   */\n      tag_627\n      tag_473\n      jump\t// in\n    tag_627:\n        /* \"#utility.yul\":3712:3824   */\n    tag_626:\n        /* \"#utility.yul\":3833:3887   */\n      tag_628\n        /* \"#utility.yul\":3880:3886   */\n      dup5\n        /* \"#utility.yul\":3875:3878   */\n      dup3\n        /* \"#utility.yul\":3870:3873   */\n      dup6\n        /* \"#utility.yul\":3833:3887   */\n      tag_478\n      jump\t// in\n    tag_628:\n        /* \"#utility.yul\":3552:3893   */\n      pop\n        /* \"#utility.yul\":3468:3893   */\n      swap4\n      swap3\n      pop\n      pop\n      pop\n      jump\t// out\n        /* \"#utility.yul\":3913:4253   */\n    tag_480:\n        /* \"#utility.yul\":3969:3974   */\n      0x00\n        /* \"#utility.yul\":4018:4021   */\n      dup3\n        /* \"#utility.yul\":4011:4015   */\n      0x1f\n        /* \"#utility.yul\":4003:4009   */\n      dup4\n        /* \"#utility.yul\":3999:4016   */\n      add\n        /* \"#utility.yul\":3995:4022   */\n      slt\n        /* \"#utility.yul\":3985:4107   */\n      tag_630\n      jumpi\n        /* \"#utility.yul\":4026:4105   */\n      tag_631\n      tag_472\n      jump\t// in\n    tag_631:\n        /* \"#utility.yul\":3985:4107   */\n    tag_630:\n        /* \"#utility.yul\":4143:4149   */\n      dup2\n        /* \"#utility.yul\":4130:4150   */\n      calldataload\n        /* \"#utility.yul\":4168:4247   */\n      tag_632\n        /* \"#utility.yul\":4243:4246   */\n      dup5\n        /* \"#utility.yul\":4235:4241   */\n      dup3\n        /* \"#utility.yul\":4228:4232   */\n      0x20\n        /* \"#utility.yul\":4220:4226   */\n      dup7\n        /* \"#utility.yul\":4216:4233   */\n      add\n        /* \"#utility.yul\":4168:4247   */\n      tag_479\n      jump\t// in\n    tag_632:\n        /* \"#utility.yul\":4159:4247   */\n      swap2\n      pop\n        /* \"#utility.yul\":3975:4253   */\n      pop\n        /* \"#utility.yul\":3913:4253   */\n      swap3\n      swap2\n      pop\n      pop\n      jump\t// out\n        /* \"#utility.yul\":4259:4768   */\n    tag_60:\n        /* \"#utility.yul\":4328:4334   */\n      0x00\n        /* \"#utility.yul\":4377:4379   */\n      0x20\n        /* \"#utility.yul\":4365:4374   */\n      dup3\n        /* \"#utility.yul\":4356:4363   */\n      dup5\n        /* \"#utility.yul\":4352:4375   */\n      sub\n        /* \"#utility.yul\":4348:4380   */\n      slt\n        /* \"#utility.yul\":4345:4464   */\n      iszero\n      tag_634\n      jumpi\n        /* \"#utility.yul\":4383:4462   */\n      tag_635\n      tag_462\n      jump\t// in\n    tag_635:\n        /* \"#utility.yul\":4345:4464   */\n    tag_634:\n        /* \"#utility.yul\":4531:4532   */\n      0x00\n        /* \"#utility.yul\":4520:4529   */\n      dup3\n        /* \"#utility.yul\":4516:4533   */\n      add\n        /* \"#utility.yul\":4503:4534   */\n      calldataload\n        /* \"#utility.yul\":4561:4579   */\n      0xffffffffffffffff\n        /* \"#utility.yul\":4553:4559   */\n      dup2\n        /* \"#utility.yul\":4550:4580   */\n      gt\n        /* \"#utility.yul\":4547:4664   */\n      iszero\n      tag_636\n      jumpi\n        /* \"#utility.yul\":4583:4662   */\n      tag_637\n      tag_463\n      jump\t// in\n    tag_637:\n        /* \"#utility.yul\":4547:4664   */\n    tag_636:\n        /* \"#utility.yul\":4688:4751   */\n      tag_638\n        /* \"#utility.yul\":4743:4750   */\n      dup5\n        /* \"#utility.yul\":4734:4740   */\n      dup3\n        /* \"#utility.yul\":4723:4732   */\n      dup6\n        /* \"#utility.yul\":4719:4741   */\n      add\n        /* \"#utility.yul\":4688:4751   */\n      tag_480\n      jump\t// in\n    tag_638:\n        /* \"#utility.yul\":4678:4751   */\n      swap2\n      pop\n        /* \"#utility.yul\":4474:4761   */\n      pop\n        /* \"#utility.yul\":4259:4768   */\n      swap3\n      swap2\n      pop\n      pop\n      jump\t// out\n        /* \"#utility.yul\":4774:4851   */\n    tag_481:\n        /* \"#utility.yul\":4811:4818   */\n      0x00\n        /* \"#utility.yul\":4840:4845   */\n      dup2\n        /* \"#utility.yul\":4829:4845   */\n      swap1\n      pop\n        /* \"#utility.yul\":4774:4851   */\n      swap2\n      swap1\n      pop\n      jump\t// out\n        /* \"#utility.yul\":4857:4975   */\n    tag_482:\n        /* \"#utility.yul\":4944:4968   */\n      tag_641\n        /* \"#utility.yul\":4962:4967   */\n      dup2\n        /* \"#utility.yul\":4944:4968   */\n      tag_481\n      jump\t// in\n    tag_641:\n        /* \"#utility.yul\":4939:4942   */\n      dup3\n        /* \"#utility.yul\":4932:4969   */\n      mstore\n        /* \"#utility.yul\":4857:4975   */\n      pop\n      pop\n      jump\t// out\n        /* \"#utility.yul\":4981:5203   */\n    tag_67:\n        /* \"#utility.yul\":5074:5078   */\n      0x00\n        /* \"#utility.yul\":5112:5114   */\n      0x20\n        /* \"#utility.yul\":5101:5110   */\n      dup3\n        /* \"#utility.yul\":5097:5115   */\n      add\n        /* \"#utility.yul\":5089:5115   */\n      swap1\n      pop\n        /* \"#utility.yul\":5125:5196   */\n      tag_643\n        /* \"#utility.yul\":5193:5194   */\n      0x00\n        /* \"#utility.yul\":5182:5191   */\n      dup4\n        /* \"#utility.yul\":5178:5195   */\n      add\n        /* \"#utility.yul\":5169:5175   */\n      dup5\n        /* \"#utility.yul\":5125:5196   */\n      tag_482\n      jump\t// in\n    tag_643:\n        /* \"#utility.yul\":4981:5203   */\n      swap3\n      swap2\n      pop\n      pop\n      jump\t// out\n        /* \"#utility.yul\":5209:6043   */\n    tag_70:\n        /* \"#utility.yul\":5297:5303   */\n      0x00\n        /* \"#utility.yul\":5305:5311   */\n      0x00\n        /* \"#utility.yul\":5354:5356   */\n      0x40\n        /* \"#utility.yul\":5342:5351   */\n      dup4\n        /* \"#utility.yul\":5333:5340   */\n      dup6\n        /* \"#utility.yul\":5329:5352   */\n      sub\n        /* \"#utility.yul\":5325:5357   */\n      slt\n        /* \"#utility.yul\":5322:5441   */\n      iszero\n      tag_645\n      jumpi\n        /* \"#utility.yul\":5360:5439   */\n      tag_646\n      tag_462\n      jump\t// in\n    tag_646:\n        /* \"#utility.yul\":5322:5441   */\n    tag_645:\n        /* \"#utility.yul\":5508:5509   */\n      0x00\n        /* \"#utility.yul\":5497:5506   */\n      dup4\n        /* \"#utility.yul\":5493:5510   */\n      add\n        /* \"#utility.yul\":5480:5511   */\n      calldataload\n        /* \"#utility.yul\":5538:5556   */\n      0xffffffffffffffff\n        /* \"#utility.yul\":5530:5536   */\n      dup2\n        /* \"#utility.yul\":5527:5557   */\n      gt\n        /* \"#utility.yul\":5524:5641   */\n      iszero\n      tag_647\n      jumpi\n        /* \"#utility.yul\":5560:5639   */\n      tag_648\n      tag_463\n      jump\t// in\n    tag_648:\n        /* \"#utility.yul\":5524:5641   */\n    tag_647:\n        /* \"#utility.yul\":5665:5728   */\n      tag_649\n        /* \"#utility.yul\":5720:5727   */\n      dup6\n        /* \"#utility.yul\":5711:5717   */\n      dup3\n        /* \"#utility.yul\":5700:5709   */\n      dup7\n        /* \"#utility.yul\":5696:5718   */\n      add\n        /* \"#utility.yul\":5665:5728   */\n      tag_480\n      jump\t// in\n    tag_649:\n        /* \"#utility.yul\":5655:5728   */\n      swap3\n      pop\n        /* \"#utility.yul\":5451:5738   */\n      pop\n        /* \"#utility.yul\":5805:5807   */\n      0x20\n        /* \"#utility.yul\":5794:5803   */\n      dup4\n        /* \"#utility.yul\":5790:5808   */\n      add\n        /* \"#utility.yul\":5777:5809   */\n      calldataload\n        /* \"#utility.yul\":5836:5854   */\n      0xffffffffffffffff\n        /* \"#utility.yul\":5828:5834   */\n      dup2\n        /* \"#utility.yul\":5825:5855   */\n      gt\n        /* \"#utility.yul\":5822:5939   */\n      iszero\n      tag_650\n      jumpi\n        /* \"#utility.yul\":5858:5937   */\n      tag_651\n      tag_463\n      jump\t// in\n    tag_651:\n        /* \"#utility.yul\":5822:5939   */\n    tag_650:\n        /* \"#utility.yul\":5963:6026   */\n      tag_652\n        /* \"#utility.yul\":6018:6025   */\n      dup6\n        /* \"#utility.yul\":6009:6015   */\n      dup3\n        /* \"#utility.yul\":5998:6007   */\n      dup7\n        /* \"#utility.yul\":5994:6016   */\n      add\n        /* \"#utility.yul\":5963:6026   */\n      tag_480\n      jump\t// in\n    tag_652:\n        /* \"#utility.yul\":5953:6026   */\n      swap2\n      pop\n        /* \"#utility.yul\":5748:6036   */\n      pop\n        /* \"#utility.yul\":5209:6043   */\n      swap3\n      pop\n      swap3\n      swap1\n      pop\n      jump\t// out\n        /* \"#utility.yul\":6049:6523   */\n    tag_74:\n        /* \"#utility.yul\":6117:6123   */\n      0x00\n        /* \"#utility.yul\":6125:6131   */\n      0x00\n        /* \"#utility.yul\":6174:6176   */\n      0x40\n        /* \"#utility.yul\":6162:6171   */\n      dup4\n        /* \"#utility.yul\":6153:6160   */\n      dup6\n        /* \"#utility.yul\":6149:6172   */\n      sub\n        /* \"#utility.yul\":6145:6177   */\n      slt\n        /* \"#utility.yul\":6142:6261   */\n      iszero\n      tag_654\n      jumpi\n        /* \"#utility.yul\":6180:6259   */\n      tag_655\n      tag_462\n      jump\t// in\n    tag_655:\n        /* \"#utility.yul\":6142:6261   */\n    tag_654:\n        /* \"#utility.yul\":6300:6301   */\n      0x00\n        /* \"#utility.yul\":6325:6378   */\n      tag_656\n        /* \"#utility.yul\":6370:6377   */\n      dup6\n        /* \"#utility.yul\":6361:6367   */\n      dup3\n        /* \"#utility.yul\":6350:6359   */\n      dup7\n        /* \"#utility.yul\":6346:6368   */\n      add\n        /* \"#utility.yul\":6325:6378   */\n      tag_467\n      jump\t// in\n    tag_656:\n        /* \"#utility.yul\":6315:6378   */\n      swap3\n      pop\n        /* \"#utility.yul\":6271:6388   */\n      pop\n        /* \"#utility.yul\":6427:6429   */\n      0x20\n        /* \"#utility.yul\":6453:6506   */\n      tag_657\n        /* \"#utility.yul\":6498:6505   */\n      dup6\n        /* \"#utility.yul\":6489:6495   */\n      dup3\n        /* \"#utility.yul\":6478:6487   */\n      dup7\n        /* \"#utility.yul\":6474:6496   */\n      add\n        /* \"#utility.yul\":6453:6506   */\n      tag_467\n      jump\t// in\n    tag_657:\n        /* \"#utility.yul\":6443:6506   */\n      swap2\n      pop\n        /* \"#utility.yul\":6398:6516   */\n      pop\n        /* \"#utility.yul\":6049:6523   */\n      swap3\n      pop\n      swap3\n      swap1\n      pop\n      jump\t// out\n        /* \"#utility.yul\":6529:6651   */\n    tag_483:\n        /* \"#utility.yul\":6602:6626   */\n      tag_659\n        /* \"#utility.yul\":6620:6625   */\n      dup2\n        /* \"#utility.yul\":6602:6626   */\n      tag_468\n      jump\t// in\n    tag_659:\n        /* \"#utility.yul\":6595:6600   */\n      dup2\n        /* \"#utility.yul\":6592:6627   */\n      eq\n        /* \"#utility.yul\":6582:6645   */\n      tag_660\n      jumpi\n        /* \"#utility.yul\":6641:6642   */\n      0x00\n        /* \"#utility.yul\":6638:6639   */\n      0x00\n        /* \"#utility.yul\":6631:6643   */\n      revert\n        /* \"#utility.yul\":6582:6645   */\n    tag_660:\n        /* \"#utility.yul\":6529:6651   */\n      pop\n      jump\t// out\n        /* \"#utility.yul\":6657:6796   */\n    tag_484:\n        /* \"#utility.yul\":6703:6708   */\n      0x00\n        /* \"#utility.yul\":6741:6747   */\n      dup2\n        /* \"#utility.yul\":6728:6748   */\n      calldataload\n        /* \"#utility.yul\":6719:6748   */\n      swap1\n      pop\n        /* \"#utility.yul\":6757:6790   */\n      tag_662\n        /* \"#utility.yul\":6784:6789   */\n      dup2\n        /* \"#utility.yul\":6757:6790   */\n      tag_483\n      jump\t// in\n    tag_662:\n        /* \"#utility.yul\":6657:6796   */\n      swap3\n      swap2\n      pop\n      pop\n      jump\t// out\n        /* \"#utility.yul\":6802:7276   */\n    tag_79:\n        /* \"#utility.yul\":6870:6876   */\n      0x00\n        /* \"#utility.yul\":6878:6884   */\n      0x00\n        /* \"#utility.yul\":6927:6929   */\n      0x40\n        /* \"#utility.yul\":6915:6924   */\n      dup4\n        /* \"#utility.yul\":6906:6913   */\n      dup6\n        /* \"#utility.yul\":6902:6925   */\n      sub\n        /* \"#utility.yul\":6898:6930   */\n      slt\n        /* \"#utility.yul\":6895:7014   */\n      iszero\n      tag_664\n      jumpi\n        /* \"#utility.yul\":6933:7012   */\n      tag_665\n      tag_462\n      jump\t// in\n    tag_665:\n        /* \"#utility.yul\":6895:7014   */\n    tag_664:\n        /* \"#utility.yul\":7053:7054   */\n      0x00\n        /* \"#utility.yul\":7078:7131   */\n      tag_666\n        /* \"#utility.yul\":7123:7130   */\n      dup6\n        /* \"#utility.yul\":7114:7120   */\n      dup3\n        /* \"#utility.yul\":7103:7112   */\n      dup7\n        /* \"#utility.yul\":7099:7121   */\n      add\n        /* \"#utility.yul\":7078:7131   */\n      tag_467\n      jump\t// in\n    tag_666:\n        /* \"#utility.yul\":7068:7131   */\n      swap3\n      pop\n        /* \"#utility.yul\":7024:7141   */\n      pop\n        /* \"#utility.yul\":7180:7182   */\n      0x20\n        /* \"#utility.yul\":7206:7259   */\n      tag_667\n        /* \"#utility.yul\":7251:7258   */\n      dup6\n        /* \"#utility.yul\":7242:7248   */\n      dup3\n        /* \"#utility.yul\":7231:7240   */\n      dup7\n        /* \"#utility.yul\":7227:7249   */\n      add\n        /* \"#utility.yul\":7206:7259   */\n      tag_484\n      jump\t// in\n    tag_667:\n        /* \"#utility.yul\":7196:7259   */\n      swap2\n      pop\n        /* \"#utility.yul\":7151:7269   */\n      pop\n        /* \"#utility.yul\":6802:7276   */\n      swap3\n      pop\n      swap3\n      swap1\n      pop\n      jump\t// out\n        /* \"#utility.yul\":7282:7396   */\n    tag_485:\n        /* \"#utility.yul\":7349:7355   */\n      0x00\n        /* \"#utility.yul\":7383:7388   */\n      dup2\n        /* \"#utility.yul\":7377:7389   */\n      mload\n        /* \"#utility.yul\":7367:7389   */\n      swap1\n      pop\n        /* \"#utility.yul\":7282:7396   */\n      swap2\n      swap1\n      pop\n      jump\t// out\n        /* \"#utility.yul\":7402:7586   */\n    tag_486:\n        /* \"#utility.yul\":7501:7512   */\n      0x00\n        /* \"#utility.yul\":7535:7541   */\n      dup3\n        /* \"#utility.yul\":7530:7533   */\n      dup3\n        /* \"#utility.yul\":7523:7542   */\n      mstore\n        /* \"#utility.yul\":7575:7579   */\n      0x20\n        /* \"#utility.yul\":7570:7573   */\n      dup3\n        /* \"#utility.yul\":7566:7580   */\n      add\n        /* \"#utility.yul\":7551:7580   */\n      swap1\n      pop\n        /* \"#utility.yul\":7402:7586   */\n      swap3\n      swap2\n      pop\n      pop\n      jump\t// out\n        /* \"#utility.yul\":7592:7724   */\n    tag_487:\n        /* \"#utility.yul\":7659:7663   */\n      0x00\n        /* \"#utility.yul\":7682:7685   */\n      dup2\n        /* \"#utility.yul\":7674:7685   */\n      swap1\n      pop\n        /* \"#utility.yul\":7712:7716   */\n      0x20\n        /* \"#utility.yul\":7707:7710   */\n      dup3\n        /* \"#utility.yul\":7703:7717   */\n      add\n        /* \"#utility.yul\":7695:7717   */\n      swap1\n      pop\n        /* \"#utility.yul\":7592:7724   */\n      swap2\n      swap1\n      pop\n      jump\t// out\n        /* \"#utility.yul\":7730:7838   */\n    tag_488:\n        /* \"#utility.yul\":7807:7831   */\n      tag_672\n        /* \"#utility.yul\":7825:7830   */\n      dup2\n        /* \"#utility.yul\":7807:7831   */\n      tag_465\n      jump\t// in\n    tag_672:\n        /* \"#utility.yul\":7802:7805   */\n      dup3\n        /* \"#utility.yul\":7795:7832   */\n      mstore\n        /* \"#utility.yul\":7730:7838   */\n      pop\n      pop\n      jump\t// out\n        /* \"#utility.yul\":7844:8023   */\n    tag_489:\n        /* \"#utility.yul\":7913:7923   */\n      0x00\n        /* \"#utility.yul\":7934:7980   */\n      tag_674\n        /* \"#utility.yul\":7976:7979   */\n      dup4\n        /* \"#utility.yul\":7968:7974   */\n      dup4\n        /* \"#utility.yul\":7934:7980   */\n      tag_488\n      jump\t// in\n    tag_674:\n        /* \"#utility.yul\":8012:8016   */\n      0x20\n        /* \"#utility.yul\":8007:8010   */\n      dup4\n        /* \"#utility.yul\":8003:8017   */\n      add\n        /* \"#utility.yul\":7989:8017   */\n      swap1\n      pop\n        /* \"#utility.yul\":7844:8023   */\n      swap3\n      swap2\n      pop\n      pop\n      jump\t// out\n        /* \"#utility.yul\":8029:8142   */\n    tag_490:\n        /* \"#utility.yul\":8099:8103   */\n      0x00\n        /* \"#utility.yul\":8131:8135   */\n      0x20\n        /* \"#utility.yul\":8126:8129   */\n      dup3\n        /* \"#utility.yul\":8122:8136   */\n      add\n        /* \"#utility.yul\":8114:8136   */\n      swap1\n      pop\n        /* \"#utility.yul\":8029:8142   */\n      swap2\n      swap1\n      pop\n      jump\t// out\n        /* \"#utility.yul\":8178:8910   */\n    tag_491:\n        /* \"#utility.yul\":8297:8300   */\n      0x00\n        /* \"#utility.yul\":8326:8380   */\n      tag_677\n        /* \"#utility.yul\":8374:8379   */\n      dup3\n        /* \"#utility.yul\":8326:8380   */\n      tag_485\n      jump\t// in\n    tag_677:\n        /* \"#utility.yul\":8396:8482   */\n      tag_678\n        /* \"#utility.yul\":8475:8481   */\n      dup2\n        /* \"#utility.yul\":8470:8473   */\n      dup6\n        /* \"#utility.yul\":8396:8482   */\n      tag_486\n      jump\t// in\n    tag_678:\n        /* \"#utility.yul\":8389:8482   */\n      swap4\n      pop\n        /* \"#utility.yul\":8506:8562   */\n      tag_679\n        /* \"#utility.yul\":8556:8561   */\n      dup4\n        /* \"#utility.yul\":8506:8562   */\n      tag_487\n      jump\t// in\n    tag_679:\n        /* \"#utility.yul\":8585:8592   */\n      dup1\n        /* \"#utility.yul\":8616:8617   */\n      0x00\n        /* \"#utility.yul\":8601:8885   */\n    tag_680:\n        /* \"#utility.yul\":8626:8632   */\n      dup4\n        /* \"#utility.yul\":8623:8624   */\n      dup2\n        /* \"#utility.yul\":8620:8633   */\n      lt\n        /* \"#utility.yul\":8601:8885   */\n      iszero\n      tag_682\n      jumpi\n        /* \"#utility.yul\":8702:8708   */\n      dup2\n        /* \"#utility.yul\":8696:8709   */\n      mload\n        /* \"#utility.yul\":8729:8792   */\n      tag_683\n        /* \"#utility.yul\":8788:8791   */\n      dup9\n        /* \"#utility.yul\":8773:8786   */\n      dup3\n        /* \"#utility.yul\":8729:8792   */\n      tag_489\n      jump\t// in\n    tag_683:\n        /* \"#utility.yul\":8722:8792   */\n      swap8\n      pop\n        /* \"#utility.yul\":8815:8875   */\n      tag_684\n        /* \"#utility.yul\":8868:8874   */\n      dup4\n        /* \"#utility.yul\":8815:8875   */\n      tag_490\n      jump\t// in\n    tag_684:\n        /* \"#utility.yul\":8805:8875   */\n      swap3\n      pop\n        /* \"#utility.yul\":8661:8885   */\n      pop\n        /* \"#utility.yul\":8648:8649   */\n      0x01\n        /* \"#utility.yul\":8645:8646   */\n      dup2\n        /* \"#utility.yul\":8641:8650   */\n      add\n        /* \"#utility.yul\":8636:8650   */\n      swap1\n      pop\n        /* \"#utility.yul\":8601:8885   */\n      jump(tag_680)\n    tag_682:\n        /* \"#utility.yul\":8605:8619   */\n      pop\n        /* \"#utility.yul\":8901:8904   */\n      dup6\n        /* \"#utility.yul\":8894:8904   */\n      swap4\n      pop\n        /* \"#utility.yul\":8302:8910   */\n      pop\n      pop\n      pop\n        /* \"#utility.yul\":8178:8910   */\n      swap3\n      swap2\n      pop\n      pop\n      jump\t// out\n        /* \"#utility.yul\":8916:9289   */\n    tag_85:\n        /* \"#utility.yul\":9059:9063   */\n      0x00\n        /* \"#utility.yul\":9097:9099   */\n      0x20\n        /* \"#utility.yul\":9086:9095   */\n      dup3\n        /* \"#utility.yul\":9082:9100   */\n      add\n        /* \"#utility.yul\":9074:9100   */\n      swap1\n      pop\n        /* \"#utility.yul\":9146:9155   */\n      dup2\n        /* \"#utility.yul\":9140:9144   */\n      dup2\n        /* \"#utility.yul\":9136:9156   */\n      sub\n        /* \"#utility.yul\":9132:9133   */\n      0x00\n        /* \"#utility.yul\":9121:9130   */\n      dup4\n        /* \"#utility.yul\":9117:9134   */\n      add\n        /* \"#utility.yul\":9110:9157   */\n      mstore\n        /* \"#utility.yul\":9174:9282   */\n      tag_686\n        /* \"#utility.yul\":9277:9281   */\n      dup2\n        /* \"#utility.yul\":9268:9274   */\n      dup5\n        /* \"#utility.yul\":9174:9282   */\n      tag_491\n      jump\t// in\n    tag_686:\n        /* \"#utility.yul\":9166:9282   */\n      swap1\n      pop\n        /* \"#utility.yul\":8916:9289   */\n      swap3\n      swap2\n      pop\n      pop\n      jump\t// out\n        /* \"#utility.yul\":9295:9394   */\n    tag_492:\n        /* \"#utility.yul\":9347:9353   */\n      0x00\n        /* \"#utility.yul\":9381:9386   */\n      dup2\n        /* \"#utility.yul\":9375:9387   */\n      mload\n        /* \"#utility.yul\":9365:9387   */\n      swap1\n      pop\n        /* \"#utility.yul\":9295:9394   */\n      swap2\n      swap1\n      pop\n      jump\t// out\n        /* \"#utility.yul\":9400:9559   */\n    tag_493:\n        /* \"#utility.yul\":9474:9485   */\n      0x00\n        /* \"#utility.yul\":9508:9514   */\n      dup3\n        /* \"#utility.yul\":9503:9506   */\n      dup3\n        /* \"#utility.yul\":9496:9515   */\n      mstore\n        /* \"#utility.yul\":9548:9552   */\n      0x20\n        /* \"#utility.yul\":9543:9546   */\n      dup3\n        /* \"#utility.yul\":9539:9553   */\n      add\n        /* \"#utility.yul\":9524:9553   */\n      swap1\n      pop\n        /* \"#utility.yul\":9400:9559   */\n      swap3\n      swap2\n      pop\n      pop\n      jump\t// out\n        /* \"#utility.yul\":9565:9704   */\n    tag_494:\n        /* \"#utility.yul\":9654:9660   */\n      dup3\n        /* \"#utility.yul\":9649:9652   */\n      dup2\n        /* \"#utility.yul\":9644:9647   */\n      dup4\n        /* \"#utility.yul\":9638:9661   */\n      mcopy\n        /* \"#utility.yul\":9695:9696   */\n      0x00\n        /* \"#utility.yul\":9686:9692   */\n      dup4\n        /* \"#utility.yul\":9681:9684   */\n      dup4\n        /* \"#utility.yul\":9677:9693   */\n      add\n        /* \"#utility.yul\":9670:9697   */\n      mstore\n        /* \"#utility.yul\":9565:9704   */\n      pop\n      pop\n      pop\n      jump\t// out\n        /* \"#utility.yul\":9710:10067   */\n    tag_495:\n        /* \"#utility.yul\":9788:9791   */\n      0x00\n        /* \"#utility.yul\":9816:9855   */\n      tag_691\n        /* \"#utility.yul\":9849:9854   */\n      dup3\n        /* \"#utility.yul\":9816:9855   */\n      tag_492\n      jump\t// in\n    tag_691:\n        /* \"#utility.yul\":9871:9932   */\n      tag_692\n        /* \"#utility.yul\":9925:9931   */\n      dup2\n        /* \"#utility.yul\":9920:9923   */\n      dup6\n        /* \"#utility.yul\":9871:9932   */\n      tag_493\n      jump\t// in\n    tag_692:\n        /* \"#utility.yul\":9864:9932   */\n      swap4\n      pop\n        /* \"#utility.yul\":9941:10006   */\n      tag_693\n        /* \"#utility.yul\":9999:10005   */\n      dup2\n        /* \"#utility.yul\":9994:9997   */\n      dup6\n        /* \"#utility.yul\":9987:9991   */\n      0x20\n        /* \"#utility.yul\":9980:9985   */\n      dup7\n        /* \"#utility.yul\":9976:9992   */\n      add\n        /* \"#utility.yul\":9941:10006   */\n      tag_494\n      jump\t// in\n    tag_693:\n        /* \"#utility.yul\":10031:10060   */\n      tag_694\n        /* \"#utility.yul\":10053:10059   */\n      dup2\n        /* \"#utility.yul\":10031:10060   */\n      tag_474\n      jump\t// in\n    tag_694:\n        /* \"#utility.yul\":10026:10029   */\n      dup5\n        /* \"#utility.yul\":10022:10061   */\n      add\n        /* \"#utility.yul\":10015:10061   */\n      swap2\n      pop\n        /* \"#utility.yul\":9792:10067   */\n      pop\n        /* \"#utility.yul\":9710:10067   */\n      swap3\n      swap2\n      pop\n      pop\n      jump\t// out\n        /* \"#utility.yul\":10073:10172   */\n    tag_496:\n        /* \"#utility.yul\":10144:10165   */\n      tag_696\n        /* \"#utility.yul\":10159:10164   */\n      dup2\n        /* \"#utility.yul\":10144:10165   */\n      tag_470\n      jump\t// in\n    tag_696:\n        /* \"#utility.yul\":10139:10142   */\n      dup3\n        /* \"#utility.yul\":10132:10166   */\n      mstore\n        /* \"#utility.yul\":10073:10172   */\n      pop\n      pop\n      jump\t// out\n        /* \"#utility.yul\":10178:10286   */\n    tag_497:\n        /* \"#utility.yul\":10255:10279   */\n      tag_698\n        /* \"#utility.yul\":10273:10278   */\n      dup2\n        /* \"#utility.yul\":10255:10279   */\n      tag_468\n      jump\t// in\n    tag_698:\n        /* \"#utility.yul\":10250:10253   */\n      dup3\n        /* \"#utility.yul\":10243:10280   */\n      mstore\n        /* \"#utility.yul\":10178:10286   */\n      pop\n      pop\n      jump\t// out\n        /* \"#utility.yul\":10374:11596   */\n    tag_498:\n        /* \"#utility.yul\":10485:10488   */\n      0x00\n        /* \"#utility.yul\":10521:10525   */\n      0xa0\n        /* \"#utility.yul\":10516:10519   */\n      dup4\n        /* \"#utility.yul\":10512:10526   */\n      add\n        /* \"#utility.yul\":10612:10616   */\n      0x00\n        /* \"#utility.yul\":10605:10610   */\n      dup4\n        /* \"#utility.yul\":10601:10617   */\n      add\n        /* \"#utility.yul\":10595:10618   */\n      mload\n        /* \"#utility.yul\":10665:10668   */\n      dup5\n        /* \"#utility.yul\":10659:10663   */\n      dup3\n        /* \"#utility.yul\":10655:10669   */\n      sub\n        /* \"#utility.yul\":10648:10652   */\n      0x00\n        /* \"#utility.yul\":10643:10646   */\n      dup7\n        /* \"#utility.yul\":10639:10653   */\n      add\n        /* \"#utility.yul\":10632:10670   */\n      mstore\n        /* \"#utility.yul\":10691:10764   */\n      tag_700\n        /* \"#utility.yul\":10759:10763   */\n      dup3\n        /* \"#utility.yul\":10745:10757   */\n      dup3\n        /* \"#utility.yul\":10691:10764   */\n      tag_495\n      jump\t// in\n    tag_700:\n        /* \"#utility.yul\":10683:10764   */\n      swap2\n      pop\n        /* \"#utility.yul\":10536:10775   */\n      pop\n        /* \"#utility.yul\":10865:10869   */\n      0x20\n        /* \"#utility.yul\":10858:10863   */\n      dup4\n        /* \"#utility.yul\":10854:10870   */\n      add\n        /* \"#utility.yul\":10848:10871   */\n      mload\n        /* \"#utility.yul\":10918:10921   */\n      dup5\n        /* \"#utility.yul\":10912:10916   */\n      dup3\n        /* \"#utility.yul\":10908:10922   */\n      sub\n        /* \"#utility.yul\":10901:10905   */\n      0x20\n        /* \"#utility.yul\":10896:10899   */\n      dup7\n        /* \"#utility.yul\":10892:10906   */\n      add\n        /* \"#utility.yul\":10885:10923   */\n      mstore\n        /* \"#utility.yul\":10944:11017   */\n      tag_701\n        /* \"#utility.yul\":11012:11016   */\n      dup3\n        /* \"#utility.yul\":10998:11010   */\n      dup3\n        /* \"#utility.yul\":10944:11017   */\n      tag_495\n      jump\t// in\n    tag_701:\n        /* \"#utility.yul\":10936:11017   */\n      swap2\n      pop\n        /* \"#utility.yul\":10785:11028   */\n      pop\n        /* \"#utility.yul\":11118:11122   */\n      0x40\n        /* \"#utility.yul\":11111:11116   */\n      dup4\n        /* \"#utility.yul\":11107:11123   */\n      add\n        /* \"#utility.yul\":11101:11124   */\n      mload\n        /* \"#utility.yul\":11137:11194   */\n      tag_702\n        /* \"#utility.yul\":11188:11192   */\n      0x40\n        /* \"#utility.yul\":11183:11186   */\n      dup7\n        /* \"#utility.yul\":11179:11193   */\n      add\n        /* \"#utility.yul\":11165:11177   */\n      dup3\n        /* \"#utility.yul\":11137:11194   */\n      tag_496\n      jump\t// in\n    tag_702:\n        /* \"#utility.yul\":11038:11204   */\n      pop\n        /* \"#utility.yul\":11298:11302   */\n      0x60\n        /* \"#utility.yul\":11291:11296   */\n      dup4\n        /* \"#utility.yul\":11287:11303   */\n      add\n        /* \"#utility.yul\":11281:11304   */\n      mload\n        /* \"#utility.yul\":11317:11380   */\n      tag_703\n        /* \"#utility.yul\":11374:11378   */\n      0x60\n        /* \"#utility.yul\":11369:11372   */\n      dup7\n        /* \"#utility.yul\":11365:11379   */\n      add\n        /* \"#utility.yul\":11351:11363   */\n      dup3\n        /* \"#utility.yul\":11317:11380   */\n      tag_497\n      jump\t// in\n    tag_703:\n        /* \"#utility.yul\":11214:11390   */\n      pop\n        /* \"#utility.yul\":11477:11481   */\n      0x80\n        /* \"#utility.yul\":11470:11475   */\n      dup4\n        /* \"#utility.yul\":11466:11482   */\n      add\n        /* \"#utility.yul\":11460:11483   */\n      mload\n        /* \"#utility.yul\":11496:11559   */\n      tag_704\n        /* \"#utility.yul\":11553:11557   */\n      0x80\n        /* \"#utility.yul\":11548:11551   */\n      dup7\n        /* \"#utility.yul\":11544:11558   */\n      add\n        /* \"#utility.yul\":11530:11542   */\n      dup3\n        /* \"#utility.yul\":11496:11559   */\n      tag_497\n      jump\t// in\n    tag_704:\n        /* \"#utility.yul\":11400:11569   */\n      pop\n        /* \"#utility.yul\":11586:11590   */\n      dup1\n        /* \"#utility.yul\":11579:11590   */\n      swap2\n      pop\n        /* \"#utility.yul\":10490:11596   */\n      pop\n        /* \"#utility.yul\":10374:11596   */\n      swap3\n      swap2\n      pop\n      pop\n      jump\t// out\n        /* \"#utility.yul\":11602:11959   */\n    tag_90:\n        /* \"#utility.yul\":11737:11741   */\n      0x00\n        /* \"#utility.yul\":11775:11777   */\n      0x20\n        /* \"#utility.yul\":11764:11773   */\n      dup3\n        /* \"#utility.yul\":11760:11778   */\n      add\n        /* \"#utility.yul\":11752:11778   */\n      swap1\n      pop\n        /* \"#utility.yul\":11824:11833   */\n      dup2\n        /* \"#utility.yul\":11818:11822   */\n      dup2\n        /* \"#utility.yul\":11814:11834   */\n      sub\n        /* \"#utility.yul\":11810:11811   */\n      0x00\n        /* \"#utility.yul\":11799:11808   */\n      dup4\n        /* \"#utility.yul\":11795:11812   */\n      add\n        /* \"#utility.yul\":11788:11835   */\n      mstore\n        /* \"#utility.yul\":11852:11952   */\n      tag_706\n        /* \"#utility.yul\":11947:11951   */\n      dup2\n        /* \"#utility.yul\":11938:11944   */\n      dup5\n        /* \"#utility.yul\":11852:11952   */\n      tag_498\n      jump\t// in\n    tag_706:\n        /* \"#utility.yul\":11844:11952   */\n      swap1\n      pop\n        /* \"#utility.yul\":11602:11959   */\n      swap3\n      swap2\n      pop\n      pop\n      jump\t// out\n        /* \"#utility.yul\":11965:12107   */\n    tag_499:\n        /* \"#utility.yul\":12060:12066   */\n      0x00\n        /* \"#utility.yul\":12094:12099   */\n      dup2\n        /* \"#utility.yul\":12088:12100   */\n      mload\n        /* \"#utility.yul\":12078:12100   */\n      swap1\n      pop\n        /* \"#utility.yul\":11965:12107   */\n      swap2\n      swap1\n      pop\n      jump\t// out\n        /* \"#utility.yul\":12113:12325   */\n    tag_500:\n        /* \"#utility.yul\":12240:12251   */\n      0x00\n        /* \"#utility.yul\":12274:12280   */\n      dup3\n        /* \"#utility.yul\":12269:12272   */\n      dup3\n        /* \"#utility.yul\":12262:12281   */\n      mstore\n        /* \"#utility.yul\":12314:12318   */\n      0x20\n        /* \"#utility.yul\":12309:12312   */\n      dup3\n        /* \"#utility.yul\":12305:12319   */\n      add\n        /* \"#utility.yul\":12290:12319   */\n      swap1\n      pop\n        /* \"#utility.yul\":12113:12325   */\n      swap3\n      swap2\n      pop\n      pop\n      jump\t// out\n        /* \"#utility.yul\":12331:12491   */\n    tag_501:\n        /* \"#utility.yul\":12426:12430   */\n      0x00\n        /* \"#utility.yul\":12449:12452   */\n      dup2\n        /* \"#utility.yul\":12441:12452   */\n      swap1\n      pop\n        /* \"#utility.yul\":12479:12483   */\n      0x20\n        /* \"#utility.yul\":12474:12477   */\n      dup3\n        /* \"#utility.yul\":12470:12484   */\n      add\n        /* \"#utility.yul\":12462:12484   */\n      swap1\n      pop\n        /* \"#utility.yul\":12331:12491   */\n      swap2\n      swap1\n      pop\n      jump\t// out\n        /* \"#utility.yul\":12593:13625   */\n    tag_502:\n        /* \"#utility.yul\":12736:12740   */\n      0xa0\n        /* \"#utility.yul\":12731:12734   */\n      dup3\n        /* \"#utility.yul\":12727:12741   */\n      add\n        /* \"#utility.yul\":12823:12827   */\n      0x00\n        /* \"#utility.yul\":12816:12821   */\n      dup3\n        /* \"#utility.yul\":12812:12828   */\n      add\n        /* \"#utility.yul\":12806:12829   */\n      mload\n        /* \"#utility.yul\":12842:12905   */\n      tag_711\n        /* \"#utility.yul\":12899:12903   */\n      0x00\n        /* \"#utility.yul\":12894:12897   */\n      dup6\n        /* \"#utility.yul\":12890:12904   */\n      add\n        /* \"#utility.yul\":12876:12888   */\n      dup3\n        /* \"#utility.yul\":12842:12905   */\n      tag_488\n      jump\t// in\n    tag_711:\n        /* \"#utility.yul\":12751:12915   */\n      pop\n        /* \"#utility.yul\":12998:13002   */\n      0x20\n        /* \"#utility.yul\":12991:12996   */\n      dup3\n        /* \"#utility.yul\":12987:13003   */\n      add\n        /* \"#utility.yul\":12981:13004   */\n      mload\n        /* \"#utility.yul\":13017:13080   */\n      tag_712\n        /* \"#utility.yul\":13074:13078   */\n      0x20\n        /* \"#utility.yul\":13069:13072   */\n      dup6\n        /* \"#utility.yul\":13065:13079   */\n      add\n        /* \"#utility.yul\":13051:13063   */\n      dup3\n        /* \"#utility.yul\":13017:13080   */\n      tag_488\n      jump\t// in\n    tag_712:\n        /* \"#utility.yul\":12925:13090   */\n      pop\n        /* \"#utility.yul\":13174:13178   */\n      0x40\n        /* \"#utility.yul\":13167:13172   */\n      dup3\n        /* \"#utility.yul\":13163:13179   */\n      add\n        /* \"#utility.yul\":13157:13180   */\n      mload\n        /* \"#utility.yul\":13193:13256   */\n      tag_713\n        /* \"#utility.yul\":13250:13254   */\n      0x40\n        /* \"#utility.yul\":13245:13248   */\n      dup6\n        /* \"#utility.yul\":13241:13255   */\n      add\n        /* \"#utility.yul\":13227:13239   */\n      dup3\n        /* \"#utility.yul\":13193:13256   */\n      tag_497\n      jump\t// in\n    tag_713:\n        /* \"#utility.yul\":13100:13266   */\n      pop\n        /* \"#utility.yul\":13353:13357   */\n      0x60\n        /* \"#utility.yul\":13346:13351   */\n      dup3\n        /* \"#utility.yul\":13342:13358   */\n      add\n        /* \"#utility.yul\":13336:13359   */\n      mload\n        /* \"#utility.yul\":13372:13429   */\n      tag_714\n        /* \"#utility.yul\":13423:13427   */\n      0x60\n        /* \"#utility.yul\":13418:13421   */\n      dup6\n        /* \"#utility.yul\":13414:13428   */\n      add\n        /* \"#utility.yul\":13400:13412   */\n      dup3\n        /* \"#utility.yul\":13372:13429   */\n      tag_496\n      jump\t// in\n    tag_714:\n        /* \"#utility.yul\":13276:13439   */\n      pop\n        /* \"#utility.yul\":13526:13530   */\n      0x80\n        /* \"#utility.yul\":13519:13524   */\n      dup3\n        /* \"#utility.yul\":13515:13531   */\n      add\n        /* \"#utility.yul\":13509:13532   */\n      mload\n        /* \"#utility.yul\":13545:13608   */\n      tag_715\n        /* \"#utility.yul\":13602:13606   */\n      0x80\n        /* \"#utility.yul\":13597:13600   */\n      dup6\n        /* \"#utility.yul\":13593:13607   */\n      add\n        /* \"#utility.yul\":13579:13591   */\n      dup3\n        /* \"#utility.yul\":13545:13608   */\n      tag_497\n      jump\t// in\n    tag_715:\n        /* \"#utility.yul\":13449:13618   */\n      pop\n        /* \"#utility.yul\":12705:13625   */\n      pop\n        /* \"#utility.yul\":12593:13625   */\n      pop\n      pop\n      jump\t// out\n        /* \"#utility.yul\":13631:13922   */\n    tag_503:\n        /* \"#utility.yul\":13756:13766   */\n      0x00\n        /* \"#utility.yul\":13777:13879   */\n      tag_717\n        /* \"#utility.yul\":13875:13878   */\n      dup4\n        /* \"#utility.yul\":13867:13873   */\n      dup4\n        /* \"#utility.yul\":13777:13879   */\n      tag_502\n      jump\t// in\n    tag_717:\n        /* \"#utility.yul\":13911:13915   */\n      0xa0\n        /* \"#utility.yul\":13906:13909   */\n      dup4\n        /* \"#utility.yul\":13902:13916   */\n      add\n        /* \"#utility.yul\":13888:13916   */\n      swap1\n      pop\n        /* \"#utility.yul\":13631:13922   */\n      swap3\n      swap2\n      pop\n      pop\n      jump\t// out\n        /* \"#utility.yul\":13928:14069   */\n    tag_504:\n        /* \"#utility.yul\":14026:14030   */\n      0x00\n        /* \"#utility.yul\":14058:14062   */\n      0x20\n        /* \"#utility.yul\":14053:14056   */\n      dup3\n        /* \"#utility.yul\":14049:14063   */\n      add\n        /* \"#utility.yul\":14041:14063   */\n      swap1\n      pop\n        /* \"#utility.yul\":13928:14069   */\n      swap2\n      swap1\n      pop\n      jump\t// out\n        /* \"#utility.yul\":14175:15131   */\n    tag_505:\n        /* \"#utility.yul\":14350:14353   */\n      0x00\n        /* \"#utility.yul\":14379:14461   */\n      tag_720\n        /* \"#utility.yul\":14455:14460   */\n      dup3\n        /* \"#utility.yul\":14379:14461   */\n      tag_499\n      jump\t// in\n    tag_720:\n        /* \"#utility.yul\":14477:14591   */\n      tag_721\n        /* \"#utility.yul\":14584:14590   */\n      dup2\n        /* \"#utility.yul\":14579:14582   */\n      dup6\n        /* \"#utility.yul\":14477:14591   */\n      tag_500\n      jump\t// in\n    tag_721:\n        /* \"#utility.yul\":14470:14591   */\n      swap4\n      pop\n        /* \"#utility.yul\":14615:14699   */\n      tag_722\n        /* \"#utility.yul\":14693:14698   */\n      dup4\n        /* \"#utility.yul\":14615:14699   */\n      tag_501\n      jump\t// in\n    tag_722:\n        /* \"#utility.yul\":14722:14729   */\n      dup1\n        /* \"#utility.yul\":14753:14754   */\n      0x00\n        /* \"#utility.yul\":14738:15106   */\n    tag_723:\n        /* \"#utility.yul\":14763:14769   */\n      dup4\n        /* \"#utility.yul\":14760:14761   */\n      dup2\n        /* \"#utility.yul\":14757:14770   */\n      lt\n        /* \"#utility.yul\":14738:15106   */\n      iszero\n      tag_725\n      jumpi\n        /* \"#utility.yul\":14839:14845   */\n      dup2\n        /* \"#utility.yul\":14833:14846   */\n      mload\n        /* \"#utility.yul\":14866:14985   */\n      tag_726\n        /* \"#utility.yul\":14981:14984   */\n      dup9\n        /* \"#utility.yul\":14966:14979   */\n      dup3\n        /* \"#utility.yul\":14866:14985   */\n      tag_503\n      jump\t// in\n    tag_726:\n        /* \"#utility.yul\":14859:14985   */\n      swap8\n      pop\n        /* \"#utility.yul\":15008:15096   */\n      tag_727\n        /* \"#utility.yul\":15089:15095   */\n      dup4\n        /* \"#utility.yul\":15008:15096   */\n      tag_504\n      jump\t// in\n    tag_727:\n        /* \"#utility.yul\":14998:15096   */\n      swap3\n      pop\n        /* \"#utility.yul\":14798:15106   */\n      pop\n        /* \"#utility.yul\":14785:14786   */\n      0x01\n        /* \"#utility.yul\":14782:14783   */\n      dup2\n        /* \"#utility.yul\":14778:14787   */\n      add\n        /* \"#utility.yul\":14773:14787   */\n      swap1\n      pop\n        /* \"#utility.yul\":14738:15106   */\n      jump(tag_723)\n    tag_725:\n        /* \"#utility.yul\":14742:14756   */\n      pop\n        /* \"#utility.yul\":15122:15125   */\n      dup6\n        /* \"#utility.yul\":15115:15125   */\n      swap4\n      pop\n        /* \"#utility.yul\":14355:15131   */\n      pop\n      pop\n      pop\n        /* \"#utility.yul\":14175:15131   */\n      swap3\n      swap2\n      pop\n      pop\n      jump\t// out\n        /* \"#utility.yul\":15137:15622   */\n    tag_98:\n        /* \"#utility.yul\":15336:15340   */\n      0x00\n        /* \"#utility.yul\":15374:15376   */\n      0x20\n        /* \"#utility.yul\":15363:15372   */\n      dup3\n        /* \"#utility.yul\":15359:15377   */\n      add\n        /* \"#utility.yul\":15351:15377   */\n      swap1\n      pop\n        /* \"#utility.yul\":15423:15432   */\n      dup2\n        /* \"#utility.yul\":15417:15421   */\n      dup2\n        /* \"#utility.yul\":15413:15433   */\n      sub\n        /* \"#utility.yul\":15409:15410   */\n      0x00\n        /* \"#utility.yul\":15398:15407   */\n      dup4\n        /* \"#utility.yul\":15394:15411   */\n      add\n        /* \"#utility.yul\":15387:15434   */\n      mstore\n        /* \"#utility.yul\":15451:15615   */\n      tag_729\n        /* \"#utility.yul\":15610:15614   */\n      dup2\n        /* \"#utility.yul\":15601:15607   */\n      dup5\n        /* \"#utility.yul\":15451:15615   */\n      tag_505\n      jump\t// in\n    tag_729:\n        /* \"#utility.yul\":15443:15615   */\n      swap1\n      pop\n        /* \"#utility.yul\":15137:15622   */\n      swap3\n      swap2\n      pop\n      pop\n      jump\t// out\n        /* \"#utility.yul\":15628:15746   */\n    tag_506:\n        /* \"#utility.yul\":15715:15739   */\n      tag_731\n        /* \"#utility.yul\":15733:15738   */\n      dup2\n        /* \"#utility.yul\":15715:15739   */\n      tag_465\n      jump\t// in\n    tag_731:\n        /* \"#utility.yul\":15710:15713   */\n      dup3\n        /* \"#utility.yul\":15703:15740   */\n      mstore\n        /* \"#utility.yul\":15628:15746   */\n      pop\n      pop\n      jump\t// out\n        /* \"#utility.yul\":15752:15974   */\n    tag_113:\n        /* \"#utility.yul\":15845:15849   */\n      0x00\n        /* \"#utility.yul\":15883:15885   */\n      0x20\n        /* \"#utility.yul\":15872:15881   */\n      dup3\n        /* \"#utility.yul\":15868:15886   */\n      add\n        /* \"#utility.yul\":15860:15886   */\n      swap1\n      pop\n        /* \"#utility.yul\":15896:15967   */\n      tag_733\n        /* \"#utility.yul\":15964:15965   */\n      0x00\n        /* \"#utility.yul\":15953:15962   */\n      dup4\n        /* \"#utility.yul\":15949:15966   */\n      add\n        /* \"#utility.yul\":15940:15946   */\n      dup5\n        /* \"#utility.yul\":15896:15967   */\n      tag_506\n      jump\t// in\n    tag_733:\n        /* \"#utility.yul\":15752:15974   */\n      swap3\n      swap2\n      pop\n      pop\n      jump\t// out\n        /* \"#utility.yul\":15980:16309   */\n    tag_116:\n        /* \"#utility.yul\":16039:16045   */\n      0x00\n        /* \"#utility.yul\":16088:16090   */\n      0x20\n        /* \"#utility.yul\":16076:16085   */\n      dup3\n        /* \"#utility.yul\":16067:16074   */\n      dup5\n        /* \"#utility.yul\":16063:16086   */\n      sub\n        /* \"#utility.yul\":16059:16091   */\n      slt\n        /* \"#utility.yul\":16056:16175   */\n      iszero\n      tag_735\n      jumpi\n        /* \"#utility.yul\":16094:16173   */\n      tag_736\n      tag_462\n      jump\t// in\n    tag_736:\n        /* \"#utility.yul\":16056:16175   */\n    tag_735:\n        /* \"#utility.yul\":16214:16215   */\n      0x00\n        /* \"#utility.yul\":16239:16292   */\n      tag_737\n        /* \"#utility.yul\":16284:16291   */\n      dup5\n        /* \"#utility.yul\":16275:16281   */\n      dup3\n        /* \"#utility.yul\":16264:16273   */\n      dup6\n        /* \"#utility.yul\":16260:16282   */\n      add\n        /* \"#utility.yul\":16239:16292   */\n      tag_484\n      jump\t// in\n    tag_737:\n        /* \"#utility.yul\":16229:16292   */\n      swap2\n      pop\n        /* \"#utility.yul\":16185:16302   */\n      pop\n        /* \"#utility.yul\":15980:16309   */\n      swap3\n      swap2\n      pop\n      pop\n      jump\t// out\n        /* \"#utility.yul\":16315:16967   */\n    tag_119:\n        /* \"#utility.yul\":16514:16518   */\n      0x00\n        /* \"#utility.yul\":16552:16555   */\n      0xa0\n        /* \"#utility.yul\":16541:16550   */\n      dup3\n        /* \"#utility.yul\":16537:16556   */\n      add\n        /* \"#utility.yul\":16529:16556   */\n      swap1\n      pop\n        /* \"#utility.yul\":16566:16637   */\n      tag_739\n        /* \"#utility.yul\":16634:16635   */\n      0x00\n        /* \"#utility.yul\":16623:16632   */\n      dup4\n        /* \"#utility.yul\":16619:16636   */\n      add\n        /* \"#utility.yul\":16610:16616   */\n      dup9\n        /* \"#utility.yul\":16566:16637   */\n      tag_506\n      jump\t// in\n    tag_739:\n        /* \"#utility.yul\":16647:16719   */\n      tag_740\n        /* \"#utility.yul\":16715:16717   */\n      0x20\n        /* \"#utility.yul\":16704:16713   */\n      dup4\n        /* \"#utility.yul\":16700:16718   */\n      add\n        /* \"#utility.yul\":16691:16697   */\n      dup8\n        /* \"#utility.yul\":16647:16719   */\n      tag_506\n      jump\t// in\n    tag_740:\n        /* \"#utility.yul\":16729:16801   */\n      tag_741\n        /* \"#utility.yul\":16797:16799   */\n      0x40\n        /* \"#utility.yul\":16786:16795   */\n      dup4\n        /* \"#utility.yul\":16782:16800   */\n      add\n        /* \"#utility.yul\":16773:16779   */\n      dup7\n        /* \"#utility.yul\":16729:16801   */\n      tag_469\n      jump\t// in\n    tag_741:\n        /* \"#utility.yul\":16811:16877   */\n      tag_742\n        /* \"#utility.yul\":16873:16875   */\n      0x60\n        /* \"#utility.yul\":16862:16871   */\n      dup4\n        /* \"#utility.yul\":16858:16876   */\n      add\n        /* \"#utility.yul\":16849:16855   */\n      dup6\n        /* \"#utility.yul\":16811:16877   */\n      tag_471\n      jump\t// in\n    tag_742:\n        /* \"#utility.yul\":16887:16960   */\n      tag_743\n        /* \"#utility.yul\":16955:16958   */\n      0x80\n        /* \"#utility.yul\":16944:16953   */\n      dup4\n        /* \"#utility.yul\":16940:16959   */\n      add\n        /* \"#utility.yul\":16931:16937   */\n      dup5\n        /* \"#utility.yul\":16887:16960   */\n      tag_469\n      jump\t// in\n    tag_743:\n        /* \"#utility.yul\":16315:16967   */\n      swap7\n      swap6\n      pop\n      pop\n      pop\n      pop\n      pop\n      pop\n      jump\t// out\n        /* \"#utility.yul\":16973:17142   */\n    tag_507:\n        /* \"#utility.yul\":17057:17068   */\n      0x00\n        /* \"#utility.yul\":17091:17097   */\n      dup3\n        /* \"#utility.yul\":17086:17089   */\n      dup3\n        /* \"#utility.yul\":17079:17098   */\n      mstore\n        /* \"#utility.yul\":17131:17135   */\n      0x20\n        /* \"#utility.yul\":17126:17129   */\n      dup3\n        /* \"#utility.yul\":17122:17136   */\n      add\n        /* \"#utility.yul\":17107:17136   */\n      swap1\n      pop\n        /* \"#utility.yul\":16973:17142   */\n      swap3\n      swap2\n      pop\n      pop\n      jump\t// out\n        /* \"#utility.yul\":17148:17525   */\n    tag_508:\n        /* \"#utility.yul\":17236:17239   */\n      0x00\n        /* \"#utility.yul\":17264:17303   */\n      tag_746\n        /* \"#utility.yul\":17297:17302   */\n      dup3\n        /* \"#utility.yul\":17264:17303   */\n      tag_492\n      jump\t// in\n    tag_746:\n        /* \"#utility.yul\":17319:17390   */\n      tag_747\n        /* \"#utility.yul\":17383:17389   */\n      dup2\n        /* \"#utility.yul\":17378:17381   */\n      dup6\n        /* \"#utility.yul\":17319:17390   */\n      tag_507\n      jump\t// in\n    tag_747:\n        /* \"#utility.yul\":17312:17390   */\n      swap4\n      pop\n        /* \"#utility.yul\":17399:17464   */\n      tag_748\n        /* \"#utility.yul\":17457:17463   */\n      dup2\n        /* \"#utility.yul\":17452:17455   */\n      dup6\n        /* \"#utility.yul\":17445:17449   */\n      0x20\n        /* \"#utility.yul\":17438:17443   */\n      dup7\n        /* \"#utility.yul\":17434:17450   */\n      add\n        /* \"#utility.yul\":17399:17464   */\n      tag_494\n      jump\t// in\n    tag_748:\n        /* \"#utility.yul\":17489:17518   */\n      tag_749\n        /* \"#utility.yul\":17511:17517   */\n      dup2\n        /* \"#utility.yul\":17489:17518   */\n      tag_474\n      jump\t// in\n    tag_749:\n        /* \"#utility.yul\":17484:17487   */\n      dup5\n        /* \"#utility.yul\":17480:17519   */\n      add\n        /* \"#utility.yul\":17473:17519   */\n      swap2\n      pop\n        /* \"#utility.yul\":17240:17525   */\n      pop\n        /* \"#utility.yul\":17148:17525   */\n      swap3\n      swap2\n      pop\n      pop\n      jump\t// out\n        /* \"#utility.yul\":17531:18365   */\n    tag_128:\n        /* \"#utility.yul\":17770:17774   */\n      0x00\n        /* \"#utility.yul\":17808:17811   */\n      0xa0\n        /* \"#utility.yul\":17797:17806   */\n      dup3\n        /* \"#utility.yul\":17793:17812   */\n      add\n        /* \"#utility.yul\":17785:17812   */\n      swap1\n      pop\n        /* \"#utility.yul\":17858:17867   */\n      dup2\n        /* \"#utility.yul\":17852:17856   */\n      dup2\n        /* \"#utility.yul\":17848:17868   */\n      sub\n        /* \"#utility.yul\":17844:17845   */\n      0x00\n        /* \"#utility.yul\":17833:17842   */\n      dup4\n        /* \"#utility.yul\":17829:17846   */\n      add\n        /* \"#utility.yul\":17822:17869   */\n      mstore\n        /* \"#utility.yul\":17886:17964   */\n      tag_751\n        /* \"#utility.yul\":17959:17963   */\n      dup2\n        /* \"#utility.yul\":17950:17956   */\n      dup9\n        /* \"#utility.yul\":17886:17964   */\n      tag_508\n      jump\t// in\n    tag_751:\n        /* \"#utility.yul\":17878:17964   */\n      swap1\n      pop\n        /* \"#utility.yul\":18011:18020   */\n      dup2\n        /* \"#utility.yul\":18005:18009   */\n      dup2\n        /* \"#utility.yul\":18001:18021   */\n      sub\n        /* \"#utility.yul\":17996:17998   */\n      0x20\n        /* \"#utility.yul\":17985:17994   */\n      dup4\n        /* \"#utility.yul\":17981:17999   */\n      add\n        /* \"#utility.yul\":17974:18022   */\n      mstore\n        /* \"#utility.yul\":18039:18117   */\n      tag_752\n        /* \"#utility.yul\":18112:18116   */\n      dup2\n        /* \"#utility.yul\":18103:18109   */\n      dup8\n        /* \"#utility.yul\":18039:18117   */\n      tag_508\n      jump\t// in\n    tag_752:\n        /* \"#utility.yul\":18031:18117   */\n      swap1\n      pop\n        /* \"#utility.yul\":18127:18193   */\n      tag_753\n        /* \"#utility.yul\":18189:18191   */\n      0x40\n        /* \"#utility.yul\":18178:18187   */\n      dup4\n        /* \"#utility.yul\":18174:18192   */\n      add\n        /* \"#utility.yul\":18165:18171   */\n      dup7\n        /* \"#utility.yul\":18127:18193   */\n      tag_471\n      jump\t// in\n    tag_753:\n        /* \"#utility.yul\":18203:18275   */\n      tag_754\n        /* \"#utility.yul\":18271:18273   */\n      0x60\n        /* \"#utility.yul\":18260:18269   */\n      dup4\n        /* \"#utility.yul\":18256:18274   */\n      add\n        /* \"#utility.yul\":18247:18253   */\n      dup6\n        /* \"#utility.yul\":18203:18275   */\n      tag_469\n      jump\t// in\n    tag_754:\n        /* \"#utility.yul\":18285:18358   */\n      tag_755\n        /* \"#utility.yul\":18353:18356   */\n      0x80\n        /* \"#utility.yul\":18342:18351   */\n      dup4\n        /* \"#utility.yul\":18338:18357   */\n      add\n        /* \"#utility.yul\":18329:18335   */\n      dup5\n        /* \"#utility.yul\":18285:18358   */\n      tag_469\n      jump\t// in\n    tag_755:\n        /* \"#utility.yul\":17531:18365   */\n      swap7\n      swap6\n      pop\n      pop\n      pop\n      pop\n      pop\n      pop\n      jump\t// out\n        /* \"#utility.yul\":18371:18447   */\n    tag_509:\n        /* \"#utility.yul\":18407:18414   */\n      0x00\n        /* \"#utility.yul\":18436:18441   */\n      dup2\n        /* \"#utility.yul\":18425:18441   */\n      swap1\n      pop\n        /* \"#utility.yul\":18371:18447   */\n      swap2\n      swap1\n      pop\n      jump\t// out\n        /* \"#utility.yul\":18453:18568   */\n    tag_510:\n        /* \"#utility.yul\":18538:18561   */\n      tag_758\n        /* \"#utility.yul\":18555:18560   */\n      dup2\n        /* \"#utility.yul\":18538:18561   */\n      tag_509\n      jump\t// in\n    tag_758:\n        /* \"#utility.yul\":18533:18536   */\n      dup3\n        /* \"#utility.yul\":18526:18562   */\n      mstore\n        /* \"#utility.yul\":18453:18568   */\n      pop\n      pop\n      jump\t// out\n        /* \"#utility.yul\":18574:18792   */\n    tag_136:\n        /* \"#utility.yul\":18665:18669   */\n      0x00\n        /* \"#utility.yul\":18703:18705   */\n      0x20\n        /* \"#utility.yul\":18692:18701   */\n      dup3\n        /* \"#utility.yul\":18688:18706   */\n      add\n        /* \"#utility.yul\":18680:18706   */\n      swap1\n      pop\n        /* \"#utility.yul\":18716:18785   */\n      tag_760\n        /* \"#utility.yul\":18782:18783   */\n      0x00\n        /* \"#utility.yul\":18771:18780   */\n      dup4\n        /* \"#utility.yul\":18767:18784   */\n      add\n        /* \"#utility.yul\":18758:18764   */\n      dup5\n        /* \"#utility.yul\":18716:18785   */\n      tag_510\n      jump\t// in\n    tag_760:\n        /* \"#utility.yul\":18574:18792   */\n      swap3\n      swap2\n      pop\n      pop\n      jump\t// out\n        /* \"#utility.yul\":18798:18941   */\n    tag_511:\n        /* \"#utility.yul\":18855:18860   */\n      0x00\n        /* \"#utility.yul\":18886:18892   */\n      dup2\n        /* \"#utility.yul\":18880:18893   */\n      mload\n        /* \"#utility.yul\":18871:18893   */\n      swap1\n      pop\n        /* \"#utility.yul\":18902:18935   */\n      tag_762\n        /* \"#utility.yul\":18929:18934   */\n      dup2\n        /* \"#utility.yul\":18902:18935   */\n      tag_483\n      jump\t// in\n    tag_762:\n        /* \"#utility.yul\":18798:18941   */\n      swap3\n      swap2\n      pop\n      pop\n      jump\t// out\n        /* \"#utility.yul\":18947:19298   */\n    tag_176:\n        /* \"#utility.yul\":19017:19023   */\n      0x00\n        /* \"#utility.yul\":19066:19068   */\n      0x20\n        /* \"#utility.yul\":19054:19063   */\n      dup3\n        /* \"#utility.yul\":19045:19052   */\n      dup5\n        /* \"#utility.yul\":19041:19064   */\n      sub\n        /* \"#utility.yul\":19037:19069   */\n      slt\n        /* \"#utility.yul\":19034:19153   */\n      iszero\n      tag_764\n      jumpi\n        /* \"#utility.yul\":19072:19151   */\n      tag_765\n      tag_462\n      jump\t// in\n    tag_765:\n        /* \"#utility.yul\":19034:19153   */\n    tag_764:\n        /* \"#utility.yul\":19192:19193   */\n      0x00\n        /* \"#utility.yul\":19217:19281   */\n      tag_766\n        /* \"#utility.yul\":19273:19280   */\n      dup5\n        /* \"#utility.yul\":19264:19270   */\n      dup3\n        /* \"#utility.yul\":19253:19262   */\n      dup6\n        /* \"#utility.yul\":19249:19271   */\n      add\n        /* \"#utility.yul\":19217:19281   */\n      tag_511\n      jump\t// in\n    tag_766:\n        /* \"#utility.yul\":19207:19281   */\n      swap2\n      pop\n        /* \"#utility.yul\":19163:19291   */\n      pop\n        /* \"#utility.yul\":18947:19298   */\n      swap3\n      swap2\n      pop\n      pop\n      jump\t// out\n        /* \"#utility.yul\":19304:19636   */\n    tag_180:\n        /* \"#utility.yul\":19425:19429   */\n      0x00\n        /* \"#utility.yul\":19463:19465   */\n      0x40\n        /* \"#utility.yul\":19452:19461   */\n      dup3\n        /* \"#utility.yul\":19448:19466   */\n      add\n        /* \"#utility.yul\":19440:19466   */\n      swap1\n      pop\n        /* \"#utility.yul\":19476:19547   */\n      tag_768\n        /* \"#utility.yul\":19544:19545   */\n      0x00\n        /* \"#utility.yul\":19533:19542   */\n      dup4\n        /* \"#utility.yul\":19529:19546   */\n      add\n        /* \"#utility.yul\":19520:19526   */\n      dup6\n        /* \"#utility.yul\":19476:19547   */\n      tag_506\n      jump\t// in\n    tag_768:\n        /* \"#utility.yul\":19557:19629   */\n      tag_769\n        /* \"#utility.yul\":19625:19627   */\n      0x20\n        /* \"#utility.yul\":19614:19623   */\n      dup4\n        /* \"#utility.yul\":19610:19628   */\n      add\n        /* \"#utility.yul\":19601:19607   */\n      dup5\n        /* \"#utility.yul\":19557:19629   */\n      tag_506\n      jump\t// in\n    tag_769:\n        /* \"#utility.yul\":19304:19636   */\n      swap4\n      swap3\n      pop\n      pop\n      pop\n      jump\t// out\n        /* \"#utility.yul\":19642:19810   */\n    tag_512:\n        /* \"#utility.yul\":19782:19802   */\n      0x55736572206e6f74206c6f6767656420696e0000000000000000000000000000\n        /* \"#utility.yul\":19778:19779   */\n      0x00\n        /* \"#utility.yul\":19770:19776   */\n      dup3\n        /* \"#utility.yul\":19766:19780   */\n      add\n        /* \"#utility.yul\":19759:19803   */\n      mstore\n        /* \"#utility.yul\":19642:19810   */\n      pop\n      jump\t// out\n        /* \"#utility.yul\":19816:20182   */\n    tag_513:\n        /* \"#utility.yul\":19958:19961   */\n      0x00\n        /* \"#utility.yul\":19979:20046   */\n      tag_772\n        /* \"#utility.yul\":20043:20045   */\n      0x12\n        /* \"#utility.yul\":20038:20041   */\n      dup4\n        /* \"#utility.yul\":19979:20046   */\n      tag_507\n      jump\t// in\n    tag_772:\n        /* \"#utility.yul\":19972:20046   */\n      swap2\n      pop\n        /* \"#utility.yul\":20055:20148   */\n      tag_773\n        /* \"#utility.yul\":20144:20147   */\n      dup3\n        /* \"#utility.yul\":20055:20148   */\n      tag_512\n      jump\t// in\n    tag_773:\n        /* \"#utility.yul\":20173:20175   */\n      0x20\n        /* \"#utility.yul\":20168:20171   */\n      dup3\n        /* \"#utility.yul\":20164:20176   */\n      add\n        /* \"#utility.yul\":20157:20176   */\n      swap1\n      pop\n        /* \"#utility.yul\":19816:20182   */\n      swap2\n      swap1\n      pop\n      jump\t// out\n        /* \"#utility.yul\":20188:20607   */\n    tag_187:\n        /* \"#utility.yul\":20354:20358   */\n      0x00\n        /* \"#utility.yul\":20392:20394   */\n      0x20\n        /* \"#utility.yul\":20381:20390   */\n      dup3\n        /* \"#utility.yul\":20377:20395   */\n      add\n        /* \"#utility.yul\":20369:20395   */\n      swap1\n      pop\n        /* \"#utility.yul\":20441:20450   */\n      dup2\n        /* \"#utility.yul\":20435:20439   */\n      dup2\n        /* \"#utility.yul\":20431:20451   */\n      sub\n        /* \"#utility.yul\":20427:20428   */\n      0x00\n        /* \"#utility.yul\":20416:20425   */\n      dup4\n        /* \"#utility.yul\":20412:20429   */\n      add\n        /* \"#utility.yul\":20405:20452   */\n      mstore\n        /* \"#utility.yul\":20469:20600   */\n      tag_775\n        /* \"#utility.yul\":20595:20599   */\n      dup2\n        /* \"#utility.yul\":20469:20600   */\n      tag_513\n      jump\t// in\n    tag_775:\n        /* \"#utility.yul\":20461:20600   */\n      swap1\n      pop\n        /* \"#utility.yul\":20188:20607   */\n      swap2\n      swap1\n      pop\n      jump\t// out\n        /* \"#utility.yul\":20613:20782   */\n    tag_514:\n        /* \"#utility.yul\":20753:20774   */\n      0x55736572206e6f74207265676973746572656400000000000000000000000000\n        /* \"#utility.yul\":20749:20750   */\n      0x00\n        /* \"#utility.yul\":20741:20747   */\n      dup3\n        /* \"#utility.yul\":20737:20751   */\n      add\n        /* \"#utility.yul\":20730:20775   */\n      mstore\n        /* \"#utility.yul\":20613:20782   */\n      pop\n      jump\t// out\n        /* \"#utility.yul\":20788:21154   */\n    tag_515:\n        /* \"#utility.yul\":20930:20933   */\n      0x00\n        /* \"#utility.yul\":20951:21018   */\n      tag_778\n        /* \"#utility.yul\":21015:21017   */\n      0x13\n        /* \"#utility.yul\":21010:21013   */\n      dup4\n        /* \"#utility.yul\":20951:21018   */\n      tag_507\n      jump\t// in\n    tag_778:\n        /* \"#utility.yul\":20944:21018   */\n      swap2\n      pop\n        /* \"#utility.yul\":21027:21120   */\n      tag_779\n        /* \"#utility.yul\":21116:21119   */\n      dup3\n        /* \"#utility.yul\":21027:21120   */\n      tag_514\n      jump\t// in\n    tag_779:\n        /* \"#utility.yul\":21145:21147   */\n      0x20\n        /* \"#utility.yul\":21140:21143   */\n      dup3\n        /* \"#utility.yul\":21136:21148   */\n      add\n        /* \"#utility.yul\":21129:21148   */\n      swap1\n      pop\n        /* \"#utility.yul\":20788:21154   */\n      swap2\n      swap1\n      pop\n      jump\t// out\n        /* \"#utility.yul\":21160:21579   */\n    tag_192:\n        /* \"#utility.yul\":21326:21330   */\n      0x00\n        /* \"#utility.yul\":21364:21366   */\n      0x20\n        /* \"#utility.yul\":21353:21362   */\n      dup3\n        /* \"#utility.yul\":21349:21367   */\n      add\n        /* \"#utility.yul\":21341:21367   */\n      swap1\n      pop\n        /* \"#utility.yul\":21413:21422   */\n      dup2\n        /* \"#utility.yul\":21407:21411   */\n      dup2\n        /* \"#utility.yul\":21403:21423   */\n      sub\n        /* \"#utility.yul\":21399:21400   */\n      0x00\n        /* \"#utility.yul\":21388:21397   */\n      dup4\n        /* \"#utility.yul\":21384:21401   */\n      add\n        /* \"#utility.yul\":21377:21424   */\n      mstore\n        /* \"#utility.yul\":21441:21572   */\n      tag_781\n        /* \"#utility.yul\":21567:21571   */\n      dup2\n        /* \"#utility.yul\":21441:21572   */\n      tag_515\n      jump\t// in\n    tag_781:\n        /* \"#utility.yul\":21433:21572   */\n      swap1\n      pop\n        /* \"#utility.yul\":21160:21579   */\n      swap2\n      swap1\n      pop\n      jump\t// out\n        /* \"#utility.yul\":21585:21765   */\n    tag_516:\n        /* \"#utility.yul\":21633:21710   */\n      0x4e487b7100000000000000000000000000000000000000000000000000000000\n        /* \"#utility.yul\":21630:21631   */\n      0x00\n        /* \"#utility.yul\":21623:21711   */\n      mstore\n        /* \"#utility.yul\":21730:21734   */\n      0x22\n        /* \"#utility.yul\":21727:21728   */\n      0x04\n        /* \"#utility.yul\":21720:21735   */\n      mstore\n        /* \"#utility.yul\":21754:21758   */\n      0x24\n        /* \"#utility.yul\":21751:21752   */\n      0x00\n        /* \"#utility.yul\":21744:21759   */\n      revert\n        /* \"#utility.yul\":21771:22091   */\n    tag_295:\n        /* \"#utility.yul\":21815:21821   */\n      0x00\n        /* \"#utility.yul\":21852:21853   */\n      0x02\n        /* \"#utility.yul\":21846:21850   */\n      dup3\n        /* \"#utility.yul\":21842:21854   */\n      div\n        /* \"#utility.yul\":21832:21854   */\n      swap1\n      pop\n        /* \"#utility.yul\":21899:21900   */\n      0x01\n        /* \"#utility.yul\":21893:21897   */\n      dup3\n        /* \"#utility.yul\":21889:21901   */\n      and\n        /* \"#utility.yul\":21920:21938   */\n      dup1\n        /* \"#utility.yul\":21910:21991   */\n      tag_784\n      jumpi\n        /* \"#utility.yul\":21976:21980   */\n      0x7f\n        /* \"#utility.yul\":21968:21974   */\n      dup3\n        /* \"#utility.yul\":21964:21981   */\n      and\n        /* \"#utility.yul\":21954:21981   */\n      swap2\n      pop\n        /* \"#utility.yul\":21910:21991   */\n    tag_784:\n        /* \"#utility.yul\":22038:22040   */\n      0x20\n        /* \"#utility.yul\":22030:22036   */\n      dup3\n        /* \"#utility.yul\":22027:22041   */\n      lt\n        /* \"#utility.yul\":22007:22025   */\n      dup2\n        /* \"#utility.yul\":22004:22042   */\n      sub\n        /* \"#utility.yul\":22001:22085   */\n      tag_785\n      jumpi\n        /* \"#utility.yul\":22057:22075   */\n      tag_786\n      tag_516\n      jump\t// in\n    tag_786:\n        /* \"#utility.yul\":22001:22085   */\n    tag_785:\n        /* \"#utility.yul\":21822:22091   */\n      pop\n        /* \"#utility.yul\":21771:22091   */\n      swap2\n      swap1\n      pop\n      jump\t// out\n        /* \"#utility.yul\":22097:22249   */\n    tag_517:\n        /* \"#utility.yul\":22149:22155   */\n      0x00\n        /* \"#utility.yul\":22183:22188   */\n      dup2\n        /* \"#utility.yul\":22177:22189   */\n      sload\n        /* \"#utility.yul\":22167:22189   */\n      swap1\n      pop\n        /* \"#utility.yul\":22209:22242   */\n      tag_788\n        /* \"#utility.yul\":22235:22241   */\n      dup2\n        /* \"#utility.yul\":22209:22242   */\n      tag_295\n      jump\t// in\n    tag_788:\n        /* \"#utility.yul\":22199:22242   */\n      swap1\n      pop\n        /* \"#utility.yul\":22097:22249   */\n      swap2\n      swap1\n      pop\n      jump\t// out\n        /* \"#utility.yul\":22255:22399   */\n    tag_518:\n        /* \"#utility.yul\":22307:22311   */\n      0x00\n        /* \"#utility.yul\":22330:22333   */\n      dup2\n        /* \"#utility.yul\":22322:22333   */\n      swap1\n      pop\n        /* \"#utility.yul\":22353:22356   */\n      dup2\n        /* \"#utility.yul\":22350:22351   */\n      0x00\n        /* \"#utility.yul\":22343:22357   */\n      mstore\n        /* \"#utility.yul\":22387:22391   */\n      0x20\n        /* \"#utility.yul\":22384:22385   */\n      0x00\n        /* \"#utility.yul\":22374:22392   */\n      keccak256\n        /* \"#utility.yul\":22366:22392   */\n      swap1\n      pop\n        /* \"#utility.yul\":22255:22399   */\n      swap2\n      swap1\n      pop\n      jump\t// out\n        /* \"#utility.yul\":22405:22507   */\n    tag_519:\n        /* \"#utility.yul\":22447:22455   */\n      0x00\n        /* \"#utility.yul\":22494:22499   */\n      dup2\n        /* \"#utility.yul\":22491:22492   */\n      0x00\n        /* \"#utility.yul\":22487:22500   */\n      shr\n        /* \"#utility.yul\":22466:22500   */\n      swap1\n      pop\n        /* \"#utility.yul\":22405:22507   */\n      swap2\n      swap1\n      pop\n      jump\t// out\n        /* \"#utility.yul\":22513:22603   */\n    tag_520:\n        /* \"#utility.yul\":22563:22570   */\n      0x00\n        /* \"#utility.yul\":22592:22597   */\n      dup2\n        /* \"#utility.yul\":22581:22597   */\n      swap1\n      pop\n        /* \"#utility.yul\":22513:22603   */\n      swap2\n      swap1\n      pop\n      jump\t// out\n        /* \"#utility.yul\":22609:22776   */\n    tag_521:\n        /* \"#utility.yul\":22679:22684   */\n      0x00\n        /* \"#utility.yul\":22704:22770   */\n      tag_793\n        /* \"#utility.yul\":22735:22769   */\n      tag_794\n        /* \"#utility.yul\":22758:22768   */\n      dup4\n        /* \"#utility.yul\":22735:22769   */\n      tag_519\n      jump\t// in\n    tag_794:\n        /* \"#utility.yul\":22704:22770   */\n      tag_520\n      jump\t// in\n    tag_793:\n        /* \"#utility.yul\":22695:22770   */\n      swap1\n      pop\n        /* \"#utility.yul\":22609:22776   */\n      swap2\n      swap1\n      pop\n      jump\t// out\n        /* \"#utility.yul\":22782:22927   */\n    tag_522:\n        /* \"#utility.yul\":22837:22842   */\n      0x00\n        /* \"#utility.yul\":22862:22920   */\n      tag_796\n        /* \"#utility.yul\":22914:22918   */\n      dup3\n        /* \"#utility.yul\":22908:22919   */\n      sload\n        /* \"#utility.yul\":22862:22920   */\n      tag_521\n      jump\t// in\n    tag_796:\n        /* \"#utility.yul\":22853:22920   */\n      swap1\n      pop\n        /* \"#utility.yul\":22782:22927   */\n      swap2\n      swap1\n      pop\n      jump\t// out\n        /* \"#utility.yul\":22933:23040   */\n    tag_523:\n        /* \"#utility.yul\":22977:22985   */\n      0x00\n        /* \"#utility.yul\":23027:23032   */\n      dup3\n        /* \"#utility.yul\":23021:23025   */\n      dup3\n        /* \"#utility.yul\":23017:23033   */\n      shl\n        /* \"#utility.yul\":22996:23033   */\n      swap1\n      pop\n        /* \"#utility.yul\":22933:23040   */\n      swap3\n      swap2\n      pop\n      pop\n      jump\t// out\n        /* \"#utility.yul\":23046:23676   */\n    tag_196:\n        /* \"#utility.yul\":23131:23136   */\n      0x00\n        /* \"#utility.yul\":23162:23201   */\n      tag_799\n        /* \"#utility.yul\":23195:23200   */\n      dup3\n        /* \"#utility.yul\":23162:23201   */\n      tag_517\n      jump\t// in\n    tag_799:\n        /* \"#utility.yul\":23226:23231   */\n      dup3\n        /* \"#utility.yul\":23255:23257   */\n      0x1f\n        /* \"#utility.yul\":23247:23253   */\n      dup3\n        /* \"#utility.yul\":23244:23258   */\n      gt\n        /* \"#utility.yul\":23241:23316   */\n      iszero\n      tag_800\n      jumpi\n        /* \"#utility.yul\":23273:23314   */\n      tag_801\n        /* \"#utility.yul\":23308:23313   */\n      dup5\n        /* \"#utility.yul\":23273:23314   */\n      tag_518\n      jump\t// in\n    tag_801:\n        /* \"#utility.yul\":23261:23314   */\n      swap1\n      pop\n        /* \"#utility.yul\":23241:23316   */\n    tag_800:\n        /* \"#utility.yul\":23335:23381   */\n      tag_802\n        /* \"#utility.yul\":23372:23380   */\n      dup2\n        /* \"#utility.yul\":23335:23381   */\n      tag_522\n      jump\t// in\n    tag_802:\n        /* \"#utility.yul\":23326:23381   */\n      swap3\n      pop\n        /* \"#utility.yul\":23405:23407   */\n      0x20\n        /* \"#utility.yul\":23397:23403   */\n      dup3\n        /* \"#utility.yul\":23394:23408   */\n      lt\n        /* \"#utility.yul\":23391:23669   */\n      iszero\n      tag_803\n      jumpi\n        /* \"#utility.yul\":23476:23645   */\n      tag_804\n        /* \"#utility.yul\":23561:23627   */\n      0xffffffffffffffffffffffffffffffffffffffffffffffffffffffffffffffff\n        /* \"#utility.yul\":23531:23537   */\n      dup4\n        /* \"#utility.yul\":23527:23529   */\n      0x20\n        /* \"#utility.yul\":23523:23538   */\n      sub\n        /* \"#utility.yul\":23520:23521   */\n      0x08\n        /* \"#utility.yul\":23516:23539   */\n      mul\n        /* \"#utility.yul\":23476:23645   */\n      tag_523\n      jump\t// in\n    tag_804:\n        /* \"#utility.yul\":23453:23458   */\n      dup4\n        /* \"#utility.yul\":23432:23659   */\n      and\n        /* \"#utility.yul\":23423:23659   */\n      swap3\n      pop\n        /* \"#utility.yul\":23391:23669   */\n    tag_803:\n        /* \"#utility.yul\":23137:23676   */\n      pop\n      pop\n        /* \"#utility.yul\":23046:23676   */\n      swap2\n      swap1\n      pop\n      jump\t// out\n        /* \"#utility.yul\":23682:23848   */\n    tag_524:\n        /* \"#utility.yul\":23822:23840   */\n      0x496e76616c69642070617373776f726400000000000000000000000000000000\n        /* \"#utility.yul\":23818:23819   */\n      0x00\n        /* \"#utility.yul\":23810:23816   */\n      dup3\n        /* \"#utility.yul\":23806:23820   */\n      add\n        /* \"#utility.yul\":23799:23841   */\n      mstore\n        /* \"#utility.yul\":23682:23848   */\n      pop\n      jump\t// out\n        /* \"#utility.yul\":23854:24220   */\n    tag_525:\n        /* \"#utility.yul\":23996:23999   */\n      0x00\n        /* \"#utility.yul\":24017:24084   */\n      tag_807\n        /* \"#utility.yul\":24081:24083   */\n      0x10\n        /* \"#utility.yul\":24076:24079   */\n      dup4\n        /* \"#utility.yul\":24017:24084   */\n      tag_507\n      jump\t// in\n    tag_807:\n        /* \"#utility.yul\":24010:24084   */\n      swap2\n      pop\n        /* \"#utility.yul\":24093:24186   */\n      tag_808\n        /* \"#utility.yul\":24182:24185   */\n      dup3\n        /* \"#utility.yul\":24093:24186   */\n      tag_524\n      jump\t// in\n    tag_808:\n        /* \"#utility.yul\":24211:24213   */\n      0x20\n        /* \"#utility.yul\":24206:24209   */\n      dup3\n        /* \"#utility.yul\":24202:24214   */\n      add\n        /* \"#utility.yul\":24195:24214   */\n      swap1\n      pop\n        /* \"#utility.yul\":23854:24220   */\n      swap2\n      swap1\n      pop\n      jump\t// out\n        /* \"#utility.yul\":24226:24645   */\n    tag_199:\n        /* \"#utility.yul\":24392:24396   */\n      0x00\n        /* \"#utility.yul\":24430:24432   */\n      0x20\n        /* \"#utility.yul\":24419:24428   */\n      dup3\n        /* \"#utility.yul\":24415:24433   */\n      add\n        /* \"#utility.yul\":24407:24433   */\n      swap1\n      pop\n        /* \"#utility.yul\":24479:24488   */\n      dup2\n        /* \"#utility.yul\":24473:24477   */\n      dup2\n        /* \"#utility.yul\":24469:24489   */\n      sub\n        /* \"#utility.yul\":24465:24466   */\n      0x00\n        /* \"#utility.yul\":24454:24463   */\n      dup4\n        /* \"#utility.yul\":24450:24467   */\n      add\n        /* \"#utility.yul\":24443:24490   */\n      mstore\n        /* \"#utility.yul\":24507:24638   */\n      tag_810\n        /* \"#utility.yul\":24633:24637   */\n      dup2\n        /* \"#utility.yul\":24507:24638   */\n      tag_525\n      jump\t// in\n    tag_810:\n        /* \"#utility.yul\":24499:24638   */\n      swap1\n      pop\n        /* \"#utility.yul\":24226:24645   */\n      swap2\n      swap1\n      pop\n      jump\t// out\n        /* \"#utility.yul\":24651:24799   */\n    tag_526:\n        /* \"#utility.yul\":24753:24764   */\n      0x00\n        /* \"#utility.yul\":24790:24793   */\n      dup2\n        /* \"#utility.yul\":24775:24793   */\n      swap1\n      pop\n        /* \"#utility.yul\":24651:24799   */\n      swap3\n      swap2\n      pop\n      pop\n      jump\t// out\n        /* \"#utility.yul\":24805:25195   */\n    tag_527:\n        /* \"#utility.yul\":24911:24914   */\n      0x00\n        /* \"#utility.yul\":24939:24978   */\n      tag_813\n        /* \"#utility.yul\":24972:24977   */\n      dup3\n        /* \"#utility.yul\":24939:24978   */\n      tag_492\n      jump\t// in\n    tag_813:\n        /* \"#utility.yul\":24994:25083   */\n      tag_814\n        /* \"#utility.yul\":25076:25082   */\n      dup2\n        /* \"#utility.yul\":25071:25074   */\n      dup6\n        /* \"#utility.yul\":24994:25083   */\n      tag_526\n      jump\t// in\n    tag_814:\n        /* \"#utility.yul\":24987:25083   */\n      swap4\n      pop\n        /* \"#utility.yul\":25092:25157   */\n      tag_815\n        /* \"#utility.yul\":25150:25156   */\n      dup2\n        /* \"#utility.yul\":25145:25148   */\n      dup6\n        /* \"#utility.yul\":25138:25142   */\n      0x20\n        /* \"#utility.yul\":25131:25136   */\n      dup7\n        /* \"#utility.yul\":25127:25143   */\n      add\n        /* \"#utility.yul\":25092:25157   */\n      tag_494\n      jump\t// in\n    tag_815:\n        /* \"#utility.yul\":25182:25188   */\n      dup1\n        /* \"#utility.yul\":25177:25180   */\n      dup5\n        /* \"#utility.yul\":25173:25189   */\n      add\n        /* \"#utility.yul\":25166:25189   */\n      swap2\n      pop\n        /* \"#utility.yul\":24915:25195   */\n      pop\n        /* \"#utility.yul\":24805:25195   */\n      swap3\n      swap2\n      pop\n      pop\n      jump\t// out\n        /* \"#utility.yul\":25201:25476   */\n    tag_203:\n        /* \"#utility.yul\":25333:25336   */\n      0x00\n        /* \"#utility.yul\":25355:25450   */\n      tag_817\n        /* \"#utility.yul\":25446:25449   */\n      dup3\n        /* \"#utility.yul\":25437:25443   */\n      dup5\n        /* \"#utility.yul\":25355:25450   */\n      tag_527\n      jump\t// in\n    tag_817:\n        /* \"#utility.yul\":25348:25450   */\n      swap2\n      pop\n        /* \"#utility.yul\":25467:25470   */\n      dup2\n        /* \"#utility.yul\":25460:25470   */\n      swap1\n      pop\n        /* \"#utility.yul\":25201:25476   */\n      swap3\n      swap2\n      pop\n      pop\n      jump\t// out\n        /* \"#utility.yul\":25482:25655   */\n    tag_528:\n        /* \"#utility.yul\":25622:25647   */\n      0x5573657220616c72656164792072656769737465726564000000000000000000\n        /* \"#utility.yul\":25618:25619   */\n      0x00\n        /* \"#utility.yul\":25610:25616   */\n      dup3\n        /* \"#utility.yul\":25606:25620   */\n      add\n        /* \"#utility.yul\":25599:25648   */\n      mstore\n        /* \"#utility.yul\":25482:25655   */\n      pop\n      jump\t// out\n        /* \"#utility.yul\":25661:26027   */\n    tag_529:\n        /* \"#utility.yul\":25803:25806   */\n      0x00\n        /* \"#utility.yul\":25824:25891   */\n      tag_820\n        /* \"#utility.yul\":25888:25890   */\n      0x17\n        /* \"#utility.yul\":25883:25886   */\n      dup4\n        /* \"#utility.yul\":25824:25891   */\n      tag_507\n      jump\t// in\n    tag_820:\n        /* \"#utility.yul\":25817:25891   */\n      swap2\n      pop\n        /* \"#utility.yul\":25900:25993   */\n      tag_821\n        /* \"#utility.yul\":25989:25992   */\n      dup3\n        /* \"#utility.yul\":25900:25993   */\n      tag_528\n      jump\t// in\n    tag_821:\n        /* \"#utility.yul\":26018:26020   */\n      0x20\n        /* \"#utility.yul\":26013:26016   */\n      dup3\n        /* \"#utility.yul\":26009:26021   */\n      add\n        /* \"#utility.yul\":26002:26021   */\n      swap1\n      pop\n        /* \"#utility.yul\":25661:26027   */\n      swap2\n      swap1\n      pop\n      jump\t// out\n        /* \"#utility.yul\":26033:26452   */\n    tag_207:\n        /* \"#utility.yul\":26199:26203   */\n      0x00\n        /* \"#utility.yul\":26237:26239   */\n      0x20\n        /* \"#utility.yul\":26226:26235   */\n      dup3\n        /* \"#utility.yul\":26222:26240   */\n      add\n        /* \"#utility.yul\":26214:26240   */\n      swap1\n      pop\n        /* \"#utility.yul\":26286:26295   */\n      dup2\n        /* \"#utility.yul\":26280:26284   */\n      dup2\n        /* \"#utility.yul\":26276:26296   */\n      sub\n        /* \"#utility.yul\":26272:26273   */\n      0x00\n        /* \"#utility.yul\":26261:26270   */\n      dup4\n        /* \"#utility.yul\":26257:26274   */\n      add\n        /* \"#utility.yul\":26250:26297   */\n      mstore\n        /* \"#utility.yul\":26314:26445   */\n      tag_823\n        /* \"#utility.yul\":26440:26444   */\n      dup2\n        /* \"#utility.yul\":26314:26445   */\n      tag_529\n      jump\t// in\n    tag_823:\n        /* \"#utility.yul\":26306:26445   */\n      swap1\n      pop\n        /* \"#utility.yul\":26033:26452   */\n      swap2\n      swap1\n      pop\n      jump\t// out\n        /* \"#utility.yul\":26458:26683   */\n    tag_530:\n        /* \"#utility.yul\":26598:26632   */\n      0x557365726e616d65206d757374206265206174206c6561737420332063686172\n        /* \"#utility.yul\":26594:26595   */\n      0x00\n        /* \"#utility.yul\":26586:26592   */\n      dup3\n        /* \"#utility.yul\":26582:26596   */\n      add\n        /* \"#utility.yul\":26575:26633   */\n      mstore\n        /* \"#utility.yul\":26667:26675   */\n      0x6163746572730000000000000000000000000000000000000000000000000000\n        /* \"#utility.yul\":26662:26664   */\n      0x20\n        /* \"#utility.yul\":26654:26660   */\n      dup3\n        /* \"#utility.yul\":26650:26665   */\n      add\n        /* \"#utility.yul\":26643:26676   */\n      mstore\n        /* \"#utility.yul\":26458:26683   */\n      pop\n      jump\t// out\n        /* \"#utility.yul\":26689:27055   */\n    tag_531:\n        /* \"#utility.yul\":26831:26834   */\n      0x00\n        /* \"#utility.yul\":26852:26919   */\n      tag_826\n        /* \"#utility.yul\":26916:26918   */\n      0x26\n        /* \"#utility.yul\":26911:26914   */\n      dup4\n        /* \"#utility.yul\":26852:26919   */\n      tag_507\n      jump\t// in\n    tag_826:\n        /* \"#utility.yul\":26845:26919   */\n      swap2\n      pop\n        /* \"#utility.yul\":26928:27021   */\n      tag_827\n        /* \"#utility.yul\":27017:27020   */\n      dup3\n        /* \"#utility.yul\":26928:27021   */\n      tag_530\n      jump\t// in\n    tag_827:\n        /* \"#utility.yul\":27046:27048   */\n      0x40\n        /* \"#utility.yul\":27041:27044   */\n      dup3\n        /* \"#utility.yul\":27037:27049   */\n      add\n        /* \"#utility.yul\":27030:27049   */\n      swap1\n      pop\n        /* \"#utility.yul\":26689:27055   */\n      swap2\n      swap1\n      pop\n      jump\t// out\n        /* \"#utility.yul\":27061:27480   */\n    tag_210:\n        /* \"#utility.yul\":27227:27231   */\n      0x00\n        /* \"#utility.yul\":27265:27267   */\n      0x20\n        /* \"#utility.yul\":27254:27263   */\n      dup3\n        /* \"#utility.yul\":27250:27268   */\n      add\n        /* \"#utility.yul\":27242:27268   */\n      swap1\n      pop\n        /* \"#utility.yul\":27314:27323   */\n      dup2\n        /* \"#utility.yul\":27308:27312   */\n      dup2\n        /* \"#utility.yul\":27304:27324   */\n      sub\n        /* \"#utility.yul\":27300:27301   */\n      0x00\n        /* \"#utility.yul\":27289:27298   */\n      dup4\n        /* \"#utility.yul\":27285:27302   */\n      add\n        /* \"#utility.yul\":27278:27325   */\n      mstore\n        /* \"#utility.yul\":27342:27473   */\n      tag_829\n        /* \"#utility.yul\":27468:27472   */\n      dup2\n        /* \"#utility.yul\":27342:27473   */\n      tag_531\n      jump\t// in\n    tag_829:\n        /* \"#utility.yul\":27334:27473   */\n      swap1\n      pop\n        /* \"#utility.yul\":27061:27480   */\n      swap2\n      swap1\n      pop\n      jump\t// out\n        /* \"#utility.yul\":27486:27711   */\n    tag_532:\n        /* \"#utility.yul\":27626:27660   */\n      0x50617373776f7264206d757374206265206174206c6561737420362063686172\n        /* \"#utility.yul\":27622:27623   */\n      0x00\n        /* \"#utility.yul\":27614:27620   */\n      dup3\n        /* \"#utility.yul\":27610:27624   */\n      add\n        /* \"#utility.yul\":27603:27661   */\n      mstore\n        /* \"#utility.yul\":27695:27703   */\n      0x6163746572730000000000000000000000000000000000000000000000000000\n        /* \"#utility.yul\":27690:27692   */\n      0x20\n        /* \"#utility.yul\":27682:27688   */\n      dup3\n        /* \"#utility.yul\":27678:27693   */\n      add\n        /* \"#utility.yul\":27671:27704   */\n      mstore\n        /* \"#utility.yul\":27486:27711   */\n      pop\n      jump\t// out\n        /* \"#utility.yul\":27717:28083   */\n    tag_533:\n        /* \"#utility.yul\":27859:27862   */\n      0x00\n        /* \"#utility.yul\":27880:27947   */\n      tag_832\n        /* \"#utility.yul\":27944:27946   */\n      0x26\n        /* \"#utility.yul\":27939:27942   */\n      dup4\n        /* \"#utility.yul\":27880:27947   */\n      tag_507\n      jump\t// in\n    tag_832:\n        /* \"#utility.yul\":27873:27947   */\n      swap2\n      pop\n        /* \"#utility.yul\":27956:28049   */\n      tag_833\n        /* \"#utility.yul\":28045:28048   */\n      dup3\n        /* \"#utility.yul\":27956:28049   */\n      tag_532\n      jump\t// in\n    tag_833:\n        /* \"#utility.yul\":28074:28076   */\n      0x40\n        /* \"#utility.yul\":28069:28072   */\n      dup3\n        /* \"#utility.yul\":28065:28077   */\n      add\n        /* \"#utility.yul\":28058:28077   */\n      swap1\n      pop\n        /* \"#utility.yul\":27717:28083   */\n      swap2\n      swap1\n      pop\n      jump\t// out\n        /* \"#utility.yul\":28089:28508   */\n    tag_213:\n        /* \"#utility.yul\":28255:28259   */\n      0x00\n        /* \"#utility.yul\":28293:28295   */\n      0x20\n        /* \"#utility.yul\":28282:28291   */\n      dup3\n        /* \"#utility.yul\":28278:28296   */\n      add\n        /* \"#utility.yul\":28270:28296   */\n      swap1\n      pop\n        /* \"#utility.yul\":28342:28351   */\n      dup2\n        /* \"#utility.yul\":28336:28340   */\n      dup2\n        /* \"#utility.yul\":28332:28352   */\n      sub\n        /* \"#utility.yul\":28328:28329   */\n      0x00\n        /* \"#utility.yul\":28317:28326   */\n      dup4\n        /* \"#utility.yul\":28313:28330   */\n      add\n        /* \"#utility.yul\":28306:28353   */\n      mstore\n        /* \"#utility.yul\":28370:28501   */\n      tag_835\n        /* \"#utility.yul\":28496:28500   */\n      dup2\n        /* \"#utility.yul\":28370:28501   */\n      tag_533\n      jump\t// in\n    tag_835:\n        /* \"#utility.yul\":28362:28501   */\n      swap1\n      pop\n        /* \"#utility.yul\":28089:28508   */\n      swap2\n      swap1\n      pop\n      jump\t// out\n        /* \"#utility.yul\":28514:28686   */\n    tag_534:\n        /* \"#utility.yul\":28654:28678   */\n      0x557365726e616d6520616c72656164792074616b656e00000000000000000000\n        /* \"#utility.yul\":28650:28651   */\n      0x00\n        /* \"#utility.yul\":28642:28648   */\n      dup3\n        /* \"#utility.yul\":28638:28652   */\n      add\n        /* \"#utility.yul\":28631:28679   */\n      mstore\n        /* \"#utility.yul\":28514:28686   */\n      pop\n      jump\t// out\n        /* \"#utility.yul\":28692:29058   */\n    tag_535:\n        /* \"#utility.yul\":28834:28837   */\n      0x00\n        /* \"#utility.yul\":28855:28922   */\n      tag_838\n        /* \"#utility.yul\":28919:28921   */\n      0x16\n        /* \"#utility.yul\":28914:28917   */\n      dup4\n        /* \"#utility.yul\":28855:28922   */\n      tag_507\n      jump\t// in\n    tag_838:\n        /* \"#utility.yul\":28848:28922   */\n      swap2\n      pop\n        /* \"#utility.yul\":28931:29024   */\n      tag_839\n        /* \"#utility.yul\":29020:29023   */\n      dup3\n        /* \"#utility.yul\":28931:29024   */\n      tag_534\n      jump\t// in\n    tag_839:\n        /* \"#utility.yul\":29049:29051   */\n      0x20\n        /* \"#utility.yul\":29044:29047   */\n      dup3\n        /* \"#utility.yul\":29040:29052   */\n      add\n        /* \"#utility.yul\":29033:29052   */\n      swap1\n      pop\n        /* \"#utility.yul\":28692:29058   */\n      swap2\n      swap1\n      pop\n      jump\t// out\n        /* \"#utility.yul\":29064:29483   */\n    tag_217:\n        /* \"#utility.yul\":29230:29234   */\n      0x00\n        /* \"#utility.yul\":29268:29270   */\n      0x20\n        /* \"#utility.yul\":29257:29266   */\n      dup3\n        /* \"#utility.yul\":29253:29271   */\n      add\n        /* \"#utility.yul\":29245:29271   */\n      swap1\n      pop\n        /* \"#utility.yul\":29317:29326   */\n      dup2\n        /* \"#utility.yul\":29311:29315   */\n      dup2\n        /* \"#utility.yul\":29307:29327   */\n      sub\n        /* \"#utility.yul\":29303:29304   */\n      0x00\n        /* \"#utility.yul\":29292:29301   */\n      dup4\n        /* \"#utility.yul\":29288:29305   */\n      add\n        /* \"#utility.yul\":29281:29328   */\n      mstore\n        /* \"#utility.yul\":29345:29476   */\n      tag_841\n        /* \"#utility.yul\":29471:29475   */\n      dup2\n        /* \"#utility.yul\":29345:29476   */\n      tag_535\n      jump\t// in\n    tag_841:\n        /* \"#utility.yul\":29337:29476   */\n      swap1\n      pop\n        /* \"#utility.yul\":29064:29483   */\n      swap2\n      swap1\n      pop\n      jump\t// out\n        /* \"#utility.yul\":29489:29656   */\n    tag_536:\n        /* \"#utility.yul\":29629:29648   */\n      0x557365726e616d6520746f6f206c6f6e67000000000000000000000000000000\n        /* \"#utility.yul\":29625:29626   */\n      0x00\n        /* \"#utility.yul\":29617:29623   */\n      dup3\n        /* \"#utility.yul\":29613:29627   */\n      add\n        /* \"#utility.yul\":29606:29649   */\n      mstore\n        /* \"#utility.yul\":29489:29656   */\n      pop\n      jump\t// out\n        /* \"#utility.yul\":29662:30028   */\n    tag_537:\n        /* \"#utility.yul\":29804:29807   */\n      0x00\n        /* \"#utility.yul\":29825:29892   */\n      tag_844\n        /* \"#utility.yul\":29889:29891   */\n      0x11\n        /* \"#utility.yul\":29884:29887   */\n      dup4\n        /* \"#utility.yul\":29825:29892   */\n      tag_507\n      jump\t// in\n    tag_844:\n        /* \"#utility.yul\":29818:29892   */\n      swap2\n      pop\n        /* \"#utility.yul\":29901:29994   */\n      tag_845\n        /* \"#utility.yul\":29990:29993   */\n      dup3\n        /* \"#utility.yul\":29901:29994   */\n      tag_536\n      jump\t// in\n    tag_845:\n        /* \"#utility.yul\":30019:30021   */\n      0x20\n        /* \"#utility.yul\":30014:30017   */\n      dup3\n        /* \"#utility.yul\":30010:30022   */\n      add\n        /* \"#utility.yul\":30003:30022   */\n      swap1\n      pop\n        /* \"#utility.yul\":29662:30028   */\n      swap2\n      swap1\n      pop\n      jump\t// out\n        /* \"#utility.yul\":30034:30453   */\n    tag_220:\n        /* \"#utility.yul\":30200:30204   */\n      0x00\n        /* \"#utility.yul\":30238:30240   */\n      0x20\n        /* \"#utility.yul\":30227:30236   */\n      dup3\n        /* \"#utility.yul\":30223:30241   */\n      add\n        /* \"#utility.yul\":30215:30241   */\n      swap1\n      pop\n        /* \"#utility.yul\":30287:30296   */\n      dup2\n        /* \"#utility.yul\":30281:30285   */\n      dup2\n        /* \"#utility.yul\":30277:30297   */\n      sub\n        /* \"#utility.yul\":30273:30274   */\n      0x00\n        /* \"#utility.yul\":30262:30271   */\n      dup4\n        /* \"#utility.yul\":30258:30275   */\n      add\n        /* \"#utility.yul\":30251:30298   */\n      mstore\n        /* \"#utility.yul\":30315:30446   */\n      tag_847\n        /* \"#utility.yul\":30441:30445   */\n      dup2\n        /* \"#utility.yul\":30315:30446   */\n      tag_537\n      jump\t// in\n    tag_847:\n        /* \"#utility.yul\":30307:30446   */\n      swap1\n      pop\n        /* \"#utility.yul\":30034:30453   */\n      swap2\n      swap1\n      pop\n      jump\t// out\n        /* \"#utility.yul\":30459:30538   */\n    tag_538:\n        /* \"#utility.yul\":30498:30505   */\n      0x00\n        /* \"#utility.yul\":30527:30532   */\n      dup2\n        /* \"#utility.yul\":30516:30532   */\n      swap1\n      pop\n        /* \"#utility.yul\":30459:30538   */\n      swap2\n      swap1\n      pop\n      jump\t// out\n        /* \"#utility.yul\":30544:30701   */\n    tag_539:\n        /* \"#utility.yul\":30649:30694   */\n      tag_850\n        /* \"#utility.yul\":30669:30693   */\n      tag_851\n        /* \"#utility.yul\":30687:30692   */\n      dup3\n        /* \"#utility.yul\":30669:30693   */\n      tag_481\n      jump\t// in\n    tag_851:\n        /* \"#utility.yul\":30649:30694   */\n      tag_538\n      jump\t// in\n    tag_850:\n        /* \"#utility.yul\":30644:30647   */\n      dup3\n        /* \"#utility.yul\":30637:30695   */\n      mstore\n        /* \"#utility.yul\":30544:30701   */\n      pop\n      pop\n      jump\t// out\n        /* \"#utility.yul\":30707:30963   */\n    tag_223:\n        /* \"#utility.yul\":30819:30822   */\n      0x00\n        /* \"#utility.yul\":30834:30909   */\n      tag_853\n        /* \"#utility.yul\":30905:30908   */\n      dup3\n        /* \"#utility.yul\":30896:30902   */\n      dup5\n        /* \"#utility.yul\":30834:30909   */\n      tag_539\n      jump\t// in\n    tag_853:\n        /* \"#utility.yul\":30934:30936   */\n      0x20\n        /* \"#utility.yul\":30929:30932   */\n      dup3\n        /* \"#utility.yul\":30925:30937   */\n      add\n        /* \"#utility.yul\":30918:30937   */\n      swap2\n      pop\n        /* \"#utility.yul\":30954:30957   */\n      dup2\n        /* \"#utility.yul\":30947:30957   */\n      swap1\n      pop\n        /* \"#utility.yul\":30707:30963   */\n      swap3\n      swap2\n      pop\n      pop\n      jump\t// out\n        /* \"#utility.yul\":30969:31110   */\n    tag_540:\n        /* \"#utility.yul\":31018:31022   */\n      0x00\n        /* \"#utility.yul\":31041:31044   */\n      dup2\n        /* \"#utility.yul\":31033:31044   */\n      swap1\n      pop\n        /* \"#utility.yul\":31064:31067   */\n      dup2\n        /* \"#utility.yul\":31061:31062   */\n      0x00\n        /* \"#utility.yul\":31054:31068   */\n      mstore\n        /* \"#utility.yul\":31098:31102   */\n      0x20\n        /* \"#utility.yul\":31095:31096   */\n      0x00\n        /* \"#utility.yul\":31085:31103   */\n      keccak256\n        /* \"#utility.yul\":31077:31103   */\n      swap1\n      pop\n        /* \"#utility.yul\":30969:31110   */\n      swap2\n      swap1\n      pop\n      jump\t// out\n        /* \"#utility.yul\":31116:31209   */\n    tag_541:\n        /* \"#utility.yul\":31153:31159   */\n      0x00\n        /* \"#utility.yul\":31200:31202   */\n      0x20\n        /* \"#utility.yul\":31195:31197   */\n      0x1f\n        /* \"#utility.yul\":31188:31193   */\n      dup4\n        /* \"#utility.yul\":31184:31198   */\n      add\n        /* \"#utility.yul\":31180:31203   */\n      div\n        /* \"#utility.yul\":31170:31203   */\n      swap1\n      pop\n        /* \"#utility.yul\":31116:31209   */\n      swap2\n      swap1\n      pop\n      jump\t// out\n        /* \"#utility.yul\":31215:31608   */\n    tag_542:\n        /* \"#utility.yul\":31284:31290   */\n      0x00\n        /* \"#utility.yul\":31334:31335   */\n      0x08\n        /* \"#utility.yul\":31322:31332   */\n      dup4\n        /* \"#utility.yul\":31318:31336   */\n      mul\n        /* \"#utility.yul\":31357:31454   */\n      tag_857\n        /* \"#utility.yul\":31387:31453   */\n      0xffffffffffffffffffffffffffffffffffffffffffffffffffffffffffffffff\n        /* \"#utility.yul\":31376:31385   */\n      dup3\n        /* \"#utility.yul\":31357:31454   */\n      tag_523\n      jump\t// in\n    tag_857:\n        /* \"#utility.yul\":31475:31514   */\n      tag_858\n        /* \"#utility.yul\":31505:31513   */\n      dup7\n        /* \"#utility.yul\":31494:31503   */\n      dup4\n        /* \"#utility.yul\":31475:31514   */\n      tag_523\n      jump\t// in\n    tag_858:\n        /* \"#utility.yul\":31463:31514   */\n      swap6\n      pop\n        /* \"#utility.yul\":31547:31551   */\n      dup1\n        /* \"#utility.yul\":31543:31552   */\n      not\n        /* \"#utility.yul\":31536:31541   */\n      dup5\n        /* \"#utility.yul\":31532:31553   */\n      and\n        /* \"#utility.yul\":31523:31553   */\n      swap4\n      pop\n        /* \"#utility.yul\":31596:31600   */\n      dup1\n        /* \"#utility.yul\":31586:31594   */\n      dup7\n        /* \"#utility.yul\":31582:31601   */\n      and\n        /* \"#utility.yul\":31575:31580   */\n      dup5\n        /* \"#utility.yul\":31572:31602   */\n      or\n        /* \"#utility.yul\":31562:31602   */\n      swap3\n      pop\n        /* \"#utility.yul\":31291:31608   */\n      pop\n      pop\n        /* \"#utility.yul\":31215:31608   */\n      swap4\n      swap3\n      pop\n      pop\n      pop\n      jump\t// out\n        /* \"#utility.yul\":31614:31674   */\n    tag_543:\n        /* \"#utility.yul\":31642:31645   */\n      0x00\n        /* \"#utility.yul\":31663:31668   */\n      dup2\n        /* \"#utility.yul\":31656:31668   */\n      swap1\n      pop\n        /* \"#utility.yul\":31614:31674   */\n      swap2\n      swap1\n      pop\n      jump\t// out\n        /* \"#utility.yul\":31680:31822   */\n    tag_544:\n        /* \"#utility.yul\":31730:31739   */\n      0x00\n        /* \"#utility.yul\":31763:31816   */\n      tag_861\n        /* \"#utility.yul\":31781:31815   */\n      tag_862\n        /* \"#utility.yul\":31790:31814   */\n      tag_863\n        /* \"#utility.yul\":31808:31813   */\n      dup5\n        /* \"#utility.yul\":31790:31814   */\n      tag_468\n      jump\t// in\n    tag_863:\n        /* \"#utility.yul\":31781:31815   */\n      tag_543\n      jump\t// in\n    tag_862:\n        /* \"#utility.yul\":31763:31816   */\n      tag_468\n      jump\t// in\n    tag_861:\n        /* \"#utility.yul\":31750:31816   */\n      swap1\n      pop\n        /* \"#utility.yul\":31680:31822   */\n      swap2\n      swap1\n      pop\n      jump\t// out\n        /* \"#utility.yul\":31828:31903   */\n    tag_545:\n        /* \"#utility.yul\":31871:31874   */\n      0x00\n        /* \"#utility.yul\":31892:31897   */\n      dup2\n        /* \"#utility.yul\":31885:31897   */\n      swap1\n      pop\n        /* \"#utility.yul\":31828:31903   */\n      swap2\n      swap1\n      pop\n      jump\t// out\n        /* \"#utility.yul\":31909:32178   */\n    tag_546:\n        /* \"#utility.yul\":32019:32058   */\n      tag_866\n        /* \"#utility.yul\":32050:32057   */\n      dup4\n        /* \"#utility.yul\":32019:32058   */\n      tag_544\n      jump\t// in\n    tag_866:\n        /* \"#utility.yul\":32080:32171   */\n      tag_867\n        /* \"#utility.yul\":32129:32170   */\n      tag_868\n        /* \"#utility.yul\":32153:32169   */\n      dup3\n        /* \"#utility.yul\":32129:32170   */\n      tag_545\n      jump\t// in\n    tag_868:\n        /* \"#utility.yul\":32121:32127   */\n      dup5\n        /* \"#utility.yul\":32114:32118   */\n      dup5\n        /* \"#utility.yul\":32108:32119   */\n      sload\n        /* \"#utility.yul\":32080:32171   */\n      tag_542\n      jump\t// in\n    tag_867:\n        /* \"#utility.yul\":32074:32078   */\n      dup3\n        /* \"#utility.yul\":32067:32172   */\n      sstore\n        /* \"#utility.yul\":31985:32178   */\n      pop\n        /* \"#utility.yul\":31909:32178   */\n      pop\n      pop\n      pop\n      jump\t// out\n        /* \"#utility.yul\":32184:32257   */\n    tag_547:\n        /* \"#utility.yul\":32229:32232   */\n      0x00\n        /* \"#utility.yul\":32250:32251   */\n      0x00\n        /* \"#utility.yul\":32243:32251   */\n      swap1\n      pop\n        /* \"#utility.yul\":32184:32257   */\n      swap1\n      jump\t// out\n        /* \"#utility.yul\":32263:32452   */\n    tag_548:\n        /* \"#utility.yul\":32340:32372   */\n      tag_871\n      tag_547\n      jump\t// in\n    tag_871:\n        /* \"#utility.yul\":32381:32446   */\n      tag_872\n        /* \"#utility.yul\":32439:32445   */\n      dup2\n        /* \"#utility.yul\":32431:32437   */\n      dup5\n        /* \"#utility.yul\":32425:32429   */\n      dup5\n        /* \"#utility.yul\":32381:32446   */\n      tag_546\n      jump\t// in\n    tag_872:\n        /* \"#utility.yul\":32316:32452   */\n      pop\n        /* \"#utility.yul\":32263:32452   */\n      pop\n      pop\n      jump\t// out\n        /* \"#utility.yul\":32458:32644   */\n    tag_549:\n        /* \"#utility.yul\":32518:32638   */\n    tag_874:\n        /* \"#utility.yul\":32535:32538   */\n      dup2\n        /* \"#utility.yul\":32528:32533   */\n      dup2\n        /* \"#utility.yul\":32525:32539   */\n      lt\n        /* \"#utility.yul\":32518:32638   */\n      iszero\n      tag_876\n      jumpi\n        /* \"#utility.yul\":32589:32628   */\n      tag_877\n        /* \"#utility.yul\":32626:32627   */\n      0x00\n        /* \"#utility.yul\":32619:32624   */\n      dup3\n        /* \"#utility.yul\":32589:32628   */\n      tag_548\n      jump\t// in\n    tag_877:\n        /* \"#utility.yul\":32562:32563   */\n      0x01\n        /* \"#utility.yul\":32555:32560   */\n      dup2\n        /* \"#utility.yul\":32551:32564   */\n      add\n        /* \"#utility.yul\":32542:32564   */\n      swap1\n      pop\n        /* \"#utility.yul\":32518:32638   */\n      jump(tag_874)\n    tag_876:\n        /* \"#utility.yul\":32458:32644   */\n      pop\n      pop\n      jump\t// out\n        /* \"#utility.yul\":32650:33193   */\n    tag_550:\n        /* \"#utility.yul\":32751:32753   */\n      0x1f\n        /* \"#utility.yul\":32746:32749   */\n      dup3\n        /* \"#utility.yul\":32743:32754   */\n      gt\n        /* \"#utility.yul\":32740:33186   */\n      iszero\n      tag_879\n      jumpi\n        /* \"#utility.yul\":32785:32823   */\n      tag_880\n        /* \"#utility.yul\":32817:32822   */\n      dup2\n        /* \"#utility.yul\":32785:32823   */\n      tag_540\n      jump\t// in\n    tag_880:\n        /* \"#utility.yul\":32869:32898   */\n      tag_881\n        /* \"#utility.yul\":32887:32897   */\n      dup5\n        /* \"#utility.yul\":32869:32898   */\n      tag_541\n      jump\t// in\n    tag_881:\n        /* \"#utility.yul\":32859:32867   */\n      dup2\n        /* \"#utility.yul\":32855:32899   */\n      add\n        /* \"#utility.yul\":33052:33054   */\n      0x20\n        /* \"#utility.yul\":33040:33050   */\n      dup6\n        /* \"#utility.yul\":33037:33055   */\n      lt\n        /* \"#utility.yul\":33034:33083   */\n      iszero\n      tag_882\n      jumpi\n        /* \"#utility.yul\":33073:33081   */\n      dup2\n        /* \"#utility.yul\":33058:33081   */\n      swap1\n      pop\n        /* \"#utility.yul\":33034:33083   */\n    tag_882:\n        /* \"#utility.yul\":33096:33176   */\n      tag_883\n        /* \"#utility.yul\":33152:33174   */\n      tag_884\n        /* \"#utility.yul\":33170:33173   */\n      dup6\n        /* \"#utility.yul\":33152:33174   */\n      tag_541\n      jump\t// in\n    tag_884:\n        /* \"#utility.yul\":33142:33150   */\n      dup4\n        /* \"#utility.yul\":33138:33175   */\n      add\n        /* \"#utility.yul\":33125:33136   */\n      dup3\n        /* \"#utility.yul\":33096:33176   */\n      tag_549\n      jump\t// in\n    tag_883:\n        /* \"#utility.yul\":32755:33186   */\n      pop\n      pop\n        /* \"#utility.yul\":32740:33186   */\n    tag_879:\n        /* \"#utility.yul\":32650:33193   */\n      pop\n      pop\n      pop\n      jump\t// out\n        /* \"#utility.yul\":33199:33316   */\n    tag_551:\n        /* \"#utility.yul\":33253:33261   */\n      0x00\n        /* \"#utility.yul\":33303:33308   */\n      dup3\n        /* \"#utility.yul\":33297:33301   */\n      dup3\n        /* \"#utility.yul\":33293:33309   */\n      shr\n        /* \"#utility.yul\":33272:33309   */\n      swap1\n      pop\n        /* \"#utility.yul\":33199:33316   */\n      swap3\n      swap2\n      pop\n      pop\n      jump\t// out\n        /* \"#utility.yul\":33322:33491   */\n    tag_552:\n        /* \"#utility.yul\":33366:33372   */\n      0x00\n        /* \"#utility.yul\":33399:33450   */\n      tag_887\n        /* \"#utility.yul\":33447:33448   */\n      0x00\n        /* \"#utility.yul\":33443:33449   */\n      not\n        /* \"#utility.yul\":33435:33440   */\n      dup5\n        /* \"#utility.yul\":33432:33433   */\n      0x08\n        /* \"#utility.yul\":33428:33441   */\n      mul\n        /* \"#utility.yul\":33399:33450   */\n      tag_551\n      jump\t// in\n    tag_887:\n        /* \"#utility.yul\":33395:33451   */\n      not\n        /* \"#utility.yul\":33480:33484   */\n      dup1\n        /* \"#utility.yul\":33474:33478   */\n      dup4\n        /* \"#utility.yul\":33470:33485   */\n      and\n        /* \"#utility.yul\":33460:33485   */\n      swap2\n      pop\n        /* \"#utility.yul\":33373:33491   */\n      pop\n        /* \"#utility.yul\":33322:33491   */\n      swap3\n      swap2\n      pop\n      pop\n      jump\t// out\n        /* \"#utility.yul\":33496:33791   */\n    tag_553:\n        /* \"#utility.yul\":33572:33576   */\n      0x00\n        /* \"#utility.yul\":33718:33747   */\n      tag_889\n        /* \"#utility.yul\":33743:33746   */\n      dup4\n        /* \"#utility.yul\":33737:33741   */\n      dup4\n        /* \"#utility.yul\":33718:33747   */\n      tag_552\n      jump\t// in\n    tag_889:\n        /* \"#utility.yul\":33710:33747   */\n      swap2\n      pop\n        /* \"#utility.yul\":33780:33783   */\n      dup3\n        /* \"#utility.yul\":33777:33778   */\n      0x02\n        /* \"#utility.yul\":33773:33784   */\n      mul\n        /* \"#utility.yul\":33767:33771   */\n      dup3\n        /* \"#utility.yul\":33764:33785   */\n      or\n        /* \"#utility.yul\":33756:33785   */\n      swap1\n      pop\n        /* \"#utility.yul\":33496:33791   */\n      swap3\n      swap2\n      pop\n      pop\n      jump\t// out\n        /* \"#utility.yul\":33796:35191   */\n    tag_225:\n        /* \"#utility.yul\":33913:33950   */\n      tag_891\n        /* \"#utility.yul\":33946:33949   */\n      dup3\n        /* \"#utility.yul\":33913:33950   */\n      tag_492\n      jump\t// in\n    tag_891:\n        /* \"#utility.yul\":34015:34033   */\n      0xffffffffffffffff\n        /* \"#utility.yul\":34007:34013   */\n      dup2\n        /* \"#utility.yul\":34004:34034   */\n      gt\n        /* \"#utility.yul\":34001:34057   */\n      iszero\n      tag_892\n      jumpi\n        /* \"#utility.yul\":34037:34055   */\n      tag_893\n      tag_328\n      jump\t// in\n    tag_893:\n        /* \"#utility.yul\":34001:34057   */\n    tag_892:\n        /* \"#utility.yul\":34081:34119   */\n      tag_894\n        /* \"#utility.yul\":34113:34117   */\n      dup3\n        /* \"#utility.yul\":34107:34118   */\n      sload\n        /* \"#utility.yul\":34081:34119   */\n      tag_295\n      jump\t// in\n    tag_894:\n        /* \"#utility.yul\":34166:34233   */\n      tag_895\n        /* \"#utility.yul\":34226:34232   */\n      dup3\n        /* \"#utility.yul\":34218:34224   */\n      dup3\n        /* \"#utility.yul\":34212:34216   */\n      dup6\n        /* \"#utility.yul\":34166:34233   */\n      tag_550\n      jump\t// in\n    tag_895:\n        /* \"#utility.yul\":34260:34261   */\n      0x00\n        /* \"#utility.yul\":34284:34288   */\n      0x20\n        /* \"#utility.yul\":34271:34288   */\n      swap1\n      pop\n        /* \"#utility.yul\":34316:34318   */\n      0x1f\n        /* \"#utility.yul\":34308:34314   */\n      dup4\n        /* \"#utility.yul\":34305:34319   */\n      gt\n        /* \"#utility.yul\":34333:34334   */\n      0x01\n        /* \"#utility.yul\":34328:34946   */\n      dup2\n      eq\n      tag_897\n      jumpi\n        /* \"#utility.yul\":34990:34991   */\n      0x00\n        /* \"#utility.yul\":35007:35013   */\n      dup5\n        /* \"#utility.yul\":35004:35081   */\n      iszero\n      tag_898\n      jumpi\n        /* \"#utility.yul\":35056:35065   */\n      dup3\n        /* \"#utility.yul\":35051:35054   */\n      dup8\n        /* \"#utility.yul\":35047:35066   */\n      add\n        /* \"#utility.yul\":35041:35067   */\n      mload\n        /* \"#utility.yul\":35032:35067   */\n      swap1\n      pop\n        /* \"#utility.yul\":35004:35081   */\n    tag_898:\n        /* \"#utility.yul\":35107:35174   */\n      tag_899\n        /* \"#utility.yul\":35167:35173   */\n      dup6\n        /* \"#utility.yul\":35160:35165   */\n      dup3\n        /* \"#utility.yul\":35107:35174   */\n      tag_553\n      jump\t// in\n    tag_899:\n        /* \"#utility.yul\":35101:35105   */\n      dup7\n        /* \"#utility.yul\":35094:35175   */\n      sstore\n        /* \"#utility.yul\":34963:35185   */\n      pop\n        /* \"#utility.yul\":34298:35185   */\n      jump(tag_896)\n        /* \"#utility.yul\":34328:34946   */\n    tag_897:\n        /* \"#utility.yul\":34380:34384   */\n      0x1f\n        /* \"#utility.yul\":34376:34385   */\n      not\n        /* \"#utility.yul\":34368:34374   */\n      dup5\n        /* \"#utility.yul\":34364:34386   */\n      and\n        /* \"#utility.yul\":34414:34451   */\n      tag_900\n        /* \"#utility.yul\":34446:34450   */\n      dup7\n        /* \"#utility.yul\":34414:34451   */\n      tag_540\n      jump\t// in\n    tag_900:\n        /* \"#utility.yul\":34473:34474   */\n      0x00\n        /* \"#utility.yul\":34487:34695   */\n    tag_901:\n        /* \"#utility.yul\":34501:34508   */\n      dup3\n        /* \"#utility.yul\":34498:34499   */\n      dup2\n        /* \"#utility.yul\":34495:34509   */\n      lt\n        /* \"#utility.yul\":34487:34695   */\n      iszero\n      tag_903\n      jumpi\n        /* \"#utility.yul\":34580:34589   */\n      dup5\n        /* \"#utility.yul\":34575:34578   */\n      dup10\n        /* \"#utility.yul\":34571:34590   */\n      add\n        /* \"#utility.yul\":34565:34591   */\n      mload\n        /* \"#utility.yul\":34557:34563   */\n      dup3\n        /* \"#utility.yul\":34550:34592   */\n      sstore\n        /* \"#utility.yul\":34631:34632   */\n      0x01\n        /* \"#utility.yul\":34623:34629   */\n      dup3\n        /* \"#utility.yul\":34619:34633   */\n      add\n        /* \"#utility.yul\":34609:34633   */\n      swap2\n      pop\n        /* \"#utility.yul\":34678:34680   */\n      0x20\n        /* \"#utility.yul\":34667:34676   */\n      dup6\n        /* \"#utility.yul\":34663:34681   */\n      add\n        /* \"#utility.yul\":34650:34681   */\n      swap5\n      pop\n        /* \"#utility.yul\":34524:34528   */\n      0x20\n        /* \"#utility.yul\":34521:34522   */\n      dup2\n        /* \"#utility.yul\":34517:34529   */\n      add\n        /* \"#utility.yul\":34512:34529   */\n      swap1\n      pop\n        /* \"#utility.yul\":34487:34695   */\n      jump(tag_901)\n    tag_903:\n        /* \"#utility.yul\":34723:34729   */\n      dup7\n        /* \"#utility.yul\":34714:34721   */\n      dup4\n        /* \"#utility.yul\":34711:34730   */\n      lt\n        /* \"#utility.yul\":34708:34887   */\n      iszero\n      tag_904\n      jumpi\n        /* \"#utility.yul\":34781:34790   */\n      dup5\n        /* \"#utility.yul\":34776:34779   */\n      dup10\n        /* \"#utility.yul\":34772:34791   */\n      add\n        /* \"#utility.yul\":34766:34792   */\n      mload\n        /* \"#utility.yul\":34824:34872   */\n      tag_905\n        /* \"#utility.yul\":34866:34870   */\n      0x1f\n        /* \"#utility.yul\":34858:34864   */\n      dup10\n        /* \"#utility.yul\":34854:34871   */\n      and\n        /* \"#utility.yul\":34843:34852   */\n      dup3\n        /* \"#utility.yul\":34824:34872   */\n      tag_552\n      jump\t// in\n    tag_905:\n        /* \"#utility.yul\":34816:34822   */\n      dup4\n        /* \"#utility.yul\":34809:34873   */\n      sstore\n        /* \"#utility.yul\":34731:34887   */\n      pop\n        /* \"#utility.yul\":34708:34887   */\n    tag_904:\n        /* \"#utility.yul\":34933:34934   */\n      0x01\n        /* \"#utility.yul\":34929:34930   */\n      0x02\n        /* \"#utility.yul\":34921:34927   */\n      dup9\n        /* \"#utility.yul\":34917:34931   */\n      mul\n        /* \"#utility.yul\":34913:34935   */\n      add\n        /* \"#utility.yul\":34907:34911   */\n      dup9\n        /* \"#utility.yul\":34900:34936   */\n      sstore\n        /* \"#utility.yul\":34335:34946   */\n      pop\n      pop\n      pop\n        /* \"#utility.yul\":34298:35185   */\n    tag_896:\n      pop\n        /* \"#utility.yul\":33888:35191   */\n      pop\n      pop\n      pop\n        /* \"#utility.yul\":33796:35191   */\n      pop\n      pop\n      jump\t// out\n        /* \"#utility.yul\":35197:35620   */\n    tag_229:\n        /* \"#utility.yul\":35338:35342   */\n      0x00\n        /* \"#utility.yul\":35376:35378   */\n      0x40\n        /* \"#utility.yul\":35365:35374   */\n      dup3\n        /* \"#utility.yul\":35361:35379   */\n      add\n        /* \"#utility.yul\":35353:35379   */\n      swap1\n      pop\n        /* \"#utility.yul\":35425:35434   */\n      dup2\n        /* \"#utility.yul\":35419:35423   */\n      dup2\n        /* \"#utility.yul\":35415:35435   */\n      sub\n        /* \"#utility.yul\":35411:35412   */\n      0x00\n        /* \"#utility.yul\":35400:35409   */\n      dup4\n        /* \"#utility.yul\":35396:35413   */\n      add\n        /* \"#utility.yul\":35389:35436   */\n      mstore\n        /* \"#utility.yul\":35453:35531   */\n      tag_907\n        /* \"#utility.yul\":35526:35530   */\n      dup2\n        /* \"#utility.yul\":35517:35523   */\n      dup6\n        /* \"#utility.yul\":35453:35531   */\n      tag_508\n      jump\t// in\n    tag_907:\n        /* \"#utility.yul\":35445:35531   */\n      swap1\n      pop\n        /* \"#utility.yul\":35541:35613   */\n      tag_908\n        /* \"#utility.yul\":35609:35611   */\n      0x20\n        /* \"#utility.yul\":35598:35607   */\n      dup4\n        /* \"#utility.yul\":35594:35612   */\n      add\n        /* \"#utility.yul\":35585:35591   */\n      dup5\n        /* \"#utility.yul\":35541:35613   */\n      tag_469\n      jump\t// in\n    tag_908:\n        /* \"#utility.yul\":35197:35620   */\n      swap4\n      swap3\n      pop\n      pop\n      pop\n      jump\t// out\n        /* \"#utility.yul\":35626:35795   */\n    tag_554:\n        /* \"#utility.yul\":35766:35787   */\n      0x546f6b656e206e6f7420737570706f7274656400000000000000000000000000\n        /* \"#utility.yul\":35762:35763   */\n      0x00\n        /* \"#utility.yul\":35754:35760   */\n      dup3\n        /* \"#utility.yul\":35750:35764   */\n      add\n        /* \"#utility.yul\":35743:35788   */\n      mstore\n        /* \"#utility.yul\":35626:35795   */\n      pop\n      jump\t// out\n        /* \"#utility.yul\":35801:36167   */\n    tag_555:\n        /* \"#utility.yul\":35943:35946   */\n      0x00\n        /* \"#utility.yul\":35964:36031   */\n      tag_911\n        /* \"#utility.yul\":36028:36030   */\n      0x13\n        /* \"#utility.yul\":36023:36026   */\n      dup4\n        /* \"#utility.yul\":35964:36031   */\n      tag_507\n      jump\t// in\n    tag_911:\n        /* \"#utility.yul\":35957:36031   */\n      swap2\n      pop\n        /* \"#utility.yul\":36040:36133   */\n      tag_912\n        /* \"#utility.yul\":36129:36132   */\n      dup3\n        /* \"#utility.yul\":36040:36133   */\n      tag_554\n      jump\t// in\n    tag_912:\n        /* \"#utility.yul\":36158:36160   */\n      0x20\n        /* \"#utility.yul\":36153:36156   */\n      dup3\n        /* \"#utility.yul\":36149:36161   */\n      add\n        /* \"#utility.yul\":36142:36161   */\n      swap1\n      pop\n        /* \"#utility.yul\":35801:36167   */\n      swap2\n      swap1\n      pop\n      jump\t// out\n        /* \"#utility.yul\":36173:36592   */\n    tag_242:\n        /* \"#utility.yul\":36339:36343   */\n      0x00\n        /* \"#utility.yul\":36377:36379   */\n      0x20\n        /* \"#utility.yul\":36366:36375   */\n      dup3\n        /* \"#utility.yul\":36362:36380   */\n      add\n        /* \"#utility.yul\":36354:36380   */\n      swap1\n      pop\n        /* \"#utility.yul\":36426:36435   */\n      dup2\n        /* \"#utility.yul\":36420:36424   */\n      dup2\n        /* \"#utility.yul\":36416:36436   */\n      sub\n        /* \"#utility.yul\":36412:36413   */\n      0x00\n        /* \"#utility.yul\":36401:36410   */\n      dup4\n        /* \"#utility.yul\":36397:36414   */\n      add\n        /* \"#utility.yul\":36390:36437   */\n      mstore\n        /* \"#utility.yul\":36454:36585   */\n      tag_914\n        /* \"#utility.yul\":36580:36584   */\n      dup2\n        /* \"#utility.yul\":36454:36585   */\n      tag_555\n      jump\t// in\n    tag_914:\n        /* \"#utility.yul\":36446:36585   */\n      swap1\n      pop\n        /* \"#utility.yul\":36173:36592   */\n      swap2\n      swap1\n      pop\n      jump\t// out\n        /* \"#utility.yul\":36598:36777   */\n    tag_556:\n        /* \"#utility.yul\":36738:36769   */\n      0x416d6f756e74206d7573742062652067726561746572207468616e2030000000\n        /* \"#utility.yul\":36734:36735   */\n      0x00\n        /* \"#utility.yul\":36726:36732   */\n      dup3\n        /* \"#utility.yul\":36722:36736   */\n      add\n        /* \"#utility.yul\":36715:36770   */\n      mstore\n        /* \"#utility.yul\":36598:36777   */\n      pop\n      jump\t// out\n        /* \"#utility.yul\":36783:37149   */\n    tag_557:\n        /* \"#utility.yul\":36925:36928   */\n      0x00\n        /* \"#utility.yul\":36946:37013   */\n      tag_917\n        /* \"#utility.yul\":37010:37012   */\n      0x1d\n        /* \"#utility.yul\":37005:37008   */\n      dup4\n        /* \"#utility.yul\":36946:37013   */\n      tag_507\n      jump\t// in\n    tag_917:\n        /* \"#utility.yul\":36939:37013   */\n      swap2\n      pop\n        /* \"#utility.yul\":37022:37115   */\n      tag_918\n        /* \"#utility.yul\":37111:37114   */\n      dup3\n        /* \"#utility.yul\":37022:37115   */\n      tag_556\n      jump\t// in\n    tag_918:\n        /* \"#utility.yul\":37140:37142   */\n      0x20\n        /* \"#utility.yul\":37135:37138   */\n      dup3\n        /* \"#utility.yul\":37131:37143   */\n      add\n        /* \"#utility.yul\":37124:37143   */\n      swap1\n      pop\n        /* \"#utility.yul\":36783:37149   */\n      swap2\n      swap1\n      pop\n      jump\t// out\n        /* \"#utility.yul\":37155:37574   */\n    tag_245:\n        /* \"#utility.yul\":37321:37325   */\n      0x00\n        /* \"#utility.yul\":37359:37361   */\n      0x20\n        /* \"#utility.yul\":37348:37357   */\n      dup3\n        /* \"#utility.yul\":37344:37362   */\n      add\n        /* \"#utility.yul\":37336:37362   */\n      swap1\n      pop\n        /* \"#utility.yul\":37408:37417   */\n      dup2\n        /* \"#utility.yul\":37402:37406   */\n      dup2\n        /* \"#utility.yul\":37398:37418   */\n      sub\n        /* \"#utility.yul\":37394:37395   */\n      0x00\n        /* \"#utility.yul\":37383:37392   */\n      dup4\n        /* \"#utility.yul\":37379:37396   */\n      add\n        /* \"#utility.yul\":37372:37419   */\n      mstore\n        /* \"#utility.yul\":37436:37567   */\n      tag_920\n        /* \"#utility.yul\":37562:37566   */\n      dup2\n        /* \"#utility.yul\":37436:37567   */\n      tag_557\n      jump\t// in\n    tag_920:\n        /* \"#utility.yul\":37428:37567   */\n      swap1\n      pop\n        /* \"#utility.yul\":37155:37574   */\n      swap2\n      swap1\n      pop\n      jump\t// out\n        /* \"#utility.yul\":37580:37800   */\n    tag_558:\n        /* \"#utility.yul\":37720:37754   */\n      0x496e73756666696369656e7420616c6c6f77616e63652e2043757272656e743a\n        /* \"#utility.yul\":37716:37717   */\n      0x00\n        /* \"#utility.yul\":37708:37714   */\n      dup3\n        /* \"#utility.yul\":37704:37718   */\n      add\n        /* \"#utility.yul\":37697:37755   */\n      mstore\n        /* \"#utility.yul\":37789:37792   */\n      0x2000000000000000000000000000000000000000000000000000000000000000\n        /* \"#utility.yul\":37784:37786   */\n      0x20\n        /* \"#utility.yul\":37776:37782   */\n      dup3\n        /* \"#utility.yul\":37772:37787   */\n      add\n        /* \"#utility.yul\":37765:37793   */\n      mstore\n        /* \"#utility.yul\":37580:37800   */\n      pop\n      jump\t// out\n        /* \"#utility.yul\":37806:38208   */\n    tag_559:\n        /* \"#utility.yul\":37966:37969   */\n      0x00\n        /* \"#utility.yul\":37987:38072   */\n      tag_923\n        /* \"#utility.yul\":38069:38071   */\n      0x21\n        /* \"#utility.yul\":38064:38067   */\n      dup4\n        /* \"#utility.yul\":37987:38072   */\n      tag_526\n      jump\t// in\n    tag_923:\n        /* \"#utility.yul\":37980:38072   */\n      swap2\n      pop\n        /* \"#utility.yul\":38081:38174   */\n      tag_924\n        /* \"#utility.yul\":38170:38173   */\n      dup3\n        /* \"#utility.yul\":38081:38174   */\n      tag_558\n      jump\t// in\n    tag_924:\n        /* \"#utility.yul\":38199:38201   */\n      0x21\n        /* \"#utility.yul\":38194:38197   */\n      dup3\n        /* \"#utility.yul\":38190:38202   */\n      add\n        /* \"#utility.yul\":38183:38202   */\n      swap1\n      pop\n        /* \"#utility.yul\":37806:38208   */\n      swap2\n      swap1\n      pop\n      jump\t// out\n        /* \"#utility.yul\":38214:38376   */\n    tag_560:\n        /* \"#utility.yul\":38354:38368   */\n      0x2c2052657175697265643a200000000000000000000000000000000000000000\n        /* \"#utility.yul\":38350:38351   */\n      0x00\n        /* \"#utility.yul\":38342:38348   */\n      dup3\n        /* \"#utility.yul\":38338:38352   */\n      add\n        /* \"#utility.yul\":38331:38369   */\n      mstore\n        /* \"#utility.yul\":38214:38376   */\n      pop\n      jump\t// out\n        /* \"#utility.yul\":38382:38784   */\n    tag_561:\n        /* \"#utility.yul\":38542:38545   */\n      0x00\n        /* \"#utility.yul\":38563:38648   */\n      tag_927\n        /* \"#utility.yul\":38645:38647   */\n      0x0c\n        /* \"#utility.yul\":38640:38643   */\n      dup4\n        /* \"#utility.yul\":38563:38648   */\n      tag_526\n      jump\t// in\n    tag_927:\n        /* \"#utility.yul\":38556:38648   */\n      swap2\n      pop\n        /* \"#utility.yul\":38657:38750   */\n      tag_928\n        /* \"#utility.yul\":38746:38749   */\n      dup3\n        /* \"#utility.yul\":38657:38750   */\n      tag_560\n      jump\t// in\n    tag_928:\n        /* \"#utility.yul\":38775:38777   */\n      0x0c\n        /* \"#utility.yul\":38770:38773   */\n      dup3\n        /* \"#utility.yul\":38766:38778   */\n      add\n        /* \"#utility.yul\":38759:38778   */\n      swap1\n      pop\n        /* \"#utility.yul\":38382:38784   */\n      swap2\n      swap1\n      pop\n      jump\t// out\n        /* \"#utility.yul\":38790:39757   */\n    tag_254:\n        /* \"#utility.yul\":39172:39175   */\n      0x00\n        /* \"#utility.yul\":39194:39342   */\n      tag_930\n        /* \"#utility.yul\":39338:39341   */\n      dup3\n        /* \"#utility.yul\":39194:39342   */\n      tag_559\n      jump\t// in\n    tag_930:\n        /* \"#utility.yul\":39187:39342   */\n      swap2\n      pop\n        /* \"#utility.yul\":39359:39454   */\n      tag_931\n        /* \"#utility.yul\":39450:39453   */\n      dup3\n        /* \"#utility.yul\":39441:39447   */\n      dup6\n        /* \"#utility.yul\":39359:39454   */\n      tag_527\n      jump\t// in\n    tag_931:\n        /* \"#utility.yul\":39352:39454   */\n      swap2\n      pop\n        /* \"#utility.yul\":39471:39619   */\n      tag_932\n        /* \"#utility.yul\":39615:39618   */\n      dup3\n        /* \"#utility.yul\":39471:39619   */\n      tag_561\n      jump\t// in\n    tag_932:\n        /* \"#utility.yul\":39464:39619   */\n      swap2\n      pop\n        /* \"#utility.yul\":39636:39731   */\n      tag_933\n        /* \"#utility.yul\":39727:39730   */\n      dup3\n        /* \"#utility.yul\":39718:39724   */\n      dup5\n        /* \"#utility.yul\":39636:39731   */\n      tag_527\n      jump\t// in\n    tag_933:\n        /* \"#utility.yul\":39629:39731   */\n      swap2\n      pop\n        /* \"#utility.yul\":39748:39751   */\n      dup2\n        /* \"#utility.yul\":39741:39751   */\n      swap1\n      pop\n        /* \"#utility.yul\":38790:39757   */\n      swap4\n      swap3\n      pop\n      pop\n      pop\n      jump\t// out\n        /* \"#utility.yul\":39763:40076   */\n    tag_257:\n        /* \"#utility.yul\":39876:39880   */\n      0x00\n        /* \"#utility.yul\":39914:39916   */\n      0x20\n        /* \"#utility.yul\":39903:39912   */\n      dup3\n        /* \"#utility.yul\":39899:39917   */\n      add\n        /* \"#utility.yul\":39891:39917   */\n      swap1\n      pop\n        /* \"#utility.yul\":39963:39972   */\n      dup2\n        /* \"#utility.yul\":39957:39961   */\n      dup2\n        /* \"#utility.yul\":39953:39973   */\n      sub\n        /* \"#utility.yul\":39949:39950   */\n      0x00\n        /* \"#utility.yul\":39938:39947   */\n      dup4\n        /* \"#utility.yul\":39934:39951   */\n      add\n        /* \"#utility.yul\":39927:39974   */\n      mstore\n        /* \"#utility.yul\":39991:40069   */\n      tag_935\n        /* \"#utility.yul\":40064:40068   */\n      dup2\n        /* \"#utility.yul\":40055:40061   */\n      dup5\n        /* \"#utility.yul\":39991:40069   */\n      tag_508\n      jump\t// in\n    tag_935:\n        /* \"#utility.yul\":39983:40069   */\n      swap1\n      pop\n        /* \"#utility.yul\":39763:40076   */\n      swap3\n      swap2\n      pop\n      pop\n      jump\t// out\n        /* \"#utility.yul\":40082:40306   */\n    tag_562:\n        /* \"#utility.yul\":40222:40256   */\n      0x496e73756666696369656e7420746f6b656e2062616c616e63652e2043757272\n        /* \"#utility.yul\":40218:40219   */\n      0x00\n        /* \"#utility.yul\":40210:40216   */\n      dup3\n        /* \"#utility.yul\":40206:40220   */\n      add\n        /* \"#utility.yul\":40199:40257   */\n      mstore\n        /* \"#utility.yul\":40291:40298   */\n      0x656e743a20000000000000000000000000000000000000000000000000000000\n        /* \"#utility.yul\":40286:40288   */\n      0x20\n        /* \"#utility.yul\":40278:40284   */\n      dup3\n        /* \"#utility.yul\":40274:40289   */\n      add\n        /* \"#utility.yul\":40267:40299   */\n      mstore\n        /* \"#utility.yul\":40082:40306   */\n      pop\n      jump\t// out\n        /* \"#utility.yul\":40312:40714   */\n    tag_563:\n        /* \"#utility.yul\":40472:40475   */\n      0x00\n        /* \"#utility.yul\":40493:40578   */\n      tag_938\n        /* \"#utility.yul\":40575:40577   */\n      0x25\n        /* \"#utility.yul\":40570:40573   */\n      dup4\n        /* \"#utility.yul\":40493:40578   */\n      tag_526\n      jump\t// in\n    tag_938:\n        /* \"#utility.yul\":40486:40578   */\n      swap2\n      pop\n        /* \"#utility.yul\":40587:40680   */\n      tag_939\n        /* \"#utility.yul\":40676:40679   */\n      dup3\n        /* \"#utility.yul\":40587:40680   */\n      tag_562\n      jump\t// in\n    tag_939:\n        /* \"#utility.yul\":40705:40707   */\n      0x25\n        /* \"#utility.yul\":40700:40703   */\n      dup3\n        /* \"#utility.yul\":40696:40708   */\n      add\n        /* \"#utility.yul\":40689:40708   */\n      swap1\n      pop\n        /* \"#utility.yul\":40312:40714   */\n      swap2\n      swap1\n      pop\n      jump\t// out\n        /* \"#utility.yul\":40720:41687   */\n    tag_265:\n        /* \"#utility.yul\":41102:41105   */\n      0x00\n        /* \"#utility.yul\":41124:41272   */\n      tag_941\n        /* \"#utility.yul\":41268:41271   */\n      dup3\n        /* \"#utility.yul\":41124:41272   */\n      tag_563\n      jump\t// in\n    tag_941:\n        /* \"#utility.yul\":41117:41272   */\n      swap2\n      pop\n        /* \"#utility.yul\":41289:41384   */\n      tag_942\n        /* \"#utility.yul\":41380:41383   */\n      dup3\n        /* \"#utility.yul\":41371:41377   */\n      dup6\n        /* \"#utility.yul\":41289:41384   */\n      tag_527\n      jump\t// in\n    tag_942:\n        /* \"#utility.yul\":41282:41384   */\n      swap2\n      pop\n        /* \"#utility.yul\":41401:41549   */\n      tag_943\n        /* \"#utility.yul\":41545:41548   */\n      dup3\n        /* \"#utility.yul\":41401:41549   */\n      tag_561\n      jump\t// in\n    tag_943:\n        /* \"#utility.yul\":41394:41549   */\n      swap2\n      pop\n        /* \"#utility.yul\":41566:41661   */\n      tag_944\n        /* \"#utility.yul\":41657:41660   */\n      dup3\n        /* \"#utility.yul\":41648:41654   */\n      dup5\n        /* \"#utility.yul\":41566:41661   */\n      tag_527\n      jump\t// in\n    tag_944:\n        /* \"#utility.yul\":41559:41661   */\n      swap2\n      pop\n        /* \"#utility.yul\":41678:41681   */\n      dup2\n        /* \"#utility.yul\":41671:41681   */\n      swap1\n      pop\n        /* \"#utility.yul\":40720:41687   */\n      swap4\n      swap3\n      pop\n      pop\n      pop\n      jump\t// out\n        /* \"#utility.yul\":41693:42135   */\n    tag_269:\n        /* \"#utility.yul\":41842:41846   */\n      0x00\n        /* \"#utility.yul\":41880:41882   */\n      0x60\n        /* \"#utility.yul\":41869:41878   */\n      dup3\n        /* \"#utility.yul\":41865:41883   */\n      add\n        /* \"#utility.yul\":41857:41883   */\n      swap1\n      pop\n        /* \"#utility.yul\":41893:41964   */\n      tag_946\n        /* \"#utility.yul\":41961:41962   */\n      0x00\n        /* \"#utility.yul\":41950:41959   */\n      dup4\n        /* \"#utility.yul\":41946:41963   */\n      add\n        /* \"#utility.yul\":41937:41943   */\n      dup7\n        /* \"#utility.yul\":41893:41964   */\n      tag_506\n      jump\t// in\n    tag_946:\n        /* \"#utility.yul\":41974:42046   */\n      tag_947\n        /* \"#utility.yul\":42042:42044   */\n      0x20\n        /* \"#utility.yul\":42031:42040   */\n      dup4\n        /* \"#utility.yul\":42027:42045   */\n      add\n        /* \"#utility.yul\":42018:42024   */\n      dup6\n        /* \"#utility.yul\":41974:42046   */\n      tag_506\n      jump\t// in\n    tag_947:\n        /* \"#utility.yul\":42056:42128   */\n      tag_948\n        /* \"#utility.yul\":42124:42126   */\n      0x40\n        /* \"#utility.yul\":42113:42122   */\n      dup4\n        /* \"#utility.yul\":42109:42127   */\n      add\n        /* \"#utility.yul\":42100:42106   */\n      dup5\n        /* \"#utility.yul\":42056:42128   */\n      tag_469\n      jump\t// in\n    tag_948:\n        /* \"#utility.yul\":41693:42135   */\n      swap5\n      swap4\n      pop\n      pop\n      pop\n      pop\n      jump\t// out\n        /* \"#utility.yul\":42141:42257   */\n    tag_564:\n        /* \"#utility.yul\":42211:42232   */\n      tag_950\n        /* \"#utility.yul\":42226:42231   */\n      dup2\n        /* \"#utility.yul\":42211:42232   */\n      tag_470\n      jump\t// in\n    tag_950:\n        /* \"#utility.yul\":42204:42209   */\n      dup2\n        /* \"#utility.yul\":42201:42233   */\n      eq\n        /* \"#utility.yul\":42191:42251   */\n      tag_951\n      jumpi\n        /* \"#utility.yul\":42247:42248   */\n      0x00\n        /* \"#utility.yul\":42244:42245   */\n      0x00\n        /* \"#utility.yul\":42237:42249   */\n      revert\n        /* \"#utility.yul\":42191:42251   */\n    tag_951:\n        /* \"#utility.yul\":42141:42257   */\n      pop\n      jump\t// out\n        /* \"#utility.yul\":42263:42400   */\n    tag_565:\n        /* \"#utility.yul\":42317:42322   */\n      0x00\n        /* \"#utility.yul\":42348:42354   */\n      dup2\n        /* \"#utility.yul\":42342:42355   */\n      mload\n        /* \"#utility.yul\":42333:42355   */\n      swap1\n      pop\n        /* \"#utility.yul\":42364:42394   */\n      tag_953\n        /* \"#utility.yul\":42388:42393   */\n      dup2\n        /* \"#utility.yul\":42364:42394   */\n      tag_564\n      jump\t// in\n    tag_953:\n        /* \"#utility.yul\":42263:42400   */\n      swap3\n      swap2\n      pop\n      pop\n      jump\t// out\n        /* \"#utility.yul\":42406:42751   */\n    tag_273:\n        /* \"#utility.yul\":42473:42479   */\n      0x00\n        /* \"#utility.yul\":42522:42524   */\n      0x20\n        /* \"#utility.yul\":42510:42519   */\n      dup3\n        /* \"#utility.yul\":42501:42508   */\n      dup5\n        /* \"#utility.yul\":42497:42520   */\n      sub\n        /* \"#utility.yul\":42493:42525   */\n      slt\n        /* \"#utility.yul\":42490:42609   */\n      iszero\n      tag_955\n      jumpi\n        /* \"#utility.yul\":42528:42607   */\n      tag_956\n      tag_462\n      jump\t// in\n    tag_956:\n        /* \"#utility.yul\":42490:42609   */\n    tag_955:\n        /* \"#utility.yul\":42648:42649   */\n      0x00\n        /* \"#utility.yul\":42673:42734   */\n      tag_957\n        /* \"#utility.yul\":42726:42733   */\n      dup5\n        /* \"#utility.yul\":42717:42723   */\n      dup3\n        /* \"#utility.yul\":42706:42715   */\n      dup6\n        /* \"#utility.yul\":42702:42724   */\n      add\n        /* \"#utility.yul\":42673:42734   */\n      tag_565\n      jump\t// in\n    tag_957:\n        /* \"#utility.yul\":42663:42734   */\n      swap2\n      pop\n        /* \"#utility.yul\":42619:42744   */\n      pop\n        /* \"#utility.yul\":42406:42751   */\n      swap3\n      swap2\n      pop\n      pop\n      jump\t// out\n        /* \"#utility.yul\":42757:42922   */\n    tag_566:\n        /* \"#utility.yul\":42897:42914   */\n      0x5472616e73666572206661696c65640000000000000000000000000000000000\n        /* \"#utility.yul\":42893:42894   */\n      0x00\n        /* \"#utility.yul\":42885:42891   */\n      dup3\n        /* \"#utility.yul\":42881:42895   */\n      add\n        /* \"#utility.yul\":42874:42915   */\n      mstore\n        /* \"#utility.yul\":42757:42922   */\n      pop\n      jump\t// out\n        /* \"#utility.yul\":42928:43294   */\n    tag_567:\n        /* \"#utility.yul\":43070:43073   */\n      0x00\n        /* \"#utility.yul\":43091:43158   */\n      tag_960\n        /* \"#utility.yul\":43155:43157   */\n      0x0f\n        /* \"#utility.yul\":43150:43153   */\n      dup4\n        /* \"#utility.yul\":43091:43158   */\n      tag_507\n      jump\t// in\n    tag_960:\n        /* \"#utility.yul\":43084:43158   */\n      swap2\n      pop\n        /* \"#utility.yul\":43167:43260   */\n      tag_961\n        /* \"#utility.yul\":43256:43259   */\n      dup3\n        /* \"#utility.yul\":43167:43260   */\n      tag_566\n      jump\t// in\n    tag_961:\n        /* \"#utility.yul\":43285:43287   */\n      0x20\n        /* \"#utility.yul\":43280:43283   */\n      dup3\n        /* \"#utility.yul\":43276:43288   */\n      add\n        /* \"#utility.yul\":43269:43288   */\n      swap1\n      pop\n        /* \"#utility.yul\":42928:43294   */\n      swap2\n      swap1\n      pop\n      jump\t// out\n        /* \"#utility.yul\":43300:43719   */\n    tag_276:\n        /* \"#utility.yul\":43466:43470   */\n      0x00\n        /* \"#utility.yul\":43504:43506   */\n      0x20\n        /* \"#utility.yul\":43493:43502   */\n      dup3\n        /* \"#utility.yul\":43489:43507   */\n      add\n        /* \"#utility.yul\":43481:43507   */\n      swap1\n      pop\n        /* \"#utility.yul\":43553:43562   */\n      dup2\n        /* \"#utility.yul\":43547:43551   */\n      dup2\n        /* \"#utility.yul\":43543:43563   */\n      sub\n        /* \"#utility.yul\":43539:43540   */\n      0x00\n        /* \"#utility.yul\":43528:43537   */\n      dup4\n        /* \"#utility.yul\":43524:43541   */\n      add\n        /* \"#utility.yul\":43517:43564   */\n      mstore\n        /* \"#utility.yul\":43581:43712   */\n      tag_963\n        /* \"#utility.yul\":43707:43711   */\n      dup2\n        /* \"#utility.yul\":43581:43712   */\n      tag_567\n      jump\t// in\n    tag_963:\n        /* \"#utility.yul\":43573:43712   */\n      swap1\n      pop\n        /* \"#utility.yul\":43300:43719   */\n      swap2\n      swap1\n      pop\n      jump\t// out\n        /* \"#utility.yul\":43725:43905   */\n    tag_568:\n        /* \"#utility.yul\":43773:43850   */\n      0x4e487b7100000000000000000000000000000000000000000000000000000000\n        /* \"#utility.yul\":43770:43771   */\n      0x00\n        /* \"#utility.yul\":43763:43851   */\n      mstore\n        /* \"#utility.yul\":43870:43874   */\n      0x11\n        /* \"#utility.yul\":43867:43868   */\n      0x04\n        /* \"#utility.yul\":43860:43875   */\n      mstore\n        /* \"#utility.yul\":43894:43898   */\n      0x24\n        /* \"#utility.yul\":43891:43892   */\n      0x00\n        /* \"#utility.yul\":43884:43899   */\n      revert\n        /* \"#utility.yul\":43911:44102   */\n    tag_280:\n        /* \"#utility.yul\":43951:43954   */\n      0x00\n        /* \"#utility.yul\":43970:43990   */\n      tag_966\n        /* \"#utility.yul\":43988:43989   */\n      dup3\n        /* \"#utility.yul\":43970:43990   */\n      tag_468\n      jump\t// in\n    tag_966:\n        /* \"#utility.yul\":43965:43990   */\n      swap2\n      pop\n        /* \"#utility.yul\":44004:44024   */\n      tag_967\n        /* \"#utility.yul\":44022:44023   */\n      dup4\n        /* \"#utility.yul\":44004:44024   */\n      tag_468\n      jump\t// in\n    tag_967:\n        /* \"#utility.yul\":43999:44024   */\n      swap3\n      pop\n        /* \"#utility.yul\":44047:44048   */\n      dup3\n        /* \"#utility.yul\":44044:44045   */\n      dup3\n        /* \"#utility.yul\":44040:44049   */\n      add\n        /* \"#utility.yul\":44033:44049   */\n      swap1\n      pop\n        /* \"#utility.yul\":44068:44071   */\n      dup1\n        /* \"#utility.yul\":44065:44066   */\n      dup3\n        /* \"#utility.yul\":44062:44072   */\n      gt\n        /* \"#utility.yul\":44059:44095   */\n      iszero\n      tag_968\n      jumpi\n        /* \"#utility.yul\":44075:44093   */\n      tag_969\n      tag_568\n      jump\t// in\n    tag_969:\n        /* \"#utility.yul\":44059:44095   */\n    tag_968:\n        /* \"#utility.yul\":43911:44102   */\n      swap3\n      swap2\n      pop\n      pop\n      jump\t// out\n        /* \"#utility.yul\":44108:44341   */\n    tag_283:\n        /* \"#utility.yul\":44147:44150   */\n      0x00\n        /* \"#utility.yul\":44170:44194   */\n      tag_971\n        /* \"#utility.yul\":44188:44193   */\n      dup3\n        /* \"#utility.yul\":44170:44194   */\n      tag_468\n      jump\t// in\n    tag_971:\n        /* \"#utility.yul\":44161:44194   */\n      swap2\n      pop\n        /* \"#utility.yul\":44216:44282   */\n      0xffffffffffffffffffffffffffffffffffffffffffffffffffffffffffffffff\n        /* \"#utility.yul\":44209:44214   */\n      dup3\n        /* \"#utility.yul\":44206:44283   */\n      sub\n        /* \"#utility.yul\":44203:44306   */\n      tag_972\n      jumpi\n        /* \"#utility.yul\":44286:44304   */\n      tag_973\n      tag_568\n      jump\t// in\n    tag_973:\n        /* \"#utility.yul\":44203:44306   */\n    tag_972:\n        /* \"#utility.yul\":44333:44334   */\n      0x01\n        /* \"#utility.yul\":44326:44331   */\n      dup3\n        /* \"#utility.yul\":44322:44335   */\n      add\n        /* \"#utility.yul\":44315:44335   */\n      swap1\n      pop\n        /* \"#utility.yul\":44108:44341   */\n      swap2\n      swap1\n      pop\n      jump\t// out\n        /* \"#utility.yul\":44347:44679   */\n    tag_285:\n        /* \"#utility.yul\":44468:44472   */\n      0x00\n        /* \"#utility.yul\":44506:44508   */\n      0x40\n        /* \"#utility.yul\":44495:44504   */\n      dup3\n        /* \"#utility.yul\":44491:44509   */\n      add\n        /* \"#utility.yul\":44483:44509   */\n      swap1\n      pop\n        /* \"#utility.yul\":44519:44590   */\n      tag_975\n        /* \"#utility.yul\":44587:44588   */\n      0x00\n        /* \"#utility.yul\":44576:44585   */\n      dup4\n        /* \"#utility.yul\":44572:44589   */\n      add\n        /* \"#utility.yul\":44563:44569   */\n      dup6\n        /* \"#utility.yul\":44519:44590   */\n      tag_469\n      jump\t// in\n    tag_975:\n        /* \"#utility.yul\":44600:44672   */\n      tag_976\n        /* \"#utility.yul\":44668:44670   */\n      0x20\n        /* \"#utility.yul\":44657:44666   */\n      dup4\n        /* \"#utility.yul\":44653:44671   */\n      add\n        /* \"#utility.yul\":44644:44650   */\n      dup5\n        /* \"#utility.yul\":44600:44672   */\n      tag_469\n      jump\t// in\n    tag_976:\n        /* \"#utility.yul\":44347:44679   */\n      swap4\n      swap3\n      pop\n      pop\n      pop\n      jump\t// out\n        /* \"#utility.yul\":44685:44905   */\n    tag_569:\n        /* \"#utility.yul\":44825:44859   */\n      0x4f6e6c79206f776e65722063616e2063616c6c20746869732066756e6374696f\n        /* \"#utility.yul\":44821:44822   */\n      0x00\n        /* \"#utility.yul\":44813:44819   */\n      dup3\n        /* \"#utility.yul\":44809:44823   */\n      add\n        /* \"#utility.yul\":44802:44860   */\n      mstore\n        /* \"#utility.yul\":44894:44897   */\n      0x6e00000000000000000000000000000000000000000000000000000000000000\n        /* \"#utility.yul\":44889:44891   */\n      0x20\n        /* \"#utility.yul\":44881:44887   */\n      dup3\n        /* \"#utility.yul\":44877:44892   */\n      add\n        /* \"#utility.yul\":44870:44898   */\n      mstore\n        /* \"#utility.yul\":44685:44905   */\n      pop\n      jump\t// out\n        /* \"#utility.yul\":44911:45277   */\n    tag_570:\n        /* \"#utility.yul\":45053:45056   */\n      0x00\n        /* \"#utility.yul\":45074:45141   */\n      tag_979\n        /* \"#utility.yul\":45138:45140   */\n      0x21\n        /* \"#utility.yul\":45133:45136   */\n      dup4\n        /* \"#utility.yul\":45074:45141   */\n      tag_507\n      jump\t// in\n    tag_979:\n        /* \"#utility.yul\":45067:45141   */\n      swap2\n      pop\n        /* \"#utility.yul\":45150:45243   */\n      tag_980\n        /* \"#utility.yul\":45239:45242   */\n      dup3\n        /* \"#utility.yul\":45150:45243   */\n      tag_569\n      jump\t// in\n    tag_980:\n        /* \"#utility.yul\":45268:45270   */\n      0x40\n        /* \"#utility.yul\":45263:45266   */\n      dup3\n        /* \"#utility.yul\":45259:45271   */\n      add\n        /* \"#utility.yul\":45252:45271   */\n      swap1\n      pop\n        /* \"#utility.yul\":44911:45277   */\n      swap2\n      swap1\n      pop\n      jump\t// out\n        /* \"#utility.yul\":45283:45702   */\n    tag_308:\n        /* \"#utility.yul\":45449:45453   */\n      0x00\n        /* \"#utility.yul\":45487:45489   */\n      0x20\n        /* \"#utility.yul\":45476:45485   */\n      dup3\n        /* \"#utility.yul\":45472:45490   */\n      add\n        /* \"#utility.yul\":45464:45490   */\n      swap1\n      pop\n        /* \"#utility.yul\":45536:45545   */\n      dup2\n        /* \"#utility.yul\":45530:45534   */\n      dup2\n        /* \"#utility.yul\":45526:45546   */\n      sub\n        /* \"#utility.yul\":45522:45523   */\n      0x00\n        /* \"#utility.yul\":45511:45520   */\n      dup4\n        /* \"#utility.yul\":45507:45524   */\n      add\n        /* \"#utility.yul\":45500:45547   */\n      mstore\n        /* \"#utility.yul\":45564:45695   */\n      tag_982\n        /* \"#utility.yul\":45690:45694   */\n      dup2\n        /* \"#utility.yul\":45564:45695   */\n      tag_570\n      jump\t// in\n    tag_982:\n        /* \"#utility.yul\":45556:45695   */\n      swap1\n      pop\n        /* \"#utility.yul\":45283:45702   */\n      swap2\n      swap1\n      pop\n      jump\t// out\n        /* \"#utility.yul\":45708:45881   */\n    tag_571:\n        /* \"#utility.yul\":45848:45873   */\n      0x546f6b656e20616c726561647920737570706f72746564000000000000000000\n        /* \"#utility.yul\":45844:45845   */\n      0x00\n        /* \"#utility.yul\":45836:45842   */\n      dup3\n        /* \"#utility.yul\":45832:45846   */\n      add\n        /* \"#utility.yul\":45825:45874   */\n      mstore\n        /* \"#utility.yul\":45708:45881   */\n      pop\n      jump\t// out\n        /* \"#utility.yul\":45887:46253   */\n    tag_572:\n        /* \"#utility.yul\":46029:46032   */\n      0x00\n        /* \"#utility.yul\":46050:46117   */\n      tag_985\n        /* \"#utility.yul\":46114:46116   */\n      0x17\n        /* \"#utility.yul\":46109:46112   */\n      dup4\n        /* \"#utility.yul\":46050:46117   */\n      tag_507\n      jump\t// in\n    tag_985:\n        /* \"#utility.yul\":46043:46117   */\n      swap2\n      pop\n        /* \"#utility.yul\":46126:46219   */\n      tag_986\n        /* \"#utility.yul\":46215:46218   */\n      dup3\n        /* \"#utility.yul\":46126:46219   */\n      tag_571\n      jump\t// in\n    tag_986:\n        /* \"#utility.yul\":46244:46246   */\n      0x20\n        /* \"#utility.yul\":46239:46242   */\n      dup3\n        /* \"#utility.yul\":46235:46247   */\n      add\n        /* \"#utility.yul\":46228:46247   */\n      swap1\n      pop\n        /* \"#utility.yul\":45887:46253   */\n      swap2\n      swap1\n      pop\n      jump\t// out\n        /* \"#utility.yul\":46259:46678   */\n    tag_312:\n        /* \"#utility.yul\":46425:46429   */\n      0x00\n        /* \"#utility.yul\":46463:46465   */\n      0x20\n        /* \"#utility.yul\":46452:46461   */\n      dup3\n        /* \"#utility.yul\":46448:46466   */\n      add\n        /* \"#utility.yul\":46440:46466   */\n      swap1\n      pop\n        /* \"#utility.yul\":46512:46521   */\n      dup2\n        /* \"#utility.yul\":46506:46510   */\n      dup2\n        /* \"#utility.yul\":46502:46522   */\n      sub\n        /* \"#utility.yul\":46498:46499   */\n      0x00\n        /* \"#utility.yul\":46487:46496   */\n      dup4\n        /* \"#utility.yul\":46483:46500   */\n      add\n        /* \"#utility.yul\":46476:46523   */\n      mstore\n        /* \"#utility.yul\":46540:46671   */\n      tag_988\n        /* \"#utility.yul\":46666:46670   */\n      dup2\n        /* \"#utility.yul\":46540:46671   */\n      tag_572\n      jump\t// in\n    tag_988:\n        /* \"#utility.yul\":46532:46671   */\n      swap1\n      pop\n        /* \"#utility.yul\":46259:46678   */\n      swap2\n      swap1\n      pop\n      jump\t// out\n        /* \"#utility.yul\":46684:46855   */\n    tag_573:\n        /* \"#utility.yul\":46824:46847   */\n      0x496e76616c696420746f6b656e20616464726573730000000000000000000000\n        /* \"#utility.yul\":46820:46821   */\n      0x00\n        /* \"#utility.yul\":46812:46818   */\n      dup3\n        /* \"#utility.yul\":46808:46822   */\n      add\n        /* \"#utility.yul\":46801:46848   */\n      mstore\n        /* \"#utility.yul\":46684:46855   */\n      pop\n      jump\t// out\n        /* \"#utility.yul\":46861:47227   */\n    tag_574:\n        /* \"#utility.yul\":47003:47006   */\n      0x00\n        /* \"#utility.yul\":47024:47091   */\n      tag_991\n        /* \"#utility.yul\":47088:47090   */\n      0x15\n        /* \"#utility.yul\":47083:47086   */\n      dup4\n        /* \"#utility.yul\":47024:47091   */\n      tag_507\n      jump\t// in\n    tag_991:\n        /* \"#utility.yul\":47017:47091   */\n      swap2\n      pop\n        /* \"#utility.yul\":47100:47193   */\n      tag_992\n        /* \"#utility.yul\":47189:47192   */\n      dup3\n        /* \"#utility.yul\":47100:47193   */\n      tag_573\n      jump\t// in\n    tag_992:\n        /* \"#utility.yul\":47218:47220   */\n      0x20\n        /* \"#utility.yul\":47213:47216   */\n      dup3\n        /* \"#utility.yul\":47209:47221   */\n      add\n        /* \"#utility.yul\":47202:47221   */\n      swap1\n      pop\n        /* \"#utility.yul\":46861:47227   */\n      swap2\n      swap1\n      pop\n      jump\t// out\n        /* \"#utility.yul\":47233:47652   */\n    tag_315:\n        /* \"#utility.yul\":47399:47403   */\n      0x00\n        /* \"#utility.yul\":47437:47439   */\n      0x20\n        /* \"#utility.yul\":47426:47435   */\n      dup3\n        /* \"#utility.yul\":47422:47440   */\n      add\n        /* \"#utility.yul\":47414:47440   */\n      swap1\n      pop\n        /* \"#utility.yul\":47486:47495   */\n      dup2\n        /* \"#utility.yul\":47480:47484   */\n      dup2\n        /* \"#utility.yul\":47476:47496   */\n      sub\n        /* \"#utility.yul\":47472:47473   */\n      0x00\n        /* \"#utility.yul\":47461:47470   */\n      dup4\n        /* \"#utility.yul\":47457:47474   */\n      add\n        /* \"#utility.yul\":47450:47497   */\n      mstore\n        /* \"#utility.yul\":47514:47645   */\n      tag_994\n        /* \"#utility.yul\":47640:47644   */\n      dup2\n        /* \"#utility.yul\":47514:47645   */\n      tag_574\n      jump\t// in\n    tag_994:\n        /* \"#utility.yul\":47506:47645   */\n      swap1\n      pop\n        /* \"#utility.yul\":47233:47652   */\n      swap2\n      swap1\n      pop\n      jump\t// out\n        /* \"#utility.yul\":47658:47852   */\n    tag_338:\n        /* \"#utility.yul\":47698:47702   */\n      0x00\n        /* \"#utility.yul\":47718:47738   */\n      tag_996\n        /* \"#utility.yul\":47736:47737   */\n      dup3\n        /* \"#utility.yul\":47718:47738   */\n      tag_468\n      jump\t// in\n    tag_996:\n        /* \"#utility.yul\":47713:47738   */\n      swap2\n      pop\n        /* \"#utility.yul\":47752:47772   */\n      tag_997\n        /* \"#utility.yul\":47770:47771   */\n      dup4\n        /* \"#utility.yul\":47752:47772   */\n      tag_468\n      jump\t// in\n    tag_997:\n        /* \"#utility.yul\":47747:47772   */\n      swap3\n      pop\n        /* \"#utility.yul\":47796:47797   */\n      dup3\n        /* \"#utility.yul\":47793:47794   */\n      dup3\n        /* \"#utility.yul\":47789:47798   */\n      sub\n        /* \"#utility.yul\":47781:47798   */\n      swap1\n      pop\n        /* \"#utility.yul\":47820:47821   */\n      dup2\n        /* \"#utility.yul\":47814:47818   */\n      dup2\n        /* \"#utility.yul\":47811:47822   */\n      gt\n        /* \"#utility.yul\":47808:47845   */\n      iszero\n      tag_998\n      jumpi\n        /* \"#utility.yul\":47825:47843   */\n      tag_999\n      tag_568\n      jump\t// in\n    tag_999:\n        /* \"#utility.yul\":47808:47845   */\n    tag_998:\n        /* \"#utility.yul\":47658:47852   */\n      swap3\n      swap2\n      pop\n      pop\n      jump\t// out\n        /* \"#utility.yul\":47858:48038   */\n    tag_343:\n        /* \"#utility.yul\":47906:47983   */\n      0x4e487b7100000000000000000000000000000000000000000000000000000000\n        /* \"#utility.yul\":47903:47904   */\n      0x00\n        /* \"#utility.yul\":47896:47984   */\n      mstore\n        /* \"#utility.yul\":48003:48007   */\n      0x32\n        /* \"#utility.yul\":48000:48001   */\n      0x04\n        /* \"#utility.yul\":47993:48008   */\n      mstore\n        /* \"#utility.yul\":48027:48031   */\n      0x24\n        /* \"#utility.yul\":48024:48025   */\n      0x00\n        /* \"#utility.yul\":48017:48032   */\n      revert\n        /* \"#utility.yul\":48044:48215   */\n    tag_346:\n        /* \"#utility.yul\":48083:48086   */\n      0x00\n        /* \"#utility.yul\":48106:48130   */\n      tag_1002\n        /* \"#utility.yul\":48124:48129   */\n      dup3\n        /* \"#utility.yul\":48106:48130   */\n      tag_468\n      jump\t// in\n    tag_1002:\n        /* \"#utility.yul\":48097:48130   */\n      swap2\n      pop\n        /* \"#utility.yul\":48152:48156   */\n      0x00\n        /* \"#utility.yul\":48145:48150   */\n      dup3\n        /* \"#utility.yul\":48142:48157   */\n      sub\n        /* \"#utility.yul\":48139:48180   */\n      tag_1003\n      jumpi\n        /* \"#utility.yul\":48160:48178   */\n      tag_1004\n      tag_568\n      jump\t// in\n    tag_1004:\n        /* \"#utility.yul\":48139:48180   */\n    tag_1003:\n        /* \"#utility.yul\":48207:48208   */\n      0x01\n        /* \"#utility.yul\":48200:48205   */\n      dup3\n        /* \"#utility.yul\":48196:48209   */\n      sub\n        /* \"#utility.yul\":48189:48209   */\n      swap1\n      pop\n        /* \"#utility.yul\":48044:48215   */\n      swap2\n      swap1\n      pop\n      jump\t// out\n        /* \"#utility.yul\":48221:48401   */\n    tag_369:\n        /* \"#utility.yul\":48269:48346   */\n      0x4e487b7100000000000000000000000000000000000000000000000000000000\n        /* \"#utility.yul\":48266:48267   */\n      0x00\n        /* \"#utility.yul\":48259:48347   */\n      mstore\n        /* \"#utility.yul\":48366:48370   */\n      0x31\n        /* \"#utility.yul\":48363:48364   */\n      0x04\n        /* \"#utility.yul\":48356:48371   */\n      mstore\n        /* \"#utility.yul\":48390:48394   */\n      0x24\n        /* \"#utility.yul\":48387:48388   */\n      0x00\n        /* \"#utility.yul\":48380:48395   */\n      revert\n        /* \"#utility.yul\":48407:48779   */\n    tag_394:\n        /* \"#utility.yul\":48446:48450   */\n      0x00\n        /* \"#utility.yul\":48466:48485   */\n      tag_1007\n        /* \"#utility.yul\":48483:48484   */\n      dup3\n        /* \"#utility.yul\":48466:48485   */\n      tag_509\n      jump\t// in\n    tag_1007:\n        /* \"#utility.yul\":48461:48485   */\n      swap2\n      pop\n        /* \"#utility.yul\":48499:48518   */\n      tag_1008\n        /* \"#utility.yul\":48516:48517   */\n      dup4\n        /* \"#utility.yul\":48499:48518   */\n      tag_509\n      jump\t// in\n    tag_1008:\n        /* \"#utility.yul\":48494:48518   */\n      swap3\n      pop\n        /* \"#utility.yul\":48542:48543   */\n      dup3\n        /* \"#utility.yul\":48539:48540   */\n      dup3\n        /* \"#utility.yul\":48535:48544   */\n      sub\n        /* \"#utility.yul\":48527:48544   */\n      swap1\n      pop\n        /* \"#utility.yul\":48736:48737   */\n      dup2\n        /* \"#utility.yul\":48730:48734   */\n      dup2\n        /* \"#utility.yul\":48726:48738   */\n      slt\n        /* \"#utility.yul\":48722:48723   */\n      0x00\n        /* \"#utility.yul\":48719:48720   */\n      dup5\n        /* \"#utility.yul\":48715:48724   */\n      slt\n        /* \"#utility.yul\":48711:48739   */\n      and\n        /* \"#utility.yul\":48694:48695   */\n      dup3\n        /* \"#utility.yul\":48688:48692   */\n      dup3\n        /* \"#utility.yul\":48684:48696   */\n      sgt\n        /* \"#utility.yul\":48679:48680   */\n      0x00\n        /* \"#utility.yul\":48676:48677   */\n      dup6\n        /* \"#utility.yul\":48672:48681   */\n      slt\n        /* \"#utility.yul\":48665:48682   */\n      iszero\n        /* \"#utility.yul\":48661:48697   */\n      and\n        /* \"#utility.yul\":48645:48749   */\n      or\n        /* \"#utility.yul\":48642:48772   */\n      iszero\n      tag_1009\n      jumpi\n        /* \"#utility.yul\":48752:48770   */\n      tag_1010\n      tag_568\n      jump\t// in\n    tag_1010:\n        /* \"#utility.yul\":48642:48772   */\n    tag_1009:\n        /* \"#utility.yul\":48407:48779   */\n      swap3\n      swap2\n      pop\n      pop\n      jump\t// out\n        /* \"#utility.yul\":48785:48955   */\n    tag_575:\n        /* \"#utility.yul\":48925:48947   */\n      0x496e73756666696369656e742062616c616e6365000000000000000000000000\n        /* \"#utility.yul\":48921:48922   */\n      0x00\n        /* \"#utility.yul\":48913:48919   */\n      dup3\n        /* \"#utility.yul\":48909:48923   */\n      add\n        /* \"#utility.yul\":48902:48948   */\n      mstore\n        /* \"#utility.yul\":48785:48955   */\n      pop\n      jump\t// out\n        /* \"#utility.yul\":48961:49327   */\n    tag_576:\n        /* \"#utility.yul\":49103:49106   */\n      0x00\n        /* \"#utility.yul\":49124:49191   */\n      tag_1013\n        /* \"#utility.yul\":49188:49190   */\n      0x14\n        /* \"#utility.yul\":49183:49186   */\n      dup4\n        /* \"#utility.yul\":49124:49191   */\n      tag_507\n      jump\t// in\n    tag_1013:\n        /* \"#utility.yul\":49117:49191   */\n      swap2\n      pop\n        /* \"#utility.yul\":49200:49293   */\n      tag_1014\n        /* \"#utility.yul\":49289:49292   */\n      dup3\n        /* \"#utility.yul\":49200:49293   */\n      tag_575\n      jump\t// in\n    tag_1014:\n        /* \"#utility.yul\":49318:49320   */\n      0x20\n        /* \"#utility.yul\":49313:49316   */\n      dup3\n        /* \"#utility.yul\":49309:49321   */\n      add\n        /* \"#utility.yul\":49302:49321   */\n      swap1\n      pop\n        /* \"#utility.yul\":48961:49327   */\n      swap2\n      swap1\n      pop\n      jump\t// out\n        /* \"#utility.yul\":49333:49752   */\n    tag_417:\n        /* \"#utility.yul\":49499:49503   */\n      0x00\n        /* \"#utility.yul\":49537:49539   */\n      0x20\n        /* \"#utility.yul\":49526:49535   */\n      dup3\n        /* \"#utility.yul\":49522:49540   */\n      add\n        /* \"#utility.yul\":49514:49540   */\n      swap1\n      pop\n        /* \"#utility.yul\":49586:49595   */\n      dup2\n        /* \"#utility.yul\":49580:49584   */\n      dup2\n        /* \"#utility.yul\":49576:49596   */\n      sub\n        /* \"#utility.yul\":49572:49573   */\n      0x00\n        /* \"#utility.yul\":49561:49570   */\n      dup4\n        /* \"#utility.yul\":49557:49574   */\n      add\n        /* \"#utility.yul\":49550:49597   */\n      mstore\n        /* \"#utility.yul\":49614:49745   */\n      tag_1016\n        /* \"#utility.yul\":49740:49744   */\n      dup2\n        /* \"#utility.yul\":49614:49745   */\n      tag_576\n      jump\t// in\n    tag_1016:\n        /* \"#utility.yul\":49606:49745   */\n      swap1\n      pop\n        /* \"#utility.yul\":49333:49752   */\n      swap2\n      swap1\n      pop\n      jump\t// out\n        /* \"#utility.yul\":49758:50090   */\n    tag_422:\n        /* \"#utility.yul\":49879:49883   */\n      0x00\n        /* \"#utility.yul\":49917:49919   */\n      0x40\n        /* \"#utility.yul\":49906:49915   */\n      dup3\n        /* \"#utility.yul\":49902:49920   */\n      add\n        /* \"#utility.yul\":49894:49920   */\n      swap1\n      pop\n        /* \"#utility.yul\":49930:50001   */\n      tag_1018\n        /* \"#utility.yul\":49998:49999   */\n      0x00\n        /* \"#utility.yul\":49987:49996   */\n      dup4\n        /* \"#utility.yul\":49983:50000   */\n      add\n        /* \"#utility.yul\":49974:49980   */\n      dup6\n        /* \"#utility.yul\":49930:50001   */\n      tag_506\n      jump\t// in\n    tag_1018:\n        /* \"#utility.yul\":50011:50083   */\n      tag_1019\n        /* \"#utility.yul\":50079:50081   */\n      0x20\n        /* \"#utility.yul\":50068:50077   */\n      dup4\n        /* \"#utility.yul\":50064:50082   */\n      add\n        /* \"#utility.yul\":50055:50061   */\n      dup5\n        /* \"#utility.yul\":50011:50083   */\n      tag_469\n      jump\t// in\n    tag_1019:\n        /* \"#utility.yul\":49758:50090   */\n      swap4\n      swap3\n      pop\n      pop\n      pop\n      jump\t// out\n        /* \"#utility.yul\":50096:50277   */\n    tag_577:\n        /* \"#utility.yul\":50236:50269   */\n      0x5265656e7472616e637947756172643a207265656e7472616e742063616c6c00\n        /* \"#utility.yul\":50232:50233   */\n      0x00\n        /* \"#utility.yul\":50224:50230   */\n      dup3\n        /* \"#utility.yul\":50220:50234   */\n      add\n        /* \"#utility.yul\":50213:50270   */\n      mstore\n        /* \"#utility.yul\":50096:50277   */\n      pop\n      jump\t// out\n        /* \"#utility.yul\":50283:50649   */\n    tag_578:\n        /* \"#utility.yul\":50425:50428   */\n      0x00\n        /* \"#utility.yul\":50446:50513   */\n      tag_1022\n        /* \"#utility.yul\":50510:50512   */\n      0x1f\n        /* \"#utility.yul\":50505:50508   */\n      dup4\n        /* \"#utility.yul\":50446:50513   */\n      tag_507\n      jump\t// in\n    tag_1022:\n        /* \"#utility.yul\":50439:50513   */\n      swap2\n      pop\n        /* \"#utility.yul\":50522:50615   */\n      tag_1023\n        /* \"#utility.yul\":50611:50614   */\n      dup3\n        /* \"#utility.yul\":50522:50615   */\n      tag_577\n      jump\t// in\n    tag_1023:\n        /* \"#utility.yul\":50640:50642   */\n      0x20\n        /* \"#utility.yul\":50635:50638   */\n      dup3\n        /* \"#utility.yul\":50631:50643   */\n      add\n        /* \"#utility.yul\":50624:50643   */\n      swap1\n      pop\n        /* \"#utility.yul\":50283:50649   */\n      swap2\n      swap1\n      pop\n      jump\t// out\n        /* \"#utility.yul\":50655:51074   */\n    tag_437:\n        /* \"#utility.yul\":50821:50825   */\n      0x00\n        /* \"#utility.yul\":50859:50861   */\n      0x20\n        /* \"#utility.yul\":50848:50857   */\n      dup3\n        /* \"#utility.yul\":50844:50862   */\n      add\n        /* \"#utility.yul\":50836:50862   */\n      swap1\n      pop\n        /* \"#utility.yul\":50908:50917   */\n      dup2\n        /* \"#utility.yul\":50902:50906   */\n      dup2\n        /* \"#utility.yul\":50898:50918   */\n      sub\n        /* \"#utility.yul\":50894:50895   */\n      0x00\n        /* \"#utility.yul\":50883:50892   */\n      dup4\n        /* \"#utility.yul\":50879:50896   */\n      add\n        /* \"#utility.yul\":50872:50919   */\n      mstore\n        /* \"#utility.yul\":50936:51067   */\n      tag_1025\n        /* \"#utility.yul\":51062:51066   */\n      dup2\n        /* \"#utility.yul\":50936:51067   */\n      tag_578\n      jump\t// in\n    tag_1025:\n        /* \"#utility.yul\":50928:51067   */\n      swap1\n      pop\n        /* \"#utility.yul\":50655:51074   */\n      swap2\n      swap1\n      pop\n      jump\t// out\n        /* \"#utility.yul\":51080:51260   */\n    tag_579:\n        /* \"#utility.yul\":51128:51205   */\n      0x4e487b7100000000000000000000000000000000000000000000000000000000\n        /* \"#utility.yul\":51125:51126   */\n      0x00\n        /* \"#utility.yul\":51118:51206   */\n      mstore\n        /* \"#utility.yul\":51225:51229   */\n      0x12\n        /* \"#utility.yul\":51222:51223   */\n      0x04\n        /* \"#utility.yul\":51215:51230   */\n      mstore\n        /* \"#utility.yul\":51249:51253   */\n      0x24\n        /* \"#utility.yul\":51246:51247   */\n      0x00\n        /* \"#utility.yul\":51239:51254   */\n      revert\n        /* \"#utility.yul\":51266:51451   */\n    tag_444:\n        /* \"#utility.yul\":51306:51307   */\n      0x00\n        /* \"#utility.yul\":51323:51343   */\n      tag_1028\n        /* \"#utility.yul\":51341:51342   */\n      dup3\n        /* \"#utility.yul\":51323:51343   */\n      tag_468\n      jump\t// in\n    tag_1028:\n        /* \"#utility.yul\":51318:51343   */\n      swap2\n      pop\n        /* \"#utility.yul\":51357:51377   */\n      tag_1029\n        /* \"#utility.yul\":51375:51376   */\n      dup4\n        /* \"#utility.yul\":51357:51377   */\n      tag_468\n      jump\t// in\n    tag_1029:\n        /* \"#utility.yul\":51352:51377   */\n      swap3\n      pop\n        /* \"#utility.yul\":51396:51397   */\n      dup3\n        /* \"#utility.yul\":51386:51421   */\n      tag_1030\n      jumpi\n        /* \"#utility.yul\":51401:51419   */\n      tag_1031\n      tag_579\n      jump\t// in\n    tag_1031:\n        /* \"#utility.yul\":51386:51421   */\n    tag_1030:\n        /* \"#utility.yul\":51443:51444   */\n      dup3\n        /* \"#utility.yul\":51440:51441   */\n      dup3\n        /* \"#utility.yul\":51436:51445   */\n      div\n        /* \"#utility.yul\":51431:51445   */\n      swap1\n      pop\n        /* \"#utility.yul\":51266:51451   */\n      swap3\n      swap2\n      pop\n      pop\n      jump\t// out\n        /* \"#utility.yul\":51457:51867   */\n    tag_453:\n        /* \"#utility.yul\":51497:51504   */\n      0x00\n        /* \"#utility.yul\":51520:51540   */\n      tag_1033\n        /* \"#utility.yul\":51538:51539   */\n      dup3\n        /* \"#utility.yul\":51520:51540   */\n      tag_468\n      jump\t// in\n    tag_1033:\n        /* \"#utility.yul\":51515:51540   */\n      swap2\n      pop\n        /* \"#utility.yul\":51554:51574   */\n      tag_1034\n        /* \"#utility.yul\":51572:51573   */\n      dup4\n        /* \"#utility.yul\":51554:51574   */\n      tag_468\n      jump\t// in\n    tag_1034:\n        /* \"#utility.yul\":51549:51574   */\n      swap3\n      pop\n        /* \"#utility.yul\":51609:51610   */\n      dup3\n        /* \"#utility.yul\":51606:51607   */\n      dup3\n        /* \"#utility.yul\":51602:51611   */\n      mul\n        /* \"#utility.yul\":51631:51661   */\n      tag_1035\n        /* \"#utility.yul\":51649:51660   */\n      dup2\n        /* \"#utility.yul\":51631:51661   */\n      tag_468\n      jump\t// in\n    tag_1035:\n        /* \"#utility.yul\":51620:51661   */\n      swap2\n      pop\n        /* \"#utility.yul\":51810:51811   */\n      dup3\n        /* \"#utility.yul\":51801:51808   */\n      dup3\n        /* \"#utility.yul\":51797:51812   */\n      div\n        /* \"#utility.yul\":51794:51795   */\n      dup5\n        /* \"#utility.yul\":51791:51813   */\n      eq\n        /* \"#utility.yul\":51771:51772   */\n      dup4\n        /* \"#utility.yul\":51764:51773   */\n      iszero\n        /* \"#utility.yul\":51744:51827   */\n      or\n        /* \"#utility.yul\":51721:51860   */\n      tag_1036\n      jumpi\n        /* \"#utility.yul\":51840:51858   */\n      tag_1037\n      tag_568\n      jump\t// in\n    tag_1037:\n        /* \"#utility.yul\":51721:51860   */\n    tag_1036:\n        /* \"#utility.yul\":51505:51867   */\n      pop\n        /* \"#utility.yul\":51457:51867   */\n      swap3\n      swap2\n      pop\n      pop\n      jump\t// out\n        /* \"#utility.yul\":51873:51959   */\n    tag_580:\n        /* \"#utility.yul\":51908:51915   */\n      0x00\n        /* \"#utility.yul\":51948:51952   */\n      0xff\n        /* \"#utility.yul\":51941:51946   */\n      dup3\n        /* \"#utility.yul\":51937:51953   */\n      and\n        /* \"#utility.yul\":51926:51953   */\n      swap1\n      pop\n        /* \"#utility.yul\":51873:51959   */\n      swap2\n      swap1\n      pop\n      jump\t// out\n        /* \"#utility.yul\":51965:52153   */\n    tag_456:\n        /* \"#utility.yul\":52003:52006   */\n      0x00\n        /* \"#utility.yul\":52022:52040   */\n      tag_1040\n        /* \"#utility.yul\":52038:52039   */\n      dup3\n        /* \"#utility.yul\":52022:52040   */\n      tag_580\n      jump\t// in\n    tag_1040:\n        /* \"#utility.yul\":52017:52040   */\n      swap2\n      pop\n        /* \"#utility.yul\":52054:52072   */\n      tag_1041\n        /* \"#utility.yul\":52070:52071   */\n      dup4\n        /* \"#utility.yul\":52054:52072   */\n      tag_580\n      jump\t// in\n    tag_1041:\n        /* \"#utility.yul\":52049:52072   */\n      swap3\n      pop\n        /* \"#utility.yul\":52095:52096   */\n      dup3\n        /* \"#utility.yul\":52092:52093   */\n      dup3\n        /* \"#utility.yul\":52088:52097   */\n      add\n        /* \"#utility.yul\":52081:52097   */\n      swap1\n      pop\n        /* \"#utility.yul\":52118:52122   */\n      0xff\n        /* \"#utility.yul\":52113:52116   */\n      dup2\n        /* \"#utility.yul\":52110:52123   */\n      gt\n        /* \"#utility.yul\":52107:52146   */\n      iszero\n      tag_1042\n      jumpi\n        /* \"#utility.yul\":52126:52144   */\n      tag_1043\n      tag_568\n      jump\t// in\n    tag_1043:\n        /* \"#utility.yul\":52107:52146   */\n    tag_1042:\n        /* \"#utility.yul\":51965:52153   */\n      swap3\n      swap2\n      pop\n      pop\n      jump\t// out\n\n    auxdata: 0xa2646970667358221220d7e288789ba91e8ea4c26a2a47ce3e689fd3506fdfc5887656d4f062e0f76e9964736f6c634300081e0033\n}\n",
				"bytecode": {
					"linkReferences": {},
					"object": "6080604052348015600e575f5ffd5b5060015f819055503360015f6101000a81548173ffffffffffffffffffffffffffffffffffffffff021916908373ffffffffffffffffffffffffffffffffffffffff160217905550614af4806100635f395ff3fe608060405234801561000f575f5ffd5b50600436106101e3575f3560e01c80638c81e4d11161010d578063c489744b116100a0578063f26e818a1161006f578063f26e818a14610653578063f3fef3a314610683578063f44a8bef1461069f578063f9f411d8146106cf576101e3565b8063c489744b146105a5578063c6255626146105d5578063d3c7c2c714610605578063e7041f1314610623576101e3565b8063a87430ba116100dc578063a87430ba146104f3578063b77bf60014610527578063c0dbf55814610545578063c30719bf14610575576101e3565b80638c81e4d1146104415780638da5cb5b146104715780639ace38c21461048f5780639ee20b15146104c3576101e3565b806345f2d105116101855780636d69fcaf116101545780636d69fcaf146103a95780637380626b146103c557806375151b63146103f55780637631919014610425576101e3565b806345f2d105146102fd57806347e7ef241461032d578063519dc8d2146103495780636386c1c714610379576101e3565b80631f3c99c3116101c15780631f3c99c3146102775780633a7d280c146102815780633f75a07d146102b15780633ffbd47f146102e1576101e3565b8063126cbe60146101e7578063163f7522146102175780631a197a2614610247575b5f5ffd5b61020160048036038101906101fc9190613207565b6106ff565b60405161020e919061324a565b60405180910390f35b610231600480360381019061022c9190613207565b610784565b60405161023e919061327d565b60405180910390f35b610261600480360381019061025c9190613207565b6107d9565b60405161026e919061324a565b60405180910390f35b61027f610860565b005b61029b600480360381019061029691906133d2565b61098d565b6040516102a8919061327d565b60405180910390f35b6102cb60048036038101906102c691906133d2565b610b70565b6040516102d89190613431565b60405180910390f35b6102fb60048036038101906102f6919061344a565b610b9f565b005b610317600480360381019061031291906134c0565b610ee3565b604051610324919061324a565b60405180910390f35b61034760048036038101906103429190613528565b610f03565b005b610363600480360381019061035e9190613207565b611780565b604051610370919061361d565b60405180910390f35b610393600480360381019061038e9190613207565b611848565b6040516103a09190613735565b60405180910390f35b6103c360048036038101906103be9190613207565b6119ec565b005b6103df60048036038101906103da9190613528565b611c7a565b6040516103ec9190613863565b60405180910390f35b61040f600480360381019061040a9190613207565b611f5a565b60405161041c919061327d565b60405180910390f35b61043f600480360381019061043a9190613207565b611f77565b005b61045b60048036038101906104569190613207565b6122b1565b604051610468919061324a565b60405180910390f35b61047961243e565b6040516104869190613892565b60405180910390f35b6104a960048036038101906104a491906138ab565b612463565b6040516104ba9594939291906138d6565b60405180910390f35b6104dd60048036038101906104d89190613207565b6124df565b6040516104ea919061327d565b60405180910390f35b61050d60048036038101906105089190613207565b6124fc565b60405161051e95949392919061396f565b60405180910390f35b61052f612646565b60405161053c919061324a565b60405180910390f35b61055f600480360381019061055a91906134c0565b61264c565b60405161056c91906139e6565b60405180910390f35b61058f600480360381019061058a9190613207565b61276d565b60405161059c919061324a565b60405180910390f35b6105bf60048036038101906105ba91906134c0565b6127f2565b6040516105cc919061324a565b60405180910390f35b6105ef60048036038101906105ea91906138ab565b612874565b6040516105fc9190613892565b60405180910390f35b61060d6128af565b60405161061a919061361d565b60405180910390f35b61063d600480360381019061063891906134c0565b61293a565b60405161064a919061324a565b60405180910390f35b61066d600480360381019061066891906133d2565b61295a565b60405161067a919061327d565b60405180910390f35b61069d60048036038101906106989190613528565b61298f565b005b6106b960048036038101906106b49190613207565b612ea8565b6040516106c6919061327d565b60405180910390f35b6106e960048036038101906106e49190613528565b612efa565b6040516106f69190613892565b60405180910390f35b5f5f8290508073ffffffffffffffffffffffffffffffffffffffff166370a08231336040518263ffffffff1660e01b815260040161073d9190613892565b602060405180830381865afa158015610758573d5f5f3e3d5ffd5b505050506040513d601f19601f8201168201806040525081019061077c9190613a13565b915050919050565b5f60065f8373ffffffffffffffffffffffffffffffffffffffff1673ffffffffffffffffffffffffffffffffffffffff1681526020019081526020015f206002015f9054906101000a900460ff169050919050565b5f5f8290508073ffffffffffffffffffffffffffffffffffffffff1663dd62ed3e33306040518363ffffffff1660e01b8152600401610819929190613a3e565b602060405180830381865afa158015610834573d5f5f3e3d5ffd5b505050506040513d601f19601f820116820180604052508101906108589190613a13565b915050919050565b60085f3373ffffffffffffffffffffffffffffffffffffffff1673ffffffffffffffffffffffffffffffffffffffff1681526020019081526020015f205f9054906101000a900460ff166108e9576040517f08c379a00000000000000000000000000000000000000000000000000000000081526004016108e090613aaf565b60405180910390fd5b5f60085f3373ffffffffffffffffffffffffffffffffffffffff1673ffffffffffffffffffffffffffffffffffffffff1681526020019081526020015f205f6101000a81548160ff0219169083151502179055503373ffffffffffffffffffffffffffffffffffffffff167f22c3ce09984495411cfaa9c6d5bfd078ede4d3a3d9d3249f506a59861d68e72142604051610983919061324a565b60405180910390a2565b5f60065f3373ffffffffffffffffffffffffffffffffffffffff1673ffffffffffffffffffffffffffffffffffffffff1681526020019081526020015f206002015f9054906101000a900460ff16610a1a576040517f08c379a0000000000000000000000000000000000000000000000000000000008152600401610a1190613b17565b60405180910390fd5b5f60065f3373ffffffffffffffffffffffffffffffffffffffff1673ffffffffffffffffffffffffffffffffffffffff1681526020019081526020015f2090505f610a6484610b70565b90505f82600101610a7490613c04565b9050808214610ab8576040517f08c379a0000000000000000000000000000000000000000000000000000000008152600401610aaf90613cbe565b60405180910390fd5b600160085f3373ffffffffffffffffffffffffffffffffffffffff1673ffffffffffffffffffffffffffffffffffffffff1681526020019081526020015f205f6101000a81548160ff0219169083151502179055504283600401819055503373ffffffffffffffffffffffffffffffffffffffff167fd48e107b75fb4263f47c6775f9695146041b81f4e0eac8b4d6075fd5756cba9442604051610b5c919061324a565b60405180910390a260019350505050919050565b5f81604051602001610b829190613d16565b604051602081830303815290604052805190602001209050919050565b60065f3373ffffffffffffffffffffffffffffffffffffffff1673ffffffffffffffffffffffffffffffffffffffff1681526020019081526020015f206002015f9054906101000a900460ff1615610c2c576040517f08c379a0000000000000000000000000000000000000000000000000000000008152600401610c2390613d76565b60405180910390fd5b600382511015610c71576040517f08c379a0000000000000000000000000000000000000000000000000000000008152600401610c6890613e04565b60405180910390fd5b600681511015610cb6576040517f08c379a0000000000000000000000000000000000000000000000000000000008152600401610cad90613e92565b60405180910390fd5b600782604051610cc69190613d16565b90815260200160405180910390205f9054906101000a900460ff1615610d21576040517f08c379a0000000000000000000000000000000000000000000000000000000008152600401610d1890613efa565b60405180910390fd5b602082511115610d66576040517f08c379a0000000000000000000000000000000000000000000000000000000008152600401610d5d90613f62565b60405180910390fd5b5f610d7082610b70565b90506040518060a0016040528084815260200182604051602001610d949190613fa0565b60405160208183030381529060405281526020016001151581526020014281526020015f81525060065f3373ffffffffffffffffffffffffffffffffffffffff1673ffffffffffffffffffffffffffffffffffffffff1681526020019081526020015f205f820151815f019081610e0b919061414e565b506020820151816001019081610e21919061414e565b506040820151816002015f6101000a81548160ff02191690831515021790555060608201518160030155608082015181600401559050506001600784604051610e6a9190613d16565b90815260200160405180910390205f6101000a81548160ff0219169083151502179055503373ffffffffffffffffffffffffffffffffffffffff167f89105a1c6a3c2fbd471255c66a31ccab604af5697f67d7e2e9a0028c5e4dbd918442604051610ed692919061421d565b60405180910390a2505050565b6002602052815f5260405f20602052805f5260405f205f91509150505481565b610f0b612f42565b60065f3373ffffffffffffffffffffffffffffffffffffffff1673ffffffffffffffffffffffffffffffffffffffff1681526020019081526020015f206002015f9054906101000a900460ff16610f97576040517f08c379a0000000000000000000000000000000000000000000000000000000008152600401610f8e90613b17565b60405180910390fd5b60085f3373ffffffffffffffffffffffffffffffffffffffff1673ffffffffffffffffffffffffffffffffffffffff1681526020019081526020015f205f9054906101000a900460ff16611020576040517f08c379a000000000000000000000000000000000000000000000000000000000815260040161101790613aaf565b60405180910390fd5b600b5f8373ffffffffffffffffffffffffffffffffffffffff1673ffffffffffffffffffffffffffffffffffffffff1681526020019081526020015f205f9054906101000a900460ff166110a9576040517f08c379a00000000000000000000000000000000000000000000000000000000081526004016110a090614295565b60405180910390fd5b5f81116110eb576040517f08c379a00000000000000000000000000000000000000000000000000000000081526004016110e2906142fd565b60405180910390fd5b5f8290505f8173ffffffffffffffffffffffffffffffffffffffff1663dd62ed3e33306040518363ffffffff1660e01b815260040161112b929190613a3e565b602060405180830381865afa158015611146573d5f5f3e3d5ffd5b505050506040513d601f19601f8201168201806040525081019061116a9190613a13565b90508281101561117982612f8f565b61118285612f8f565b6040516020016111939291906143d5565b604051602081830303815290604052906111e3576040517f08c379a00000000000000000000000000000000000000000000000000000000081526004016111da919061440e565b60405180910390fd5b505f8273ffffffffffffffffffffffffffffffffffffffff166370a08231336040518263ffffffff1660e01b815260040161121e9190613892565b602060405180830381865afa158015611239573d5f5f3e3d5ffd5b505050506040513d601f19601f8201168201806040525081019061125d9190613a13565b90508381101561126c82612f8f565b61127586612f8f565b60405160200161128692919061449e565b604051602081830303815290604052906112d6576040517f08c379a00000000000000000000000000000000000000000000000000000000081526004016112cd919061440e565b60405180910390fd5b508273ffffffffffffffffffffffffffffffffffffffff166323b872dd3330876040518463ffffffff1660e01b8152600401611314939291906144d7565b6020604051808303815f875af1158015611330573d5f5f3e3d5ffd5b505050506040513d601f19601f820116820180604052508101906113549190614536565b611393576040517f08c379a000000000000000000000000000000000000000000000000000000000815260040161138a906145ab565b60405180910390fd5b5f60025f3373ffffffffffffffffffffffffffffffffffffffff1673ffffffffffffffffffffffffffffffffffffffff1681526020019081526020015f205f8773ffffffffffffffffffffffffffffffffffffffff1673ffffffffffffffffffffffffffffffffffffffff1681526020019081526020015f2054036114ae5760045f3373ffffffffffffffffffffffffffffffffffffffff1673ffffffffffffffffffffffffffffffffffffffff1681526020019081526020015f2085908060018154018082558091505060019003905f5260205f20015f9091909190916101000a81548173ffffffffffffffffffffffffffffffffffffffff021916908373ffffffffffffffffffffffffffffffffffffffff1602179055505b8360025f3373ffffffffffffffffffffffffffffffffffffffff1673ffffffffffffffffffffffffffffffffffffffff1681526020019081526020015f205f8773ffffffffffffffffffffffffffffffffffffffff1673ffffffffffffffffffffffffffffffffffffffff1681526020019081526020015f205f82825461153591906145f6565b925050819055508360035f3373ffffffffffffffffffffffffffffffffffffffff1673ffffffffffffffffffffffffffffffffffffffff1681526020019081526020015f205f8773ffffffffffffffffffffffffffffffffffffffff1673ffffffffffffffffffffffffffffffffffffffff1681526020019081526020015f205f8282546115c391906145f6565b925050819055506040518060a001604052803373ffffffffffffffffffffffffffffffffffffffff1681526020018673ffffffffffffffffffffffffffffffffffffffff1681526020018581526020016001151581526020014281525060055f60095481526020019081526020015f205f820151815f015f6101000a81548173ffffffffffffffffffffffffffffffffffffffff021916908373ffffffffffffffffffffffffffffffffffffffff1602179055506020820151816001015f6101000a81548173ffffffffffffffffffffffffffffffffffffffff021916908373ffffffffffffffffffffffffffffffffffffffff160217905550604082015181600201556060820151816003015f6101000a81548160ff0219169083151502179055506080820151816004015590505060095f81548092919061170590614629565b91905055508473ffffffffffffffffffffffffffffffffffffffff163373ffffffffffffffffffffffffffffffffffffffff167fdcbc1c05240f31ff3ad067ef1ee35ce4997762752e3a095284754544f4c709d78642604051611769929190614670565b60405180910390a350505061177c61310d565b5050565b606060045f8373ffffffffffffffffffffffffffffffffffffffff1673ffffffffffffffffffffffffffffffffffffffff1681526020019081526020015f2080548060200260200160405190810160405280929190818152602001828054801561183c57602002820191905f5260205f20905b815f9054906101000a900473ffffffffffffffffffffffffffffffffffffffff1673ffffffffffffffffffffffffffffffffffffffff16815260200190600101908083116117f3575b50505050509050919050565b611850613116565b60065f8373ffffffffffffffffffffffffffffffffffffffff1673ffffffffffffffffffffffffffffffffffffffff1681526020019081526020015f206040518060a00160405290815f820180546118a790613b62565b80601f01602080910402602001604051908101604052809291908181526020018280546118d390613b62565b801561191e5780601f106118f55761010080835404028352916020019161191e565b820191905f5260205f20905b81548152906001019060200180831161190157829003601f168201915b5050505050815260200160018201805461193790613b62565b80601f016020809104026020016040519081016040528092919081815260200182805461196390613b62565b80156119ae5780601f10611985576101008083540402835291602001916119ae565b820191905f5260205f20905b81548152906001019060200180831161199157829003601f168201915b50505050508152602001600282015f9054906101000a900460ff16151515158152602001600382015481526020016004820154815250509050919050565b60015f9054906101000a900473ffffffffffffffffffffffffffffffffffffffff1673ffffffffffffffffffffffffffffffffffffffff163373ffffffffffffffffffffffffffffffffffffffff1614611a7b576040517f08c379a0000000000000000000000000000000000000000000000000000000008152600401611a7290614707565b60405180910390fd5b600b5f8273ffffffffffffffffffffffffffffffffffffffff1673ffffffffffffffffffffffffffffffffffffffff1681526020019081526020015f205f9054906101000a900460ff1615611b05576040517f08c379a0000000000000000000000000000000000000000000000000000000008152600401611afc9061476f565b60405180910390fd5b5f73ffffffffffffffffffffffffffffffffffffffff168173ffffffffffffffffffffffffffffffffffffffff1603611b73576040517f08c379a0000000000000000000000000000000000000000000000000000000008152600401611b6a906147d7565b60405180910390fd5b600a81908060018154018082558091505060019003905f5260205f20015f9091909190916101000a81548173ffffffffffffffffffffffffffffffffffffffff021916908373ffffffffffffffffffffffffffffffffffffffff1602179055506001600b5f8373ffffffffffffffffffffffffffffffffffffffff1673ffffffffffffffffffffffffffffffffffffffff1681526020019081526020015f205f6101000a81548160ff0219169083151502179055508073ffffffffffffffffffffffffffffffffffffffff167fd86c88b4a367d9b81a6e00c9d3f7d01657bffef358fa8968c91c045ae99f0d526001604051611c6f919061327d565b60405180910390a250565b60605f5f90505f5f90505b600954811015611d10578473ffffffffffffffffffffffffffffffffffffffff1660055f8381526020019081526020015f205f015f9054906101000a900473ffffffffffffffffffffffffffffffffffffffff1673ffffffffffffffffffffffffffffffffffffffff1603611d03578180611cff90614629565b9250505b8080600101915050611c85565b505f83118015611d1f57508281115b15611d28578290505b5f8167ffffffffffffffff811115611d4357611d426132ae565b5b604051908082528060200260200182016040528015611d7c57816020015b611d69613144565b815260200190600190039081611d615790505b5090505f5f90505f60095490505b5f81118015611d9857508382105b15611f4d578673ffffffffffffffffffffffffffffffffffffffff1660055f600184611dc491906147f5565b81526020019081526020015f205f015f9054906101000a900473ffffffffffffffffffffffffffffffffffffffff1673ffffffffffffffffffffffffffffffffffffffff1603611f3a5760055f600183611e1e91906147f5565b81526020019081526020015f206040518060a00160405290815f82015f9054906101000a900473ffffffffffffffffffffffffffffffffffffffff1673ffffffffffffffffffffffffffffffffffffffff1673ffffffffffffffffffffffffffffffffffffffff168152602001600182015f9054906101000a900473ffffffffffffffffffffffffffffffffffffffff1673ffffffffffffffffffffffffffffffffffffffff1673ffffffffffffffffffffffffffffffffffffffff16815260200160028201548152602001600382015f9054906101000a900460ff16151515158152602001600482015481525050838381518110611f2057611f1f614828565b5b60200260200101819052508180611f3690614629565b9250505b8080611f4590614855565b915050611d8a565b5081935050505092915050565b600b602052805f5260405f205f915054906101000a900460ff1681565b60015f9054906101000a900473ffffffffffffffffffffffffffffffffffffffff1673ffffffffffffffffffffffffffffffffffffffff163373ffffffffffffffffffffffffffffffffffffffff1614612006576040517f08c379a0000000000000000000000000000000000000000000000000000000008152600401611ffd90614707565b60405180910390fd5b600b5f8273ffffffffffffffffffffffffffffffffffffffff1673ffffffffffffffffffffffffffffffffffffffff1681526020019081526020015f205f9054906101000a900460ff1661208f576040517f08c379a000000000000000000000000000000000000000000000000000000000815260040161208690614295565b60405180910390fd5b5f600b5f8373ffffffffffffffffffffffffffffffffffffffff1673ffffffffffffffffffffffffffffffffffffffff1681526020019081526020015f205f6101000a81548160ff0219169083151502179055505f5f90505b600a8054905081101561225f578173ffffffffffffffffffffffffffffffffffffffff16600a82815481106121205761211f614828565b5b905f5260205f20015f9054906101000a900473ffffffffffffffffffffffffffffffffffffffff1673ffffffffffffffffffffffffffffffffffffffff160361225257600a6001600a8054905061217791906147f5565b8154811061218857612187614828565b5b905f5260205f20015f9054906101000a900473ffffffffffffffffffffffffffffffffffffffff16600a82815481106121c4576121c3614828565b5b905f5260205f20015f6101000a81548173ffffffffffffffffffffffffffffffffffffffff021916908373ffffffffffffffffffffffffffffffffffffffff160217905550600a80548061221b5761221a61487c565b5b600190038181905f5260205f20015f6101000a81549073ffffffffffffffffffffffffffffffffffffffff0219169055905561225f565b80806001019150506120e8565b508073ffffffffffffffffffffffffffffffffffffffff167fd86c88b4a367d9b81a6e00c9d3f7d01657bffef358fa8968c91c045ae99f0d525f6040516122a6919061327d565b60405180910390a250565b5f5f5f90505f60045f8573ffffffffffffffffffffffffffffffffffffffff1673ffffffffffffffffffffffffffffffffffffffff1681526020019081526020015f2080548060200260200160405190810160405280929190818152602001828054801561237157602002820191905f5260205f20905b815f9054906101000a900473ffffffffffffffffffffffffffffffffffffffff1673ffffffffffffffffffffffffffffffffffffffff1681526020019060010190808311612328575b505050505090505f5f90505b81518110156124335760025f8673ffffffffffffffffffffffffffffffffffffffff1673ffffffffffffffffffffffffffffffffffffffff1681526020019081526020015f205f8383815181106123d7576123d6614828565b5b602002602001015173ffffffffffffffffffffffffffffffffffffffff1673ffffffffffffffffffffffffffffffffffffffff1681526020019081526020015f20548361242491906145f6565b9250808060010191505061237d565b508192505050919050565b60015f9054906101000a900473ffffffffffffffffffffffffffffffffffffffff1681565b6005602052805f5260405f205f91509050805f015f9054906101000a900473ffffffffffffffffffffffffffffffffffffffff1690806001015f9054906101000a900473ffffffffffffffffffffffffffffffffffffffff1690806002015490806003015f9054906101000a900460ff16908060040154905085565b6008602052805f5260405f205f915054906101000a900460ff1681565b6006602052805f5260405f205f91509050805f01805461251b90613b62565b80601f016020809104026020016040519081016040528092919081815260200182805461254790613b62565b80156125925780601f1061256957610100808354040283529160200191612592565b820191905f5260205f20905b81548152906001019060200180831161257557829003601f168201915b5050505050908060010180546125a790613b62565b80601f01602080910402602001604051908101604052809291908181526020018280546125d390613b62565b801561261e5780601f106125f55761010080835404028352916020019161261e565b820191905f5260205f20905b81548152906001019060200180831161260157829003601f168201915b505050505090806002015f9054906101000a900460ff16908060030154908060040154905085565b60095481565b5f5f60025f8573ffffffffffffffffffffffffffffffffffffffff1673ffffffffffffffffffffffffffffffffffffffff1681526020019081526020015f205f8473ffffffffffffffffffffffffffffffffffffffff1673ffffffffffffffffffffffffffffffffffffffff1681526020019081526020015f205490505f60035f8673ffffffffffffffffffffffffffffffffffffffff1673ffffffffffffffffffffffffffffffffffffffff1681526020019081526020015f205f8573ffffffffffffffffffffffffffffffffffffffff1673ffffffffffffffffffffffffffffffffffffffff1681526020019081526020015f205490505f8103612756575f92505050612767565b808261276291906148a9565b925050505b92915050565b5f5f8290508073ffffffffffffffffffffffffffffffffffffffff166370a08231306040518263ffffffff1660e01b81526004016127ab9190613892565b602060405180830381865afa1580156127c6573d5f5f3e3d5ffd5b505050506040513d601f19601f820116820180604052508101906127ea9190613a13565b915050919050565b5f60025f8473ffffffffffffffffffffffffffffffffffffffff1673ffffffffffffffffffffffffffffffffffffffff1681526020019081526020015f205f8373ffffffffffffffffffffffffffffffffffffffff1673ffffffffffffffffffffffffffffffffffffffff1681526020019081526020015f2054905092915050565b600a8181548110612883575f80fd5b905f5260205f20015f915054906101000a900473ffffffffffffffffffffffffffffffffffffffff1681565b6060600a80548060200260200160405190810160405280929190818152602001828054801561293057602002820191905f5260205f20905b815f9054906101000a900473ffffffffffffffffffffffffffffffffffffffff1673ffffffffffffffffffffffffffffffffffffffff16815260200190600101908083116128e7575b5050505050905090565b6003602052815f5260405f20602052805f5260405f205f91509150505481565b6007818051602081018201805184825260208301602085012081835280955050505050505f915054906101000a900460ff1681565b612997612f42565b60065f3373ffffffffffffffffffffffffffffffffffffffff1673ffffffffffffffffffffffffffffffffffffffff1681526020019081526020015f206002015f9054906101000a900460ff16612a23576040517f08c379a0000000000000000000000000000000000000000000000000000000008152600401612a1a90613b17565b60405180910390fd5b60085f3373ffffffffffffffffffffffffffffffffffffffff1673ffffffffffffffffffffffffffffffffffffffff1681526020019081526020015f205f9054906101000a900460ff16612aac576040517f08c379a0000000000000000000000000000000000000000000000000000000008152600401612aa390613aaf565b60405180910390fd5b8060025f3373ffffffffffffffffffffffffffffffffffffffff1673ffffffffffffffffffffffffffffffffffffffff1681526020019081526020015f205f8473ffffffffffffffffffffffffffffffffffffffff1673ffffffffffffffffffffffffffffffffffffffff1681526020019081526020015f20541015612b67576040517f08c379a0000000000000000000000000000000000000000000000000000000008152600401612b5e90614933565b60405180910390fd5b5f8111612ba9576040517f08c379a0000000000000000000000000000000000000000000000000000000008152600401612ba0906142fd565b60405180910390fd5b5f8290508160025f3373ffffffffffffffffffffffffffffffffffffffff1673ffffffffffffffffffffffffffffffffffffffff1681526020019081526020015f205f8573ffffffffffffffffffffffffffffffffffffffff1673ffffffffffffffffffffffffffffffffffffffff1681526020019081526020015f205f828254612c3491906147f5565b925050819055508073ffffffffffffffffffffffffffffffffffffffff1663a9059cbb33846040518363ffffffff1660e01b8152600401612c76929190614951565b6020604051808303815f875af1158015612c92573d5f5f3e3d5ffd5b505050506040513d601f19601f82011682018060405250810190612cb69190614536565b612cf5576040517f08c379a0000000000000000000000000000000000000000000000000000000008152600401612cec906145ab565b60405180910390fd5b6040518060a001604052803373ffffffffffffffffffffffffffffffffffffffff1681526020018473ffffffffffffffffffffffffffffffffffffffff1681526020018381526020015f151581526020014281525060055f60095481526020019081526020015f205f820151815f015f6101000a81548173ffffffffffffffffffffffffffffffffffffffff021916908373ffffffffffffffffffffffffffffffffffffffff1602179055506020820151816001015f6101000a81548173ffffffffffffffffffffffffffffffffffffffff021916908373ffffffffffffffffffffffffffffffffffffffff160217905550604082015181600201556060820151816003015f6101000a81548160ff0219169083151502179055506080820151816004015590505060095f815480929190612e2f90614629565b91905055508273ffffffffffffffffffffffffffffffffffffffff163373ffffffffffffffffffffffffffffffffffffffff167ff341246adaac6f497bc2a656f546ab9e182111d630394f0c57c710a59a2cb5678442604051612e93929190614670565b60405180910390a350612ea461310d565b5050565b5f60085f8373ffffffffffffffffffffffffffffffffffffffff1673ffffffffffffffffffffffffffffffffffffffff1681526020019081526020015f205f9054906101000a900460ff169050919050565b6004602052815f5260405f208181548110612f13575f80fd5b905f5260205f20015f915091509054906101000a900473ffffffffffffffffffffffffffffffffffffffff1681565b60025f5403612f86576040517f08c379a0000000000000000000000000000000000000000000000000000000008152600401612f7d906149c2565b60405180910390fd5b60025f81905550565b60605f8203612fd5576040518060400160405280600181526020017f30000000000000000000000000000000000000000000000000000000000000008152509050613108565b5f8290505f5b5f8214613004578080612fed90614629565b915050600a82612ffd9190614a0d565b9150612fdb565b5f8167ffffffffffffffff81111561301f5761301e6132ae565b5b6040519080825280601f01601f1916602001820160405280156130515781602001600182028036833780820191505090505b5090505f8290505b5f86146131005760018161306d91906147f5565b90505f600a808861307e9190614a0d565b6130889190614a3d565b8761309391906147f5565b603061309f9190614a8a565b90505f8160f81b9050808484815181106130bc576130bb614828565b5b60200101907effffffffffffffffffffffffffffffffffffffffffffffffffffffffffffff191690815f1a905350600a886130f79190614a0d565b97505050613059565b819450505050505b919050565b60015f81905550565b6040518060a0016040528060608152602001606081526020015f151581526020015f81526020015f81525090565b6040518060a001604052805f73ffffffffffffffffffffffffffffffffffffffff1681526020015f73ffffffffffffffffffffffffffffffffffffffff1681526020015f81526020015f151581526020015f81525090565b5f604051905090565b5f5ffd5b5f5ffd5b5f73ffffffffffffffffffffffffffffffffffffffff82169050919050565b5f6131d6826131ad565b9050919050565b6131e6816131cc565b81146131f0575f5ffd5b50565b5f81359050613201816131dd565b92915050565b5f6020828403121561321c5761321b6131a5565b5b5f613229848285016131f3565b91505092915050565b5f819050919050565b61324481613232565b82525050565b5f60208201905061325d5f83018461323b565b92915050565b5f8115159050919050565b61327781613263565b82525050565b5f6020820190506132905f83018461326e565b92915050565b5f5ffd5b5f5ffd5b5f601f19601f8301169050919050565b7f4e487b71000000000000000000000000000000000000000000000000000000005f52604160045260245ffd5b6132e48261329e565b810181811067ffffffffffffffff82111715613303576133026132ae565b5b80604052505050565b5f61331561319c565b905061332182826132db565b919050565b5f67ffffffffffffffff8211156133405761333f6132ae565b5b6133498261329e565b9050602081019050919050565b828183375f83830152505050565b5f61337661337184613326565b61330c565b9050828152602081018484840111156133925761339161329a565b5b61339d848285613356565b509392505050565b5f82601f8301126133b9576133b8613296565b5b81356133c9848260208601613364565b91505092915050565b5f602082840312156133e7576133e66131a5565b5b5f82013567ffffffffffffffff811115613404576134036131a9565b5b613410848285016133a5565b91505092915050565b5f819050919050565b61342b81613419565b82525050565b5f6020820190506134445f830184613422565b92915050565b5f5f604083850312156134605761345f6131a5565b5b5f83013567ffffffffffffffff81111561347d5761347c6131a9565b5b613489858286016133a5565b925050602083013567ffffffffffffffff8111156134aa576134a96131a9565b5b6134b6858286016133a5565b9150509250929050565b5f5f604083850312156134d6576134d56131a5565b5b5f6134e3858286016131f3565b92505060206134f4858286016131f3565b9150509250929050565b61350781613232565b8114613511575f5ffd5b50565b5f81359050613522816134fe565b92915050565b5f5f6040838503121561353e5761353d6131a5565b5b5f61354b858286016131f3565b925050602061355c85828601613514565b9150509250929050565b5f81519050919050565b5f82825260208201905092915050565b5f819050602082019050919050565b613598816131cc565b82525050565b5f6135a9838361358f565b60208301905092915050565b5f602082019050919050565b5f6135cb82613566565b6135d58185613570565b93506135e083613580565b805f5b838110156136105781516135f7888261359e565b9750613602836135b5565b9250506001810190506135e3565b5085935050505092915050565b5f6020820190508181035f83015261363581846135c1565b905092915050565b5f81519050919050565b5f82825260208201905092915050565b8281835e5f83830152505050565b5f61366f8261363d565b6136798185613647565b9350613689818560208601613657565b6136928161329e565b840191505092915050565b6136a681613263565b82525050565b6136b581613232565b82525050565b5f60a083015f8301518482035f8601526136d58282613665565b915050602083015184820360208601526136ef8282613665565b9150506040830151613704604086018261369d565b50606083015161371760608601826136ac565b50608083015161372a60808601826136ac565b508091505092915050565b5f6020820190508181035f83015261374d81846136bb565b905092915050565b5f81519050919050565b5f82825260208201905092915050565b5f819050602082019050919050565b60a082015f8201516137925f85018261358f565b5060208201516137a5602085018261358f565b5060408201516137b860408501826136ac565b5060608201516137cb606085018261369d565b5060808201516137de60808501826136ac565b50505050565b5f6137ef838361377e565b60a08301905092915050565b5f602082019050919050565b5f61381182613755565b61381b818561375f565b93506138268361376f565b805f5b8381101561385657815161383d88826137e4565b9750613848836137fb565b925050600181019050613829565b5085935050505092915050565b5f6020820190508181035f83015261387b8184613807565b905092915050565b61388c816131cc565b82525050565b5f6020820190506138a55f830184613883565b92915050565b5f602082840312156138c0576138bf6131a5565b5b5f6138cd84828501613514565b91505092915050565b5f60a0820190506138e95f830188613883565b6138f66020830187613883565b613903604083018661323b565b613910606083018561326e565b61391d608083018461323b565b9695505050505050565b5f82825260208201905092915050565b5f6139418261363d565b61394b8185613927565b935061395b818560208601613657565b6139648161329e565b840191505092915050565b5f60a0820190508181035f8301526139878188613937565b9050818103602083015261399b8187613937565b90506139aa604083018661326e565b6139b7606083018561323b565b6139c4608083018461323b565b9695505050505050565b5f819050919050565b6139e0816139ce565b82525050565b5f6020820190506139f95f8301846139d7565b92915050565b5f81519050613a0d816134fe565b92915050565b5f60208284031215613a2857613a276131a5565b5b5f613a35848285016139ff565b91505092915050565b5f604082019050613a515f830185613883565b613a5e6020830184613883565b9392505050565b7f55736572206e6f74206c6f6767656420696e00000000000000000000000000005f82015250565b5f613a99601283613927565b9150613aa482613a65565b602082019050919050565b5f6020820190508181035f830152613ac681613a8d565b9050919050565b7f55736572206e6f742072656769737465726564000000000000000000000000005f82015250565b5f613b01601383613927565b9150613b0c82613acd565b602082019050919050565b5f6020820190508181035f830152613b2e81613af5565b9050919050565b7f4e487b71000000000000000000000000000000000000000000000000000000005f52602260045260245ffd5b5f6002820490506001821680613b7957607f821691505b602082108103613b8c57613b8b613b35565b5b50919050565b5f81549050613ba081613b62565b9050919050565b5f819050815f5260205f209050919050565b5f815f1c9050919050565b5f819050919050565b5f613bdf613bda83613bb9565b613bc4565b9050919050565b5f613bf18254613bcd565b9050919050565b5f82821b905092915050565b5f613c0e82613b92565b82601f821115613c2457613c2184613ba7565b90505b613c2d81613be6565b92506020821015613c6d57613c687fffffffffffffffffffffffffffffffffffffffffffffffffffffffffffffffff83602003600802613bf8565b831692505b5050919050565b7f496e76616c69642070617373776f7264000000000000000000000000000000005f82015250565b5f613ca8601083613927565b9150613cb382613c74565b602082019050919050565b5f6020820190508181035f830152613cd581613c9c565b9050919050565b5f81905092915050565b5f613cf08261363d565b613cfa8185613cdc565b9350613d0a818560208601613657565b80840191505092915050565b5f613d218284613ce6565b915081905092915050565b7f5573657220616c726561647920726567697374657265640000000000000000005f82015250565b5f613d60601783613927565b9150613d6b82613d2c565b602082019050919050565b5f6020820190508181035f830152613d8d81613d54565b9050919050565b7f557365726e616d65206d757374206265206174206c65617374203320636861725f8201527f6163746572730000000000000000000000000000000000000000000000000000602082015250565b5f613dee602683613927565b9150613df982613d94565b604082019050919050565b5f6020820190508181035f830152613e1b81613de2565b9050919050565b7f50617373776f7264206d757374206265206174206c65617374203620636861725f8201527f6163746572730000000000000000000000000000000000000000000000000000602082015250565b5f613e7c602683613927565b9150613e8782613e22565b604082019050919050565b5f6020820190508181035f830152613ea981613e70565b9050919050565b7f557365726e616d6520616c72656164792074616b656e000000000000000000005f82015250565b5f613ee4601683613927565b9150613eef82613eb0565b602082019050919050565b5f6020820190508181035f830152613f1181613ed8565b9050919050565b7f557365726e616d6520746f6f206c6f6e670000000000000000000000000000005f82015250565b5f613f4c601183613927565b9150613f5782613f18565b602082019050919050565b5f6020820190508181035f830152613f7981613f40565b9050919050565b5f819050919050565b613f9a613f9582613419565b613f80565b82525050565b5f613fab8284613f89565b60208201915081905092915050565b5f819050815f5260205f209050919050565b5f6020601f8301049050919050565b5f6008830261400a7fffffffffffffffffffffffffffffffffffffffffffffffffffffffffffffffff82613bf8565b6140148683613bf8565b95508019841693508086168417925050509392505050565b5f819050919050565b5f61404f61404a61404584613232565b61402c565b613232565b9050919050565b5f819050919050565b61406883614035565b61407c61407482614056565b848454613fdb565b825550505050565b5f5f905090565b614093614084565b61409e81848461405f565b505050565b5b818110156140c1576140b65f8261408b565b6001810190506140a4565b5050565b601f821115614106576140d781613fba565b6140e084613fcc565b810160208510156140ef578190505b6141036140fb85613fcc565b8301826140a3565b50505b505050565b5f82821c905092915050565b5f6141265f198460080261410b565b1980831691505092915050565b5f61413e8383614117565b9150826002028217905092915050565b6141578261363d565b67ffffffffffffffff8111156141705761416f6132ae565b5b61417a8254613b62565b6141858282856140c5565b5f60209050601f8311600181146141b6575f84156141a4578287015190505b6141ae8582614133565b865550614215565b601f1984166141c486613fba565b5f5b828110156141eb578489015182556001820191506020850194506020810190506141c6565b868310156142085784890151614204601f891682614117565b8355505b6001600288020188555050505b505050505050565b5f6040820190508181035f8301526142358185613937565b9050614244602083018461323b565b9392505050565b7f546f6b656e206e6f7420737570706f72746564000000000000000000000000005f82015250565b5f61427f601383613927565b915061428a8261424b565b602082019050919050565b5f6020820190508181035f8301526142ac81614273565b9050919050565b7f416d6f756e74206d7573742062652067726561746572207468616e20300000005f82015250565b5f6142e7601d83613927565b91506142f2826142b3565b602082019050919050565b5f6020820190508181035f830152614314816142db565b9050919050565b7f496e73756666696369656e7420616c6c6f77616e63652e2043757272656e743a5f8201527f2000000000000000000000000000000000000000000000000000000000000000602082015250565b5f614375602183613cdc565b91506143808261431b565b602182019050919050565b7f2c2052657175697265643a2000000000000000000000000000000000000000005f82015250565b5f6143bf600c83613cdc565b91506143ca8261438b565b600c82019050919050565b5f6143df82614369565b91506143eb8285613ce6565b91506143f6826143b3565b91506144028284613ce6565b91508190509392505050565b5f6020820190508181035f8301526144268184613937565b905092915050565b7f496e73756666696369656e7420746f6b656e2062616c616e63652e20437572725f8201527f656e743a20000000000000000000000000000000000000000000000000000000602082015250565b5f614488602583613cdc565b91506144938261442e565b602582019050919050565b5f6144a88261447c565b91506144b48285613ce6565b91506144bf826143b3565b91506144cb8284613ce6565b91508190509392505050565b5f6060820190506144ea5f830186613883565b6144f76020830185613883565b614504604083018461323b565b949350505050565b61451581613263565b811461451f575f5ffd5b50565b5f815190506145308161450c565b92915050565b5f6020828403121561454b5761454a6131a5565b5b5f61455884828501614522565b91505092915050565b7f5472616e73666572206661696c656400000000000000000000000000000000005f82015250565b5f614595600f83613927565b91506145a082614561565b602082019050919050565b5f6020820190508181035f8301526145c281614589565b9050919050565b7f4e487b71000000000000000000000000000000000000000000000000000000005f52601160045260245ffd5b5f61460082613232565b915061460b83613232565b9250828201905080821115614623576146226145c9565b5b92915050565b5f61463382613232565b91507fffffffffffffffffffffffffffffffffffffffffffffffffffffffffffffffff8203614665576146646145c9565b5b600182019050919050565b5f6040820190506146835f83018561323b565b614690602083018461323b565b9392505050565b7f4f6e6c79206f776e65722063616e2063616c6c20746869732066756e6374696f5f8201527f6e00000000000000000000000000000000000000000000000000000000000000602082015250565b5f6146f1602183613927565b91506146fc82614697565b604082019050919050565b5f6020820190508181035f83015261471e816146e5565b9050919050565b7f546f6b656e20616c726561647920737570706f727465640000000000000000005f82015250565b5f614759601783613927565b915061476482614725565b602082019050919050565b5f6020820190508181035f8301526147868161474d565b9050919050565b7f496e76616c696420746f6b656e206164647265737300000000000000000000005f82015250565b5f6147c1601583613927565b91506147cc8261478d565b602082019050919050565b5f6020820190508181035f8301526147ee816147b5565b9050919050565b5f6147ff82613232565b915061480a83613232565b9250828203905081811115614822576148216145c9565b5b92915050565b7f4e487b71000000000000000000000000000000000000000000000000000000005f52603260045260245ffd5b5f61485f82613232565b91505f8203614871576148706145c9565b5b600182039050919050565b7f4e487b71000000000000000000000000000000000000000000000000000000005f52603160045260245ffd5b5f6148b3826139ce565b91506148be836139ce565b925082820390508181125f8412168282135f8512151617156148e3576148e26145c9565b5b92915050565b7f496e73756666696369656e742062616c616e63650000000000000000000000005f82015250565b5f61491d601483613927565b9150614928826148e9565b602082019050919050565b5f6020820190508181035f83015261494a81614911565b9050919050565b5f6040820190506149645f830185613883565b614971602083018461323b565b9392505050565b7f5265656e7472616e637947756172643a207265656e7472616e742063616c6c005f82015250565b5f6149ac601f83613927565b91506149b782614978565b602082019050919050565b5f6020820190508181035f8301526149d9816149a0565b9050919050565b7f4e487b71000000000000000000000000000000000000000000000000000000005f52601260045260245ffd5b5f614a1782613232565b9150614a2283613232565b925082614a3257614a316149e0565b5b828204905092915050565b5f614a4782613232565b9150614a5283613232565b9250828202614a6081613232565b91508282048414831517614a7757614a766145c9565b5b5092915050565b5f60ff82169050919050565b5f614a9482614a7e565b9150614a9f83614a7e565b9250828201905060ff811115614ab857614ab76145c9565b5b9291505056fea2646970667358221220d7e288789ba91e8ea4c26a2a47ce3e689fd3506fdfc5887656d4f062e0f76e9964736f6c634300081e0033",
					"opcodes": "PUSH1 0x80 PUSH1 0x40 MSTORE CALLVALUE DUP1 ISZERO PUSH1 0xE JUMPI PUSH0 PUSH0 REVERT JUMPDEST POP PUSH1 0x1 PUSH0 DUP2 SWAP1 SSTORE POP CALLER PUSH1 0x1 PUSH0 PUSH2 0x100 EXP DUP2 SLOAD DUP2 PUSH20 0xFFFFFFFFFFFFFFFFFFFFFFFFFFFFFFFFFFFFFFFF MUL NOT AND SWAP1 DUP4 PUSH20 0xFFFFFFFFFFFFFFFFFFFFFFFFFFFFFFFFFFFFFFFF AND MUL OR SWAP1 SSTORE POP PUSH2 0x4AF4 DUP1 PUSH2 0x63 PUSH0 CODECOPY PUSH0 RETURN INVALID PUSH1 0x80 PUSH1 0x40 MSTORE CALLVALUE DUP1 ISZERO PUSH2 0xF JUMPI PUSH0 PUSH0 REVERT JUMPDEST POP PUSH1 0x4 CALLDATASIZE LT PUSH2 0x1E3 JUMPI PUSH0 CALLDATALOAD PUSH1 0xE0 SHR DUP1 PUSH4 0x8C81E4D1 GT PUSH2 0x10D JUMPI DUP1 PUSH4 0xC489744B GT PUSH2 0xA0 JUMPI DUP1 PUSH4 0xF26E818A GT PUSH2 0x6F JUMPI DUP1 PUSH4 0xF26E818A EQ PUSH2 0x653 JUMPI DUP1 PUSH4 0xF3FEF3A3 EQ PUSH2 0x683 JUMPI DUP1 PUSH4 0xF44A8BEF EQ PUSH2 0x69F JUMPI DUP1 PUSH4 0xF9F411D8 EQ PUSH2 0x6CF JUMPI PUSH2 0x1E3 JUMP JUMPDEST DUP1 PUSH4 0xC489744B EQ PUSH2 0x5A5 JUMPI DUP1 PUSH4 0xC6255626 EQ PUSH2 0x5D5 JUMPI DUP1 PUSH4 0xD3C7C2C7 EQ PUSH2 0x605 JUMPI DUP1 PUSH4 0xE7041F13 EQ PUSH2 0x623 JUMPI PUSH2 0x1E3 JUMP JUMPDEST DUP1 PUSH4 0xA87430BA GT PUSH2 0xDC JUMPI DUP1 PUSH4 0xA87430BA EQ PUSH2 0x4F3 JUMPI DUP1 PUSH4 0xB77BF600 EQ PUSH2 0x527 JUMPI DUP1 PUSH4 0xC0DBF558 EQ PUSH2 0x545 JUMPI DUP1 PUSH4 0xC30719BF EQ PUSH2 0x575 JUMPI PUSH2 0x1E3 JUMP JUMPDEST DUP1 PUSH4 0x8C81E4D1 EQ PUSH2 0x441 JUMPI DUP1 PUSH4 0x8DA5CB5B EQ PUSH2 0x471 JUMPI DUP1 PUSH4 0x9ACE38C2 EQ PUSH2 0x48F JUMPI DUP1 PUSH4 0x9EE20B15 EQ PUSH2 0x4C3 JUMPI PUSH2 0x1E3 JUMP JUMPDEST DUP1 PUSH4 0x45F2D105 GT PUSH2 0x185 JUMPI DUP1 PUSH4 0x6D69FCAF GT PUSH2 0x154 JUMPI DUP1 PUSH4 0x6D69FCAF EQ PUSH2 0x3A9 JUMPI DUP1 PUSH4 0x7380626B EQ PUSH2 0x3C5 JUMPI DUP1 PUSH4 0x75151B63 EQ PUSH2 0x3F5 JUMPI DUP1 PUSH4 0x76319190 EQ PUSH2 0x425 JUMPI PUSH2 0x1E3 JUMP JUMPDEST DUP1 PUSH4 0x45F2D105 EQ PUSH2 0x2FD JUMPI DUP1 PUSH4 0x47E7EF24 EQ PUSH2 0x32D JUMPI DUP1 PUSH4 0x519DC8D2 EQ PUSH2 0x349 JUMPI DUP1 PUSH4 0x6386C1C7 EQ PUSH2 0x379 JUMPI PUSH2 0x1E3 JUMP JUMPDEST DUP1 PUSH4 0x1F3C99C3 GT PUSH2 0x1C1 JUMPI DUP1 PUSH4 0x1F3C99C3 EQ PUSH2 0x277 JUMPI DUP1 PUSH4 0x3A7D280C EQ PUSH2 0x281 JUMPI DUP1 PUSH4 0x3F75A07D EQ PUSH2 0x2B1 JUMPI DUP1 PUSH4 0x3FFBD47F EQ PUSH2 0x2E1 JUMPI PUSH2 0x1E3 JUMP JUMPDEST DUP1 PUSH4 0x126CBE60 EQ PUSH2 0x1E7 JUMPI DUP1 PUSH4 0x163F7522 EQ PUSH2 0x217 JUMPI DUP1 PUSH4 0x1A197A26 EQ PUSH2 0x247 JUMPI JUMPDEST PUSH0 PUSH0 REVERT JUMPDEST PUSH2 0x201 PUSH1 0x4 DUP1 CALLDATASIZE SUB DUP2 ADD SWAP1 PUSH2 0x1FC SWAP2 SWAP1 PUSH2 0x3207 JUMP JUMPDEST PUSH2 0x6FF JUMP JUMPDEST PUSH1 0x40 MLOAD PUSH2 0x20E SWAP2 SWAP1 PUSH2 0x324A JUMP JUMPDEST PUSH1 0x40 MLOAD DUP1 SWAP2 SUB SWAP1 RETURN JUMPDEST PUSH2 0x231 PUSH1 0x4 DUP1 CALLDATASIZE SUB DUP2 ADD SWAP1 PUSH2 0x22C SWAP2 SWAP1 PUSH2 0x3207 JUMP JUMPDEST PUSH2 0x784 JUMP JUMPDEST PUSH1 0x40 MLOAD PUSH2 0x23E SWAP2 SWAP1 PUSH2 0x327D JUMP JUMPDEST PUSH1 0x40 MLOAD DUP1 SWAP2 SUB SWAP1 RETURN JUMPDEST PUSH2 0x261 PUSH1 0x4 DUP1 CALLDATASIZE SUB DUP2 ADD SWAP1 PUSH2 0x25C SWAP2 SWAP1 PUSH2 0x3207 JUMP JUMPDEST PUSH2 0x7D9 JUMP JUMPDEST PUSH1 0x40 MLOAD PUSH2 0x26E SWAP2 SWAP1 PUSH2 0x324A JUMP JUMPDEST PUSH1 0x40 MLOAD DUP1 SWAP2 SUB SWAP1 RETURN JUMPDEST PUSH2 0x27F PUSH2 0x860 JUMP JUMPDEST STOP JUMPDEST PUSH2 0x29B PUSH1 0x4 DUP1 CALLDATASIZE SUB DUP2 ADD SWAP1 PUSH2 0x296 SWAP2 SWAP1 PUSH2 0x33D2 JUMP JUMPDEST PUSH2 0x98D JUMP JUMPDEST PUSH1 0x40 MLOAD PUSH2 0x2A8 SWAP2 SWAP1 PUSH2 0x327D JUMP JUMPDEST PUSH1 0x40 MLOAD DUP1 SWAP2 SUB SWAP1 RETURN JUMPDEST PUSH2 0x2CB PUSH1 0x4 DUP1 CALLDATASIZE SUB DUP2 ADD SWAP1 PUSH2 0x2C6 SWAP2 SWAP1 PUSH2 0x33D2 JUMP JUMPDEST PUSH2 0xB70 JUMP JUMPDEST PUSH1 0x40 MLOAD PUSH2 0x2D8 SWAP2 SWAP1 PUSH2 0x3431 JUMP JUMPDEST PUSH1 0x40 MLOAD DUP1 SWAP2 SUB SWAP1 RETURN JUMPDEST PUSH2 0x2FB PUSH1 0x4 DUP1 CALLDATASIZE SUB DUP2 ADD SWAP1 PUSH2 0x2F6 SWAP2 SWAP1 PUSH2 0x344A JUMP JUMPDEST PUSH2 0xB9F JUMP JUMPDEST STOP JUMPDEST PUSH2 0x317 PUSH1 0x4 DUP1 CALLDATASIZE SUB DUP2 ADD SWAP1 PUSH2 0x312 SWAP2 SWAP1 PUSH2 0x34C0 JUMP JUMPDEST PUSH2 0xEE3 JUMP JUMPDEST PUSH1 0x40 MLOAD PUSH2 0x324 SWAP2 SWAP1 PUSH2 0x324A JUMP JUMPDEST PUSH1 0x40 MLOAD DUP1 SWAP2 SUB SWAP1 RETURN JUMPDEST PUSH2 0x347 PUSH1 0x4 DUP1 CALLDATASIZE SUB DUP2 ADD SWAP1 PUSH2 0x342 SWAP2 SWAP1 PUSH2 0x3528 JUMP JUMPDEST PUSH2 0xF03 JUMP JUMPDEST STOP JUMPDEST PUSH2 0x363 PUSH1 0x4 DUP1 CALLDATASIZE SUB DUP2 ADD SWAP1 PUSH2 0x35E SWAP2 SWAP1 PUSH2 0x3207 JUMP JUMPDEST PUSH2 0x1780 JUMP JUMPDEST PUSH1 0x40 MLOAD PUSH2 0x370 SWAP2 SWAP1 PUSH2 0x361D JUMP JUMPDEST PUSH1 0x40 MLOAD DUP1 SWAP2 SUB SWAP1 RETURN JUMPDEST PUSH2 0x393 PUSH1 0x4 DUP1 CALLDATASIZE SUB DUP2 ADD SWAP1 PUSH2 0x38E SWAP2 SWAP1 PUSH2 0x3207 JUMP JUMPDEST PUSH2 0x1848 JUMP JUMPDEST PUSH1 0x40 MLOAD PUSH2 0x3A0 SWAP2 SWAP1 PUSH2 0x3735 JUMP JUMPDEST PUSH1 0x40 MLOAD DUP1 SWAP2 SUB SWAP1 RETURN JUMPDEST PUSH2 0x3C3 PUSH1 0x4 DUP1 CALLDATASIZE SUB DUP2 ADD SWAP1 PUSH2 0x3BE SWAP2 SWAP1 PUSH2 0x3207 JUMP JUMPDEST PUSH2 0x19EC JUMP JUMPDEST STOP JUMPDEST PUSH2 0x3DF PUSH1 0x4 DUP1 CALLDATASIZE SUB DUP2 ADD SWAP1 PUSH2 0x3DA SWAP2 SWAP1 PUSH2 0x3528 JUMP JUMPDEST PUSH2 0x1C7A JUMP JUMPDEST PUSH1 0x40 MLOAD PUSH2 0x3EC SWAP2 SWAP1 PUSH2 0x3863 JUMP JUMPDEST PUSH1 0x40 MLOAD DUP1 SWAP2 SUB SWAP1 RETURN JUMPDEST PUSH2 0x40F PUSH1 0x4 DUP1 CALLDATASIZE SUB DUP2 ADD SWAP1 PUSH2 0x40A SWAP2 SWAP1 PUSH2 0x3207 JUMP JUMPDEST PUSH2 0x1F5A JUMP JUMPDEST PUSH1 0x40 MLOAD PUSH2 0x41C SWAP2 SWAP1 PUSH2 0x327D JUMP JUMPDEST PUSH1 0x40 MLOAD DUP1 SWAP2 SUB SWAP1 RETURN JUMPDEST PUSH2 0x43F PUSH1 0x4 DUP1 CALLDATASIZE SUB DUP2 ADD SWAP1 PUSH2 0x43A SWAP2 SWAP1 PUSH2 0x3207 JUMP JUMPDEST PUSH2 0x1F77 JUMP JUMPDEST STOP JUMPDEST PUSH2 0x45B PUSH1 0x4 DUP1 CALLDATASIZE SUB DUP2 ADD SWAP1 PUSH2 0x456 SWAP2 SWAP1 PUSH2 0x3207 JUMP JUMPDEST PUSH2 0x22B1 JUMP JUMPDEST PUSH1 0x40 MLOAD PUSH2 0x468 SWAP2 SWAP1 PUSH2 0x324A JUMP JUMPDEST PUSH1 0x40 MLOAD DUP1 SWAP2 SUB SWAP1 RETURN JUMPDEST PUSH2 0x479 PUSH2 0x243E JUMP JUMPDEST PUSH1 0x40 MLOAD PUSH2 0x486 SWAP2 SWAP1 PUSH2 0x3892 JUMP JUMPDEST PUSH1 0x40 MLOAD DUP1 SWAP2 SUB SWAP1 RETURN JUMPDEST PUSH2 0x4A9 PUSH1 0x4 DUP1 CALLDATASIZE SUB DUP2 ADD SWAP1 PUSH2 0x4A4 SWAP2 SWAP1 PUSH2 0x38AB JUMP JUMPDEST PUSH2 0x2463 JUMP JUMPDEST PUSH1 0x40 MLOAD PUSH2 0x4BA SWAP6 SWAP5 SWAP4 SWAP3 SWAP2 SWAP1 PUSH2 0x38D6 JUMP JUMPDEST PUSH1 0x40 MLOAD DUP1 SWAP2 SUB SWAP1 RETURN JUMPDEST PUSH2 0x4DD PUSH1 0x4 DUP1 CALLDATASIZE SUB DUP2 ADD SWAP1 PUSH2 0x4D8 SWAP2 SWAP1 PUSH2 0x3207 JUMP JUMPDEST PUSH2 0x24DF JUMP JUMPDEST PUSH1 0x40 MLOAD PUSH2 0x4EA SWAP2 SWAP1 PUSH2 0x327D JUMP JUMPDEST PUSH1 0x40 MLOAD DUP1 SWAP2 SUB SWAP1 RETURN JUMPDEST PUSH2 0x50D PUSH1 0x4 DUP1 CALLDATASIZE SUB DUP2 ADD SWAP1 PUSH2 0x508 SWAP2 SWAP1 PUSH2 0x3207 JUMP JUMPDEST PUSH2 0x24FC JUMP JUMPDEST PUSH1 0x40 MLOAD PUSH2 0x51E SWAP6 SWAP5 SWAP4 SWAP3 SWAP2 SWAP1 PUSH2 0x396F JUMP JUMPDEST PUSH1 0x40 MLOAD DUP1 SWAP2 SUB SWAP1 RETURN JUMPDEST PUSH2 0x52F PUSH2 0x2646 JUMP JUMPDEST PUSH1 0x40 MLOAD PUSH2 0x53C SWAP2 SWAP1 PUSH2 0x324A JUMP JUMPDEST PUSH1 0x40 MLOAD DUP1 SWAP2 SUB SWAP1 RETURN JUMPDEST PUSH2 0x55F PUSH1 0x4 DUP1 CALLDATASIZE SUB DUP2 ADD SWAP1 PUSH2 0x55A SWAP2 SWAP1 PUSH2 0x34C0 JUMP JUMPDEST PUSH2 0x264C JUMP JUMPDEST PUSH1 0x40 MLOAD PUSH2 0x56C SWAP2 SWAP1 PUSH2 0x39E6 JUMP JUMPDEST PUSH1 0x40 MLOAD DUP1 SWAP2 SUB SWAP1 RETURN JUMPDEST PUSH2 0x58F PUSH1 0x4 DUP1 CALLDATASIZE SUB DUP2 ADD SWAP1 PUSH2 0x58A SWAP2 SWAP1 PUSH2 0x3207 JUMP JUMPDEST PUSH2 0x276D JUMP JUMPDEST PUSH1 0x40 MLOAD PUSH2 0x59C SWAP2 SWAP1 PUSH2 0x324A JUMP JUMPDEST PUSH1 0x40 MLOAD DUP1 SWAP2 SUB SWAP1 RETURN JUMPDEST PUSH2 0x5BF PUSH1 0x4 DUP1 CALLDATASIZE SUB DUP2 ADD SWAP1 PUSH2 0x5BA SWAP2 SWAP1 PUSH2 0x34C0 JUMP JUMPDEST PUSH2 0x27F2 JUMP JUMPDEST PUSH1 0x40 MLOAD PUSH2 0x5CC SWAP2 SWAP1 PUSH2 0x324A JUMP JUMPDEST PUSH1 0x40 MLOAD DUP1 SWAP2 SUB SWAP1 RETURN JUMPDEST PUSH2 0x5EF PUSH1 0x4 DUP1 CALLDATASIZE SUB DUP2 ADD SWAP1 PUSH2 0x5EA SWAP2 SWAP1 PUSH2 0x38AB JUMP JUMPDEST PUSH2 0x2874 JUMP JUMPDEST PUSH1 0x40 MLOAD PUSH2 0x5FC SWAP2 SWAP1 PUSH2 0x3892 JUMP JUMPDEST PUSH1 0x40 MLOAD DUP1 SWAP2 SUB SWAP1 RETURN JUMPDEST PUSH2 0x60D PUSH2 0x28AF JUMP JUMPDEST PUSH1 0x40 MLOAD PUSH2 0x61A SWAP2 SWAP1 PUSH2 0x361D JUMP JUMPDEST PUSH1 0x40 MLOAD DUP1 SWAP2 SUB SWAP1 RETURN JUMPDEST PUSH2 0x63D PUSH1 0x4 DUP1 CALLDATASIZE SUB DUP2 ADD SWAP1 PUSH2 0x638 SWAP2 SWAP1 PUSH2 0x34C0 JUMP JUMPDEST PUSH2 0x293A JUMP JUMPDEST PUSH1 0x40 MLOAD PUSH2 0x64A SWAP2 SWAP1 PUSH2 0x324A JUMP JUMPDEST PUSH1 0x40 MLOAD DUP1 SWAP2 SUB SWAP1 RETURN JUMPDEST PUSH2 0x66D PUSH1 0x4 DUP1 CALLDATASIZE SUB DUP2 ADD SWAP1 PUSH2 0x668 SWAP2 SWAP1 PUSH2 0x33D2 JUMP JUMPDEST PUSH2 0x295A JUMP JUMPDEST PUSH1 0x40 MLOAD PUSH2 0x67A SWAP2 SWAP1 PUSH2 0x327D JUMP JUMPDEST PUSH1 0x40 MLOAD DUP1 SWAP2 SUB SWAP1 RETURN JUMPDEST PUSH2 0x69D PUSH1 0x4 DUP1 CALLDATASIZE SUB DUP2 ADD SWAP1 PUSH2 0x698 SWAP2 SWAP1 PUSH2 0x3528 JUMP JUMPDEST PUSH2 0x298F JUMP JUMPDEST STOP JUMPDEST PUSH2 0x6B9 PUSH1 0x4 DUP1 CALLDATASIZE SUB DUP2 ADD SWAP1 PUSH2 0x6B4 SWAP2 SWAP1 PUSH2 0x3207 JUMP JUMPDEST PUSH2 0x2EA8 JUMP JUMPDEST PUSH1 0x40 MLOAD PUSH2 0x6C6 SWAP2 SWAP1 PUSH2 0x327D JUMP JUMPDEST PUSH1 0x40 MLOAD DUP1 SWAP2 SUB SWAP1 RETURN JUMPDEST PUSH2 0x6E9 PUSH1 0x4 DUP1 CALLDATASIZE SUB DUP2 ADD SWAP1 PUSH2 0x6E4 SWAP2 SWAP1 PUSH2 0x3528 JUMP JUMPDEST PUSH2 0x2EFA JUMP JUMPDEST PUSH1 0x40 MLOAD PUSH2 0x6F6 SWAP2 SWAP1 PUSH2 0x3892 JUMP JUMPDEST PUSH1 0x40 MLOAD DUP1 SWAP2 SUB SWAP1 RETURN JUMPDEST PUSH0 PUSH0 DUP3 SWAP1 POP DUP1 PUSH20 0xFFFFFFFFFFFFFFFFFFFFFFFFFFFFFFFFFFFFFFFF AND PUSH4 0x70A08231 CALLER PUSH1 0x40 MLOAD DUP3 PUSH4 0xFFFFFFFF AND PUSH1 0xE0 SHL DUP2 MSTORE PUSH1 0x4 ADD PUSH2 0x73D SWAP2 SWAP1 PUSH2 0x3892 JUMP JUMPDEST PUSH1 0x20 PUSH1 0x40 MLOAD DUP1 DUP4 SUB DUP2 DUP7 GAS STATICCALL ISZERO DUP1 ISZERO PUSH2 0x758 JUMPI RETURNDATASIZE PUSH0 PUSH0 RETURNDATACOPY RETURNDATASIZE PUSH0 REVERT JUMPDEST POP POP POP POP PUSH1 0x40 MLOAD RETURNDATASIZE PUSH1 0x1F NOT PUSH1 0x1F DUP3 ADD AND DUP3 ADD DUP1 PUSH1 0x40 MSTORE POP DUP2 ADD SWAP1 PUSH2 0x77C SWAP2 SWAP1 PUSH2 0x3A13 JUMP JUMPDEST SWAP2 POP POP SWAP2 SWAP1 POP JUMP JUMPDEST PUSH0 PUSH1 0x6 PUSH0 DUP4 PUSH20 0xFFFFFFFFFFFFFFFFFFFFFFFFFFFFFFFFFFFFFFFF AND PUSH20 0xFFFFFFFFFFFFFFFFFFFFFFFFFFFFFFFFFFFFFFFF AND DUP2 MSTORE PUSH1 0x20 ADD SWAP1 DUP2 MSTORE PUSH1 0x20 ADD PUSH0 KECCAK256 PUSH1 0x2 ADD PUSH0 SWAP1 SLOAD SWAP1 PUSH2 0x100 EXP SWAP1 DIV PUSH1 0xFF AND SWAP1 POP SWAP2 SWAP1 POP JUMP JUMPDEST PUSH0 PUSH0 DUP3 SWAP1 POP DUP1 PUSH20 0xFFFFFFFFFFFFFFFFFFFFFFFFFFFFFFFFFFFFFFFF AND PUSH4 0xDD62ED3E CALLER ADDRESS PUSH1 0x40 MLOAD DUP4 PUSH4 0xFFFFFFFF AND PUSH1 0xE0 SHL DUP2 MSTORE PUSH1 0x4 ADD PUSH2 0x819 SWAP3 SWAP2 SWAP1 PUSH2 0x3A3E JUMP JUMPDEST PUSH1 0x20 PUSH1 0x40 MLOAD DUP1 DUP4 SUB DUP2 DUP7 GAS STATICCALL ISZERO DUP1 ISZERO PUSH2 0x834 JUMPI RETURNDATASIZE PUSH0 PUSH0 RETURNDATACOPY RETURNDATASIZE PUSH0 REVERT JUMPDEST POP POP POP POP PUSH1 0x40 MLOAD RETURNDATASIZE PUSH1 0x1F NOT PUSH1 0x1F DUP3 ADD AND DUP3 ADD DUP1 PUSH1 0x40 MSTORE POP DUP2 ADD SWAP1 PUSH2 0x858 SWAP2 SWAP1 PUSH2 0x3A13 JUMP JUMPDEST SWAP2 POP POP SWAP2 SWAP1 POP JUMP JUMPDEST PUSH1 0x8 PUSH0 CALLER PUSH20 0xFFFFFFFFFFFFFFFFFFFFFFFFFFFFFFFFFFFFFFFF AND PUSH20 0xFFFFFFFFFFFFFFFFFFFFFFFFFFFFFFFFFFFFFFFF AND DUP2 MSTORE PUSH1 0x20 ADD SWAP1 DUP2 MSTORE PUSH1 0x20 ADD PUSH0 KECCAK256 PUSH0 SWAP1 SLOAD SWAP1 PUSH2 0x100 EXP SWAP1 DIV PUSH1 0xFF AND PUSH2 0x8E9 JUMPI PUSH1 0x40 MLOAD PUSH32 0x8C379A000000000000000000000000000000000000000000000000000000000 DUP2 MSTORE PUSH1 0x4 ADD PUSH2 0x8E0 SWAP1 PUSH2 0x3AAF JUMP JUMPDEST PUSH1 0x40 MLOAD DUP1 SWAP2 SUB SWAP1 REVERT JUMPDEST PUSH0 PUSH1 0x8 PUSH0 CALLER PUSH20 0xFFFFFFFFFFFFFFFFFFFFFFFFFFFFFFFFFFFFFFFF AND PUSH20 0xFFFFFFFFFFFFFFFFFFFFFFFFFFFFFFFFFFFFFFFF AND DUP2 MSTORE PUSH1 0x20 ADD SWAP1 DUP2 MSTORE PUSH1 0x20 ADD PUSH0 KECCAK256 PUSH0 PUSH2 0x100 EXP DUP2 SLOAD DUP2 PUSH1 0xFF MUL NOT AND SWAP1 DUP4 ISZERO ISZERO MUL OR SWAP1 SSTORE POP CALLER PUSH20 0xFFFFFFFFFFFFFFFFFFFFFFFFFFFFFFFFFFFFFFFF AND PUSH32 0x22C3CE09984495411CFAA9C6D5BFD078EDE4D3A3D9D3249F506A59861D68E721 TIMESTAMP PUSH1 0x40 MLOAD PUSH2 0x983 SWAP2 SWAP1 PUSH2 0x324A JUMP JUMPDEST PUSH1 0x40 MLOAD DUP1 SWAP2 SUB SWAP1 LOG2 JUMP JUMPDEST PUSH0 PUSH1 0x6 PUSH0 CALLER PUSH20 0xFFFFFFFFFFFFFFFFFFFFFFFFFFFFFFFFFFFFFFFF AND PUSH20 0xFFFFFFFFFFFFFFFFFFFFFFFFFFFFFFFFFFFFFFFF AND DUP2 MSTORE PUSH1 0x20 ADD SWAP1 DUP2 MSTORE PUSH1 0x20 ADD PUSH0 KECCAK256 PUSH1 0x2 ADD PUSH0 SWAP1 SLOAD SWAP1 PUSH2 0x100 EXP SWAP1 DIV PUSH1 0xFF AND PUSH2 0xA1A JUMPI PUSH1 0x40 MLOAD PUSH32 0x8C379A000000000000000000000000000000000000000000000000000000000 DUP2 MSTORE PUSH1 0x4 ADD PUSH2 0xA11 SWAP1 PUSH2 0x3B17 JUMP JUMPDEST PUSH1 0x40 MLOAD DUP1 SWAP2 SUB SWAP1 REVERT JUMPDEST PUSH0 PUSH1 0x6 PUSH0 CALLER PUSH20 0xFFFFFFFFFFFFFFFFFFFFFFFFFFFFFFFFFFFFFFFF AND PUSH20 0xFFFFFFFFFFFFFFFFFFFFFFFFFFFFFFFFFFFFFFFF AND DUP2 MSTORE PUSH1 0x20 ADD SWAP1 DUP2 MSTORE PUSH1 0x20 ADD PUSH0 KECCAK256 SWAP1 POP PUSH0 PUSH2 0xA64 DUP5 PUSH2 0xB70 JUMP JUMPDEST SWAP1 POP PUSH0 DUP3 PUSH1 0x1 ADD PUSH2 0xA74 SWAP1 PUSH2 0x3C04 JUMP JUMPDEST SWAP1 POP DUP1 DUP3 EQ PUSH2 0xAB8 JUMPI PUSH1 0x40 MLOAD PUSH32 0x8C379A000000000000000000000000000000000000000000000000000000000 DUP2 MSTORE PUSH1 0x4 ADD PUSH2 0xAAF SWAP1 PUSH2 0x3CBE JUMP JUMPDEST PUSH1 0x40 MLOAD DUP1 SWAP2 SUB SWAP1 REVERT JUMPDEST PUSH1 0x1 PUSH1 0x8 PUSH0 CALLER PUSH20 0xFFFFFFFFFFFFFFFFFFFFFFFFFFFFFFFFFFFFFFFF AND PUSH20 0xFFFFFFFFFFFFFFFFFFFFFFFFFFFFFFFFFFFFFFFF AND DUP2 MSTORE PUSH1 0x20 ADD SWAP1 DUP2 MSTORE PUSH1 0x20 ADD PUSH0 KECCAK256 PUSH0 PUSH2 0x100 EXP DUP2 SLOAD DUP2 PUSH1 0xFF MUL NOT AND SWAP1 DUP4 ISZERO ISZERO MUL OR SWAP1 SSTORE POP TIMESTAMP DUP4 PUSH1 0x4 ADD DUP2 SWAP1 SSTORE POP CALLER PUSH20 0xFFFFFFFFFFFFFFFFFFFFFFFFFFFFFFFFFFFFFFFF AND PUSH32 0xD48E107B75FB4263F47C6775F9695146041B81F4E0EAC8B4D6075FD5756CBA94 TIMESTAMP PUSH1 0x40 MLOAD PUSH2 0xB5C SWAP2 SWAP1 PUSH2 0x324A JUMP JUMPDEST PUSH1 0x40 MLOAD DUP1 SWAP2 SUB SWAP1 LOG2 PUSH1 0x1 SWAP4 POP POP POP POP SWAP2 SWAP1 POP JUMP JUMPDEST PUSH0 DUP2 PUSH1 0x40 MLOAD PUSH1 0x20 ADD PUSH2 0xB82 SWAP2 SWAP1 PUSH2 0x3D16 JUMP JUMPDEST PUSH1 0x40 MLOAD PUSH1 0x20 DUP2 DUP4 SUB SUB DUP2 MSTORE SWAP1 PUSH1 0x40 MSTORE DUP1 MLOAD SWAP1 PUSH1 0x20 ADD KECCAK256 SWAP1 POP SWAP2 SWAP1 POP JUMP JUMPDEST PUSH1 0x6 PUSH0 CALLER PUSH20 0xFFFFFFFFFFFFFFFFFFFFFFFFFFFFFFFFFFFFFFFF AND PUSH20 0xFFFFFFFFFFFFFFFFFFFFFFFFFFFFFFFFFFFFFFFF AND DUP2 MSTORE PUSH1 0x20 ADD SWAP1 DUP2 MSTORE PUSH1 0x20 ADD PUSH0 KECCAK256 PUSH1 0x2 ADD PUSH0 SWAP1 SLOAD SWAP1 PUSH2 0x100 EXP SWAP1 DIV PUSH1 0xFF AND ISZERO PUSH2 0xC2C JUMPI PUSH1 0x40 MLOAD PUSH32 0x8C379A000000000000000000000000000000000000000000000000000000000 DUP2 MSTORE PUSH1 0x4 ADD PUSH2 0xC23 SWAP1 PUSH2 0x3D76 JUMP JUMPDEST PUSH1 0x40 MLOAD DUP1 SWAP2 SUB SWAP1 REVERT JUMPDEST PUSH1 0x3 DUP3 MLOAD LT ISZERO PUSH2 0xC71 JUMPI PUSH1 0x40 MLOAD PUSH32 0x8C379A000000000000000000000000000000000000000000000000000000000 DUP2 MSTORE PUSH1 0x4 ADD PUSH2 0xC68 SWAP1 PUSH2 0x3E04 JUMP JUMPDEST PUSH1 0x40 MLOAD DUP1 SWAP2 SUB SWAP1 REVERT JUMPDEST PUSH1 0x6 DUP2 MLOAD LT ISZERO PUSH2 0xCB6 JUMPI PUSH1 0x40 MLOAD PUSH32 0x8C379A000000000000000000000000000000000000000000000000000000000 DUP2 MSTORE PUSH1 0x4 ADD PUSH2 0xCAD SWAP1 PUSH2 0x3E92 JUMP JUMPDEST PUSH1 0x40 MLOAD DUP1 SWAP2 SUB SWAP1 REVERT JUMPDEST PUSH1 0x7 DUP3 PUSH1 0x40 MLOAD PUSH2 0xCC6 SWAP2 SWAP1 PUSH2 0x3D16 JUMP JUMPDEST SWAP1 DUP2 MSTORE PUSH1 0x20 ADD PUSH1 0x40 MLOAD DUP1 SWAP2 SUB SWAP1 KECCAK256 PUSH0 SWAP1 SLOAD SWAP1 PUSH2 0x100 EXP SWAP1 DIV PUSH1 0xFF AND ISZERO PUSH2 0xD21 JUMPI PUSH1 0x40 MLOAD PUSH32 0x8C379A000000000000000000000000000000000000000000000000000000000 DUP2 MSTORE PUSH1 0x4 ADD PUSH2 0xD18 SWAP1 PUSH2 0x3EFA JUMP JUMPDEST PUSH1 0x40 MLOAD DUP1 SWAP2 SUB SWAP1 REVERT JUMPDEST PUSH1 0x20 DUP3 MLOAD GT ISZERO PUSH2 0xD66 JUMPI PUSH1 0x40 MLOAD PUSH32 0x8C379A000000000000000000000000000000000000000000000000000000000 DUP2 MSTORE PUSH1 0x4 ADD PUSH2 0xD5D SWAP1 PUSH2 0x3F62 JUMP JUMPDEST PUSH1 0x40 MLOAD DUP1 SWAP2 SUB SWAP1 REVERT JUMPDEST PUSH0 PUSH2 0xD70 DUP3 PUSH2 0xB70 JUMP JUMPDEST SWAP1 POP PUSH1 0x40 MLOAD DUP1 PUSH1 0xA0 ADD PUSH1 0x40 MSTORE DUP1 DUP5 DUP2 MSTORE PUSH1 0x20 ADD DUP3 PUSH1 0x40 MLOAD PUSH1 0x20 ADD PUSH2 0xD94 SWAP2 SWAP1 PUSH2 0x3FA0 JUMP JUMPDEST PUSH1 0x40 MLOAD PUSH1 0x20 DUP2 DUP4 SUB SUB DUP2 MSTORE SWAP1 PUSH1 0x40 MSTORE DUP2 MSTORE PUSH1 0x20 ADD PUSH1 0x1 ISZERO ISZERO DUP2 MSTORE PUSH1 0x20 ADD TIMESTAMP DUP2 MSTORE PUSH1 0x20 ADD PUSH0 DUP2 MSTORE POP PUSH1 0x6 PUSH0 CALLER PUSH20 0xFFFFFFFFFFFFFFFFFFFFFFFFFFFFFFFFFFFFFFFF AND PUSH20 0xFFFFFFFFFFFFFFFFFFFFFFFFFFFFFFFFFFFFFFFF AND DUP2 MSTORE PUSH1 0x20 ADD SWAP1 DUP2 MSTORE PUSH1 0x20 ADD PUSH0 KECCAK256 PUSH0 DUP3 ADD MLOAD DUP2 PUSH0 ADD SWAP1 DUP2 PUSH2 0xE0B SWAP2 SWAP1 PUSH2 0x414E JUMP JUMPDEST POP PUSH1 0x20 DUP3 ADD MLOAD DUP2 PUSH1 0x1 ADD SWAP1 DUP2 PUSH2 0xE21 SWAP2 SWAP1 PUSH2 0x414E JUMP JUMPDEST POP PUSH1 0x40 DUP3 ADD MLOAD DUP2 PUSH1 0x2 ADD PUSH0 PUSH2 0x100 EXP DUP2 SLOAD DUP2 PUSH1 0xFF MUL NOT AND SWAP1 DUP4 ISZERO ISZERO MUL OR SWAP1 SSTORE POP PUSH1 0x60 DUP3 ADD MLOAD DUP2 PUSH1 0x3 ADD SSTORE PUSH1 0x80 DUP3 ADD MLOAD DUP2 PUSH1 0x4 ADD SSTORE SWAP1 POP POP PUSH1 0x1 PUSH1 0x7 DUP5 PUSH1 0x40 MLOAD PUSH2 0xE6A SWAP2 SWAP1 PUSH2 0x3D16 JUMP JUMPDEST SWAP1 DUP2 MSTORE PUSH1 0x20 ADD PUSH1 0x40 MLOAD DUP1 SWAP2 SUB SWAP1 KECCAK256 PUSH0 PUSH2 0x100 EXP DUP2 SLOAD DUP2 PUSH1 0xFF MUL NOT AND SWAP1 DUP4 ISZERO ISZERO MUL OR SWAP1 SSTORE POP CALLER PUSH20 0xFFFFFFFFFFFFFFFFFFFFFFFFFFFFFFFFFFFFFFFF AND PUSH32 0x89105A1C6A3C2FBD471255C66A31CCAB604AF5697F67D7E2E9A0028C5E4DBD91 DUP5 TIMESTAMP PUSH1 0x40 MLOAD PUSH2 0xED6 SWAP3 SWAP2 SWAP1 PUSH2 0x421D JUMP JUMPDEST PUSH1 0x40 MLOAD DUP1 SWAP2 SUB SWAP1 LOG2 POP POP POP JUMP JUMPDEST PUSH1 0x2 PUSH1 0x20 MSTORE DUP2 PUSH0 MSTORE PUSH1 0x40 PUSH0 KECCAK256 PUSH1 0x20 MSTORE DUP1 PUSH0 MSTORE PUSH1 0x40 PUSH0 KECCAK256 PUSH0 SWAP2 POP SWAP2 POP POP SLOAD DUP2 JUMP JUMPDEST PUSH2 0xF0B PUSH2 0x2F42 JUMP JUMPDEST PUSH1 0x6 PUSH0 CALLER PUSH20 0xFFFFFFFFFFFFFFFFFFFFFFFFFFFFFFFFFFFFFFFF AND PUSH20 0xFFFFFFFFFFFFFFFFFFFFFFFFFFFFFFFFFFFFFFFF AND DUP2 MSTORE PUSH1 0x20 ADD SWAP1 DUP2 MSTORE PUSH1 0x20 ADD PUSH0 KECCAK256 PUSH1 0x2 ADD PUSH0 SWAP1 SLOAD SWAP1 PUSH2 0x100 EXP SWAP1 DIV PUSH1 0xFF AND PUSH2 0xF97 JUMPI PUSH1 0x40 MLOAD PUSH32 0x8C379A000000000000000000000000000000000000000000000000000000000 DUP2 MSTORE PUSH1 0x4 ADD PUSH2 0xF8E SWAP1 PUSH2 0x3B17 JUMP JUMPDEST PUSH1 0x40 MLOAD DUP1 SWAP2 SUB SWAP1 REVERT JUMPDEST PUSH1 0x8 PUSH0 CALLER PUSH20 0xFFFFFFFFFFFFFFFFFFFFFFFFFFFFFFFFFFFFFFFF AND PUSH20 0xFFFFFFFFFFFFFFFFFFFFFFFFFFFFFFFFFFFFFFFF AND DUP2 MSTORE PUSH1 0x20 ADD SWAP1 DUP2 MSTORE PUSH1 0x20 ADD PUSH0 KECCAK256 PUSH0 SWAP1 SLOAD SWAP1 PUSH2 0x100 EXP SWAP1 DIV PUSH1 0xFF AND PUSH2 0x1020 JUMPI PUSH1 0x40 MLOAD PUSH32 0x8C379A000000000000000000000000000000000000000000000000000000000 DUP2 MSTORE PUSH1 0x4 ADD PUSH2 0x1017 SWAP1 PUSH2 0x3AAF JUMP JUMPDEST PUSH1 0x40 MLOAD DUP1 SWAP2 SUB SWAP1 REVERT JUMPDEST PUSH1 0xB PUSH0 DUP4 PUSH20 0xFFFFFFFFFFFFFFFFFFFFFFFFFFFFFFFFFFFFFFFF AND PUSH20 0xFFFFFFFFFFFFFFFFFFFFFFFFFFFFFFFFFFFFFFFF AND DUP2 MSTORE PUSH1 0x20 ADD SWAP1 DUP2 MSTORE PUSH1 0x20 ADD PUSH0 KECCAK256 PUSH0 SWAP1 SLOAD SWAP1 PUSH2 0x100 EXP SWAP1 DIV PUSH1 0xFF AND PUSH2 0x10A9 JUMPI PUSH1 0x40 MLOAD PUSH32 0x8C379A000000000000000000000000000000000000000000000000000000000 DUP2 MSTORE PUSH1 0x4 ADD PUSH2 0x10A0 SWAP1 PUSH2 0x4295 JUMP JUMPDEST PUSH1 0x40 MLOAD DUP1 SWAP2 SUB SWAP1 REVERT JUMPDEST PUSH0 DUP2 GT PUSH2 0x10EB JUMPI PUSH1 0x40 MLOAD PUSH32 0x8C379A000000000000000000000000000000000000000000000000000000000 DUP2 MSTORE PUSH1 0x4 ADD PUSH2 0x10E2 SWAP1 PUSH2 0x42FD JUMP JUMPDEST PUSH1 0x40 MLOAD DUP1 SWAP2 SUB SWAP1 REVERT JUMPDEST PUSH0 DUP3 SWAP1 POP PUSH0 DUP2 PUSH20 0xFFFFFFFFFFFFFFFFFFFFFFFFFFFFFFFFFFFFFFFF AND PUSH4 0xDD62ED3E CALLER ADDRESS PUSH1 0x40 MLOAD DUP4 PUSH4 0xFFFFFFFF AND PUSH1 0xE0 SHL DUP2 MSTORE PUSH1 0x4 ADD PUSH2 0x112B SWAP3 SWAP2 SWAP1 PUSH2 0x3A3E JUMP JUMPDEST PUSH1 0x20 PUSH1 0x40 MLOAD DUP1 DUP4 SUB DUP2 DUP7 GAS STATICCALL ISZERO DUP1 ISZERO PUSH2 0x1146 JUMPI RETURNDATASIZE PUSH0 PUSH0 RETURNDATACOPY RETURNDATASIZE PUSH0 REVERT JUMPDEST POP POP POP POP PUSH1 0x40 MLOAD RETURNDATASIZE PUSH1 0x1F NOT PUSH1 0x1F DUP3 ADD AND DUP3 ADD DUP1 PUSH1 0x40 MSTORE POP DUP2 ADD SWAP1 PUSH2 0x116A SWAP2 SWAP1 PUSH2 0x3A13 JUMP JUMPDEST SWAP1 POP DUP3 DUP2 LT ISZERO PUSH2 0x1179 DUP3 PUSH2 0x2F8F JUMP JUMPDEST PUSH2 0x1182 DUP6 PUSH2 0x2F8F JUMP JUMPDEST PUSH1 0x40 MLOAD PUSH1 0x20 ADD PUSH2 0x1193 SWAP3 SWAP2 SWAP1 PUSH2 0x43D5 JUMP JUMPDEST PUSH1 0x40 MLOAD PUSH1 0x20 DUP2 DUP4 SUB SUB DUP2 MSTORE SWAP1 PUSH1 0x40 MSTORE SWAP1 PUSH2 0x11E3 JUMPI PUSH1 0x40 MLOAD PUSH32 0x8C379A000000000000000000000000000000000000000000000000000000000 DUP2 MSTORE PUSH1 0x4 ADD PUSH2 0x11DA SWAP2 SWAP1 PUSH2 0x440E JUMP JUMPDEST PUSH1 0x40 MLOAD DUP1 SWAP2 SUB SWAP1 REVERT JUMPDEST POP PUSH0 DUP3 PUSH20 0xFFFFFFFFFFFFFFFFFFFFFFFFFFFFFFFFFFFFFFFF AND PUSH4 0x70A08231 CALLER PUSH1 0x40 MLOAD DUP3 PUSH4 0xFFFFFFFF AND PUSH1 0xE0 SHL DUP2 MSTORE PUSH1 0x4 ADD PUSH2 0x121E SWAP2 SWAP1 PUSH2 0x3892 JUMP JUMPDEST PUSH1 0x20 PUSH1 0x40 MLOAD DUP1 DUP4 SUB DUP2 DUP7 GAS STATICCALL ISZERO DUP1 ISZERO PUSH2 0x1239 JUMPI RETURNDATASIZE PUSH0 PUSH0 RETURNDATACOPY RETURNDATASIZE PUSH0 REVERT JUMPDEST POP POP POP POP PUSH1 0x40 MLOAD RETURNDATASIZE PUSH1 0x1F NOT PUSH1 0x1F DUP3 ADD AND DUP3 ADD DUP1 PUSH1 0x40 MSTORE POP DUP2 ADD SWAP1 PUSH2 0x125D SWAP2 SWAP1 PUSH2 0x3A13 JUMP JUMPDEST SWAP1 POP DUP4 DUP2 LT ISZERO PUSH2 0x126C DUP3 PUSH2 0x2F8F JUMP JUMPDEST PUSH2 0x1275 DUP7 PUSH2 0x2F8F JUMP JUMPDEST PUSH1 0x40 MLOAD PUSH1 0x20 ADD PUSH2 0x1286 SWAP3 SWAP2 SWAP1 PUSH2 0x449E JUMP JUMPDEST PUSH1 0x40 MLOAD PUSH1 0x20 DUP2 DUP4 SUB SUB DUP2 MSTORE SWAP1 PUSH1 0x40 MSTORE SWAP1 PUSH2 0x12D6 JUMPI PUSH1 0x40 MLOAD PUSH32 0x8C379A000000000000000000000000000000000000000000000000000000000 DUP2 MSTORE PUSH1 0x4 ADD PUSH2 0x12CD SWAP2 SWAP1 PUSH2 0x440E JUMP JUMPDEST PUSH1 0x40 MLOAD DUP1 SWAP2 SUB SWAP1 REVERT JUMPDEST POP DUP3 PUSH20 0xFFFFFFFFFFFFFFFFFFFFFFFFFFFFFFFFFFFFFFFF AND PUSH4 0x23B872DD CALLER ADDRESS DUP8 PUSH1 0x40 MLOAD DUP5 PUSH4 0xFFFFFFFF AND PUSH1 0xE0 SHL DUP2 MSTORE PUSH1 0x4 ADD PUSH2 0x1314 SWAP4 SWAP3 SWAP2 SWAP1 PUSH2 0x44D7 JUMP JUMPDEST PUSH1 0x20 PUSH1 0x40 MLOAD DUP1 DUP4 SUB DUP2 PUSH0 DUP8 GAS CALL ISZERO DUP1 ISZERO PUSH2 0x1330 JUMPI RETURNDATASIZE PUSH0 PUSH0 RETURNDATACOPY RETURNDATASIZE PUSH0 REVERT JUMPDEST POP POP POP POP PUSH1 0x40 MLOAD RETURNDATASIZE PUSH1 0x1F NOT PUSH1 0x1F DUP3 ADD AND DUP3 ADD DUP1 PUSH1 0x40 MSTORE POP DUP2 ADD SWAP1 PUSH2 0x1354 SWAP2 SWAP1 PUSH2 0x4536 JUMP JUMPDEST PUSH2 0x1393 JUMPI PUSH1 0x40 MLOAD PUSH32 0x8C379A000000000000000000000000000000000000000000000000000000000 DUP2 MSTORE PUSH1 0x4 ADD PUSH2 0x138A SWAP1 PUSH2 0x45AB JUMP JUMPDEST PUSH1 0x40 MLOAD DUP1 SWAP2 SUB SWAP1 REVERT JUMPDEST PUSH0 PUSH1 0x2 PUSH0 CALLER PUSH20 0xFFFFFFFFFFFFFFFFFFFFFFFFFFFFFFFFFFFFFFFF AND PUSH20 0xFFFFFFFFFFFFFFFFFFFFFFFFFFFFFFFFFFFFFFFF AND DUP2 MSTORE PUSH1 0x20 ADD SWAP1 DUP2 MSTORE PUSH1 0x20 ADD PUSH0 KECCAK256 PUSH0 DUP8 PUSH20 0xFFFFFFFFFFFFFFFFFFFFFFFFFFFFFFFFFFFFFFFF AND PUSH20 0xFFFFFFFFFFFFFFFFFFFFFFFFFFFFFFFFFFFFFFFF AND DUP2 MSTORE PUSH1 0x20 ADD SWAP1 DUP2 MSTORE PUSH1 0x20 ADD PUSH0 KECCAK256 SLOAD SUB PUSH2 0x14AE JUMPI PUSH1 0x4 PUSH0 CALLER PUSH20 0xFFFFFFFFFFFFFFFFFFFFFFFFFFFFFFFFFFFFFFFF AND PUSH20 0xFFFFFFFFFFFFFFFFFFFFFFFFFFFFFFFFFFFFFFFF AND DUP2 MSTORE PUSH1 0x20 ADD SWAP1 DUP2 MSTORE PUSH1 0x20 ADD PUSH0 KECCAK256 DUP6 SWAP1 DUP1 PUSH1 0x1 DUP2 SLOAD ADD DUP1 DUP3 SSTORE DUP1 SWAP2 POP POP PUSH1 0x1 SWAP1 SUB SWAP1 PUSH0 MSTORE PUSH1 0x20 PUSH0 KECCAK256 ADD PUSH0 SWAP1 SWAP2 SWAP1 SWAP2 SWAP1 SWAP2 PUSH2 0x100 EXP DUP2 SLOAD DUP2 PUSH20 0xFFFFFFFFFFFFFFFFFFFFFFFFFFFFFFFFFFFFFFFF MUL NOT AND SWAP1 DUP4 PUSH20 0xFFFFFFFFFFFFFFFFFFFFFFFFFFFFFFFFFFFFFFFF AND MUL OR SWAP1 SSTORE POP JUMPDEST DUP4 PUSH1 0x2 PUSH0 CALLER PUSH20 0xFFFFFFFFFFFFFFFFFFFFFFFFFFFFFFFFFFFFFFFF AND PUSH20 0xFFFFFFFFFFFFFFFFFFFFFFFFFFFFFFFFFFFFFFFF AND DUP2 MSTORE PUSH1 0x20 ADD SWAP1 DUP2 MSTORE PUSH1 0x20 ADD PUSH0 KECCAK256 PUSH0 DUP8 PUSH20 0xFFFFFFFFFFFFFFFFFFFFFFFFFFFFFFFFFFFFFFFF AND PUSH20 0xFFFFFFFFFFFFFFFFFFFFFFFFFFFFFFFFFFFFFFFF AND DUP2 MSTORE PUSH1 0x20 ADD SWAP1 DUP2 MSTORE PUSH1 0x20 ADD PUSH0 KECCAK256 PUSH0 DUP3 DUP3 SLOAD PUSH2 0x1535 SWAP2 SWAP1 PUSH2 0x45F6 JUMP JUMPDEST SWAP3 POP POP DUP2 SWAP1 SSTORE POP DUP4 PUSH1 0x3 PUSH0 CALLER PUSH20 0xFFFFFFFFFFFFFFFFFFFFFFFFFFFFFFFFFFFFFFFF AND PUSH20 0xFFFFFFFFFFFFFFFFFFFFFFFFFFFFFFFFFFFFFFFF AND DUP2 MSTORE PUSH1 0x20 ADD SWAP1 DUP2 MSTORE PUSH1 0x20 ADD PUSH0 KECCAK256 PUSH0 DUP8 PUSH20 0xFFFFFFFFFFFFFFFFFFFFFFFFFFFFFFFFFFFFFFFF AND PUSH20 0xFFFFFFFFFFFFFFFFFFFFFFFFFFFFFFFFFFFFFFFF AND DUP2 MSTORE PUSH1 0x20 ADD SWAP1 DUP2 MSTORE PUSH1 0x20 ADD PUSH0 KECCAK256 PUSH0 DUP3 DUP3 SLOAD PUSH2 0x15C3 SWAP2 SWAP1 PUSH2 0x45F6 JUMP JUMPDEST SWAP3 POP POP DUP2 SWAP1 SSTORE POP PUSH1 0x40 MLOAD DUP1 PUSH1 0xA0 ADD PUSH1 0x40 MSTORE DUP1 CALLER PUSH20 0xFFFFFFFFFFFFFFFFFFFFFFFFFFFFFFFFFFFFFFFF AND DUP2 MSTORE PUSH1 0x20 ADD DUP7 PUSH20 0xFFFFFFFFFFFFFFFFFFFFFFFFFFFFFFFFFFFFFFFF AND DUP2 MSTORE PUSH1 0x20 ADD DUP6 DUP2 MSTORE PUSH1 0x20 ADD PUSH1 0x1 ISZERO ISZERO DUP2 MSTORE PUSH1 0x20 ADD TIMESTAMP DUP2 MSTORE POP PUSH1 0x5 PUSH0 PUSH1 0x9 SLOAD DUP2 MSTORE PUSH1 0x20 ADD SWAP1 DUP2 MSTORE PUSH1 0x20 ADD PUSH0 KECCAK256 PUSH0 DUP3 ADD MLOAD DUP2 PUSH0 ADD PUSH0 PUSH2 0x100 EXP DUP2 SLOAD DUP2 PUSH20 0xFFFFFFFFFFFFFFFFFFFFFFFFFFFFFFFFFFFFFFFF MUL NOT AND SWAP1 DUP4 PUSH20 0xFFFFFFFFFFFFFFFFFFFFFFFFFFFFFFFFFFFFFFFF AND MUL OR SWAP1 SSTORE POP PUSH1 0x20 DUP3 ADD MLOAD DUP2 PUSH1 0x1 ADD PUSH0 PUSH2 0x100 EXP DUP2 SLOAD DUP2 PUSH20 0xFFFFFFFFFFFFFFFFFFFFFFFFFFFFFFFFFFFFFFFF MUL NOT AND SWAP1 DUP4 PUSH20 0xFFFFFFFFFFFFFFFFFFFFFFFFFFFFFFFFFFFFFFFF AND MUL OR SWAP1 SSTORE POP PUSH1 0x40 DUP3 ADD MLOAD DUP2 PUSH1 0x2 ADD SSTORE PUSH1 0x60 DUP3 ADD MLOAD DUP2 PUSH1 0x3 ADD PUSH0 PUSH2 0x100 EXP DUP2 SLOAD DUP2 PUSH1 0xFF MUL NOT AND SWAP1 DUP4 ISZERO ISZERO MUL OR SWAP1 SSTORE POP PUSH1 0x80 DUP3 ADD MLOAD DUP2 PUSH1 0x4 ADD SSTORE SWAP1 POP POP PUSH1 0x9 PUSH0 DUP2 SLOAD DUP1 SWAP3 SWAP2 SWAP1 PUSH2 0x1705 SWAP1 PUSH2 0x4629 JUMP JUMPDEST SWAP2 SWAP1 POP SSTORE POP DUP5 PUSH20 0xFFFFFFFFFFFFFFFFFFFFFFFFFFFFFFFFFFFFFFFF AND CALLER PUSH20 0xFFFFFFFFFFFFFFFFFFFFFFFFFFFFFFFFFFFFFFFF AND PUSH32 0xDCBC1C05240F31FF3AD067EF1EE35CE4997762752E3A095284754544F4C709D7 DUP7 TIMESTAMP PUSH1 0x40 MLOAD PUSH2 0x1769 SWAP3 SWAP2 SWAP1 PUSH2 0x4670 JUMP JUMPDEST PUSH1 0x40 MLOAD DUP1 SWAP2 SUB SWAP1 LOG3 POP POP POP PUSH2 0x177C PUSH2 0x310D JUMP JUMPDEST POP POP JUMP JUMPDEST PUSH1 0x60 PUSH1 0x4 PUSH0 DUP4 PUSH20 0xFFFFFFFFFFFFFFFFFFFFFFFFFFFFFFFFFFFFFFFF AND PUSH20 0xFFFFFFFFFFFFFFFFFFFFFFFFFFFFFFFFFFFFFFFF AND DUP2 MSTORE PUSH1 0x20 ADD SWAP1 DUP2 MSTORE PUSH1 0x20 ADD PUSH0 KECCAK256 DUP1 SLOAD DUP1 PUSH1 0x20 MUL PUSH1 0x20 ADD PUSH1 0x40 MLOAD SWAP1 DUP2 ADD PUSH1 0x40 MSTORE DUP1 SWAP3 SWAP2 SWAP1 DUP2 DUP2 MSTORE PUSH1 0x20 ADD DUP3 DUP1 SLOAD DUP1 ISZERO PUSH2 0x183C JUMPI PUSH1 0x20 MUL DUP3 ADD SWAP2 SWAP1 PUSH0 MSTORE PUSH1 0x20 PUSH0 KECCAK256 SWAP1 JUMPDEST DUP2 PUSH0 SWAP1 SLOAD SWAP1 PUSH2 0x100 EXP SWAP1 DIV PUSH20 0xFFFFFFFFFFFFFFFFFFFFFFFFFFFFFFFFFFFFFFFF AND PUSH20 0xFFFFFFFFFFFFFFFFFFFFFFFFFFFFFFFFFFFFFFFF AND DUP2 MSTORE PUSH1 0x20 ADD SWAP1 PUSH1 0x1 ADD SWAP1 DUP1 DUP4 GT PUSH2 0x17F3 JUMPI JUMPDEST POP POP POP POP POP SWAP1 POP SWAP2 SWAP1 POP JUMP JUMPDEST PUSH2 0x1850 PUSH2 0x3116 JUMP JUMPDEST PUSH1 0x6 PUSH0 DUP4 PUSH20 0xFFFFFFFFFFFFFFFFFFFFFFFFFFFFFFFFFFFFFFFF AND PUSH20 0xFFFFFFFFFFFFFFFFFFFFFFFFFFFFFFFFFFFFFFFF AND DUP2 MSTORE PUSH1 0x20 ADD SWAP1 DUP2 MSTORE PUSH1 0x20 ADD PUSH0 KECCAK256 PUSH1 0x40 MLOAD DUP1 PUSH1 0xA0 ADD PUSH1 0x40 MSTORE SWAP1 DUP2 PUSH0 DUP3 ADD DUP1 SLOAD PUSH2 0x18A7 SWAP1 PUSH2 0x3B62 JUMP JUMPDEST DUP1 PUSH1 0x1F ADD PUSH1 0x20 DUP1 SWAP2 DIV MUL PUSH1 0x20 ADD PUSH1 0x40 MLOAD SWAP1 DUP2 ADD PUSH1 0x40 MSTORE DUP1 SWAP3 SWAP2 SWAP1 DUP2 DUP2 MSTORE PUSH1 0x20 ADD DUP3 DUP1 SLOAD PUSH2 0x18D3 SWAP1 PUSH2 0x3B62 JUMP JUMPDEST DUP1 ISZERO PUSH2 0x191E JUMPI DUP1 PUSH1 0x1F LT PUSH2 0x18F5 JUMPI PUSH2 0x100 DUP1 DUP4 SLOAD DIV MUL DUP4 MSTORE SWAP2 PUSH1 0x20 ADD SWAP2 PUSH2 0x191E JUMP JUMPDEST DUP3 ADD SWAP2 SWAP1 PUSH0 MSTORE PUSH1 0x20 PUSH0 KECCAK256 SWAP1 JUMPDEST DUP2 SLOAD DUP2 MSTORE SWAP1 PUSH1 0x1 ADD SWAP1 PUSH1 0x20 ADD DUP1 DUP4 GT PUSH2 0x1901 JUMPI DUP3 SWAP1 SUB PUSH1 0x1F AND DUP3 ADD SWAP2 JUMPDEST POP POP POP POP POP DUP2 MSTORE PUSH1 0x20 ADD PUSH1 0x1 DUP3 ADD DUP1 SLOAD PUSH2 0x1937 SWAP1 PUSH2 0x3B62 JUMP JUMPDEST DUP1 PUSH1 0x1F ADD PUSH1 0x20 DUP1 SWAP2 DIV MUL PUSH1 0x20 ADD PUSH1 0x40 MLOAD SWAP1 DUP2 ADD PUSH1 0x40 MSTORE DUP1 SWAP3 SWAP2 SWAP1 DUP2 DUP2 MSTORE PUSH1 0x20 ADD DUP3 DUP1 SLOAD PUSH2 0x1963 SWAP1 PUSH2 0x3B62 JUMP JUMPDEST DUP1 ISZERO PUSH2 0x19AE JUMPI DUP1 PUSH1 0x1F LT PUSH2 0x1985 JUMPI PUSH2 0x100 DUP1 DUP4 SLOAD DIV MUL DUP4 MSTORE SWAP2 PUSH1 0x20 ADD SWAP2 PUSH2 0x19AE JUMP JUMPDEST DUP3 ADD SWAP2 SWAP1 PUSH0 MSTORE PUSH1 0x20 PUSH0 KECCAK256 SWAP1 JUMPDEST DUP2 SLOAD DUP2 MSTORE SWAP1 PUSH1 0x1 ADD SWAP1 PUSH1 0x20 ADD DUP1 DUP4 GT PUSH2 0x1991 JUMPI DUP3 SWAP1 SUB PUSH1 0x1F AND DUP3 ADD SWAP2 JUMPDEST POP POP POP POP POP DUP2 MSTORE PUSH1 0x20 ADD PUSH1 0x2 DUP3 ADD PUSH0 SWAP1 SLOAD SWAP1 PUSH2 0x100 EXP SWAP1 DIV PUSH1 0xFF AND ISZERO ISZERO ISZERO ISZERO DUP2 MSTORE PUSH1 0x20 ADD PUSH1 0x3 DUP3 ADD SLOAD DUP2 MSTORE PUSH1 0x20 ADD PUSH1 0x4 DUP3 ADD SLOAD DUP2 MSTORE POP POP SWAP1 POP SWAP2 SWAP1 POP JUMP JUMPDEST PUSH1 0x1 PUSH0 SWAP1 SLOAD SWAP1 PUSH2 0x100 EXP SWAP1 DIV PUSH20 0xFFFFFFFFFFFFFFFFFFFFFFFFFFFFFFFFFFFFFFFF AND PUSH20 0xFFFFFFFFFFFFFFFFFFFFFFFFFFFFFFFFFFFFFFFF AND CALLER PUSH20 0xFFFFFFFFFFFFFFFFFFFFFFFFFFFFFFFFFFFFFFFF AND EQ PUSH2 0x1A7B JUMPI PUSH1 0x40 MLOAD PUSH32 0x8C379A000000000000000000000000000000000000000000000000000000000 DUP2 MSTORE PUSH1 0x4 ADD PUSH2 0x1A72 SWAP1 PUSH2 0x4707 JUMP JUMPDEST PUSH1 0x40 MLOAD DUP1 SWAP2 SUB SWAP1 REVERT JUMPDEST PUSH1 0xB PUSH0 DUP3 PUSH20 0xFFFFFFFFFFFFFFFFFFFFFFFFFFFFFFFFFFFFFFFF AND PUSH20 0xFFFFFFFFFFFFFFFFFFFFFFFFFFFFFFFFFFFFFFFF AND DUP2 MSTORE PUSH1 0x20 ADD SWAP1 DUP2 MSTORE PUSH1 0x20 ADD PUSH0 KECCAK256 PUSH0 SWAP1 SLOAD SWAP1 PUSH2 0x100 EXP SWAP1 DIV PUSH1 0xFF AND ISZERO PUSH2 0x1B05 JUMPI PUSH1 0x40 MLOAD PUSH32 0x8C379A000000000000000000000000000000000000000000000000000000000 DUP2 MSTORE PUSH1 0x4 ADD PUSH2 0x1AFC SWAP1 PUSH2 0x476F JUMP JUMPDEST PUSH1 0x40 MLOAD DUP1 SWAP2 SUB SWAP1 REVERT JUMPDEST PUSH0 PUSH20 0xFFFFFFFFFFFFFFFFFFFFFFFFFFFFFFFFFFFFFFFF AND DUP2 PUSH20 0xFFFFFFFFFFFFFFFFFFFFFFFFFFFFFFFFFFFFFFFF AND SUB PUSH2 0x1B73 JUMPI PUSH1 0x40 MLOAD PUSH32 0x8C379A000000000000000000000000000000000000000000000000000000000 DUP2 MSTORE PUSH1 0x4 ADD PUSH2 0x1B6A SWAP1 PUSH2 0x47D7 JUMP JUMPDEST PUSH1 0x40 MLOAD DUP1 SWAP2 SUB SWAP1 REVERT JUMPDEST PUSH1 0xA DUP2 SWAP1 DUP1 PUSH1 0x1 DUP2 SLOAD ADD DUP1 DUP3 SSTORE DUP1 SWAP2 POP POP PUSH1 0x1 SWAP1 SUB SWAP1 PUSH0 MSTORE PUSH1 0x20 PUSH0 KECCAK256 ADD PUSH0 SWAP1 SWAP2 SWAP1 SWAP2 SWAP1 SWAP2 PUSH2 0x100 EXP DUP2 SLOAD DUP2 PUSH20 0xFFFFFFFFFFFFFFFFFFFFFFFFFFFFFFFFFFFFFFFF MUL NOT AND SWAP1 DUP4 PUSH20 0xFFFFFFFFFFFFFFFFFFFFFFFFFFFFFFFFFFFFFFFF AND MUL OR SWAP1 SSTORE POP PUSH1 0x1 PUSH1 0xB PUSH0 DUP4 PUSH20 0xFFFFFFFFFFFFFFFFFFFFFFFFFFFFFFFFFFFFFFFF AND PUSH20 0xFFFFFFFFFFFFFFFFFFFFFFFFFFFFFFFFFFFFFFFF AND DUP2 MSTORE PUSH1 0x20 ADD SWAP1 DUP2 MSTORE PUSH1 0x20 ADD PUSH0 KECCAK256 PUSH0 PUSH2 0x100 EXP DUP2 SLOAD DUP2 PUSH1 0xFF MUL NOT AND SWAP1 DUP4 ISZERO ISZERO MUL OR SWAP1 SSTORE POP DUP1 PUSH20 0xFFFFFFFFFFFFFFFFFFFFFFFFFFFFFFFFFFFFFFFF AND PUSH32 0xD86C88B4A367D9B81A6E00C9D3F7D01657BFFEF358FA8968C91C045AE99F0D52 PUSH1 0x1 PUSH1 0x40 MLOAD PUSH2 0x1C6F SWAP2 SWAP1 PUSH2 0x327D JUMP JUMPDEST PUSH1 0x40 MLOAD DUP1 SWAP2 SUB SWAP1 LOG2 POP JUMP JUMPDEST PUSH1 0x60 PUSH0 PUSH0 SWAP1 POP PUSH0 PUSH0 SWAP1 POP JUMPDEST PUSH1 0x9 SLOAD DUP2 LT ISZERO PUSH2 0x1D10 JUMPI DUP5 PUSH20 0xFFFFFFFFFFFFFFFFFFFFFFFFFFFFFFFFFFFFFFFF AND PUSH1 0x5 PUSH0 DUP4 DUP2 MSTORE PUSH1 0x20 ADD SWAP1 DUP2 MSTORE PUSH1 0x20 ADD PUSH0 KECCAK256 PUSH0 ADD PUSH0 SWAP1 SLOAD SWAP1 PUSH2 0x100 EXP SWAP1 DIV PUSH20 0xFFFFFFFFFFFFFFFFFFFFFFFFFFFFFFFFFFFFFFFF AND PUSH20 0xFFFFFFFFFFFFFFFFFFFFFFFFFFFFFFFFFFFFFFFF AND SUB PUSH2 0x1D03 JUMPI DUP2 DUP1 PUSH2 0x1CFF SWAP1 PUSH2 0x4629 JUMP JUMPDEST SWAP3 POP POP JUMPDEST DUP1 DUP1 PUSH1 0x1 ADD SWAP2 POP POP PUSH2 0x1C85 JUMP JUMPDEST POP PUSH0 DUP4 GT DUP1 ISZERO PUSH2 0x1D1F JUMPI POP DUP3 DUP2 GT JUMPDEST ISZERO PUSH2 0x1D28 JUMPI DUP3 SWAP1 POP JUMPDEST PUSH0 DUP2 PUSH8 0xFFFFFFFFFFFFFFFF DUP2 GT ISZERO PUSH2 0x1D43 JUMPI PUSH2 0x1D42 PUSH2 0x32AE JUMP JUMPDEST JUMPDEST PUSH1 0x40 MLOAD SWAP1 DUP1 DUP3 MSTORE DUP1 PUSH1 0x20 MUL PUSH1 0x20 ADD DUP3 ADD PUSH1 0x40 MSTORE DUP1 ISZERO PUSH2 0x1D7C JUMPI DUP2 PUSH1 0x20 ADD JUMPDEST PUSH2 0x1D69 PUSH2 0x3144 JUMP JUMPDEST DUP2 MSTORE PUSH1 0x20 ADD SWAP1 PUSH1 0x1 SWAP1 SUB SWAP1 DUP2 PUSH2 0x1D61 JUMPI SWAP1 POP JUMPDEST POP SWAP1 POP PUSH0 PUSH0 SWAP1 POP PUSH0 PUSH1 0x9 SLOAD SWAP1 POP JUMPDEST PUSH0 DUP2 GT DUP1 ISZERO PUSH2 0x1D98 JUMPI POP DUP4 DUP3 LT JUMPDEST ISZERO PUSH2 0x1F4D JUMPI DUP7 PUSH20 0xFFFFFFFFFFFFFFFFFFFFFFFFFFFFFFFFFFFFFFFF AND PUSH1 0x5 PUSH0 PUSH1 0x1 DUP5 PUSH2 0x1DC4 SWAP2 SWAP1 PUSH2 0x47F5 JUMP JUMPDEST DUP2 MSTORE PUSH1 0x20 ADD SWAP1 DUP2 MSTORE PUSH1 0x20 ADD PUSH0 KECCAK256 PUSH0 ADD PUSH0 SWAP1 SLOAD SWAP1 PUSH2 0x100 EXP SWAP1 DIV PUSH20 0xFFFFFFFFFFFFFFFFFFFFFFFFFFFFFFFFFFFFFFFF AND PUSH20 0xFFFFFFFFFFFFFFFFFFFFFFFFFFFFFFFFFFFFFFFF AND SUB PUSH2 0x1F3A JUMPI PUSH1 0x5 PUSH0 PUSH1 0x1 DUP4 PUSH2 0x1E1E SWAP2 SWAP1 PUSH2 0x47F5 JUMP JUMPDEST DUP2 MSTORE PUSH1 0x20 ADD SWAP1 DUP2 MSTORE PUSH1 0x20 ADD PUSH0 KECCAK256 PUSH1 0x40 MLOAD DUP1 PUSH1 0xA0 ADD PUSH1 0x40 MSTORE SWAP1 DUP2 PUSH0 DUP3 ADD PUSH0 SWAP1 SLOAD SWAP1 PUSH2 0x100 EXP SWAP1 DIV PUSH20 0xFFFFFFFFFFFFFFFFFFFFFFFFFFFFFFFFFFFFFFFF AND PUSH20 0xFFFFFFFFFFFFFFFFFFFFFFFFFFFFFFFFFFFFFFFF AND PUSH20 0xFFFFFFFFFFFFFFFFFFFFFFFFFFFFFFFFFFFFFFFF AND DUP2 MSTORE PUSH1 0x20 ADD PUSH1 0x1 DUP3 ADD PUSH0 SWAP1 SLOAD SWAP1 PUSH2 0x100 EXP SWAP1 DIV PUSH20 0xFFFFFFFFFFFFFFFFFFFFFFFFFFFFFFFFFFFFFFFF AND PUSH20 0xFFFFFFFFFFFFFFFFFFFFFFFFFFFFFFFFFFFFFFFF AND PUSH20 0xFFFFFFFFFFFFFFFFFFFFFFFFFFFFFFFFFFFFFFFF AND DUP2 MSTORE PUSH1 0x20 ADD PUSH1 0x2 DUP3 ADD SLOAD DUP2 MSTORE PUSH1 0x20 ADD PUSH1 0x3 DUP3 ADD PUSH0 SWAP1 SLOAD SWAP1 PUSH2 0x100 EXP SWAP1 DIV PUSH1 0xFF AND ISZERO ISZERO ISZERO ISZERO DUP2 MSTORE PUSH1 0x20 ADD PUSH1 0x4 DUP3 ADD SLOAD DUP2 MSTORE POP POP DUP4 DUP4 DUP2 MLOAD DUP2 LT PUSH2 0x1F20 JUMPI PUSH2 0x1F1F PUSH2 0x4828 JUMP JUMPDEST JUMPDEST PUSH1 0x20 MUL PUSH1 0x20 ADD ADD DUP2 SWAP1 MSTORE POP DUP2 DUP1 PUSH2 0x1F36 SWAP1 PUSH2 0x4629 JUMP JUMPDEST SWAP3 POP POP JUMPDEST DUP1 DUP1 PUSH2 0x1F45 SWAP1 PUSH2 0x4855 JUMP JUMPDEST SWAP2 POP POP PUSH2 0x1D8A JUMP JUMPDEST POP DUP2 SWAP4 POP POP POP POP SWAP3 SWAP2 POP POP JUMP JUMPDEST PUSH1 0xB PUSH1 0x20 MSTORE DUP1 PUSH0 MSTORE PUSH1 0x40 PUSH0 KECCAK256 PUSH0 SWAP2 POP SLOAD SWAP1 PUSH2 0x100 EXP SWAP1 DIV PUSH1 0xFF AND DUP2 JUMP JUMPDEST PUSH1 0x1 PUSH0 SWAP1 SLOAD SWAP1 PUSH2 0x100 EXP SWAP1 DIV PUSH20 0xFFFFFFFFFFFFFFFFFFFFFFFFFFFFFFFFFFFFFFFF AND PUSH20 0xFFFFFFFFFFFFFFFFFFFFFFFFFFFFFFFFFFFFFFFF AND CALLER PUSH20 0xFFFFFFFFFFFFFFFFFFFFFFFFFFFFFFFFFFFFFFFF AND EQ PUSH2 0x2006 JUMPI PUSH1 0x40 MLOAD PUSH32 0x8C379A000000000000000000000000000000000000000000000000000000000 DUP2 MSTORE PUSH1 0x4 ADD PUSH2 0x1FFD SWAP1 PUSH2 0x4707 JUMP JUMPDEST PUSH1 0x40 MLOAD DUP1 SWAP2 SUB SWAP1 REVERT JUMPDEST PUSH1 0xB PUSH0 DUP3 PUSH20 0xFFFFFFFFFFFFFFFFFFFFFFFFFFFFFFFFFFFFFFFF AND PUSH20 0xFFFFFFFFFFFFFFFFFFFFFFFFFFFFFFFFFFFFFFFF AND DUP2 MSTORE PUSH1 0x20 ADD SWAP1 DUP2 MSTORE PUSH1 0x20 ADD PUSH0 KECCAK256 PUSH0 SWAP1 SLOAD SWAP1 PUSH2 0x100 EXP SWAP1 DIV PUSH1 0xFF AND PUSH2 0x208F JUMPI PUSH1 0x40 MLOAD PUSH32 0x8C379A000000000000000000000000000000000000000000000000000000000 DUP2 MSTORE PUSH1 0x4 ADD PUSH2 0x2086 SWAP1 PUSH2 0x4295 JUMP JUMPDEST PUSH1 0x40 MLOAD DUP1 SWAP2 SUB SWAP1 REVERT JUMPDEST PUSH0 PUSH1 0xB PUSH0 DUP4 PUSH20 0xFFFFFFFFFFFFFFFFFFFFFFFFFFFFFFFFFFFFFFFF AND PUSH20 0xFFFFFFFFFFFFFFFFFFFFFFFFFFFFFFFFFFFFFFFF AND DUP2 MSTORE PUSH1 0x20 ADD SWAP1 DUP2 MSTORE PUSH1 0x20 ADD PUSH0 KECCAK256 PUSH0 PUSH2 0x100 EXP DUP2 SLOAD DUP2 PUSH1 0xFF MUL NOT AND SWAP1 DUP4 ISZERO ISZERO MUL OR SWAP1 SSTORE POP PUSH0 PUSH0 SWAP1 POP JUMPDEST PUSH1 0xA DUP1 SLOAD SWAP1 POP DUP2 LT ISZERO PUSH2 0x225F JUMPI DUP2 PUSH20 0xFFFFFFFFFFFFFFFFFFFFFFFFFFFFFFFFFFFFFFFF AND PUSH1 0xA DUP3 DUP2 SLOAD DUP2 LT PUSH2 0x2120 JUMPI PUSH2 0x211F PUSH2 0x4828 JUMP JUMPDEST JUMPDEST SWAP1 PUSH0 MSTORE PUSH1 0x20 PUSH0 KECCAK256 ADD PUSH0 SWAP1 SLOAD SWAP1 PUSH2 0x100 EXP SWAP1 DIV PUSH20 0xFFFFFFFFFFFFFFFFFFFFFFFFFFFFFFFFFFFFFFFF AND PUSH20 0xFFFFFFFFFFFFFFFFFFFFFFFFFFFFFFFFFFFFFFFF AND SUB PUSH2 0x2252 JUMPI PUSH1 0xA PUSH1 0x1 PUSH1 0xA DUP1 SLOAD SWAP1 POP PUSH2 0x2177 SWAP2 SWAP1 PUSH2 0x47F5 JUMP JUMPDEST DUP2 SLOAD DUP2 LT PUSH2 0x2188 JUMPI PUSH2 0x2187 PUSH2 0x4828 JUMP JUMPDEST JUMPDEST SWAP1 PUSH0 MSTORE PUSH1 0x20 PUSH0 KECCAK256 ADD PUSH0 SWAP1 SLOAD SWAP1 PUSH2 0x100 EXP SWAP1 DIV PUSH20 0xFFFFFFFFFFFFFFFFFFFFFFFFFFFFFFFFFFFFFFFF AND PUSH1 0xA DUP3 DUP2 SLOAD DUP2 LT PUSH2 0x21C4 JUMPI PUSH2 0x21C3 PUSH2 0x4828 JUMP JUMPDEST JUMPDEST SWAP1 PUSH0 MSTORE PUSH1 0x20 PUSH0 KECCAK256 ADD PUSH0 PUSH2 0x100 EXP DUP2 SLOAD DUP2 PUSH20 0xFFFFFFFFFFFFFFFFFFFFFFFFFFFFFFFFFFFFFFFF MUL NOT AND SWAP1 DUP4 PUSH20 0xFFFFFFFFFFFFFFFFFFFFFFFFFFFFFFFFFFFFFFFF AND MUL OR SWAP1 SSTORE POP PUSH1 0xA DUP1 SLOAD DUP1 PUSH2 0x221B JUMPI PUSH2 0x221A PUSH2 0x487C JUMP JUMPDEST JUMPDEST PUSH1 0x1 SWAP1 SUB DUP2 DUP2 SWAP1 PUSH0 MSTORE PUSH1 0x20 PUSH0 KECCAK256 ADD PUSH0 PUSH2 0x100 EXP DUP2 SLOAD SWAP1 PUSH20 0xFFFFFFFFFFFFFFFFFFFFFFFFFFFFFFFFFFFFFFFF MUL NOT AND SWAP1 SSTORE SWAP1 SSTORE PUSH2 0x225F JUMP JUMPDEST DUP1 DUP1 PUSH1 0x1 ADD SWAP2 POP POP PUSH2 0x20E8 JUMP JUMPDEST POP DUP1 PUSH20 0xFFFFFFFFFFFFFFFFFFFFFFFFFFFFFFFFFFFFFFFF AND PUSH32 0xD86C88B4A367D9B81A6E00C9D3F7D01657BFFEF358FA8968C91C045AE99F0D52 PUSH0 PUSH1 0x40 MLOAD PUSH2 0x22A6 SWAP2 SWAP1 PUSH2 0x327D JUMP JUMPDEST PUSH1 0x40 MLOAD DUP1 SWAP2 SUB SWAP1 LOG2 POP JUMP JUMPDEST PUSH0 PUSH0 PUSH0 SWAP1 POP PUSH0 PUSH1 0x4 PUSH0 DUP6 PUSH20 0xFFFFFFFFFFFFFFFFFFFFFFFFFFFFFFFFFFFFFFFF AND PUSH20 0xFFFFFFFFFFFFFFFFFFFFFFFFFFFFFFFFFFFFFFFF AND DUP2 MSTORE PUSH1 0x20 ADD SWAP1 DUP2 MSTORE PUSH1 0x20 ADD PUSH0 KECCAK256 DUP1 SLOAD DUP1 PUSH1 0x20 MUL PUSH1 0x20 ADD PUSH1 0x40 MLOAD SWAP1 DUP2 ADD PUSH1 0x40 MSTORE DUP1 SWAP3 SWAP2 SWAP1 DUP2 DUP2 MSTORE PUSH1 0x20 ADD DUP3 DUP1 SLOAD DUP1 ISZERO PUSH2 0x2371 JUMPI PUSH1 0x20 MUL DUP3 ADD SWAP2 SWAP1 PUSH0 MSTORE PUSH1 0x20 PUSH0 KECCAK256 SWAP1 JUMPDEST DUP2 PUSH0 SWAP1 SLOAD SWAP1 PUSH2 0x100 EXP SWAP1 DIV PUSH20 0xFFFFFFFFFFFFFFFFFFFFFFFFFFFFFFFFFFFFFFFF AND PUSH20 0xFFFFFFFFFFFFFFFFFFFFFFFFFFFFFFFFFFFFFFFF AND DUP2 MSTORE PUSH1 0x20 ADD SWAP1 PUSH1 0x1 ADD SWAP1 DUP1 DUP4 GT PUSH2 0x2328 JUMPI JUMPDEST POP POP POP POP POP SWAP1 POP PUSH0 PUSH0 SWAP1 POP JUMPDEST DUP2 MLOAD DUP2 LT ISZERO PUSH2 0x2433 JUMPI PUSH1 0x2 PUSH0 DUP7 PUSH20 0xFFFFFFFFFFFFFFFFFFFFFFFFFFFFFFFFFFFFFFFF AND PUSH20 0xFFFFFFFFFFFFFFFFFFFFFFFFFFFFFFFFFFFFFFFF AND DUP2 MSTORE PUSH1 0x20 ADD SWAP1 DUP2 MSTORE PUSH1 0x20 ADD PUSH0 KECCAK256 PUSH0 DUP4 DUP4 DUP2 MLOAD DUP2 LT PUSH2 0x23D7 JUMPI PUSH2 0x23D6 PUSH2 0x4828 JUMP JUMPDEST JUMPDEST PUSH1 0x20 MUL PUSH1 0x20 ADD ADD MLOAD PUSH20 0xFFFFFFFFFFFFFFFFFFFFFFFFFFFFFFFFFFFFFFFF AND PUSH20 0xFFFFFFFFFFFFFFFFFFFFFFFFFFFFFFFFFFFFFFFF AND DUP2 MSTORE PUSH1 0x20 ADD SWAP1 DUP2 MSTORE PUSH1 0x20 ADD PUSH0 KECCAK256 SLOAD DUP4 PUSH2 0x2424 SWAP2 SWAP1 PUSH2 0x45F6 JUMP JUMPDEST SWAP3 POP DUP1 DUP1 PUSH1 0x1 ADD SWAP2 POP POP PUSH2 0x237D JUMP JUMPDEST POP DUP2 SWAP3 POP POP POP SWAP2 SWAP1 POP JUMP JUMPDEST PUSH1 0x1 PUSH0 SWAP1 SLOAD SWAP1 PUSH2 0x100 EXP SWAP1 DIV PUSH20 0xFFFFFFFFFFFFFFFFFFFFFFFFFFFFFFFFFFFFFFFF AND DUP2 JUMP JUMPDEST PUSH1 0x5 PUSH1 0x20 MSTORE DUP1 PUSH0 MSTORE PUSH1 0x40 PUSH0 KECCAK256 PUSH0 SWAP2 POP SWAP1 POP DUP1 PUSH0 ADD PUSH0 SWAP1 SLOAD SWAP1 PUSH2 0x100 EXP SWAP1 DIV PUSH20 0xFFFFFFFFFFFFFFFFFFFFFFFFFFFFFFFFFFFFFFFF AND SWAP1 DUP1 PUSH1 0x1 ADD PUSH0 SWAP1 SLOAD SWAP1 PUSH2 0x100 EXP SWAP1 DIV PUSH20 0xFFFFFFFFFFFFFFFFFFFFFFFFFFFFFFFFFFFFFFFF AND SWAP1 DUP1 PUSH1 0x2 ADD SLOAD SWAP1 DUP1 PUSH1 0x3 ADD PUSH0 SWAP1 SLOAD SWAP1 PUSH2 0x100 EXP SWAP1 DIV PUSH1 0xFF AND SWAP1 DUP1 PUSH1 0x4 ADD SLOAD SWAP1 POP DUP6 JUMP JUMPDEST PUSH1 0x8 PUSH1 0x20 MSTORE DUP1 PUSH0 MSTORE PUSH1 0x40 PUSH0 KECCAK256 PUSH0 SWAP2 POP SLOAD SWAP1 PUSH2 0x100 EXP SWAP1 DIV PUSH1 0xFF AND DUP2 JUMP JUMPDEST PUSH1 0x6 PUSH1 0x20 MSTORE DUP1 PUSH0 MSTORE PUSH1 0x40 PUSH0 KECCAK256 PUSH0 SWAP2 POP SWAP1 POP DUP1 PUSH0 ADD DUP1 SLOAD PUSH2 0x251B SWAP1 PUSH2 0x3B62 JUMP JUMPDEST DUP1 PUSH1 0x1F ADD PUSH1 0x20 DUP1 SWAP2 DIV MUL PUSH1 0x20 ADD PUSH1 0x40 MLOAD SWAP1 DUP2 ADD PUSH1 0x40 MSTORE DUP1 SWAP3 SWAP2 SWAP1 DUP2 DUP2 MSTORE PUSH1 0x20 ADD DUP3 DUP1 SLOAD PUSH2 0x2547 SWAP1 PUSH2 0x3B62 JUMP JUMPDEST DUP1 ISZERO PUSH2 0x2592 JUMPI DUP1 PUSH1 0x1F LT PUSH2 0x2569 JUMPI PUSH2 0x100 DUP1 DUP4 SLOAD DIV MUL DUP4 MSTORE SWAP2 PUSH1 0x20 ADD SWAP2 PUSH2 0x2592 JUMP JUMPDEST DUP3 ADD SWAP2 SWAP1 PUSH0 MSTORE PUSH1 0x20 PUSH0 KECCAK256 SWAP1 JUMPDEST DUP2 SLOAD DUP2 MSTORE SWAP1 PUSH1 0x1 ADD SWAP1 PUSH1 0x20 ADD DUP1 DUP4 GT PUSH2 0x2575 JUMPI DUP3 SWAP1 SUB PUSH1 0x1F AND DUP3 ADD SWAP2 JUMPDEST POP POP POP POP POP SWAP1 DUP1 PUSH1 0x1 ADD DUP1 SLOAD PUSH2 0x25A7 SWAP1 PUSH2 0x3B62 JUMP JUMPDEST DUP1 PUSH1 0x1F ADD PUSH1 0x20 DUP1 SWAP2 DIV MUL PUSH1 0x20 ADD PUSH1 0x40 MLOAD SWAP1 DUP2 ADD PUSH1 0x40 MSTORE DUP1 SWAP3 SWAP2 SWAP1 DUP2 DUP2 MSTORE PUSH1 0x20 ADD DUP3 DUP1 SLOAD PUSH2 0x25D3 SWAP1 PUSH2 0x3B62 JUMP JUMPDEST DUP1 ISZERO PUSH2 0x261E JUMPI DUP1 PUSH1 0x1F LT PUSH2 0x25F5 JUMPI PUSH2 0x100 DUP1 DUP4 SLOAD DIV MUL DUP4 MSTORE SWAP2 PUSH1 0x20 ADD SWAP2 PUSH2 0x261E JUMP JUMPDEST DUP3 ADD SWAP2 SWAP1 PUSH0 MSTORE PUSH1 0x20 PUSH0 KECCAK256 SWAP1 JUMPDEST DUP2 SLOAD DUP2 MSTORE SWAP1 PUSH1 0x1 ADD SWAP1 PUSH1 0x20 ADD DUP1 DUP4 GT PUSH2 0x2601 JUMPI DUP3 SWAP1 SUB PUSH1 0x1F AND DUP3 ADD SWAP2 JUMPDEST POP POP POP POP POP SWAP1 DUP1 PUSH1 0x2 ADD PUSH0 SWAP1 SLOAD SWAP1 PUSH2 0x100 EXP SWAP1 DIV PUSH1 0xFF AND SWAP1 DUP1 PUSH1 0x3 ADD SLOAD SWAP1 DUP1 PUSH1 0x4 ADD SLOAD SWAP1 POP DUP6 JUMP JUMPDEST PUSH1 0x9 SLOAD DUP2 JUMP JUMPDEST PUSH0 PUSH0 PUSH1 0x2 PUSH0 DUP6 PUSH20 0xFFFFFFFFFFFFFFFFFFFFFFFFFFFFFFFFFFFFFFFF AND PUSH20 0xFFFFFFFFFFFFFFFFFFFFFFFFFFFFFFFFFFFFFFFF AND DUP2 MSTORE PUSH1 0x20 ADD SWAP1 DUP2 MSTORE PUSH1 0x20 ADD PUSH0 KECCAK256 PUSH0 DUP5 PUSH20 0xFFFFFFFFFFFFFFFFFFFFFFFFFFFFFFFFFFFFFFFF AND PUSH20 0xFFFFFFFFFFFFFFFFFFFFFFFFFFFFFFFFFFFFFFFF AND DUP2 MSTORE PUSH1 0x20 ADD SWAP1 DUP2 MSTORE PUSH1 0x20 ADD PUSH0 KECCAK256 SLOAD SWAP1 POP PUSH0 PUSH1 0x3 PUSH0 DUP7 PUSH20 0xFFFFFFFFFFFFFFFFFFFFFFFFFFFFFFFFFFFFFFFF AND PUSH20 0xFFFFFFFFFFFFFFFFFFFFFFFFFFFFFFFFFFFFFFFF AND DUP2 MSTORE PUSH1 0x20 ADD SWAP1 DUP2 MSTORE PUSH1 0x20 ADD PUSH0 KECCAK256 PUSH0 DUP6 PUSH20 0xFFFFFFFFFFFFFFFFFFFFFFFFFFFFFFFFFFFFFFFF AND PUSH20 0xFFFFFFFFFFFFFFFFFFFFFFFFFFFFFFFFFFFFFFFF AND DUP2 MSTORE PUSH1 0x20 ADD SWAP1 DUP2 MSTORE PUSH1 0x20 ADD PUSH0 KECCAK256 SLOAD SWAP1 POP PUSH0 DUP2 SUB PUSH2 0x2756 JUMPI PUSH0 SWAP3 POP POP POP PUSH2 0x2767 JUMP JUMPDEST DUP1 DUP3 PUSH2 0x2762 SWAP2 SWAP1 PUSH2 0x48A9 JUMP JUMPDEST SWAP3 POP POP POP JUMPDEST SWAP3 SWAP2 POP POP JUMP JUMPDEST PUSH0 PUSH0 DUP3 SWAP1 POP DUP1 PUSH20 0xFFFFFFFFFFFFFFFFFFFFFFFFFFFFFFFFFFFFFFFF AND PUSH4 0x70A08231 ADDRESS PUSH1 0x40 MLOAD DUP3 PUSH4 0xFFFFFFFF AND PUSH1 0xE0 SHL DUP2 MSTORE PUSH1 0x4 ADD PUSH2 0x27AB SWAP2 SWAP1 PUSH2 0x3892 JUMP JUMPDEST PUSH1 0x20 PUSH1 0x40 MLOAD DUP1 DUP4 SUB DUP2 DUP7 GAS STATICCALL ISZERO DUP1 ISZERO PUSH2 0x27C6 JUMPI RETURNDATASIZE PUSH0 PUSH0 RETURNDATACOPY RETURNDATASIZE PUSH0 REVERT JUMPDEST POP POP POP POP PUSH1 0x40 MLOAD RETURNDATASIZE PUSH1 0x1F NOT PUSH1 0x1F DUP3 ADD AND DUP3 ADD DUP1 PUSH1 0x40 MSTORE POP DUP2 ADD SWAP1 PUSH2 0x27EA SWAP2 SWAP1 PUSH2 0x3A13 JUMP JUMPDEST SWAP2 POP POP SWAP2 SWAP1 POP JUMP JUMPDEST PUSH0 PUSH1 0x2 PUSH0 DUP5 PUSH20 0xFFFFFFFFFFFFFFFFFFFFFFFFFFFFFFFFFFFFFFFF AND PUSH20 0xFFFFFFFFFFFFFFFFFFFFFFFFFFFFFFFFFFFFFFFF AND DUP2 MSTORE PUSH1 0x20 ADD SWAP1 DUP2 MSTORE PUSH1 0x20 ADD PUSH0 KECCAK256 PUSH0 DUP4 PUSH20 0xFFFFFFFFFFFFFFFFFFFFFFFFFFFFFFFFFFFFFFFF AND PUSH20 0xFFFFFFFFFFFFFFFFFFFFFFFFFFFFFFFFFFFFFFFF AND DUP2 MSTORE PUSH1 0x20 ADD SWAP1 DUP2 MSTORE PUSH1 0x20 ADD PUSH0 KECCAK256 SLOAD SWAP1 POP SWAP3 SWAP2 POP POP JUMP JUMPDEST PUSH1 0xA DUP2 DUP2 SLOAD DUP2 LT PUSH2 0x2883 JUMPI PUSH0 DUP1 REVERT JUMPDEST SWAP1 PUSH0 MSTORE PUSH1 0x20 PUSH0 KECCAK256 ADD PUSH0 SWAP2 POP SLOAD SWAP1 PUSH2 0x100 EXP SWAP1 DIV PUSH20 0xFFFFFFFFFFFFFFFFFFFFFFFFFFFFFFFFFFFFFFFF AND DUP2 JUMP JUMPDEST PUSH1 0x60 PUSH1 0xA DUP1 SLOAD DUP1 PUSH1 0x20 MUL PUSH1 0x20 ADD PUSH1 0x40 MLOAD SWAP1 DUP2 ADD PUSH1 0x40 MSTORE DUP1 SWAP3 SWAP2 SWAP1 DUP2 DUP2 MSTORE PUSH1 0x20 ADD DUP3 DUP1 SLOAD DUP1 ISZERO PUSH2 0x2930 JUMPI PUSH1 0x20 MUL DUP3 ADD SWAP2 SWAP1 PUSH0 MSTORE PUSH1 0x20 PUSH0 KECCAK256 SWAP1 JUMPDEST DUP2 PUSH0 SWAP1 SLOAD SWAP1 PUSH2 0x100 EXP SWAP1 DIV PUSH20 0xFFFFFFFFFFFFFFFFFFFFFFFFFFFFFFFFFFFFFFFF AND PUSH20 0xFFFFFFFFFFFFFFFFFFFFFFFFFFFFFFFFFFFFFFFF AND DUP2 MSTORE PUSH1 0x20 ADD SWAP1 PUSH1 0x1 ADD SWAP1 DUP1 DUP4 GT PUSH2 0x28E7 JUMPI JUMPDEST POP POP POP POP POP SWAP1 POP SWAP1 JUMP JUMPDEST PUSH1 0x3 PUSH1 0x20 MSTORE DUP2 PUSH0 MSTORE PUSH1 0x40 PUSH0 KECCAK256 PUSH1 0x20 MSTORE DUP1 PUSH0 MSTORE PUSH1 0x40 PUSH0 KECCAK256 PUSH0 SWAP2 POP SWAP2 POP POP SLOAD DUP2 JUMP JUMPDEST PUSH1 0x7 DUP2 DUP1 MLOAD PUSH1 0x20 DUP2 ADD DUP3 ADD DUP1 MLOAD DUP5 DUP3 MSTORE PUSH1 0x20 DUP4 ADD PUSH1 0x20 DUP6 ADD KECCAK256 DUP2 DUP4 MSTORE DUP1 SWAP6 POP POP POP POP POP POP PUSH0 SWAP2 POP SLOAD SWAP1 PUSH2 0x100 EXP SWAP1 DIV PUSH1 0xFF AND DUP2 JUMP JUMPDEST PUSH2 0x2997 PUSH2 0x2F42 JUMP JUMPDEST PUSH1 0x6 PUSH0 CALLER PUSH20 0xFFFFFFFFFFFFFFFFFFFFFFFFFFFFFFFFFFFFFFFF AND PUSH20 0xFFFFFFFFFFFFFFFFFFFFFFFFFFFFFFFFFFFFFFFF AND DUP2 MSTORE PUSH1 0x20 ADD SWAP1 DUP2 MSTORE PUSH1 0x20 ADD PUSH0 KECCAK256 PUSH1 0x2 ADD PUSH0 SWAP1 SLOAD SWAP1 PUSH2 0x100 EXP SWAP1 DIV PUSH1 0xFF AND PUSH2 0x2A23 JUMPI PUSH1 0x40 MLOAD PUSH32 0x8C379A000000000000000000000000000000000000000000000000000000000 DUP2 MSTORE PUSH1 0x4 ADD PUSH2 0x2A1A SWAP1 PUSH2 0x3B17 JUMP JUMPDEST PUSH1 0x40 MLOAD DUP1 SWAP2 SUB SWAP1 REVERT JUMPDEST PUSH1 0x8 PUSH0 CALLER PUSH20 0xFFFFFFFFFFFFFFFFFFFFFFFFFFFFFFFFFFFFFFFF AND PUSH20 0xFFFFFFFFFFFFFFFFFFFFFFFFFFFFFFFFFFFFFFFF AND DUP2 MSTORE PUSH1 0x20 ADD SWAP1 DUP2 MSTORE PUSH1 0x20 ADD PUSH0 KECCAK256 PUSH0 SWAP1 SLOAD SWAP1 PUSH2 0x100 EXP SWAP1 DIV PUSH1 0xFF AND PUSH2 0x2AAC JUMPI PUSH1 0x40 MLOAD PUSH32 0x8C379A000000000000000000000000000000000000000000000000000000000 DUP2 MSTORE PUSH1 0x4 ADD PUSH2 0x2AA3 SWAP1 PUSH2 0x3AAF JUMP JUMPDEST PUSH1 0x40 MLOAD DUP1 SWAP2 SUB SWAP1 REVERT JUMPDEST DUP1 PUSH1 0x2 PUSH0 CALLER PUSH20 0xFFFFFFFFFFFFFFFFFFFFFFFFFFFFFFFFFFFFFFFF AND PUSH20 0xFFFFFFFFFFFFFFFFFFFFFFFFFFFFFFFFFFFFFFFF AND DUP2 MSTORE PUSH1 0x20 ADD SWAP1 DUP2 MSTORE PUSH1 0x20 ADD PUSH0 KECCAK256 PUSH0 DUP5 PUSH20 0xFFFFFFFFFFFFFFFFFFFFFFFFFFFFFFFFFFFFFFFF AND PUSH20 0xFFFFFFFFFFFFFFFFFFFFFFFFFFFFFFFFFFFFFFFF AND DUP2 MSTORE PUSH1 0x20 ADD SWAP1 DUP2 MSTORE PUSH1 0x20 ADD PUSH0 KECCAK256 SLOAD LT ISZERO PUSH2 0x2B67 JUMPI PUSH1 0x40 MLOAD PUSH32 0x8C379A000000000000000000000000000000000000000000000000000000000 DUP2 MSTORE PUSH1 0x4 ADD PUSH2 0x2B5E SWAP1 PUSH2 0x4933 JUMP JUMPDEST PUSH1 0x40 MLOAD DUP1 SWAP2 SUB SWAP1 REVERT JUMPDEST PUSH0 DUP2 GT PUSH2 0x2BA9 JUMPI PUSH1 0x40 MLOAD PUSH32 0x8C379A000000000000000000000000000000000000000000000000000000000 DUP2 MSTORE PUSH1 0x4 ADD PUSH2 0x2BA0 SWAP1 PUSH2 0x42FD JUMP JUMPDEST PUSH1 0x40 MLOAD DUP1 SWAP2 SUB SWAP1 REVERT JUMPDEST PUSH0 DUP3 SWAP1 POP DUP2 PUSH1 0x2 PUSH0 CALLER PUSH20 0xFFFFFFFFFFFFFFFFFFFFFFFFFFFFFFFFFFFFFFFF AND PUSH20 0xFFFFFFFFFFFFFFFFFFFFFFFFFFFFFFFFFFFFFFFF AND DUP2 MSTORE PUSH1 0x20 ADD SWAP1 DUP2 MSTORE PUSH1 0x20 ADD PUSH0 KECCAK256 PUSH0 DUP6 PUSH20 0xFFFFFFFFFFFFFFFFFFFFFFFFFFFFFFFFFFFFFFFF AND PUSH20 0xFFFFFFFFFFFFFFFFFFFFFFFFFFFFFFFFFFFFFFFF AND DUP2 MSTORE PUSH1 0x20 ADD SWAP1 DUP2 MSTORE PUSH1 0x20 ADD PUSH0 KECCAK256 PUSH0 DUP3 DUP3 SLOAD PUSH2 0x2C34 SWAP2 SWAP1 PUSH2 0x47F5 JUMP JUMPDEST SWAP3 POP POP DUP2 SWAP1 SSTORE POP DUP1 PUSH20 0xFFFFFFFFFFFFFFFFFFFFFFFFFFFFFFFFFFFFFFFF AND PUSH4 0xA9059CBB CALLER DUP5 PUSH1 0x40 MLOAD DUP4 PUSH4 0xFFFFFFFF AND PUSH1 0xE0 SHL DUP2 MSTORE PUSH1 0x4 ADD PUSH2 0x2C76 SWAP3 SWAP2 SWAP1 PUSH2 0x4951 JUMP JUMPDEST PUSH1 0x20 PUSH1 0x40 MLOAD DUP1 DUP4 SUB DUP2 PUSH0 DUP8 GAS CALL ISZERO DUP1 ISZERO PUSH2 0x2C92 JUMPI RETURNDATASIZE PUSH0 PUSH0 RETURNDATACOPY RETURNDATASIZE PUSH0 REVERT JUMPDEST POP POP POP POP PUSH1 0x40 MLOAD RETURNDATASIZE PUSH1 0x1F NOT PUSH1 0x1F DUP3 ADD AND DUP3 ADD DUP1 PUSH1 0x40 MSTORE POP DUP2 ADD SWAP1 PUSH2 0x2CB6 SWAP2 SWAP1 PUSH2 0x4536 JUMP JUMPDEST PUSH2 0x2CF5 JUMPI PUSH1 0x40 MLOAD PUSH32 0x8C379A000000000000000000000000000000000000000000000000000000000 DUP2 MSTORE PUSH1 0x4 ADD PUSH2 0x2CEC SWAP1 PUSH2 0x45AB JUMP JUMPDEST PUSH1 0x40 MLOAD DUP1 SWAP2 SUB SWAP1 REVERT JUMPDEST PUSH1 0x40 MLOAD DUP1 PUSH1 0xA0 ADD PUSH1 0x40 MSTORE DUP1 CALLER PUSH20 0xFFFFFFFFFFFFFFFFFFFFFFFFFFFFFFFFFFFFFFFF AND DUP2 MSTORE PUSH1 0x20 ADD DUP5 PUSH20 0xFFFFFFFFFFFFFFFFFFFFFFFFFFFFFFFFFFFFFFFF AND DUP2 MSTORE PUSH1 0x20 ADD DUP4 DUP2 MSTORE PUSH1 0x20 ADD PUSH0 ISZERO ISZERO DUP2 MSTORE PUSH1 0x20 ADD TIMESTAMP DUP2 MSTORE POP PUSH1 0x5 PUSH0 PUSH1 0x9 SLOAD DUP2 MSTORE PUSH1 0x20 ADD SWAP1 DUP2 MSTORE PUSH1 0x20 ADD PUSH0 KECCAK256 PUSH0 DUP3 ADD MLOAD DUP2 PUSH0 ADD PUSH0 PUSH2 0x100 EXP DUP2 SLOAD DUP2 PUSH20 0xFFFFFFFFFFFFFFFFFFFFFFFFFFFFFFFFFFFFFFFF MUL NOT AND SWAP1 DUP4 PUSH20 0xFFFFFFFFFFFFFFFFFFFFFFFFFFFFFFFFFFFFFFFF AND MUL OR SWAP1 SSTORE POP PUSH1 0x20 DUP3 ADD MLOAD DUP2 PUSH1 0x1 ADD PUSH0 PUSH2 0x100 EXP DUP2 SLOAD DUP2 PUSH20 0xFFFFFFFFFFFFFFFFFFFFFFFFFFFFFFFFFFFFFFFF MUL NOT AND SWAP1 DUP4 PUSH20 0xFFFFFFFFFFFFFFFFFFFFFFFFFFFFFFFFFFFFFFFF AND MUL OR SWAP1 SSTORE POP PUSH1 0x40 DUP3 ADD MLOAD DUP2 PUSH1 0x2 ADD SSTORE PUSH1 0x60 DUP3 ADD MLOAD DUP2 PUSH1 0x3 ADD PUSH0 PUSH2 0x100 EXP DUP2 SLOAD DUP2 PUSH1 0xFF MUL NOT AND SWAP1 DUP4 ISZERO ISZERO MUL OR SWAP1 SSTORE POP PUSH1 0x80 DUP3 ADD MLOAD DUP2 PUSH1 0x4 ADD SSTORE SWAP1 POP POP PUSH1 0x9 PUSH0 DUP2 SLOAD DUP1 SWAP3 SWAP2 SWAP1 PUSH2 0x2E2F SWAP1 PUSH2 0x4629 JUMP JUMPDEST SWAP2 SWAP1 POP SSTORE POP DUP3 PUSH20 0xFFFFFFFFFFFFFFFFFFFFFFFFFFFFFFFFFFFFFFFF AND CALLER PUSH20 0xFFFFFFFFFFFFFFFFFFFFFFFFFFFFFFFFFFFFFFFF AND PUSH32 0xF341246ADAAC6F497BC2A656F546AB9E182111D630394F0C57C710A59A2CB567 DUP5 TIMESTAMP PUSH1 0x40 MLOAD PUSH2 0x2E93 SWAP3 SWAP2 SWAP1 PUSH2 0x4670 JUMP JUMPDEST PUSH1 0x40 MLOAD DUP1 SWAP2 SUB SWAP1 LOG3 POP PUSH2 0x2EA4 PUSH2 0x310D JUMP JUMPDEST POP POP JUMP JUMPDEST PUSH0 PUSH1 0x8 PUSH0 DUP4 PUSH20 0xFFFFFFFFFFFFFFFFFFFFFFFFFFFFFFFFFFFFFFFF AND PUSH20 0xFFFFFFFFFFFFFFFFFFFFFFFFFFFFFFFFFFFFFFFF AND DUP2 MSTORE PUSH1 0x20 ADD SWAP1 DUP2 MSTORE PUSH1 0x20 ADD PUSH0 KECCAK256 PUSH0 SWAP1 SLOAD SWAP1 PUSH2 0x100 EXP SWAP1 DIV PUSH1 0xFF AND SWAP1 POP SWAP2 SWAP1 POP JUMP JUMPDEST PUSH1 0x4 PUSH1 0x20 MSTORE DUP2 PUSH0 MSTORE PUSH1 0x40 PUSH0 KECCAK256 DUP2 DUP2 SLOAD DUP2 LT PUSH2 0x2F13 JUMPI PUSH0 DUP1 REVERT JUMPDEST SWAP1 PUSH0 MSTORE PUSH1 0x20 PUSH0 KECCAK256 ADD PUSH0 SWAP2 POP SWAP2 POP SWAP1 SLOAD SWAP1 PUSH2 0x100 EXP SWAP1 DIV PUSH20 0xFFFFFFFFFFFFFFFFFFFFFFFFFFFFFFFFFFFFFFFF AND DUP2 JUMP JUMPDEST PUSH1 0x2 PUSH0 SLOAD SUB PUSH2 0x2F86 JUMPI PUSH1 0x40 MLOAD PUSH32 0x8C379A000000000000000000000000000000000000000000000000000000000 DUP2 MSTORE PUSH1 0x4 ADD PUSH2 0x2F7D SWAP1 PUSH2 0x49C2 JUMP JUMPDEST PUSH1 0x40 MLOAD DUP1 SWAP2 SUB SWAP1 REVERT JUMPDEST PUSH1 0x2 PUSH0 DUP2 SWAP1 SSTORE POP JUMP JUMPDEST PUSH1 0x60 PUSH0 DUP3 SUB PUSH2 0x2FD5 JUMPI PUSH1 0x40 MLOAD DUP1 PUSH1 0x40 ADD PUSH1 0x40 MSTORE DUP1 PUSH1 0x1 DUP2 MSTORE PUSH1 0x20 ADD PUSH32 0x3000000000000000000000000000000000000000000000000000000000000000 DUP2 MSTORE POP SWAP1 POP PUSH2 0x3108 JUMP JUMPDEST PUSH0 DUP3 SWAP1 POP PUSH0 JUMPDEST PUSH0 DUP3 EQ PUSH2 0x3004 JUMPI DUP1 DUP1 PUSH2 0x2FED SWAP1 PUSH2 0x4629 JUMP JUMPDEST SWAP2 POP POP PUSH1 0xA DUP3 PUSH2 0x2FFD SWAP2 SWAP1 PUSH2 0x4A0D JUMP JUMPDEST SWAP2 POP PUSH2 0x2FDB JUMP JUMPDEST PUSH0 DUP2 PUSH8 0xFFFFFFFFFFFFFFFF DUP2 GT ISZERO PUSH2 0x301F JUMPI PUSH2 0x301E PUSH2 0x32AE JUMP JUMPDEST JUMPDEST PUSH1 0x40 MLOAD SWAP1 DUP1 DUP3 MSTORE DUP1 PUSH1 0x1F ADD PUSH1 0x1F NOT AND PUSH1 0x20 ADD DUP3 ADD PUSH1 0x40 MSTORE DUP1 ISZERO PUSH2 0x3051 JUMPI DUP2 PUSH1 0x20 ADD PUSH1 0x1 DUP3 MUL DUP1 CALLDATASIZE DUP4 CALLDATACOPY DUP1 DUP3 ADD SWAP2 POP POP SWAP1 POP JUMPDEST POP SWAP1 POP PUSH0 DUP3 SWAP1 POP JUMPDEST PUSH0 DUP7 EQ PUSH2 0x3100 JUMPI PUSH1 0x1 DUP2 PUSH2 0x306D SWAP2 SWAP1 PUSH2 0x47F5 JUMP JUMPDEST SWAP1 POP PUSH0 PUSH1 0xA DUP1 DUP9 PUSH2 0x307E SWAP2 SWAP1 PUSH2 0x4A0D JUMP JUMPDEST PUSH2 0x3088 SWAP2 SWAP1 PUSH2 0x4A3D JUMP JUMPDEST DUP8 PUSH2 0x3093 SWAP2 SWAP1 PUSH2 0x47F5 JUMP JUMPDEST PUSH1 0x30 PUSH2 0x309F SWAP2 SWAP1 PUSH2 0x4A8A JUMP JUMPDEST SWAP1 POP PUSH0 DUP2 PUSH1 0xF8 SHL SWAP1 POP DUP1 DUP5 DUP5 DUP2 MLOAD DUP2 LT PUSH2 0x30BC JUMPI PUSH2 0x30BB PUSH2 0x4828 JUMP JUMPDEST JUMPDEST PUSH1 0x20 ADD ADD SWAP1 PUSH31 0xFFFFFFFFFFFFFFFFFFFFFFFFFFFFFFFFFFFFFFFFFFFFFFFFFFFFFFFFFFFFFF NOT AND SWAP1 DUP2 PUSH0 BYTE SWAP1 MSTORE8 POP PUSH1 0xA DUP9 PUSH2 0x30F7 SWAP2 SWAP1 PUSH2 0x4A0D JUMP JUMPDEST SWAP8 POP POP POP PUSH2 0x3059 JUMP JUMPDEST DUP2 SWAP5 POP POP POP POP POP JUMPDEST SWAP2 SWAP1 POP JUMP JUMPDEST PUSH1 0x1 PUSH0 DUP2 SWAP1 SSTORE POP JUMP JUMPDEST PUSH1 0x40 MLOAD DUP1 PUSH1 0xA0 ADD PUSH1 0x40 MSTORE DUP1 PUSH1 0x60 DUP2 MSTORE PUSH1 0x20 ADD PUSH1 0x60 DUP2 MSTORE PUSH1 0x20 ADD PUSH0 ISZERO ISZERO DUP2 MSTORE PUSH1 0x20 ADD PUSH0 DUP2 MSTORE PUSH1 0x20 ADD PUSH0 DUP2 MSTORE POP SWAP1 JUMP JUMPDEST PUSH1 0x40 MLOAD DUP1 PUSH1 0xA0 ADD PUSH1 0x40 MSTORE DUP1 PUSH0 PUSH20 0xFFFFFFFFFFFFFFFFFFFFFFFFFFFFFFFFFFFFFFFF AND DUP2 MSTORE PUSH1 0x20 ADD PUSH0 PUSH20 0xFFFFFFFFFFFFFFFFFFFFFFFFFFFFFFFFFFFFFFFF AND DUP2 MSTORE PUSH1 0x20 ADD PUSH0 DUP2 MSTORE PUSH1 0x20 ADD PUSH0 ISZERO ISZERO DUP2 MSTORE PUSH1 0x20 ADD PUSH0 DUP2 MSTORE POP SWAP1 JUMP JUMPDEST PUSH0 PUSH1 0x40 MLOAD SWAP1 POP SWAP1 JUMP JUMPDEST PUSH0 PUSH0 REVERT JUMPDEST PUSH0 PUSH0 REVERT JUMPDEST PUSH0 PUSH20 0xFFFFFFFFFFFFFFFFFFFFFFFFFFFFFFFFFFFFFFFF DUP3 AND SWAP1 POP SWAP2 SWAP1 POP JUMP JUMPDEST PUSH0 PUSH2 0x31D6 DUP3 PUSH2 0x31AD JUMP JUMPDEST SWAP1 POP SWAP2 SWAP1 POP JUMP JUMPDEST PUSH2 0x31E6 DUP2 PUSH2 0x31CC JUMP JUMPDEST DUP2 EQ PUSH2 0x31F0 JUMPI PUSH0 PUSH0 REVERT JUMPDEST POP JUMP JUMPDEST PUSH0 DUP2 CALLDATALOAD SWAP1 POP PUSH2 0x3201 DUP2 PUSH2 0x31DD JUMP JUMPDEST SWAP3 SWAP2 POP POP JUMP JUMPDEST PUSH0 PUSH1 0x20 DUP3 DUP5 SUB SLT ISZERO PUSH2 0x321C JUMPI PUSH2 0x321B PUSH2 0x31A5 JUMP JUMPDEST JUMPDEST PUSH0 PUSH2 0x3229 DUP5 DUP3 DUP6 ADD PUSH2 0x31F3 JUMP JUMPDEST SWAP2 POP POP SWAP3 SWAP2 POP POP JUMP JUMPDEST PUSH0 DUP2 SWAP1 POP SWAP2 SWAP1 POP JUMP JUMPDEST PUSH2 0x3244 DUP2 PUSH2 0x3232 JUMP JUMPDEST DUP3 MSTORE POP POP JUMP JUMPDEST PUSH0 PUSH1 0x20 DUP3 ADD SWAP1 POP PUSH2 0x325D PUSH0 DUP4 ADD DUP5 PUSH2 0x323B JUMP JUMPDEST SWAP3 SWAP2 POP POP JUMP JUMPDEST PUSH0 DUP2 ISZERO ISZERO SWAP1 POP SWAP2 SWAP1 POP JUMP JUMPDEST PUSH2 0x3277 DUP2 PUSH2 0x3263 JUMP JUMPDEST DUP3 MSTORE POP POP JUMP JUMPDEST PUSH0 PUSH1 0x20 DUP3 ADD SWAP1 POP PUSH2 0x3290 PUSH0 DUP4 ADD DUP5 PUSH2 0x326E JUMP JUMPDEST SWAP3 SWAP2 POP POP JUMP JUMPDEST PUSH0 PUSH0 REVERT JUMPDEST PUSH0 PUSH0 REVERT JUMPDEST PUSH0 PUSH1 0x1F NOT PUSH1 0x1F DUP4 ADD AND SWAP1 POP SWAP2 SWAP1 POP JUMP JUMPDEST PUSH32 0x4E487B7100000000000000000000000000000000000000000000000000000000 PUSH0 MSTORE PUSH1 0x41 PUSH1 0x4 MSTORE PUSH1 0x24 PUSH0 REVERT JUMPDEST PUSH2 0x32E4 DUP3 PUSH2 0x329E JUMP JUMPDEST DUP2 ADD DUP2 DUP2 LT PUSH8 0xFFFFFFFFFFFFFFFF DUP3 GT OR ISZERO PUSH2 0x3303 JUMPI PUSH2 0x3302 PUSH2 0x32AE JUMP JUMPDEST JUMPDEST DUP1 PUSH1 0x40 MSTORE POP POP POP JUMP JUMPDEST PUSH0 PUSH2 0x3315 PUSH2 0x319C JUMP JUMPDEST SWAP1 POP PUSH2 0x3321 DUP3 DUP3 PUSH2 0x32DB JUMP JUMPDEST SWAP2 SWAP1 POP JUMP JUMPDEST PUSH0 PUSH8 0xFFFFFFFFFFFFFFFF DUP3 GT ISZERO PUSH2 0x3340 JUMPI PUSH2 0x333F PUSH2 0x32AE JUMP JUMPDEST JUMPDEST PUSH2 0x3349 DUP3 PUSH2 0x329E JUMP JUMPDEST SWAP1 POP PUSH1 0x20 DUP2 ADD SWAP1 POP SWAP2 SWAP1 POP JUMP JUMPDEST DUP3 DUP2 DUP4 CALLDATACOPY PUSH0 DUP4 DUP4 ADD MSTORE POP POP POP JUMP JUMPDEST PUSH0 PUSH2 0x3376 PUSH2 0x3371 DUP5 PUSH2 0x3326 JUMP JUMPDEST PUSH2 0x330C JUMP JUMPDEST SWAP1 POP DUP3 DUP2 MSTORE PUSH1 0x20 DUP2 ADD DUP5 DUP5 DUP5 ADD GT ISZERO PUSH2 0x3392 JUMPI PUSH2 0x3391 PUSH2 0x329A JUMP JUMPDEST JUMPDEST PUSH2 0x339D DUP5 DUP3 DUP6 PUSH2 0x3356 JUMP JUMPDEST POP SWAP4 SWAP3 POP POP POP JUMP JUMPDEST PUSH0 DUP3 PUSH1 0x1F DUP4 ADD SLT PUSH2 0x33B9 JUMPI PUSH2 0x33B8 PUSH2 0x3296 JUMP JUMPDEST JUMPDEST DUP2 CALLDATALOAD PUSH2 0x33C9 DUP5 DUP3 PUSH1 0x20 DUP7 ADD PUSH2 0x3364 JUMP JUMPDEST SWAP2 POP POP SWAP3 SWAP2 POP POP JUMP JUMPDEST PUSH0 PUSH1 0x20 DUP3 DUP5 SUB SLT ISZERO PUSH2 0x33E7 JUMPI PUSH2 0x33E6 PUSH2 0x31A5 JUMP JUMPDEST JUMPDEST PUSH0 DUP3 ADD CALLDATALOAD PUSH8 0xFFFFFFFFFFFFFFFF DUP2 GT ISZERO PUSH2 0x3404 JUMPI PUSH2 0x3403 PUSH2 0x31A9 JUMP JUMPDEST JUMPDEST PUSH2 0x3410 DUP5 DUP3 DUP6 ADD PUSH2 0x33A5 JUMP JUMPDEST SWAP2 POP POP SWAP3 SWAP2 POP POP JUMP JUMPDEST PUSH0 DUP2 SWAP1 POP SWAP2 SWAP1 POP JUMP JUMPDEST PUSH2 0x342B DUP2 PUSH2 0x3419 JUMP JUMPDEST DUP3 MSTORE POP POP JUMP JUMPDEST PUSH0 PUSH1 0x20 DUP3 ADD SWAP1 POP PUSH2 0x3444 PUSH0 DUP4 ADD DUP5 PUSH2 0x3422 JUMP JUMPDEST SWAP3 SWAP2 POP POP JUMP JUMPDEST PUSH0 PUSH0 PUSH1 0x40 DUP4 DUP6 SUB SLT ISZERO PUSH2 0x3460 JUMPI PUSH2 0x345F PUSH2 0x31A5 JUMP JUMPDEST JUMPDEST PUSH0 DUP4 ADD CALLDATALOAD PUSH8 0xFFFFFFFFFFFFFFFF DUP2 GT ISZERO PUSH2 0x347D JUMPI PUSH2 0x347C PUSH2 0x31A9 JUMP JUMPDEST JUMPDEST PUSH2 0x3489 DUP6 DUP3 DUP7 ADD PUSH2 0x33A5 JUMP JUMPDEST SWAP3 POP POP PUSH1 0x20 DUP4 ADD CALLDATALOAD PUSH8 0xFFFFFFFFFFFFFFFF DUP2 GT ISZERO PUSH2 0x34AA JUMPI PUSH2 0x34A9 PUSH2 0x31A9 JUMP JUMPDEST JUMPDEST PUSH2 0x34B6 DUP6 DUP3 DUP7 ADD PUSH2 0x33A5 JUMP JUMPDEST SWAP2 POP POP SWAP3 POP SWAP3 SWAP1 POP JUMP JUMPDEST PUSH0 PUSH0 PUSH1 0x40 DUP4 DUP6 SUB SLT ISZERO PUSH2 0x34D6 JUMPI PUSH2 0x34D5 PUSH2 0x31A5 JUMP JUMPDEST JUMPDEST PUSH0 PUSH2 0x34E3 DUP6 DUP3 DUP7 ADD PUSH2 0x31F3 JUMP JUMPDEST SWAP3 POP POP PUSH1 0x20 PUSH2 0x34F4 DUP6 DUP3 DUP7 ADD PUSH2 0x31F3 JUMP JUMPDEST SWAP2 POP POP SWAP3 POP SWAP3 SWAP1 POP JUMP JUMPDEST PUSH2 0x3507 DUP2 PUSH2 0x3232 JUMP JUMPDEST DUP2 EQ PUSH2 0x3511 JUMPI PUSH0 PUSH0 REVERT JUMPDEST POP JUMP JUMPDEST PUSH0 DUP2 CALLDATALOAD SWAP1 POP PUSH2 0x3522 DUP2 PUSH2 0x34FE JUMP JUMPDEST SWAP3 SWAP2 POP POP JUMP JUMPDEST PUSH0 PUSH0 PUSH1 0x40 DUP4 DUP6 SUB SLT ISZERO PUSH2 0x353E JUMPI PUSH2 0x353D PUSH2 0x31A5 JUMP JUMPDEST JUMPDEST PUSH0 PUSH2 0x354B DUP6 DUP3 DUP7 ADD PUSH2 0x31F3 JUMP JUMPDEST SWAP3 POP POP PUSH1 0x20 PUSH2 0x355C DUP6 DUP3 DUP7 ADD PUSH2 0x3514 JUMP JUMPDEST SWAP2 POP POP SWAP3 POP SWAP3 SWAP1 POP JUMP JUMPDEST PUSH0 DUP2 MLOAD SWAP1 POP SWAP2 SWAP1 POP JUMP JUMPDEST PUSH0 DUP3 DUP3 MSTORE PUSH1 0x20 DUP3 ADD SWAP1 POP SWAP3 SWAP2 POP POP JUMP JUMPDEST PUSH0 DUP2 SWAP1 POP PUSH1 0x20 DUP3 ADD SWAP1 POP SWAP2 SWAP1 POP JUMP JUMPDEST PUSH2 0x3598 DUP2 PUSH2 0x31CC JUMP JUMPDEST DUP3 MSTORE POP POP JUMP JUMPDEST PUSH0 PUSH2 0x35A9 DUP4 DUP4 PUSH2 0x358F JUMP JUMPDEST PUSH1 0x20 DUP4 ADD SWAP1 POP SWAP3 SWAP2 POP POP JUMP JUMPDEST PUSH0 PUSH1 0x20 DUP3 ADD SWAP1 POP SWAP2 SWAP1 POP JUMP JUMPDEST PUSH0 PUSH2 0x35CB DUP3 PUSH2 0x3566 JUMP JUMPDEST PUSH2 0x35D5 DUP2 DUP6 PUSH2 0x3570 JUMP JUMPDEST SWAP4 POP PUSH2 0x35E0 DUP4 PUSH2 0x3580 JUMP JUMPDEST DUP1 PUSH0 JUMPDEST DUP4 DUP2 LT ISZERO PUSH2 0x3610 JUMPI DUP2 MLOAD PUSH2 0x35F7 DUP9 DUP3 PUSH2 0x359E JUMP JUMPDEST SWAP8 POP PUSH2 0x3602 DUP4 PUSH2 0x35B5 JUMP JUMPDEST SWAP3 POP POP PUSH1 0x1 DUP2 ADD SWAP1 POP PUSH2 0x35E3 JUMP JUMPDEST POP DUP6 SWAP4 POP POP POP POP SWAP3 SWAP2 POP POP JUMP JUMPDEST PUSH0 PUSH1 0x20 DUP3 ADD SWAP1 POP DUP2 DUP2 SUB PUSH0 DUP4 ADD MSTORE PUSH2 0x3635 DUP2 DUP5 PUSH2 0x35C1 JUMP JUMPDEST SWAP1 POP SWAP3 SWAP2 POP POP JUMP JUMPDEST PUSH0 DUP2 MLOAD SWAP1 POP SWAP2 SWAP1 POP JUMP JUMPDEST PUSH0 DUP3 DUP3 MSTORE PUSH1 0x20 DUP3 ADD SWAP1 POP SWAP3 SWAP2 POP POP JUMP JUMPDEST DUP3 DUP2 DUP4 MCOPY PUSH0 DUP4 DUP4 ADD MSTORE POP POP POP JUMP JUMPDEST PUSH0 PUSH2 0x366F DUP3 PUSH2 0x363D JUMP JUMPDEST PUSH2 0x3679 DUP2 DUP6 PUSH2 0x3647 JUMP JUMPDEST SWAP4 POP PUSH2 0x3689 DUP2 DUP6 PUSH1 0x20 DUP7 ADD PUSH2 0x3657 JUMP JUMPDEST PUSH2 0x3692 DUP2 PUSH2 0x329E JUMP JUMPDEST DUP5 ADD SWAP2 POP POP SWAP3 SWAP2 POP POP JUMP JUMPDEST PUSH2 0x36A6 DUP2 PUSH2 0x3263 JUMP JUMPDEST DUP3 MSTORE POP POP JUMP JUMPDEST PUSH2 0x36B5 DUP2 PUSH2 0x3232 JUMP JUMPDEST DUP3 MSTORE POP POP JUMP JUMPDEST PUSH0 PUSH1 0xA0 DUP4 ADD PUSH0 DUP4 ADD MLOAD DUP5 DUP3 SUB PUSH0 DUP7 ADD MSTORE PUSH2 0x36D5 DUP3 DUP3 PUSH2 0x3665 JUMP JUMPDEST SWAP2 POP POP PUSH1 0x20 DUP4 ADD MLOAD DUP5 DUP3 SUB PUSH1 0x20 DUP7 ADD MSTORE PUSH2 0x36EF DUP3 DUP3 PUSH2 0x3665 JUMP JUMPDEST SWAP2 POP POP PUSH1 0x40 DUP4 ADD MLOAD PUSH2 0x3704 PUSH1 0x40 DUP7 ADD DUP3 PUSH2 0x369D JUMP JUMPDEST POP PUSH1 0x60 DUP4 ADD MLOAD PUSH2 0x3717 PUSH1 0x60 DUP7 ADD DUP3 PUSH2 0x36AC JUMP JUMPDEST POP PUSH1 0x80 DUP4 ADD MLOAD PUSH2 0x372A PUSH1 0x80 DUP7 ADD DUP3 PUSH2 0x36AC JUMP JUMPDEST POP DUP1 SWAP2 POP POP SWAP3 SWAP2 POP POP JUMP JUMPDEST PUSH0 PUSH1 0x20 DUP3 ADD SWAP1 POP DUP2 DUP2 SUB PUSH0 DUP4 ADD MSTORE PUSH2 0x374D DUP2 DUP5 PUSH2 0x36BB JUMP JUMPDEST SWAP1 POP SWAP3 SWAP2 POP POP JUMP JUMPDEST PUSH0 DUP2 MLOAD SWAP1 POP SWAP2 SWAP1 POP JUMP JUMPDEST PUSH0 DUP3 DUP3 MSTORE PUSH1 0x20 DUP3 ADD SWAP1 POP SWAP3 SWAP2 POP POP JUMP JUMPDEST PUSH0 DUP2 SWAP1 POP PUSH1 0x20 DUP3 ADD SWAP1 POP SWAP2 SWAP1 POP JUMP JUMPDEST PUSH1 0xA0 DUP3 ADD PUSH0 DUP3 ADD MLOAD PUSH2 0x3792 PUSH0 DUP6 ADD DUP3 PUSH2 0x358F JUMP JUMPDEST POP PUSH1 0x20 DUP3 ADD MLOAD PUSH2 0x37A5 PUSH1 0x20 DUP6 ADD DUP3 PUSH2 0x358F JUMP JUMPDEST POP PUSH1 0x40 DUP3 ADD MLOAD PUSH2 0x37B8 PUSH1 0x40 DUP6 ADD DUP3 PUSH2 0x36AC JUMP JUMPDEST POP PUSH1 0x60 DUP3 ADD MLOAD PUSH2 0x37CB PUSH1 0x60 DUP6 ADD DUP3 PUSH2 0x369D JUMP JUMPDEST POP PUSH1 0x80 DUP3 ADD MLOAD PUSH2 0x37DE PUSH1 0x80 DUP6 ADD DUP3 PUSH2 0x36AC JUMP JUMPDEST POP POP POP POP JUMP JUMPDEST PUSH0 PUSH2 0x37EF DUP4 DUP4 PUSH2 0x377E JUMP JUMPDEST PUSH1 0xA0 DUP4 ADD SWAP1 POP SWAP3 SWAP2 POP POP JUMP JUMPDEST PUSH0 PUSH1 0x20 DUP3 ADD SWAP1 POP SWAP2 SWAP1 POP JUMP JUMPDEST PUSH0 PUSH2 0x3811 DUP3 PUSH2 0x3755 JUMP JUMPDEST PUSH2 0x381B DUP2 DUP6 PUSH2 0x375F JUMP JUMPDEST SWAP4 POP PUSH2 0x3826 DUP4 PUSH2 0x376F JUMP JUMPDEST DUP1 PUSH0 JUMPDEST DUP4 DUP2 LT ISZERO PUSH2 0x3856 JUMPI DUP2 MLOAD PUSH2 0x383D DUP9 DUP3 PUSH2 0x37E4 JUMP JUMPDEST SWAP8 POP PUSH2 0x3848 DUP4 PUSH2 0x37FB JUMP JUMPDEST SWAP3 POP POP PUSH1 0x1 DUP2 ADD SWAP1 POP PUSH2 0x3829 JUMP JUMPDEST POP DUP6 SWAP4 POP POP POP POP SWAP3 SWAP2 POP POP JUMP JUMPDEST PUSH0 PUSH1 0x20 DUP3 ADD SWAP1 POP DUP2 DUP2 SUB PUSH0 DUP4 ADD MSTORE PUSH2 0x387B DUP2 DUP5 PUSH2 0x3807 JUMP JUMPDEST SWAP1 POP SWAP3 SWAP2 POP POP JUMP JUMPDEST PUSH2 0x388C DUP2 PUSH2 0x31CC JUMP JUMPDEST DUP3 MSTORE POP POP JUMP JUMPDEST PUSH0 PUSH1 0x20 DUP3 ADD SWAP1 POP PUSH2 0x38A5 PUSH0 DUP4 ADD DUP5 PUSH2 0x3883 JUMP JUMPDEST SWAP3 SWAP2 POP POP JUMP JUMPDEST PUSH0 PUSH1 0x20 DUP3 DUP5 SUB SLT ISZERO PUSH2 0x38C0 JUMPI PUSH2 0x38BF PUSH2 0x31A5 JUMP JUMPDEST JUMPDEST PUSH0 PUSH2 0x38CD DUP5 DUP3 DUP6 ADD PUSH2 0x3514 JUMP JUMPDEST SWAP2 POP POP SWAP3 SWAP2 POP POP JUMP JUMPDEST PUSH0 PUSH1 0xA0 DUP3 ADD SWAP1 POP PUSH2 0x38E9 PUSH0 DUP4 ADD DUP9 PUSH2 0x3883 JUMP JUMPDEST PUSH2 0x38F6 PUSH1 0x20 DUP4 ADD DUP8 PUSH2 0x3883 JUMP JUMPDEST PUSH2 0x3903 PUSH1 0x40 DUP4 ADD DUP7 PUSH2 0x323B JUMP JUMPDEST PUSH2 0x3910 PUSH1 0x60 DUP4 ADD DUP6 PUSH2 0x326E JUMP JUMPDEST PUSH2 0x391D PUSH1 0x80 DUP4 ADD DUP5 PUSH2 0x323B JUMP JUMPDEST SWAP7 SWAP6 POP POP POP POP POP POP JUMP JUMPDEST PUSH0 DUP3 DUP3 MSTORE PUSH1 0x20 DUP3 ADD SWAP1 POP SWAP3 SWAP2 POP POP JUMP JUMPDEST PUSH0 PUSH2 0x3941 DUP3 PUSH2 0x363D JUMP JUMPDEST PUSH2 0x394B DUP2 DUP6 PUSH2 0x3927 JUMP JUMPDEST SWAP4 POP PUSH2 0x395B DUP2 DUP6 PUSH1 0x20 DUP7 ADD PUSH2 0x3657 JUMP JUMPDEST PUSH2 0x3964 DUP2 PUSH2 0x329E JUMP JUMPDEST DUP5 ADD SWAP2 POP POP SWAP3 SWAP2 POP POP JUMP JUMPDEST PUSH0 PUSH1 0xA0 DUP3 ADD SWAP1 POP DUP2 DUP2 SUB PUSH0 DUP4 ADD MSTORE PUSH2 0x3987 DUP2 DUP9 PUSH2 0x3937 JUMP JUMPDEST SWAP1 POP DUP2 DUP2 SUB PUSH1 0x20 DUP4 ADD MSTORE PUSH2 0x399B DUP2 DUP8 PUSH2 0x3937 JUMP JUMPDEST SWAP1 POP PUSH2 0x39AA PUSH1 0x40 DUP4 ADD DUP7 PUSH2 0x326E JUMP JUMPDEST PUSH2 0x39B7 PUSH1 0x60 DUP4 ADD DUP6 PUSH2 0x323B JUMP JUMPDEST PUSH2 0x39C4 PUSH1 0x80 DUP4 ADD DUP5 PUSH2 0x323B JUMP JUMPDEST SWAP7 SWAP6 POP POP POP POP POP POP JUMP JUMPDEST PUSH0 DUP2 SWAP1 POP SWAP2 SWAP1 POP JUMP JUMPDEST PUSH2 0x39E0 DUP2 PUSH2 0x39CE JUMP JUMPDEST DUP3 MSTORE POP POP JUMP JUMPDEST PUSH0 PUSH1 0x20 DUP3 ADD SWAP1 POP PUSH2 0x39F9 PUSH0 DUP4 ADD DUP5 PUSH2 0x39D7 JUMP JUMPDEST SWAP3 SWAP2 POP POP JUMP JUMPDEST PUSH0 DUP2 MLOAD SWAP1 POP PUSH2 0x3A0D DUP2 PUSH2 0x34FE JUMP JUMPDEST SWAP3 SWAP2 POP POP JUMP JUMPDEST PUSH0 PUSH1 0x20 DUP3 DUP5 SUB SLT ISZERO PUSH2 0x3A28 JUMPI PUSH2 0x3A27 PUSH2 0x31A5 JUMP JUMPDEST JUMPDEST PUSH0 PUSH2 0x3A35 DUP5 DUP3 DUP6 ADD PUSH2 0x39FF JUMP JUMPDEST SWAP2 POP POP SWAP3 SWAP2 POP POP JUMP JUMPDEST PUSH0 PUSH1 0x40 DUP3 ADD SWAP1 POP PUSH2 0x3A51 PUSH0 DUP4 ADD DUP6 PUSH2 0x3883 JUMP JUMPDEST PUSH2 0x3A5E PUSH1 0x20 DUP4 ADD DUP5 PUSH2 0x3883 JUMP JUMPDEST SWAP4 SWAP3 POP POP POP JUMP JUMPDEST PUSH32 0x55736572206E6F74206C6F6767656420696E0000000000000000000000000000 PUSH0 DUP3 ADD MSTORE POP JUMP JUMPDEST PUSH0 PUSH2 0x3A99 PUSH1 0x12 DUP4 PUSH2 0x3927 JUMP JUMPDEST SWAP2 POP PUSH2 0x3AA4 DUP3 PUSH2 0x3A65 JUMP JUMPDEST PUSH1 0x20 DUP3 ADD SWAP1 POP SWAP2 SWAP1 POP JUMP JUMPDEST PUSH0 PUSH1 0x20 DUP3 ADD SWAP1 POP DUP2 DUP2 SUB PUSH0 DUP4 ADD MSTORE PUSH2 0x3AC6 DUP2 PUSH2 0x3A8D JUMP JUMPDEST SWAP1 POP SWAP2 SWAP1 POP JUMP JUMPDEST PUSH32 0x55736572206E6F74207265676973746572656400000000000000000000000000 PUSH0 DUP3 ADD MSTORE POP JUMP JUMPDEST PUSH0 PUSH2 0x3B01 PUSH1 0x13 DUP4 PUSH2 0x3927 JUMP JUMPDEST SWAP2 POP PUSH2 0x3B0C DUP3 PUSH2 0x3ACD JUMP JUMPDEST PUSH1 0x20 DUP3 ADD SWAP1 POP SWAP2 SWAP1 POP JUMP JUMPDEST PUSH0 PUSH1 0x20 DUP3 ADD SWAP1 POP DUP2 DUP2 SUB PUSH0 DUP4 ADD MSTORE PUSH2 0x3B2E DUP2 PUSH2 0x3AF5 JUMP JUMPDEST SWAP1 POP SWAP2 SWAP1 POP JUMP JUMPDEST PUSH32 0x4E487B7100000000000000000000000000000000000000000000000000000000 PUSH0 MSTORE PUSH1 0x22 PUSH1 0x4 MSTORE PUSH1 0x24 PUSH0 REVERT JUMPDEST PUSH0 PUSH1 0x2 DUP3 DIV SWAP1 POP PUSH1 0x1 DUP3 AND DUP1 PUSH2 0x3B79 JUMPI PUSH1 0x7F DUP3 AND SWAP2 POP JUMPDEST PUSH1 0x20 DUP3 LT DUP2 SUB PUSH2 0x3B8C JUMPI PUSH2 0x3B8B PUSH2 0x3B35 JUMP JUMPDEST JUMPDEST POP SWAP2 SWAP1 POP JUMP JUMPDEST PUSH0 DUP2 SLOAD SWAP1 POP PUSH2 0x3BA0 DUP2 PUSH2 0x3B62 JUMP JUMPDEST SWAP1 POP SWAP2 SWAP1 POP JUMP JUMPDEST PUSH0 DUP2 SWAP1 POP DUP2 PUSH0 MSTORE PUSH1 0x20 PUSH0 KECCAK256 SWAP1 POP SWAP2 SWAP1 POP JUMP JUMPDEST PUSH0 DUP2 PUSH0 SHR SWAP1 POP SWAP2 SWAP1 POP JUMP JUMPDEST PUSH0 DUP2 SWAP1 POP SWAP2 SWAP1 POP JUMP JUMPDEST PUSH0 PUSH2 0x3BDF PUSH2 0x3BDA DUP4 PUSH2 0x3BB9 JUMP JUMPDEST PUSH2 0x3BC4 JUMP JUMPDEST SWAP1 POP SWAP2 SWAP1 POP JUMP JUMPDEST PUSH0 PUSH2 0x3BF1 DUP3 SLOAD PUSH2 0x3BCD JUMP JUMPDEST SWAP1 POP SWAP2 SWAP1 POP JUMP JUMPDEST PUSH0 DUP3 DUP3 SHL SWAP1 POP SWAP3 SWAP2 POP POP JUMP JUMPDEST PUSH0 PUSH2 0x3C0E DUP3 PUSH2 0x3B92 JUMP JUMPDEST DUP3 PUSH1 0x1F DUP3 GT ISZERO PUSH2 0x3C24 JUMPI PUSH2 0x3C21 DUP5 PUSH2 0x3BA7 JUMP JUMPDEST SWAP1 POP JUMPDEST PUSH2 0x3C2D DUP2 PUSH2 0x3BE6 JUMP JUMPDEST SWAP3 POP PUSH1 0x20 DUP3 LT ISZERO PUSH2 0x3C6D JUMPI PUSH2 0x3C68 PUSH32 0xFFFFFFFFFFFFFFFFFFFFFFFFFFFFFFFFFFFFFFFFFFFFFFFFFFFFFFFFFFFFFFFF DUP4 PUSH1 0x20 SUB PUSH1 0x8 MUL PUSH2 0x3BF8 JUMP JUMPDEST DUP4 AND SWAP3 POP JUMPDEST POP POP SWAP2 SWAP1 POP JUMP JUMPDEST PUSH32 0x496E76616C69642070617373776F726400000000000000000000000000000000 PUSH0 DUP3 ADD MSTORE POP JUMP JUMPDEST PUSH0 PUSH2 0x3CA8 PUSH1 0x10 DUP4 PUSH2 0x3927 JUMP JUMPDEST SWAP2 POP PUSH2 0x3CB3 DUP3 PUSH2 0x3C74 JUMP JUMPDEST PUSH1 0x20 DUP3 ADD SWAP1 POP SWAP2 SWAP1 POP JUMP JUMPDEST PUSH0 PUSH1 0x20 DUP3 ADD SWAP1 POP DUP2 DUP2 SUB PUSH0 DUP4 ADD MSTORE PUSH2 0x3CD5 DUP2 PUSH2 0x3C9C JUMP JUMPDEST SWAP1 POP SWAP2 SWAP1 POP JUMP JUMPDEST PUSH0 DUP2 SWAP1 POP SWAP3 SWAP2 POP POP JUMP JUMPDEST PUSH0 PUSH2 0x3CF0 DUP3 PUSH2 0x363D JUMP JUMPDEST PUSH2 0x3CFA DUP2 DUP6 PUSH2 0x3CDC JUMP JUMPDEST SWAP4 POP PUSH2 0x3D0A DUP2 DUP6 PUSH1 0x20 DUP7 ADD PUSH2 0x3657 JUMP JUMPDEST DUP1 DUP5 ADD SWAP2 POP POP SWAP3 SWAP2 POP POP JUMP JUMPDEST PUSH0 PUSH2 0x3D21 DUP3 DUP5 PUSH2 0x3CE6 JUMP JUMPDEST SWAP2 POP DUP2 SWAP1 POP SWAP3 SWAP2 POP POP JUMP JUMPDEST PUSH32 0x5573657220616C72656164792072656769737465726564000000000000000000 PUSH0 DUP3 ADD MSTORE POP JUMP JUMPDEST PUSH0 PUSH2 0x3D60 PUSH1 0x17 DUP4 PUSH2 0x3927 JUMP JUMPDEST SWAP2 POP PUSH2 0x3D6B DUP3 PUSH2 0x3D2C JUMP JUMPDEST PUSH1 0x20 DUP3 ADD SWAP1 POP SWAP2 SWAP1 POP JUMP JUMPDEST PUSH0 PUSH1 0x20 DUP3 ADD SWAP1 POP DUP2 DUP2 SUB PUSH0 DUP4 ADD MSTORE PUSH2 0x3D8D DUP2 PUSH2 0x3D54 JUMP JUMPDEST SWAP1 POP SWAP2 SWAP1 POP JUMP JUMPDEST PUSH32 0x557365726E616D65206D757374206265206174206C6561737420332063686172 PUSH0 DUP3 ADD MSTORE PUSH32 0x6163746572730000000000000000000000000000000000000000000000000000 PUSH1 0x20 DUP3 ADD MSTORE POP JUMP JUMPDEST PUSH0 PUSH2 0x3DEE PUSH1 0x26 DUP4 PUSH2 0x3927 JUMP JUMPDEST SWAP2 POP PUSH2 0x3DF9 DUP3 PUSH2 0x3D94 JUMP JUMPDEST PUSH1 0x40 DUP3 ADD SWAP1 POP SWAP2 SWAP1 POP JUMP JUMPDEST PUSH0 PUSH1 0x20 DUP3 ADD SWAP1 POP DUP2 DUP2 SUB PUSH0 DUP4 ADD MSTORE PUSH2 0x3E1B DUP2 PUSH2 0x3DE2 JUMP JUMPDEST SWAP1 POP SWAP2 SWAP1 POP JUMP JUMPDEST PUSH32 0x50617373776F7264206D757374206265206174206C6561737420362063686172 PUSH0 DUP3 ADD MSTORE PUSH32 0x6163746572730000000000000000000000000000000000000000000000000000 PUSH1 0x20 DUP3 ADD MSTORE POP JUMP JUMPDEST PUSH0 PUSH2 0x3E7C PUSH1 0x26 DUP4 PUSH2 0x3927 JUMP JUMPDEST SWAP2 POP PUSH2 0x3E87 DUP3 PUSH2 0x3E22 JUMP JUMPDEST PUSH1 0x40 DUP3 ADD SWAP1 POP SWAP2 SWAP1 POP JUMP JUMPDEST PUSH0 PUSH1 0x20 DUP3 ADD SWAP1 POP DUP2 DUP2 SUB PUSH0 DUP4 ADD MSTORE PUSH2 0x3EA9 DUP2 PUSH2 0x3E70 JUMP JUMPDEST SWAP1 POP SWAP2 SWAP1 POP JUMP JUMPDEST PUSH32 0x557365726E616D6520616C72656164792074616B656E00000000000000000000 PUSH0 DUP3 ADD MSTORE POP JUMP JUMPDEST PUSH0 PUSH2 0x3EE4 PUSH1 0x16 DUP4 PUSH2 0x3927 JUMP JUMPDEST SWAP2 POP PUSH2 0x3EEF DUP3 PUSH2 0x3EB0 JUMP JUMPDEST PUSH1 0x20 DUP3 ADD SWAP1 POP SWAP2 SWAP1 POP JUMP JUMPDEST PUSH0 PUSH1 0x20 DUP3 ADD SWAP1 POP DUP2 DUP2 SUB PUSH0 DUP4 ADD MSTORE PUSH2 0x3F11 DUP2 PUSH2 0x3ED8 JUMP JUMPDEST SWAP1 POP SWAP2 SWAP1 POP JUMP JUMPDEST PUSH32 0x557365726E616D6520746F6F206C6F6E67000000000000000000000000000000 PUSH0 DUP3 ADD MSTORE POP JUMP JUMPDEST PUSH0 PUSH2 0x3F4C PUSH1 0x11 DUP4 PUSH2 0x3927 JUMP JUMPDEST SWAP2 POP PUSH2 0x3F57 DUP3 PUSH2 0x3F18 JUMP JUMPDEST PUSH1 0x20 DUP3 ADD SWAP1 POP SWAP2 SWAP1 POP JUMP JUMPDEST PUSH0 PUSH1 0x20 DUP3 ADD SWAP1 POP DUP2 DUP2 SUB PUSH0 DUP4 ADD MSTORE PUSH2 0x3F79 DUP2 PUSH2 0x3F40 JUMP JUMPDEST SWAP1 POP SWAP2 SWAP1 POP JUMP JUMPDEST PUSH0 DUP2 SWAP1 POP SWAP2 SWAP1 POP JUMP JUMPDEST PUSH2 0x3F9A PUSH2 0x3F95 DUP3 PUSH2 0x3419 JUMP JUMPDEST PUSH2 0x3F80 JUMP JUMPDEST DUP3 MSTORE POP POP JUMP JUMPDEST PUSH0 PUSH2 0x3FAB DUP3 DUP5 PUSH2 0x3F89 JUMP JUMPDEST PUSH1 0x20 DUP3 ADD SWAP2 POP DUP2 SWAP1 POP SWAP3 SWAP2 POP POP JUMP JUMPDEST PUSH0 DUP2 SWAP1 POP DUP2 PUSH0 MSTORE PUSH1 0x20 PUSH0 KECCAK256 SWAP1 POP SWAP2 SWAP1 POP JUMP JUMPDEST PUSH0 PUSH1 0x20 PUSH1 0x1F DUP4 ADD DIV SWAP1 POP SWAP2 SWAP1 POP JUMP JUMPDEST PUSH0 PUSH1 0x8 DUP4 MUL PUSH2 0x400A PUSH32 0xFFFFFFFFFFFFFFFFFFFFFFFFFFFFFFFFFFFFFFFFFFFFFFFFFFFFFFFFFFFFFFFF DUP3 PUSH2 0x3BF8 JUMP JUMPDEST PUSH2 0x4014 DUP7 DUP4 PUSH2 0x3BF8 JUMP JUMPDEST SWAP6 POP DUP1 NOT DUP5 AND SWAP4 POP DUP1 DUP7 AND DUP5 OR SWAP3 POP POP POP SWAP4 SWAP3 POP POP POP JUMP JUMPDEST PUSH0 DUP2 SWAP1 POP SWAP2 SWAP1 POP JUMP JUMPDEST PUSH0 PUSH2 0x404F PUSH2 0x404A PUSH2 0x4045 DUP5 PUSH2 0x3232 JUMP JUMPDEST PUSH2 0x402C JUMP JUMPDEST PUSH2 0x3232 JUMP JUMPDEST SWAP1 POP SWAP2 SWAP1 POP JUMP JUMPDEST PUSH0 DUP2 SWAP1 POP SWAP2 SWAP1 POP JUMP JUMPDEST PUSH2 0x4068 DUP4 PUSH2 0x4035 JUMP JUMPDEST PUSH2 0x407C PUSH2 0x4074 DUP3 PUSH2 0x4056 JUMP JUMPDEST DUP5 DUP5 SLOAD PUSH2 0x3FDB JUMP JUMPDEST DUP3 SSTORE POP POP POP POP JUMP JUMPDEST PUSH0 PUSH0 SWAP1 POP SWAP1 JUMP JUMPDEST PUSH2 0x4093 PUSH2 0x4084 JUMP JUMPDEST PUSH2 0x409E DUP2 DUP5 DUP5 PUSH2 0x405F JUMP JUMPDEST POP POP POP JUMP JUMPDEST JUMPDEST DUP2 DUP2 LT ISZERO PUSH2 0x40C1 JUMPI PUSH2 0x40B6 PUSH0 DUP3 PUSH2 0x408B JUMP JUMPDEST PUSH1 0x1 DUP2 ADD SWAP1 POP PUSH2 0x40A4 JUMP JUMPDEST POP POP JUMP JUMPDEST PUSH1 0x1F DUP3 GT ISZERO PUSH2 0x4106 JUMPI PUSH2 0x40D7 DUP2 PUSH2 0x3FBA JUMP JUMPDEST PUSH2 0x40E0 DUP5 PUSH2 0x3FCC JUMP JUMPDEST DUP2 ADD PUSH1 0x20 DUP6 LT ISZERO PUSH2 0x40EF JUMPI DUP2 SWAP1 POP JUMPDEST PUSH2 0x4103 PUSH2 0x40FB DUP6 PUSH2 0x3FCC JUMP JUMPDEST DUP4 ADD DUP3 PUSH2 0x40A3 JUMP JUMPDEST POP POP JUMPDEST POP POP POP JUMP JUMPDEST PUSH0 DUP3 DUP3 SHR SWAP1 POP SWAP3 SWAP2 POP POP JUMP JUMPDEST PUSH0 PUSH2 0x4126 PUSH0 NOT DUP5 PUSH1 0x8 MUL PUSH2 0x410B JUMP JUMPDEST NOT DUP1 DUP4 AND SWAP2 POP POP SWAP3 SWAP2 POP POP JUMP JUMPDEST PUSH0 PUSH2 0x413E DUP4 DUP4 PUSH2 0x4117 JUMP JUMPDEST SWAP2 POP DUP3 PUSH1 0x2 MUL DUP3 OR SWAP1 POP SWAP3 SWAP2 POP POP JUMP JUMPDEST PUSH2 0x4157 DUP3 PUSH2 0x363D JUMP JUMPDEST PUSH8 0xFFFFFFFFFFFFFFFF DUP2 GT ISZERO PUSH2 0x4170 JUMPI PUSH2 0x416F PUSH2 0x32AE JUMP JUMPDEST JUMPDEST PUSH2 0x417A DUP3 SLOAD PUSH2 0x3B62 JUMP JUMPDEST PUSH2 0x4185 DUP3 DUP3 DUP6 PUSH2 0x40C5 JUMP JUMPDEST PUSH0 PUSH1 0x20 SWAP1 POP PUSH1 0x1F DUP4 GT PUSH1 0x1 DUP2 EQ PUSH2 0x41B6 JUMPI PUSH0 DUP5 ISZERO PUSH2 0x41A4 JUMPI DUP3 DUP8 ADD MLOAD SWAP1 POP JUMPDEST PUSH2 0x41AE DUP6 DUP3 PUSH2 0x4133 JUMP JUMPDEST DUP7 SSTORE POP PUSH2 0x4215 JUMP JUMPDEST PUSH1 0x1F NOT DUP5 AND PUSH2 0x41C4 DUP7 PUSH2 0x3FBA JUMP JUMPDEST PUSH0 JUMPDEST DUP3 DUP2 LT ISZERO PUSH2 0x41EB JUMPI DUP5 DUP10 ADD MLOAD DUP3 SSTORE PUSH1 0x1 DUP3 ADD SWAP2 POP PUSH1 0x20 DUP6 ADD SWAP5 POP PUSH1 0x20 DUP2 ADD SWAP1 POP PUSH2 0x41C6 JUMP JUMPDEST DUP7 DUP4 LT ISZERO PUSH2 0x4208 JUMPI DUP5 DUP10 ADD MLOAD PUSH2 0x4204 PUSH1 0x1F DUP10 AND DUP3 PUSH2 0x4117 JUMP JUMPDEST DUP4 SSTORE POP JUMPDEST PUSH1 0x1 PUSH1 0x2 DUP9 MUL ADD DUP9 SSTORE POP POP POP JUMPDEST POP POP POP POP POP POP JUMP JUMPDEST PUSH0 PUSH1 0x40 DUP3 ADD SWAP1 POP DUP2 DUP2 SUB PUSH0 DUP4 ADD MSTORE PUSH2 0x4235 DUP2 DUP6 PUSH2 0x3937 JUMP JUMPDEST SWAP1 POP PUSH2 0x4244 PUSH1 0x20 DUP4 ADD DUP5 PUSH2 0x323B JUMP JUMPDEST SWAP4 SWAP3 POP POP POP JUMP JUMPDEST PUSH32 0x546F6B656E206E6F7420737570706F7274656400000000000000000000000000 PUSH0 DUP3 ADD MSTORE POP JUMP JUMPDEST PUSH0 PUSH2 0x427F PUSH1 0x13 DUP4 PUSH2 0x3927 JUMP JUMPDEST SWAP2 POP PUSH2 0x428A DUP3 PUSH2 0x424B JUMP JUMPDEST PUSH1 0x20 DUP3 ADD SWAP1 POP SWAP2 SWAP1 POP JUMP JUMPDEST PUSH0 PUSH1 0x20 DUP3 ADD SWAP1 POP DUP2 DUP2 SUB PUSH0 DUP4 ADD MSTORE PUSH2 0x42AC DUP2 PUSH2 0x4273 JUMP JUMPDEST SWAP1 POP SWAP2 SWAP1 POP JUMP JUMPDEST PUSH32 0x416D6F756E74206D7573742062652067726561746572207468616E2030000000 PUSH0 DUP3 ADD MSTORE POP JUMP JUMPDEST PUSH0 PUSH2 0x42E7 PUSH1 0x1D DUP4 PUSH2 0x3927 JUMP JUMPDEST SWAP2 POP PUSH2 0x42F2 DUP3 PUSH2 0x42B3 JUMP JUMPDEST PUSH1 0x20 DUP3 ADD SWAP1 POP SWAP2 SWAP1 POP JUMP JUMPDEST PUSH0 PUSH1 0x20 DUP3 ADD SWAP1 POP DUP2 DUP2 SUB PUSH0 DUP4 ADD MSTORE PUSH2 0x4314 DUP2 PUSH2 0x42DB JUMP JUMPDEST SWAP1 POP SWAP2 SWAP1 POP JUMP JUMPDEST PUSH32 0x496E73756666696369656E7420616C6C6F77616E63652E2043757272656E743A PUSH0 DUP3 ADD MSTORE PUSH32 0x2000000000000000000000000000000000000000000000000000000000000000 PUSH1 0x20 DUP3 ADD MSTORE POP JUMP JUMPDEST PUSH0 PUSH2 0x4375 PUSH1 0x21 DUP4 PUSH2 0x3CDC JUMP JUMPDEST SWAP2 POP PUSH2 0x4380 DUP3 PUSH2 0x431B JUMP JUMPDEST PUSH1 0x21 DUP3 ADD SWAP1 POP SWAP2 SWAP1 POP JUMP JUMPDEST PUSH32 0x2C2052657175697265643A200000000000000000000000000000000000000000 PUSH0 DUP3 ADD MSTORE POP JUMP JUMPDEST PUSH0 PUSH2 0x43BF PUSH1 0xC DUP4 PUSH2 0x3CDC JUMP JUMPDEST SWAP2 POP PUSH2 0x43CA DUP3 PUSH2 0x438B JUMP JUMPDEST PUSH1 0xC DUP3 ADD SWAP1 POP SWAP2 SWAP1 POP JUMP JUMPDEST PUSH0 PUSH2 0x43DF DUP3 PUSH2 0x4369 JUMP JUMPDEST SWAP2 POP PUSH2 0x43EB DUP3 DUP6 PUSH2 0x3CE6 JUMP JUMPDEST SWAP2 POP PUSH2 0x43F6 DUP3 PUSH2 0x43B3 JUMP JUMPDEST SWAP2 POP PUSH2 0x4402 DUP3 DUP5 PUSH2 0x3CE6 JUMP JUMPDEST SWAP2 POP DUP2 SWAP1 POP SWAP4 SWAP3 POP POP POP JUMP JUMPDEST PUSH0 PUSH1 0x20 DUP3 ADD SWAP1 POP DUP2 DUP2 SUB PUSH0 DUP4 ADD MSTORE PUSH2 0x4426 DUP2 DUP5 PUSH2 0x3937 JUMP JUMPDEST SWAP1 POP SWAP3 SWAP2 POP POP JUMP JUMPDEST PUSH32 0x496E73756666696369656E7420746F6B656E2062616C616E63652E2043757272 PUSH0 DUP3 ADD MSTORE PUSH32 0x656E743A20000000000000000000000000000000000000000000000000000000 PUSH1 0x20 DUP3 ADD MSTORE POP JUMP JUMPDEST PUSH0 PUSH2 0x4488 PUSH1 0x25 DUP4 PUSH2 0x3CDC JUMP JUMPDEST SWAP2 POP PUSH2 0x4493 DUP3 PUSH2 0x442E JUMP JUMPDEST PUSH1 0x25 DUP3 ADD SWAP1 POP SWAP2 SWAP1 POP JUMP JUMPDEST PUSH0 PUSH2 0x44A8 DUP3 PUSH2 0x447C JUMP JUMPDEST SWAP2 POP PUSH2 0x44B4 DUP3 DUP6 PUSH2 0x3CE6 JUMP JUMPDEST SWAP2 POP PUSH2 0x44BF DUP3 PUSH2 0x43B3 JUMP JUMPDEST SWAP2 POP PUSH2 0x44CB DUP3 DUP5 PUSH2 0x3CE6 JUMP JUMPDEST SWAP2 POP DUP2 SWAP1 POP SWAP4 SWAP3 POP POP POP JUMP JUMPDEST PUSH0 PUSH1 0x60 DUP3 ADD SWAP1 POP PUSH2 0x44EA PUSH0 DUP4 ADD DUP7 PUSH2 0x3883 JUMP JUMPDEST PUSH2 0x44F7 PUSH1 0x20 DUP4 ADD DUP6 PUSH2 0x3883 JUMP JUMPDEST PUSH2 0x4504 PUSH1 0x40 DUP4 ADD DUP5 PUSH2 0x323B JUMP JUMPDEST SWAP5 SWAP4 POP POP POP POP JUMP JUMPDEST PUSH2 0x4515 DUP2 PUSH2 0x3263 JUMP JUMPDEST DUP2 EQ PUSH2 0x451F JUMPI PUSH0 PUSH0 REVERT JUMPDEST POP JUMP JUMPDEST PUSH0 DUP2 MLOAD SWAP1 POP PUSH2 0x4530 DUP2 PUSH2 0x450C JUMP JUMPDEST SWAP3 SWAP2 POP POP JUMP JUMPDEST PUSH0 PUSH1 0x20 DUP3 DUP5 SUB SLT ISZERO PUSH2 0x454B JUMPI PUSH2 0x454A PUSH2 0x31A5 JUMP JUMPDEST JUMPDEST PUSH0 PUSH2 0x4558 DUP5 DUP3 DUP6 ADD PUSH2 0x4522 JUMP JUMPDEST SWAP2 POP POP SWAP3 SWAP2 POP POP JUMP JUMPDEST PUSH32 0x5472616E73666572206661696C65640000000000000000000000000000000000 PUSH0 DUP3 ADD MSTORE POP JUMP JUMPDEST PUSH0 PUSH2 0x4595 PUSH1 0xF DUP4 PUSH2 0x3927 JUMP JUMPDEST SWAP2 POP PUSH2 0x45A0 DUP3 PUSH2 0x4561 JUMP JUMPDEST PUSH1 0x20 DUP3 ADD SWAP1 POP SWAP2 SWAP1 POP JUMP JUMPDEST PUSH0 PUSH1 0x20 DUP3 ADD SWAP1 POP DUP2 DUP2 SUB PUSH0 DUP4 ADD MSTORE PUSH2 0x45C2 DUP2 PUSH2 0x4589 JUMP JUMPDEST SWAP1 POP SWAP2 SWAP1 POP JUMP JUMPDEST PUSH32 0x4E487B7100000000000000000000000000000000000000000000000000000000 PUSH0 MSTORE PUSH1 0x11 PUSH1 0x4 MSTORE PUSH1 0x24 PUSH0 REVERT JUMPDEST PUSH0 PUSH2 0x4600 DUP3 PUSH2 0x3232 JUMP JUMPDEST SWAP2 POP PUSH2 0x460B DUP4 PUSH2 0x3232 JUMP JUMPDEST SWAP3 POP DUP3 DUP3 ADD SWAP1 POP DUP1 DUP3 GT ISZERO PUSH2 0x4623 JUMPI PUSH2 0x4622 PUSH2 0x45C9 JUMP JUMPDEST JUMPDEST SWAP3 SWAP2 POP POP JUMP JUMPDEST PUSH0 PUSH2 0x4633 DUP3 PUSH2 0x3232 JUMP JUMPDEST SWAP2 POP PUSH32 0xFFFFFFFFFFFFFFFFFFFFFFFFFFFFFFFFFFFFFFFFFFFFFFFFFFFFFFFFFFFFFFFF DUP3 SUB PUSH2 0x4665 JUMPI PUSH2 0x4664 PUSH2 0x45C9 JUMP JUMPDEST JUMPDEST PUSH1 0x1 DUP3 ADD SWAP1 POP SWAP2 SWAP1 POP JUMP JUMPDEST PUSH0 PUSH1 0x40 DUP3 ADD SWAP1 POP PUSH2 0x4683 PUSH0 DUP4 ADD DUP6 PUSH2 0x323B JUMP JUMPDEST PUSH2 0x4690 PUSH1 0x20 DUP4 ADD DUP5 PUSH2 0x323B JUMP JUMPDEST SWAP4 SWAP3 POP POP POP JUMP JUMPDEST PUSH32 0x4F6E6C79206F776E65722063616E2063616C6C20746869732066756E6374696F PUSH0 DUP3 ADD MSTORE PUSH32 0x6E00000000000000000000000000000000000000000000000000000000000000 PUSH1 0x20 DUP3 ADD MSTORE POP JUMP JUMPDEST PUSH0 PUSH2 0x46F1 PUSH1 0x21 DUP4 PUSH2 0x3927 JUMP JUMPDEST SWAP2 POP PUSH2 0x46FC DUP3 PUSH2 0x4697 JUMP JUMPDEST PUSH1 0x40 DUP3 ADD SWAP1 POP SWAP2 SWAP1 POP JUMP JUMPDEST PUSH0 PUSH1 0x20 DUP3 ADD SWAP1 POP DUP2 DUP2 SUB PUSH0 DUP4 ADD MSTORE PUSH2 0x471E DUP2 PUSH2 0x46E5 JUMP JUMPDEST SWAP1 POP SWAP2 SWAP1 POP JUMP JUMPDEST PUSH32 0x546F6B656E20616C726561647920737570706F72746564000000000000000000 PUSH0 DUP3 ADD MSTORE POP JUMP JUMPDEST PUSH0 PUSH2 0x4759 PUSH1 0x17 DUP4 PUSH2 0x3927 JUMP JUMPDEST SWAP2 POP PUSH2 0x4764 DUP3 PUSH2 0x4725 JUMP JUMPDEST PUSH1 0x20 DUP3 ADD SWAP1 POP SWAP2 SWAP1 POP JUMP JUMPDEST PUSH0 PUSH1 0x20 DUP3 ADD SWAP1 POP DUP2 DUP2 SUB PUSH0 DUP4 ADD MSTORE PUSH2 0x4786 DUP2 PUSH2 0x474D JUMP JUMPDEST SWAP1 POP SWAP2 SWAP1 POP JUMP JUMPDEST PUSH32 0x496E76616C696420746F6B656E20616464726573730000000000000000000000 PUSH0 DUP3 ADD MSTORE POP JUMP JUMPDEST PUSH0 PUSH2 0x47C1 PUSH1 0x15 DUP4 PUSH2 0x3927 JUMP JUMPDEST SWAP2 POP PUSH2 0x47CC DUP3 PUSH2 0x478D JUMP JUMPDEST PUSH1 0x20 DUP3 ADD SWAP1 POP SWAP2 SWAP1 POP JUMP JUMPDEST PUSH0 PUSH1 0x20 DUP3 ADD SWAP1 POP DUP2 DUP2 SUB PUSH0 DUP4 ADD MSTORE PUSH2 0x47EE DUP2 PUSH2 0x47B5 JUMP JUMPDEST SWAP1 POP SWAP2 SWAP1 POP JUMP JUMPDEST PUSH0 PUSH2 0x47FF DUP3 PUSH2 0x3232 JUMP JUMPDEST SWAP2 POP PUSH2 0x480A DUP4 PUSH2 0x3232 JUMP JUMPDEST SWAP3 POP DUP3 DUP3 SUB SWAP1 POP DUP2 DUP2 GT ISZERO PUSH2 0x4822 JUMPI PUSH2 0x4821 PUSH2 0x45C9 JUMP JUMPDEST JUMPDEST SWAP3 SWAP2 POP POP JUMP JUMPDEST PUSH32 0x4E487B7100000000000000000000000000000000000000000000000000000000 PUSH0 MSTORE PUSH1 0x32 PUSH1 0x4 MSTORE PUSH1 0x24 PUSH0 REVERT JUMPDEST PUSH0 PUSH2 0x485F DUP3 PUSH2 0x3232 JUMP JUMPDEST SWAP2 POP PUSH0 DUP3 SUB PUSH2 0x4871 JUMPI PUSH2 0x4870 PUSH2 0x45C9 JUMP JUMPDEST JUMPDEST PUSH1 0x1 DUP3 SUB SWAP1 POP SWAP2 SWAP1 POP JUMP JUMPDEST PUSH32 0x4E487B7100000000000000000000000000000000000000000000000000000000 PUSH0 MSTORE PUSH1 0x31 PUSH1 0x4 MSTORE PUSH1 0x24 PUSH0 REVERT JUMPDEST PUSH0 PUSH2 0x48B3 DUP3 PUSH2 0x39CE JUMP JUMPDEST SWAP2 POP PUSH2 0x48BE DUP4 PUSH2 0x39CE JUMP JUMPDEST SWAP3 POP DUP3 DUP3 SUB SWAP1 POP DUP2 DUP2 SLT PUSH0 DUP5 SLT AND DUP3 DUP3 SGT PUSH0 DUP6 SLT ISZERO AND OR ISZERO PUSH2 0x48E3 JUMPI PUSH2 0x48E2 PUSH2 0x45C9 JUMP JUMPDEST JUMPDEST SWAP3 SWAP2 POP POP JUMP JUMPDEST PUSH32 0x496E73756666696369656E742062616C616E6365000000000000000000000000 PUSH0 DUP3 ADD MSTORE POP JUMP JUMPDEST PUSH0 PUSH2 0x491D PUSH1 0x14 DUP4 PUSH2 0x3927 JUMP JUMPDEST SWAP2 POP PUSH2 0x4928 DUP3 PUSH2 0x48E9 JUMP JUMPDEST PUSH1 0x20 DUP3 ADD SWAP1 POP SWAP2 SWAP1 POP JUMP JUMPDEST PUSH0 PUSH1 0x20 DUP3 ADD SWAP1 POP DUP2 DUP2 SUB PUSH0 DUP4 ADD MSTORE PUSH2 0x494A DUP2 PUSH2 0x4911 JUMP JUMPDEST SWAP1 POP SWAP2 SWAP1 POP JUMP JUMPDEST PUSH0 PUSH1 0x40 DUP3 ADD SWAP1 POP PUSH2 0x4964 PUSH0 DUP4 ADD DUP6 PUSH2 0x3883 JUMP JUMPDEST PUSH2 0x4971 PUSH1 0x20 DUP4 ADD DUP5 PUSH2 0x323B JUMP JUMPDEST SWAP4 SWAP3 POP POP POP JUMP JUMPDEST PUSH32 0x5265656E7472616E637947756172643A207265656E7472616E742063616C6C00 PUSH0 DUP3 ADD MSTORE POP JUMP JUMPDEST PUSH0 PUSH2 0x49AC PUSH1 0x1F DUP4 PUSH2 0x3927 JUMP JUMPDEST SWAP2 POP PUSH2 0x49B7 DUP3 PUSH2 0x4978 JUMP JUMPDEST PUSH1 0x20 DUP3 ADD SWAP1 POP SWAP2 SWAP1 POP JUMP JUMPDEST PUSH0 PUSH1 0x20 DUP3 ADD SWAP1 POP DUP2 DUP2 SUB PUSH0 DUP4 ADD MSTORE PUSH2 0x49D9 DUP2 PUSH2 0x49A0 JUMP JUMPDEST SWAP1 POP SWAP2 SWAP1 POP JUMP JUMPDEST PUSH32 0x4E487B7100000000000000000000000000000000000000000000000000000000 PUSH0 MSTORE PUSH1 0x12 PUSH1 0x4 MSTORE PUSH1 0x24 PUSH0 REVERT JUMPDEST PUSH0 PUSH2 0x4A17 DUP3 PUSH2 0x3232 JUMP JUMPDEST SWAP2 POP PUSH2 0x4A22 DUP4 PUSH2 0x3232 JUMP JUMPDEST SWAP3 POP DUP3 PUSH2 0x4A32 JUMPI PUSH2 0x4A31 PUSH2 0x49E0 JUMP JUMPDEST JUMPDEST DUP3 DUP3 DIV SWAP1 POP SWAP3 SWAP2 POP POP JUMP JUMPDEST PUSH0 PUSH2 0x4A47 DUP3 PUSH2 0x3232 JUMP JUMPDEST SWAP2 POP PUSH2 0x4A52 DUP4 PUSH2 0x3232 JUMP JUMPDEST SWAP3 POP DUP3 DUP3 MUL PUSH2 0x4A60 DUP2 PUSH2 0x3232 JUMP JUMPDEST SWAP2 POP DUP3 DUP3 DIV DUP5 EQ DUP4 ISZERO OR PUSH2 0x4A77 JUMPI PUSH2 0x4A76 PUSH2 0x45C9 JUMP JUMPDEST JUMPDEST POP SWAP3 SWAP2 POP POP JUMP JUMPDEST PUSH0 PUSH1 0xFF DUP3 AND SWAP1 POP SWAP2 SWAP1 POP JUMP JUMPDEST PUSH0 PUSH2 0x4A94 DUP3 PUSH2 0x4A7E JUMP JUMPDEST SWAP2 POP PUSH2 0x4A9F DUP4 PUSH2 0x4A7E JUMP JUMPDEST SWAP3 POP DUP3 DUP3 ADD SWAP1 POP PUSH1 0xFF DUP2 GT ISZERO PUSH2 0x4AB8 JUMPI PUSH2 0x4AB7 PUSH2 0x45C9 JUMP JUMPDEST JUMPDEST SWAP3 SWAP2 POP POP JUMP INVALID LOG2 PUSH5 0x6970667358 0x22 SLT KECCAK256 0xD7 0xE2 DUP9 PUSH25 0x9BA91E8EA4C26A2A47CE3E689FD3506FDFC5887656D4F062E0 0xF7 PUSH15 0x9964736F6C634300081E0033000000 "
				},
				"gasEstimates": {
					"creation": {
						"codeDepositCost": "3837600",
						"executionCost": "50730",
						"totalCost": "3888330"
					},
					"external": {
						"addSupportedToken(address)": "79448",
						"calculateProfitability(address,address)": "infinite",
						"checkAllowance(address)": "infinite",
						"checkContractTokenBalance(address)": "infinite",
						"checkTokenBalance(address)": "infinite",
						"deposit(address,uint256)": "infinite",
						"getPortfolioValue(address)": "infinite",
						"getSupportedTokens()": "infinite",
						"getTokenBalance(address,address)": "infinite",
						"getUserInfo(address)": "infinite",
						"getUserTokens(address)": "infinite",
						"getUserTransactions(address,uint256)": "infinite",
						"hashPassword(string)": "infinite",
						"isLoggedIn(address)": "2958",
						"isTokenSupported(address)": "2922",
						"isUserActive(address)": "2945",
						"isUserRegistered(address)": "2945",
						"login(string)": "infinite",
						"logout()": "28350",
						"owner()": "2576",
						"register(string,string)": "infinite",
						"removeSupportedToken(address)": "infinite",
						"supportedTokens(uint256)": "5011",
						"transactionCount()": "2492",
						"transactions(uint256)": "infinite",
						"userInitialInvestments(address,address)": "infinite",
						"userTokenBalances(address,address)": "infinite",
						"userTokens(address,uint256)": "infinite",
						"usernameTaken(string)": "infinite",
						"users(address)": "infinite",
						"withdraw(address,uint256)": "infinite"
					},
					"internal": {
						"uint2str(uint256)": "infinite"
					}
				},
				"methodIdentifiers": {
					"addSupportedToken(address)": "6d69fcaf",
					"calculateProfitability(address,address)": "c0dbf558",
					"checkAllowance(address)": "1a197a26",
					"checkContractTokenBalance(address)": "c30719bf",
					"checkTokenBalance(address)": "126cbe60",
					"deposit(address,uint256)": "47e7ef24",
					"getPortfolioValue(address)": "8c81e4d1",
					"getSupportedTokens()": "d3c7c2c7",
					"getTokenBalance(address,address)": "c489744b",
					"getUserInfo(address)": "6386c1c7",
					"getUserTokens(address)": "519dc8d2",
					"getUserTransactions(address,uint256)": "7380626b",
					"hashPassword(string)": "3f75a07d",
					"isLoggedIn(address)": "f44a8bef",
					"isTokenSupported(address)": "75151b63",
					"isUserActive(address)": "9ee20b15",
					"isUserRegistered(address)": "163f7522",
					"login(string)": "3a7d280c",
					"logout()": "1f3c99c3",
					"owner()": "8da5cb5b",
					"register(string,string)": "3ffbd47f",
					"removeSupportedToken(address)": "76319190",
					"supportedTokens(uint256)": "c6255626",
					"transactionCount()": "b77bf600",
					"transactions(uint256)": "9ace38c2",
					"userInitialInvestments(address,address)": "e7041f13",
					"userTokenBalances(address,address)": "45f2d105",
					"userTokens(address,uint256)": "f9f411d8",
					"usernameTaken(string)": "f26e818a",
					"users(address)": "a87430ba",
					"withdraw(address,uint256)": "f3fef3a3"
				}
			},
			"storageLayout": {
				"storage": [
					{
						"astId": 10,
						"contract": "contracts/AssetManagement.sol:AssetManagementPlatform",
						"label": "_status",
						"offset": 0,
						"slot": "0",
						"type": "t_uint256"
					},
					{
						"astId": 150,
						"contract": "contracts/AssetManagement.sol:AssetManagementPlatform",
						"label": "owner",
						"offset": 0,
						"slot": "1",
						"type": "t_address"
					},
					{
						"astId": 185,
						"contract": "contracts/AssetManagement.sol:AssetManagementPlatform",
						"label": "userTokenBalances",
						"offset": 0,
						"slot": "2",
						"type": "t_mapping(t_address,t_mapping(t_address,t_uint256))"
					},
					{
						"astId": 191,
						"contract": "contracts/AssetManagement.sol:AssetManagementPlatform",
						"label": "userInitialInvestments",
						"offset": 0,
						"slot": "3",
						"type": "t_mapping(t_address,t_mapping(t_address,t_uint256))"
					},
					{
						"astId": 196,
						"contract": "contracts/AssetManagement.sol:AssetManagementPlatform",
						"label": "userTokens",
						"offset": 0,
						"slot": "4",
						"type": "t_mapping(t_address,t_array(t_address)dyn_storage)"
					},
					{
						"astId": 201,
						"contract": "contracts/AssetManagement.sol:AssetManagementPlatform",
						"label": "transactions",
						"offset": 0,
						"slot": "5",
						"type": "t_mapping(t_uint256,t_struct(Transaction)168_storage)"
					},
					{
						"astId": 206,
						"contract": "contracts/AssetManagement.sol:AssetManagementPlatform",
						"label": "users",
						"offset": 0,
						"slot": "6",
						"type": "t_mapping(t_address,t_struct(User)179_storage)"
					},
					{
						"astId": 210,
						"contract": "contracts/AssetManagement.sol:AssetManagementPlatform",
						"label": "usernameTaken",
						"offset": 0,
						"slot": "7",
						"type": "t_mapping(t_string_memory_ptr,t_bool)"
					},
					{
						"astId": 214,
						"contract": "contracts/AssetManagement.sol:AssetManagementPlatform",
						"label": "isUserActive",
						"offset": 0,
						"slot": "8",
						"type": "t_mapping(t_address,t_bool)"
					},
					{
						"astId": 216,
						"contract": "contracts/AssetManagement.sol:AssetManagementPlatform",
						"label": "transactionCount",
						"offset": 0,
						"slot": "9",
						"type": "t_uint256"
					},
					{
						"astId": 219,
						"contract": "contracts/AssetManagement.sol:AssetManagementPlatform",
						"label": "supportedTokens",
						"offset": 0,
						"slot": "10",
						"type": "t_array(t_address)dyn_storage"
					},
					{
						"astId": 223,
						"contract": "contracts/AssetManagement.sol:AssetManagementPlatform",
						"label": "isTokenSupported",
						"offset": 0,
						"slot": "11",
						"type": "t_mapping(t_address,t_bool)"
					}
				],
				"types": {
					"t_address": {
						"encoding": "inplace",
						"label": "address",
						"numberOfBytes": "20"
					},
					"t_array(t_address)dyn_storage": {
						"base": "t_address",
						"encoding": "dynamic_array",
						"label": "address[]",
						"numberOfBytes": "32"
					},
					"t_bool": {
						"encoding": "inplace",
						"label": "bool",
						"numberOfBytes": "1"
					},
					"t_mapping(t_address,t_array(t_address)dyn_storage)": {
						"encoding": "mapping",
						"key": "t_address",
						"label": "mapping(address => address[])",
						"numberOfBytes": "32",
						"value": "t_array(t_address)dyn_storage"
					},
					"t_mapping(t_address,t_bool)": {
						"encoding": "mapping",
						"key": "t_address",
						"label": "mapping(address => bool)",
						"numberOfBytes": "32",
						"value": "t_bool"
					},
					"t_mapping(t_address,t_mapping(t_address,t_uint256))": {
						"encoding": "mapping",
						"key": "t_address",
						"label": "mapping(address => mapping(address => uint256))",
						"numberOfBytes": "32",
						"value": "t_mapping(t_address,t_uint256)"
					},
					"t_mapping(t_address,t_struct(User)179_storage)": {
						"encoding": "mapping",
						"key": "t_address",
						"label": "mapping(address => struct AssetManagementPlatform.User)",
						"numberOfBytes": "32",
						"value": "t_struct(User)179_storage"
					},
					"t_mapping(t_address,t_uint256)": {
						"encoding": "mapping",
						"key": "t_address",
						"label": "mapping(address => uint256)",
						"numberOfBytes": "32",
						"value": "t_uint256"
					},
					"t_mapping(t_string_memory_ptr,t_bool)": {
						"encoding": "mapping",
						"key": "t_string_memory_ptr",
						"label": "mapping(string => bool)",
						"numberOfBytes": "32",
						"value": "t_bool"
					},
					"t_mapping(t_uint256,t_struct(Transaction)168_storage)": {
						"encoding": "mapping",
						"key": "t_uint256",
						"label": "mapping(uint256 => struct AssetManagementPlatform.Transaction)",
						"numberOfBytes": "32",
						"value": "t_struct(Transaction)168_storage"
					},
					"t_string_memory_ptr": {
						"encoding": "bytes",
						"label": "string",
						"numberOfBytes": "32"
					},
					"t_string_storage": {
						"encoding": "bytes",
						"label": "string",
						"numberOfBytes": "32"
					},
					"t_struct(Transaction)168_storage": {
						"encoding": "inplace",
						"label": "struct AssetManagementPlatform.Transaction",
						"members": [
							{
								"astId": 159,
								"contract": "contracts/AssetManagement.sol:AssetManagementPlatform",
								"label": "user",
								"offset": 0,
								"slot": "0",
								"type": "t_address"
							},
							{
								"astId": 161,
								"contract": "contracts/AssetManagement.sol:AssetManagementPlatform",
								"label": "token",
								"offset": 0,
								"slot": "1",
								"type": "t_address"
							},
							{
								"astId": 163,
								"contract": "contracts/AssetManagement.sol:AssetManagementPlatform",
								"label": "amount",
								"offset": 0,
								"slot": "2",
								"type": "t_uint256"
							},
							{
								"astId": 165,
								"contract": "contracts/AssetManagement.sol:AssetManagementPlatform",
								"label": "isDeposit",
								"offset": 0,
								"slot": "3",
								"type": "t_bool"
							},
							{
								"astId": 167,
								"contract": "contracts/AssetManagement.sol:AssetManagementPlatform",
								"label": "timestamp",
								"offset": 0,
								"slot": "4",
								"type": "t_uint256"
							}
						],
						"numberOfBytes": "160"
					},
					"t_struct(User)179_storage": {
						"encoding": "inplace",
						"label": "struct AssetManagementPlatform.User",
						"members": [
							{
								"astId": 170,
								"contract": "contracts/AssetManagement.sol:AssetManagementPlatform",
								"label": "username",
								"offset": 0,
								"slot": "0",
								"type": "t_string_storage"
							},
							{
								"astId": 172,
								"contract": "contracts/AssetManagement.sol:AssetManagementPlatform",
								"label": "passwordHash",
								"offset": 0,
								"slot": "1",
								"type": "t_string_storage"
							},
							{
								"astId": 174,
								"contract": "contracts/AssetManagement.sol:AssetManagementPlatform",
								"label": "isRegistered",
								"offset": 0,
								"slot": "2",
								"type": "t_bool"
							},
							{
								"astId": 176,
								"contract": "contracts/AssetManagement.sol:AssetManagementPlatform",
								"label": "registrationDate",
								"offset": 0,
								"slot": "3",
								"type": "t_uint256"
							},
							{
								"astId": 178,
								"contract": "contracts/AssetManagement.sol:AssetManagementPlatform",
								"label": "lastLogin",
								"offset": 0,
								"slot": "4",
								"type": "t_uint256"
							}
						],
						"numberOfBytes": "160"
					},
					"t_uint256": {
						"encoding": "inplace",
						"label": "uint256",
						"numberOfBytes": "32"
					}
				}
			},
			"userdoc": {
				"kind": "user",
				"methods": {},
				"version": 1
			}
		}
	}
}